:020000040800F2
:10000000407B0220650300086D0300086F030008B1
:100010007103000873030008750300080000000066
:100020000000000000000000000000009D02000829
:100030007903000800000000F1020008956800083C
:100040007F0300087F0300087F0300087F03000888
:100050007F0300087F0300087F0300087F03000878
:100060007F0300087F0300087F0300087F03000868
:100070007F0300087F0300087F0300087F03000858
:100080007F0300087F0300087F0300087F03000848
:100090007F0300087F0300087F0300087F03000838
:1000A0007F0300087F0300087F0300087F03000828
:1000B000856900087F0300087F0300087F030008AC
:1000C0007F0300087F0300087F0300087F03000808
:1000D0007F0300087F0300087F0300087F030008F8
:1000E0007F0300087F0300087F0300087F030008E8
:1000F0007F0300087F0300087F0300087F030008D8
:100100007F0300087F0300087F0300087F030008C7
:100110007F0300087F0300087F0300087F030008B7
:100120007F0300087F0300087F0300087F030008A7
:100130007F0300087F0300087F0300087F03000897
:100140007F0300087F0300087F030008896600081A
:100150007F0300087F0300087F0300087F03000877
:100160007F0300087F0300087F0300087F03000867
:100170007F0300087F0300087F03000800000000E1
:100180007F0300087F0300087F0300087F03000847
:100190007F0300087F0300087F0300087F03000837
:1001A000316100087F0300087F03000800F002F8B7
:1001B00000F064F80AA090E8000C82448344AAF19D
:1001C0000107DA4501D100F059F8AFF2090EBAE89B
:1001D0000F0013F0010F18BFFB1A43F0010318477B
:1001E00010050200300502000A444FF0000C10F820
:1001F000013B13F0070408BF10F8014B1D1108BFA5
:1002000010F8015B641E05D010F8016B641E01F844
:10021000016BF9D113F0080F1EBF10F8014BAD1C94
:100220000C1B09D16D1E58BF01F801CBFAD505E0B2
:1002300014F8016B01F8016B6D1EF9D59142D6D30C
:10024000704700000023002400250026103A28BF34
:1002500078C1FBD8520728BF30C148BF0B60704738
:10026000642900F01181732900F0BD8200207047DD
:100270001FB50CF01BF81FBD10B510BD00F01BFB27
:100280001146FFF7F5FF0AF06DFB00F039FB03B4F0
:10029000FFF7F2FF03BC00F039FB0000294B19689F
:1002A0000868B0E8F04F80F30988BFF36F8F4FF014
:1002B000000080F3118870470000000006480068C5
:1002C000006880F3088862B661B6BFF34F8FBFF352
:1002D0006F8F00DF00BF00BF08ED00E0DFF80C000B
:1002E000016841F470010160704700BF88ED00E0D3
:1002F000EFF30980BFF36F8F124B1A681EF0100FD7
:1003000008BF20ED108A20E9F04F106008B44FF0CC
:10031000500080F311880BF015F84FF0000080F3C7
:10032000118808BC19680868B0E8F04F1EF0100F7B
:1003300008BFB0EC108A80F30988BFF36F8F704755
:1003400000BF00BF30000020EFF311804FF05001DC
:1003500081F31188704780F311887047EFF30580AF
:10036000704700000948804709480047FEE7FEE75C
:10037000FEE7FEE7FEE7FEE7FEE7FEE7FEE7FEE755
:1003800004480549054A064B7047000031690008DA
:10039000AD01000840750220407B0220407702201A
:1003A000407702200FB41CB5074B06AA7B44694670
:1003B0000090059800F0EDF90020694600F0FCF986
:1003C0001CBC5DF814FB0000090400002DE9F0419D
:1003D0000E460446002020622046E168884730B37C
:1003E000252805D0D4E901219047206A401CF2E776
:1003F000E168204600278847050018D0A5F1410094
:10040000192802D820354FF4006732462946204685
:100410002760FFF725FF40B1012804D0F61D26F024
:1004200007060836D8E7361DD6E72846DAE7206AF9
:10043000BDE8F08170B50C460546012A05D0287844
:10044000800600D5EA69002302E0012305E05B1C79
:10045000934202D2E05C0028F9D1A869E618C01ADC
:10046000A861286A184428622846AFF3008004E097
:10047000D5E9012114F8010B9047B442F8D328467E
:10048000AFF3008070BD00002DE9F0410646002466
:1004900010687529314616A510D0AFF300800028EA
:1004A00002DA404213A507E031688A0701D512A598
:1004B00002E0490704D511A5012401E0AFF3008053
:1004C00000210A2206F1240709E0B0FBF2FCB0FB90
:1004D000F2F302FB1C00303078541846491C002807
:1004E000F3D123462A463046BDE8F04100F0F3B888
:1004F000000000002D0000002B0000002000000084
:10050000032A40F2308010F0030C00F0158011F83F
:10051000013BBCF1020F624498BF11F801CB00F817
:10052000013B38BF11F8013BA2F1040298BF00F86B
:1005300001CB38BF00F8013B11F0030300F06780E6
:10054000083AC0F0088051F8043B083A51F804CB4F
:10055000A0E80810F5E7121D5CBF51F8043B40F815
:10056000043BAFF30080D20724BF11F8013B11F820
:1005700001CB48BF11F8012B24BF00F8013B00F864
:1005800001CB48BF00F8012B7047431A28BF9A429D
:100590007FF6B6AF032A1044114440F2268010F0D3
:1005A000030F1EBF11F8013D521E00F8013D10F06F
:1005B000030F7FF4F6AF11F0030300F02B81083A2C
:1005C000C0F00B8051F8043D083A51F804CD40F8D2
:1005D000043D40F804CDFFF7F3BF121D5CBF51F896
:1005E000043D40F8043DAFF30080D20724BF11F86A
:1005F000013D11F801CD48BF11F8012C24BF00F8CE
:10060000013D00F801CD48BF00F8012C704710B53E
:10061000203AC0F00B80B1E81850203AA0E81850FA
:10062000B1E81850A0E81850BFF4F5AF5FEA027CBB
:1006300024BFB1E81850A0E8185044BF18C918C02A
:10064000BDE810405FEA827C24BF51F8043B40F8CB
:10065000043B08BF7047D20728BF31F8023B48BFB0
:1006600011F8012B28BF20F8023B48BF00F8012BEE
:10067000704702F0FF0343EA032242EA024200F01D
:10068000F5B84FF0000200B513469446964620395F
:1006900022BFA0E80C50A0E80C50B1F12001BFF43B
:1006A000F7AF090728BFA0E80C5048BF0CC05DF8A1
:1006B00004EB890028BF40F8042B08BF704748BFEF
:1006C00020F8022B11F0804F18BF00F8012B704763
:1006D0007047704770472DE9F0470D46994692469E
:1006E000044600F124080168880604D5E06921F079
:1006F0001001216000E00120A84201DD471B00E05D
:100700000027A1697A1902EB0900081AA061207874
:10071000C00602D42046AFF30080002608E0D4E9EA
:1007200001211AF806009047206A401C761C2062BE
:100730004E45F4DB2078C0060AD52046AFF3008092
:1007400006E0D4E9012130209047206A401C206255
:10075000381EA7F10107F4DC07E0D4E9012118F8FD
:1007600005009047206A401C2062281EA5F1010563
:10077000F3DC2046AFF300802078000602D502208B
:10078000BDE8F0870120FBE701694A1C0261087897
:10079000704700B58FB0CDE90131002105910549C1
:1007A0007944CDE9031011466846FFF70FFE0FB0FC
:1007B00000BD0000E5FFFFFF0A6802F8010B0A60B8
:1007C000704710B5436913B1AFF3008001E0FFF744
:1007D00031FE012010BD127800F124010A700022C0
:1007E0004A700122EDE711684FF0FF32E9E7431A42
:1007F00028BF9A427FF60BAF104410F0030F11444C
:100800001EBF11F8013D521E00F8013D10F0030F0C
:100810007FF4F6AF103AC0F00A8010B531E91850F5
:10082000103A20E91850BFF4F9AFBDE81040530763
:1008300024BF31E9081020E9081044BF51F8043DF5
:1008400040F8043D12F0030F08BF7047D20728BFDD
:1008500031F8023D48BF11F8012C28BF20F8023DB5
:1008600048BF00F8012C70474FF000020429C0F087
:10087000128010F0030C3FF406AFCCF1040CBCF175
:10088000020F18BF00F8012BA8BF20F8022BA1EB24
:100890000C01FFF7F8BE5FEAC17C24BF00F8012B12
:1008A00000F8012B48BF00F8012B70470048704743
:1008B000E074022070477546FFF7F8FFAE4605006A
:1008C0006946534620F00700854618B020B5FFF76B
:1008D00057FDBDE820404FF000064FF000074FF0F5
:1008E00000084FF0000B21F00701AC46ACE8C0094E
:1008F000ACE8C009ACE8C009ACE8C0098D46704757
:100900000446AFF300802046FFF7C1FC01491820E0
:10091000ABBEFEE7260002007CB55820114D8DF8D5
:10092000040000264FF400642146284602F01AFC19
:100930000028F9D02146284602F014FC0028F9D1FD
:10094000012101A800F058F80321684600F04CF896
:100950009DF800009DF80110304401EB002080B2AA
:100960007CBD0000000802403EB512A004210068D2
:10097000009011A00068019010A0006802906846E5
:1009800000F03AF8042102A800F036F80C4C4FF4BD
:1009900000652946204602F0E5FB0028F9D1042134
:1009A00001A800F029F82946204602F0DBFB0028C8
:1009B000F9D13EBD1000020008A402800884028024
:1009C000000802401CB506A1D1E90001CDE90001F3
:1009D0000521684600F010F8012002F075FA1CBDF0
:1009E000FFFFFFFFFF0000000A4601460123014808
:1009F00004F056B83C6D02200A4601460123014826
:100A000004F036B93C6D02201CB507A00421006833
:100A1000009006A00068019001A8FFF7EDFF0421F7
:100A20006846FFF7E9FF1CBD080400011000020042
:100A30004A4910B5D1F8042322F44032C1F8042306
:100A4000D1F8042343681A43C1F8042301684A68B3
:100A500022F480724A6001684A68036942EA03220C
:100A60004A6001684A6822F040724A6001684A6838
:100A700083681A434A6001688A6822F400628A60C7
:100A800001688A68C3681A438A60C16A6FF070623D
:100A9000D14201688A6822F070628A6001688A68BF
:100AA0000CD0C36A1A438A6001688A6822F04052F7
:100AB0008A6001688A68036B1A4301E022F04052A1
:100AC0008A6001688A6822F002028A6001688A6886
:100AD000836942EA43028A60416A002901684A68E0
:100AE00015D042F400624A6001684A6822F460420C
:100AF0004A6001684B684FF46044826A94FAA4F437
:100B0000B4FA84F4521EA24013434B6002E022F474
:100B100000624A600168CA6A22F47002CA6201680F
:100B2000CA6A038C0E4C04EB03531A43CA62016871
:100B30008A6822F400728A6001688A68C36942EA9E
:100B400043228A6001688A6822F480628A600168B0
:100B50008A68406942EA8020886010BD0020014018
:100B60000000F0FFC2B24FF40041014802F0FFBAAA
:100B7000001C0240C2B20821014802F0F8BA00008D
:100B8000002002402DE9FE4F9A46DDE90C49174648
:100B9000884606460E9D02F035F81049C6EBC6039E
:100BA00051F8232001EB83018B6800FB0322C86806
:100BB000496907FB008303FB012205EBD571C4EBF8
:100BC0006101001BCDF80090CDE90110234651468C
:100BD000304600F08FF8BDE8FE8F0000C8670220A5
:100BE00010B54FF4FA7009F0E7FD012000F09EF80F
:100BF0004FF4FA6002F068F905F032FE012005F0CA
:100C0000D7FD01229102034802F0B1FABDE810407D
:100C100001F004B800180240FEB514460D46064621
:100C200001F0F0FF0A4FC6EBC60357F8232000FB84
:100C3000052100FB042207EB830500202B69CDE989
:100C4000003002903046EB6800F054F8AC60FEBD16
:100C5000C86702202DE9FE4F9846DDE90C94164640
:100C60000F460546DDF838A001F0CCFF02461148DA
:100C7000C5EBC50150F821C000EB81004168C36895
:100C800002FB01C106FB03774669406807FB0611BA
:100C900002FB00C709FB038000FB0672181B00263D
:100CA000CDF800A0CDE901062346284600F022F841
:100CB000BDE8FE8FC867022038B5010A8DF8001024
:100CC0000A4D8DF801004FF4806400222146284629
:100CD00002F04DFAC82302226946054803F0C8FF16
:100CE00001222146284602F042FA38BD001802408F
:100CF000EC6D0220F0B50C48DDE905574FF4007C9F
:100D0000079E0124C0F800C0C160C2630761066489
:100D1000C46163F31F454564016841F0010101604E
:100D20000168C907FCD1F0BD00B00240C2B2042185
:100D3000014802F01CBA00000010024030B5D1E9B1
:100D400001231A43D1E903352B431A434B690C683D
:100D50001A438B691A43D1E90735012C496A0468A3
:100D60006FF30E0405D01A432A430A43224302605C
:100D700008E02B4321430B43416803606FF30E01EE
:100D80000A434260002030BD426942EA41014161AC
:100D900000207047F8B514460546D1E9000210431B
:100DA0008A686FF01F03C96803EB421242EA4121CF
:100DB00008430090286102F0DFF90646A869800622
:100DC0000BD5601C07D024B102F0D6F9801BA042DD
:100DD00001D90320F8BD0120F8BD0020F8BDF0B511
:100DE0006FF00F05D1E9003405EB04145B1E2E01F2
:100DF00023438C682F0306EB04244FEA054C23435E
:100E00000D8A8E8ACC68097E4FF07F4E07EB054530
:100E10000CEB06560EEB0161012A0CD082683F11E3
:100E200007EB043423432B43334302F070420B435C
:100E3000134383600FE0C2682B430B4302F0704200
:100E40008168134301F070422103A1F580513143C1
:100E50001143C36081600020F0BD00002DE9F04324
:100E60000446C56887B090468946002001F046F9DF
:100E7000064625B1287910B146F0020001E026F0BF
:100E8000020001F03BF92069012558B1D4E90212B2
:100E90008DE8260003956388228804684146484609
:100EA000A0471EE0124F134B214638681B68427C56
:100EB000E068984730B9E088012801D0002001E0BF
:100EC0003868806BA288E388A1680095CDE904109A
:100ED000CDE902320195638822884146484604F0F4
:100EE00009FB07B03046BDE8F04301F007B9000048
:100EF00080010020780100202DE9F04FDFF828B1B3
:100F000091B04FF0FF35DBF80030B3F922100691B5
:100F1000DE69B3F92490F469A189814206D8E28997
:100F2000824203D3471AD4F8008012E0D4E9018149
:100F300000296FD00A8882426CD84D88854269D3D7
:100F4000801A82B2486800EB8200B0F90070B0F9F4
:100F50000250781C5ED0307EA17C10FB01FA217C0F
:100F6000CDE90701B3F92A60304604F039FFC0B279
:100F70000E90DBF8000007FB0A81A37C826B01273F
:100F8000CDE90412CDE90273C069089AC17E807E62
:100F9000CDE90001DDE90603494604F0ABFA681C1F
:100FA00018D046F0020004F01BFFDBF80000A37C21
:100FB00005FB0A81826BCDE90273CDE90412C06999
:100FC000089AC17E807ECDE90001DDE9060349462D
:100FD00004F090FADBF800005D46C069417E007EB7
:100FE000814214D9022E12D086F0040004F0F8FEDB
:100FF0002868C069027EC37E12FB0391437E857E12
:10100000089A06984B4412FB050204F0D5FB0E9893
:1010100004F0E6FEDBF80000627C418C1144418460
:1010200011B0BDE8F08F0000800100200448006886
:10103000C069C06909B1027C0A60407C7047000049
:1010400080010020022008807047C06982898A429E
:1010500002D8C2898A4210D2806880B102888A424E
:101060000DD843888B420AD3406800EB8100A0EB87
:101070008200B0F90000002801DB01207047002049
:1010800070470000F0B5254C054687B0206829461A
:10109000B0F92A60C069C06900F04BF900283AD065
:1010A00041680088281A01EBC0053046AF7804F08B
:1010B00097FE06461A48D0F800C0BCF1000F15D0C4
:1010C00000216868CDE904010422012001A90090F3
:1010D00081E885002068DCF800702A78C1690B7E01
:1010E000B0F92410B0F92200B8470CE06868CDE9E7
:1010F000007020682A78C1690B7EB0F92410B0F91D
:10110000220000F067F9304604F06AFE20686A7831
:10111000418C1144418407B0F0BD000080010020E3
:10112000AC01002070B505460B480C462946006806
:10113000C069C06900F0FDF800280BD04168008844
:101140002A1A012000EBC200002C085C02D011F822
:101150003210216070BD0000800100201120088045
:10116000704710B5C06900F0E4F8002800D00120F5
:1011700010BD00002DE9F043304C034687B02068D5
:101180001946B0F92A60C069C06900F0D2F8002899
:1011900050D041680088181A01EBC0053046AF787E
:1011A00004F01EFE814620686A680123816BCDE948
:1011B0000237CDE90421C169CB7E8A7ECDE90023C7
:1011C0000B7EB0F924102A78B0F9220004F092F9CD
:1011D0002068C069417E027E91421FD9C07E11FB0A
:1011E00000F812FB00F7022E18D000F0B1FC064602
:1011F00000F07CFC00F071FF21682A78CB69B1F91E
:101200002200DB7E12FB0302B1F9241001EB08037C
:10121000394404F0D1FA304600F05FFF484604F04C
:10122000DFFD20686A78C369B0F922109B7E12FB4B
:101230000311418407B0BDE8F08300008001002065
:101240002DE9F3411C4E0F46002530682C46C0693D
:10125000417EC07E11FB00F81DE0684600F0AAFF49
:10126000054630682946C069C06900F029F890B188
:1012700041680088281A00EB400001EB800090F9DB
:101280000210007908443168C969897E10FB01F0B9
:10129000002800DD04447F1EDFD51DB1284601F083
:1012A0006BFB04444146204607F074F803490120D3
:1012B0000870BDE8FC81000080010020E0010020F2
:1012C00006E002888A4202D842888A4202D28068B6
:1012D0000028F6D17047000030B50F4C05460B468C
:1012E00020682946C069C06900F023F8002812D0A0
:1012F0004168008824682A1A0120E46900EBC200D2
:10130000085CA47E10FB04F0002B04D011F832100E
:1013100011FB04F1196030BD80010020012008801C
:10132000704700B5C06900F004F8002800D0012023
:1013300000BD06E002888A4202D842888A4202D270
:1013400080680028F6D1704770B500250F4C19E071
:1013500020690F49C5EB051600EBC600702209682D
:10136000001DFFF754F92069002140F8361000EB0A
:10137000C60000F10C018161011D0A1DC0E90F12B8
:101380006D1C4164A0688542E2DB70BDE80100206D
:101390008001002070B50E490C480860084601F035
:1013A00003FC0B4C143CA068C0EB0010C5002846A1
:1013B00000F07EF82A460021206101F0FDFB4FF08D
:1013C000FF302060BDE8704000F066BF39A0000823
:1013D000FC0100207CB5084EDDE906543668367CF9
:1013E000CDE90054B60702D407F0B0FE7CBD034C33
:1013F0002468A0477CBD0000800100203C01002043
:1014000010B5040009D000F03DFC204606F062FF54
:10141000044600F023FF204610BD002010BD38B563
:10142000054600F02FFC2846FFF7EAFF040009D02C
:1014300000F096F82A460021009001F0BDFB6846B6
:1014400000F09CF800F00AFF204638BD024A106008
:1014500021F0030050607047AC73022010B5040007
:1014600016D000F00FFC0B48006B10F8341059B187
:10147000022909D2042101EBC4014158486806F051
:10148000EDFE204608F03AFEBDE8104000F0E6BE52
:1014900010BD0000F0720220002805D0034A916BB5
:1014A000016001B14860906370470000F072022053
:1014B0002DE9F041044608F0DDFC2848E41C24F046
:1014C0000305C16B2D1DA94200D90D46846B13E0A5
:1014D00054F8042CAA420ED184B1216809B1626883
:1014E0004A60616809B122680A60826BA24231D108
:1014F000216881632EE02468002CE9D18046416B8D
:1015000080680F1857F8040C3E1A306838B1002074
:1015100008F022FE57F8040C3E1A3068D0B9706803
:10152000A84217DB3044441B3046241D08F0FAFD66
:10153000D8F80810491BC8F80810D8F8101029442A
:10154000C8F810107068401B02D0314606F086FEC5
:1015500044F8045C2046BDE8F0810000F0720220EF
:1015600005498A69521C8A61096B01EBC0010A783E
:10157000521C0A7000F01AB8F07202200A49026880
:101580000B6B52F8082C03EBC2021378022B03D327
:101590008B690BB15B1E8B611178491E11700021A4
:1015A0000160084670470000F0720220002806D053
:1015B0000349042202EBC000096B08580830704749
:1015C000F0720220F0B52D271C68B0F1004F08D052
:1015D000002600280DDA651C1D602770404201249A
:1015E00008E0651C01261D606FF000402770491E51
:1015F00001E00024091BC9B22AB3491EC9B222E086
:101600000C46491EC9B2944205D1124C27781C6879
:10161000651C1D602770104C54F8215090FBF5F4A8
:10162000E4B20A2C11D804FB150011B90EB1641CE8
:10163000E4B20A2C02D10124491CC9B21D686F1CF6
:1016400030341F602C700029DAD11968002008702E
:10165000F0BD000074010020F4FD010810B5C2B215
:10166000CBB2D21A00D5524293B25B43C0F30722E9
:10167000C1F30724121B00D55242000C92B2A0EB1A
:10168000114002FB023200B2002801DA404200B2EF
:1016900080B200FB002010BD10B50021084600F00C
:1016A000ABFA43F6FF725042BDE8104013460146C4
:1016B000AFF300802DE9FC411C4615460E46074657
:1016C00000F0E0FA042004F08BFB80461248C0686A
:1016D000C16C006D0F4406440D440444ADF8007025
:1016E000ADF80450ADF80260ADF80640684606F06B
:1016F0003FFC07E023462A463146384604F05CF8B2
:1017000006F0F8FB0028F5D1404604F069FB00F034
:10171000A5FDBDE8FC810000740100202DE9F04129
:101720001C4616460D460746022B02DB0020BDE88C
:10173000F0811C20FFF7BCFE0028F8D00DB1056138
:101740000AE0094A52F8241009B905E011460A686E
:10175000002AFBD109690161846186820021016050
:101760004160C0E90217E2E79801002070B51D460C
:10177000FFF7D4FF040009D000F00EF8E06800681D
:1017800020B90348006800EB85008465204670BDE1
:1017900080010020FFF780BE70B590B38269022AF5
:1017A00030DA1E4C54F8221019B944F8220032E005
:1017B00019464B68002BFBD106E0CB68C5681B6857
:1017C0002D68AB4203DD09680029F6D11AE0C1B1EA
:1017D000CB68C6681B683668B3420CD1838A012B7C
:1017E00005D008E01946DB681B68AB4203DB0B68D9
:1017F000002BF7D129B14B6833B118604A684260B9
:1018000004E0FFE7012070BD44F8220048608842F0
:1018100000D100210160002070BD0000980100206F
:1018200010B503E00468FFF7B7FF20460028F9D1A0
:1018300010BD08F043BF00002DE9F0410026DFF89D
:1018400034800D4F354600BF58F8254009E0E06868
:101850000068385C20B1204608F030FF266026463C
:101860002468002CF3D16D1C022DEDDB3046BDE861
:10187000F08100009801002058E10108022801DBF6
:1018800000207047054951F8200004E0C16809684C
:101890000029F6D000680028F8D170479801002090
:1018A0007FB51E4614460D46CDF80CD003AB002282
:1018B0003146FFF787FE22462946684600F086F843
:1018C0007FBD00002DE9FC4706005FD000F0DAF98B
:1018D00000F04AF93C4C81462068B0F9228000F0C3
:1018E00065F9216807468A8CD01B888441E000BFD7
:1018F00047F6FF71304601F023F882460146304634
:1019000000F0F4FF2168054691F82C0000F0030078
:10191000012841D002283BD000204A8C101A48846C
:10192000ADF800006A1E1044ADF80400888CADF8D4
:101930000200A9F101010844ADF806006A465146CB
:10194000304600F0A3FD2168BDF8020088845146AE
:10195000304600F045FC064430780A281ED00D2899
:101960001CD0BDF80000216828444884307818B1A4
:10197000761C30780028BBD12068818C3944818462
:10198000818D21F00301818500F068FCBDE8FC87B2
:1019900005EBD5704010C0E72846BEE7206890F8F8
:1019A0002C1001F0030101290BD0022909D0018C70
:1019B000418431780A29D9D1828C02EB09018184D2
:1019C000D4E7A0F82280F4E78001002070B5144627
:1019D0000D46064600F056F90548006845848484A3
:1019E0003046FFF76FFFBDE8704000F037BC0000E5
:1019F000800100202DE9F04107460A4815460E46B1
:101A00000068B0F92C0040F0020000F0B3FB04467F
:101A10002A4631463846FFF7D9FF2046BDE8F04157
:101A200000F0A8BB800100202DE9FC4114460D46C2
:101A3000064600F027F9114F3968C86C096D054456
:101A400004440E44ADF80050ADF80440ADF8026017
:101A5000ADF80660684606F08BFA08E03868224662
:101A60003146406E03682846984706F043FA00283E
:101A7000F4D100F0F3FBBDE8FC8100008001002000
:101A80002DE9FC411C4615460E46074600F0FAF8C3
:101A900010480068C16C006D0F4406440D440444B6
:101AA000ADF80070ADF80450ADF80260ADF8064036
:101AB000684606F05DFA07E023462A463146384676
:101AC00003F07AFE06F016FA0028F5D100F0C6FB06
:101AD000BDE8FC8180010020034951F82000C16865
:101AE0008A6A0821104700009801002010B500F014
:101AF000C9F803F091FE03F053FF044600F0AEFB7B
:101B0000204610BD10B5044600F0BCF80548002181
:101B10000068C069426820469047044600F09EFB7A
:101B2000204610BD8001002070B50C46054600F02F
:101B3000A9F8064821460068C069426828469047CF
:101B4000044600F08BFB204670BD000080010020A1
:101B500010B500F097F803F067FE03F021FF04468C
:101B600000F07CFB204610BD10B500F08BF8044857
:101B70000068C069447E00F071FB204610BD000083
:101B80008001002070B514460D46064600F07AF834
:101B900022462946304603F0B9FE10B100202860E5
:101BA0002060BDE8704000F059BB000010B5002473
:101BB00000F068F80B48006890F82C1001F00C0158
:101BC000042904D0082906D00C2907D103E0C069F4
:101BD000047E641E02E0C069007E440800F03EFB03
:101BE000204610BD80010020024951F82000006904
:101BF000406870479801002070B50D46044600F01B
:101C000041F8204608F0B8F80446284608F0BCF829
:101C1000044300F023FB204670BD0000134810B5BC
:101C2000016821F001010160114801218160114921
:101C3000016000681049884200D0FEE700F00AFC0D
:101C40000E492E20087000F026FB0D4808F0DAF847
:101C500008F020FE04460021084600F06BFA05F06B
:101C6000B7FFFFF771FB204610BD0000002000E029
:101C700000300240C2A507F4CDB5E8B574010020DC
:101C8000B873022070B5214CE06820B100F001FB70
:101C90006168884204D000F011FB00F0FAFA60603D
:101CA000E068401CE06001282AD100250BE000BF5D
:101CB00000F0EFFA2269C5EB051152F831108142AC
:101CC00005D0F1B16D1CA0688542F1DB00252068CC
:101CD000854215D0002812DBFFF7AEFD2168C1EB6D
:101CE0000112216901EBC2025067C5EB0510084AD9
:101CF00001EBC000011D1160406FFFF791FD2560F1
:101D000070BDC5EB051142F83100E0E7E8010020A5
:101D10008001002038B504001CD0FFF7B3FF0E4847
:101D20000068006EA04201D100F0A6F92046FFF73E
:101D300017FC0090406908B100F07AFA009800683A
:101D4000FFF728FD6846FFF719FC2046FFF786FBE2
:101D500000F084FA38BD00008001002038B5044648
:101D6000FFF790FF2046FFF7FBFB00F118040090FF
:101D70006846FFF703FC00F071FA204638BD00000A
:101D80002DE9F74F8EB0144689460E98FFF7E8FB11
:101D90000990B0F908B0B0F90A60006800694068BD
:101DA0000C9009A8FFF7EAFB564D574F2868407C76
:101DB00057F82000C1688A6A0821904707901828C0
:101DC00001D3202007902868407C57F82000006944
:101DD000069003C80B904D48814201D0012000E0DD
:101DE00000200A90002000F077FA00287DD12868B2
:101DF00009EB0B01B0F90C20891A491E002902DDFC
:101E0000ABEB010500E05D46B0F90810494505DD82
:101E1000A1EB090189446D1A089101E000210891A4
:101E2000002D6BDDB0F90E20A119891A491E002979
:101E300002DDA6EB010800E0B046B0F90A00A042BE
:101E400004DD061B3444A8EB060800E00026B8F1C8
:101E5000000F53DD089801900DA95F46DDF830A012
:101E60000E980091FFF77AFF774300EB8701019806
:101E70002B4601EB800200994846CDE900A121469E
:101E800000F05CFB0090002838D00A98E8B1DDE94A
:101E900006322946009800F02AFAB0B90698009F49
:101EA000DA46D0F810C0BCF1000F05D004235A4622
:101EB00039463846E04708E00B993868884701C73B
:101EC000AAF101005FEA000AF6D100990020079A02
:101ED000CDE90301059001200090CDE901022146E2
:101EE0000346641C2A46484600E007E003F002FB74
:101EF000A8F10100761C5FEA0008ABD111B0BDE883
:101F0000F08F00008001002098010020BF590008D8
:101F1000014602480068407C00F002B880010020C1
:101F2000044A126802B10020002900DC0121024AA3
:101F300011547047B4010020A8010020094A12681A
:101F400002B10020074A1C3252F82030002B07DB78
:101F5000A2F1180343F820104FF0FF3142F820108F
:101F600070470000B401002010B5002821D009B34B
:101F70000AB3B1F90040B2F900309C4200DA2346BE
:101F80000380B1F90240B2F902309C4200DA2346E4
:101F90004380B1F90440B2F904309C4200DD23468D
:101FA0008380B1F90610B2F90620914200DC114697
:101FB000C18010BD11460A6802604968416010BDC9
:101FC00000280BD003880B44038083881944818048
:101FD000418811444180C1881144C180704700008C
:101FE0002DE9FC41154DDDE908742D68B5F908604F
:101FF000864200DD3046B5F90C60964200DA324682
:10200000824219DBB5F90A608E4200DD3146B5F92E
:102010000E509D4200DA2B468B420DDB00E02C4631
:10202000E5682D6825B1042D02D02568002DF6D174
:10203000CDE9007403F088FDBDE8FC81800100203B
:10204000B0F90220B1F906309A4213DCB1F902204E
:10205000B0F906309A420DDCB0F90020B1F9043035
:102060009A4207DCB1F90010B0F90400814201DCAA
:10207000012070470020704710B5FFF703FE03F002
:102080002FFE03F04DFF05F065FCBDE8104000F0A9
:10209000E5B8000070B5094D04462868467CFFF796
:1020A000F1FD022C03D228684474FFF7E5FF0448D1
:1020B000046000F0D3F8304670BD000080010020BD
:1020C0002402002010B50446FFF7DCFD204603F093
:1020D00027FEBDE8104000F0C1B810B50446FFF778
:1020E000D1FD204603F054FEBDE8104000F0B6B824
:1020F00001498860704700007401002010B5044653
:10210000FFF7C0FD204603F06BFE044600F0A6F882
:10211000204610BD70B50446FFF7B4FD04480068C2
:10212000C56904B1C46100F099F8284670BD00008B
:102130008001002070B50C460546FFF7A3FD094855
:10214000224605800848048008480068417C084809
:1021500050F82100C1680B6A29469847BDE87040D5
:1021600000F07CB8B0010020B20100208001002006
:102170009801002070B50446FFF784FD044800680C
:10218000B0F92C50848500F069F8284670BD000035
:102190008001002002480068002800D000477047F6
:1021A000C802002002498A6802B98860FFF7F2BFBE
:1021B000BC0200202DE9F041084E04460568306855
:1021C000016828468847074630684168284688479E
:1021D000284420603846BDE8F081000084010020DA
:1021E0002DE9F0410C4606460025064F05E038680B
:1021F00041683046884706440544641EF7D22846A5
:10220000BDE8F081840100202DE9F0411E46069CC6
:102210001746884605463A46A8687F1C3346D0F8DC
:1022200004C041462846E047641EF4D1BDE8F08171
:1022300038B50546FFF726FD2846FFF791F90090CF
:102240008189491E0CB284816846FFF797F914B959
:102250002846FFF703F900F001F838BD0348C168CC
:10226000491EC16001D100F031B87047E80100207B
:1022700010B54FF400310448FFF7E8F8BDE810400E
:102280000248FFF735BF0000C8670020D0FD0108F5
:10229000704708F072BC70477CB500246846009413
:1022A00008F0D6FB044D0121286001A8019408F034
:1022B00027FC68607CBD00007800002002484FF0D9
:1022C000FF31006808F0ECBB78000020014800688E
:1022D00008F0C2BB780000200EB508B102AA00E0E9
:1022E0000022002301A9684600F0B2FA0EBD2DE9D4
:1022F000F0411E680D460446082A09DC0746012AFB
:102300001AD0022A5BD0042A7DD0082A13D18DE08E
:10231000102A07DCD3F810C00746BCF1000F04D028
:10232000022389E00020BDE8F08101CCB04727F806
:10233000020B6D1EF9D18AE001CCB047C0074FEA0D
:1023400010686D1E36D001CCB04748EA801000F00E
:10235000FF086D1E2ED001CCB04748EA401000F0B7
:10236000FF086D1E26D001CCB04748EA001000F0EF
:10237000FF086D1E1ED001CCB04748EAC00000F037
:10238000FF086D1E16D001CCB04748EA800000F06F
:10239000FF086D1E0ED001CCB04748EA400000F0A7
:1023A000FF086D1E06D001CCB04740EA080000F0DF
:1023B000FF086D1E07F8018B002DBDD147E001CC51
:1023C000B04780074FEA10686D1E16D001CCB047A9
:1023D00048EA001000F0FF086D1E0ED001CCB04797
:1023E00048EA800000F0FF086D1E06D001CCB0471F
:1023F00040EA080000F0FF086D1E07F8018B002D71
:10240000DDD124E0FFE701CCB04700074FEA1068B8
:102410006D1E06D001CCB04740EA080000F0FF086E
:102420006D1E07F8018B002DEDD110E0D3F810C020
:10243000BCF1000F05D001230A4601463846E047AB
:1024400005E001CCB04707F8010B6D1EF9D1012062
:1024500069E700000B4810B58169002910D10121FE
:102460008161FFF705FFFEF795FF03F06BFD05495E
:1024700005481C310860BDE81040084600F094BBD8
:1024800010BD0000740100200DA000087CB50646B8
:1024900028480D46006868B1002005F069FD06E097
:1024A0006A462946304606F035F805F023FD002837
:1024B000F6D17CBD106800901F4C506801902268D6
:1024C000BDF8000032F84C1F0844ADF80000BDF81C
:1024D000020091880844ADF80200BDF8040011889C
:1024E0000844ADF80400BDF8060091880844ADF832
:1024F0000600684605F03CFD0EE000BF2068BDF810
:1025000000106A464184BDF8021081842946304695
:1025100006F000F805F0EEFC0028EFD1206830F856
:10252000221F428D891A01804188C28D891A4180FB
:102530007CBD0000AC010020800100202DE9FF4F90
:102540008DB00020DDF86CA0164600901D460446B4
:102550000246CAF8000008AB03A902A800F078F907
:1025600018B1002011B0BDE8F08F0898854200DD59
:102570000546614F0B9561493868407C51F8201041
:10258000049109690691FFF7A7FA05903868407C25
:10259000FFF72AFB5A498146884204D059498945A8
:1025A00001D0012000E000200A9001CE1A9988474E
:1025B0008346000E079077D0009870BB0D9800EB13
:1025C00004084D480068B0F90800404503DDA0EB61
:1025D0000807804600E000270298049900EB840079
:1025E00000EB8700CDE900010B990D984218099284
:1025F0000E9B40461946521EFFF7F2FC0120009048
:10260000059818280ADA0298DDE9052300EB840012
:1026100000EB8700E91B00F079F812E00A9880B11E
:10262000029800EB840000EB87070998A0EB0808EC
:1026300049463868884701C7A8F101005FEA0008E9
:10264000F6D13148C06980B3DDE9020700EB8400B0
:1026500007EB8402CDE902022B4C361F3046E469B9
:102660002B460299A047FF213068B1EB106F02D1D1
:102670000298006804E0029A1268B1EB126F01D16F
:10268000039A1060029806F10406001D0290039858
:10269000001D03906D1EE7D10397DAF8000040F0AB
:1026A0000101CAF8001020E021E0FFE70798FF28A9
:1026B00011D0C0F1FF02029850F82410584600F0E3
:1026C00019FA039941F82400DAF8000040F00101FA
:1026D000CAF8001005E00298039950F8240041F868
:1026E0002400641C6D1E7FF460AF03983AE70399E1
:1026F00041F824B0E8E700008001002098010020A4
:10270000BF590008BD5900087C0200202DE9F05F88
:102710000C1E16DD5E68014600EB8405082A12DCFB
:10272000611E012A26D0022A47D0042A6AD0082A2C
:1027300007D1071917F8010DB04745F8040D641EBD
:10274000F8D1BDE8F09F102AFBDC5F693FB122465B
:10275000BC46BDE8F04F02235DF804EB604701EB97
:10276000440700BF37F8020DB04745F8040D641E5A
:10277000F8D1E6E700EBE10001F0070710F801A946
:102780008146802020FA07F8B5F104050AEA08001E
:10279000C7F10701C840B04745F804093FB14FEA07
:1027A00048604FEA10687F1E641EEFD1C9E719F830
:1027B00001A907274FF00108F6E700EBA10001F09F
:1027C000030710F801A981467900C02020FA01F81A
:1027D0004FF0060BB5F104050AEA0800ABEB470120
:1027E000C840B04745F804093FB14FEA88604FEA56
:1027F00010687F1E641EEFD1A3E7032719F801A913
:10280000B846F7E700EB6100012710F801A9A743DC
:102810008146B900F02020FA01F84FF0040B2D1F7B
:102820000AEA0800ABEB8701C840B04745F8040945
:102830003FB14FEA08704FEA10687F1E641EEFD167
:102840007FE719F801A901274FF00F08F6E700000C
:102850002DE9F047224C06461F46A069904689465E
:10286000002540B90120A06104F120011D48086045
:10287000084600F099F9606930B91B48006860614A
:1028800010B903F064F8606107B138604EB1A06818
:1028900030B960698000FEF70BFEA06000B9012529
:1028A0003060B9F1000F0AD0E06830B9606980008B
:1028B000FEF7FEFDE06000B90125C9F80000B8F19F
:1028C000000F0AD0206930B960698000FEF7F0FD82
:1028D000206100B90125C8F800002846BDE8F0874E
:1028E0007C02002095A00008A401002073B5124AC4
:1028F00001A900981268904700240090C8B10F49C0
:1029000000250968C969496959B10A684AB101993C
:1029100090477CBD6846FFF74DFC0546FFF7F2F88F
:1029200004440198401E0190F4D5284600F024F894
:10293000044420467CBD0000B80200208001002035
:1029400073B50D460098002490B10A490968C96919
:10295000496959B14A684AB1294690477CBD6846E1
:10296000FFF728FC20B10A2802D0641CAC42F6DB39
:1029700020467CBD8001002038B5002469460094C3
:10298000FFF7D2F80099814200DD0C1A204638BDCD
:10299000B0F90030B1F90020934200DA0280B0F9BA
:1029A0000230B1F90220934200DA4280B0F90430DB
:1029B000B1F90420934200DD8280B0F90620B1F91C
:1029C00006108A4200DDC180704770B5B1F9004041
:1029D000B2F900309C4200DD23460380B1F9025079
:1029E000B2F90240A54200DD2C464480B1F90460F2
:1029F000B2F90450AE4200DA35468580B1F90610CE
:102A0000B2F90620914200DB1146C1809D4201DBF4
:102A1000A14201DA002070BD012070BD01460248CC
:102A20000068407C00F002B8800100202DE9F843E6
:102A3000012604468946022857DADFF8B4800800E8
:102A400008F1040530D0012802D002294DD116E04A
:102A500055F8240088B92046FEF710FF009010B307
:102A6000C0680D21426A6846904702003DD0494641
:102A70000098904755F824000026401C33E020467B
:102A8000FEF7FCFE009070B1C0680D21426A6846F6
:102A90009047040029D0D8F8000000B1804749468B
:102AA0000098A047002620E055F82400012813D103
:102AB0002046FEF7E3FE009070B1C0680D21426A27
:102AC00068469047070007D0D8F8000000B180475B
:102AD00049460098B847002655F8240008B101215E
:102AE00000E00021401A45F824003046BDE8F88394
:102AF000A402002070B5FF23B3EB116F2CD0C3B23A
:102B000013FB02F500F47F4400F47F035443534366
:102B1000000E10FB02F6C2F1FF00CAB212FB005217
:102B200001F47F4505FB004401F47F0505FB0033FC
:102B3000090E11FB0065C2F307204FF47F024FF42A
:102B40007F4102EA132201EA14214FF07F43084338
:102B500003EA05431043184370BD2DE9F04F0646C4
:102B6000DDE90CB915460C4600208046584519D2BF
:102B70000B9F4FF0FF0A01CE08CCAAEB106202FBBC
:102B800009F2B2FBFAF1CAB21946FFF7B3FF20F01F
:102B90007F4001C57F1EEED1099804EB800408F147
:102BA0000100E2E7BDE8F08F02494A6942604861EE
:102BB000704700007401002010B502E000F8011B0E
:102BC000521E0AB18307F9D1930818D001EB0144D2
:102BD00002F0030204EB042406E010C01B1F10C027
:102BE00040F8084B40F8044C042BF6DA01E010C022
:102BF0005B1E002BFBD102E000F8011B521E002AD5
:102C0000FAD110BDC0EBC001044800EB8101D1E94D
:102C1000030249695043484370470000C8670220D7
:102C200078B50024009490F83C20012A19D00122A4
:102C300080F83C200A6807230568092A13D9EE6842
:102C40000A3A02EB420293409E43EE600B788A6898
:102C50000A3B03EB43039A400368DD682A43DA60CA
:102C600010E0022078BD2E6902EB420293409E43A1
:102C70002E610A788B6802EB420293400268156964
:102C80002B4313614A681F23072A13D205686E6B12
:102C9000521E02EB820293409E436E630A8893B2F7
:102CA0000A79521E02EB820293400268556B2B4355
:102CB000536327E005680D2A12D22E6BD21F02EB58
:102CC000820293409E432E630B790A88DB1F92B2E7
:102CD00003EB83039A4003681D6B2A431A6311E0D8
:102CE000EE6A0D3A02EB820293409E43EE620B794C
:102CF0000A880D3B92B203EB83039A400368DD6AB6
:102D00002A43DA62174A0368934208D10B68122BF0
:102D100005D1D2F8043343F48003C2F804330368C6
:102D200093421BD1104B0D689D4201D0112D15D13E
:102D3000D2F8045345F40005C2F8045309689942D7
:102D40000CD10A490A4A0968B1FBF2F101EB810191
:102D5000490000E0491E00910029FBD180F83C4069
:102D6000002078BD00200140120000100400002067
:102D700040420F0070B5040004D094F83D000025D7
:102D800010B106E0012070BD84F83C50204600F0F0
:102D90000FF8022084F83D002046FDF749FE256427
:102DA000012084F83D0084F83C50002070BD0000F4
:102DB00000B500680C4987B0884212D10B48016801
:102DC00041F4807101600068694600F480700590EC
:102DD000082000900320019000200290044800F099
:102DE000DBF807B000BD000000200140443802407D
:102DF0000008024010B5040002D0607910B106E06E
:102E0000012010BD00202071204600F007F80220AC
:102E1000607101206071002010BD000008B50068DD
:102E20000649884208D10648016841F48051016092
:102E3000006800F48050009008BD0000003002409F
:102E40003038024070B5040004D094F839000025F1
:102E500010B106E0012070BD84F83850204600F023
:102E60001FF8022084F839002168086820F44032F5
:102E70006068104308602168486B20F00702A06872
:102E8000104348632168086C820BE068920310438A
:102E90000864E563012084F83900002070BD00005B
:102EA00008B500680649884208D10648016841F41F
:102EB00000010160006800F40000009008BD0000FF
:102EC00000B002403038024031B500F055F90446F8
:102ED00000F052F90099001B8842F9D338BD000078
:102EE0002DE9F041244886B00168002940D14FF017
:102EF0000108C0F800802148016841F0010101602B
:102F00000068022400F0010005904FF63F00002504
:102F100003260C278DE8F1006946194800F03CF8BB
:102F200001AACDF8008082E8F0006946154800F05B
:102F300033F848F233108DE8F1006946124800F08A
:102F40002BF84FF683708DE8F10069460F4800F0CA
:102F500023F8C0208DE8F10069460D4800F01CF808
:102F60004CF203708DE8F10069460A4800F014F84D
:102F700006B0BDE8F08100008C0000203838024027
:102F800000140240000802400018024000100240F5
:102F9000001C0240000C02402DE9F84FDFF890B110
:102FA00000224FF001084FF0030A4FF00F090BF118
:102FB000040E00BF0B6808FA02F42340A3426ED14E
:102FC0004D68022D01D0122D0ED1D50800EB850CD5
:102FD000DCF820505607F70E09FA07F6B5430E69DC
:102FE000BE402E43CCF82060066855000F790AFADF
:102FF00005FC07F0030726EA0C06AF4037430760DD
:103000004E68012E05D0022E03D0112E01D0122EB3
:103010000ED18768CE6827EA0C07AE403E43866033
:103020004668A6430C79C4F30014944034434460CA
:10303000C4688E6824EA0C04AE402643C6604C681F
:10304000E4006FD53B4C256845F480452560246835
:1030500022F0030504F480440094374C2E19D6F86E
:10306000084895072F0F09FA07F5AC43334DA842DE
:1030700001D100252EE0324DA84201D1012529E0E1
:10308000304DA84201D1022524E02F4DA84201D1A4
:1030900003251FE02D4DA84202D104251AE041E08E
:1030A0002B4DA84201D1052514E02A4DA84201D19B
:1030B00006250FE0284DA84201D107250AE0274D3B
:1030C000A84201D1082505E0254DA84201D10925D6
:1030D00000E00A25BD402543C6F80858DBF800404B
:1030E0005D464E689C43F60300D51C432C60DEF819
:1030F000004075464E689C43B60300D51C432C60C7
:103100000B4D08352C684E689C43F60200D51C43D5
:103110002C60074D0C352C684E689C43B60200D5D8
:103120001C432C60521C102AFFF444AFBDE8F88FFA
:10313000003C0140443802400030014000000240A1
:103140000004024000080240000C0240001002404F
:103150000014024000180240001C024000200240FF
:10316000002402400069084000D0012070470AB1E5
:10317000816170470904FBE701480068704700005F
:103180000000002070B5040004D094F8350000253C
:1031900010B106E0012070BD84F83450204600F0E4
:1031A00071F8022084F835002068016821F00101DF
:1031B000016001F09FF931492268B0FBF1F15160E3
:1031C0002F4A6368934206D94FF4967359434FF4DC
:1031D0007A73B1FBF3F12368491C1962616891426B
:1031E0000BD84900B0FBF1F2C2F30B02042A01D262
:1031F000042019E0B0FBF1F016E0A36883B301EB03
:10320000C10202EB0112B0FBF2F242F4804212055D
:103210002CD06BB301EBC10202EB0111B0FBF1F05A
:1032200040F4804040F400402168C861D4E90701BF
:10323000084321680860D4E90310084321688860C6
:10324000D4E9050108432168C8602068016841F09D
:1032500001010160A563012084F83500002070BDE4
:10326000FFE701EB4102B0FBF2F2D0E70120DBE720
:1032700001EB4101B0FBF1F0D4E7000040420F0048
:10328000A0860100F0B50068104987B088421AD1C5
:10329000401512240125002604278DE8F100694617
:1032A0000B48FFF779FE28028DE8F10069460948CE
:1032B000FFF772FE0848016841F4000101600068F0
:1032C00000F40000059007B0F0BD0000005C004075
:1032D00000080240000002404038024002480168F5
:1032E000491C016070470000000000200B4810B529
:1032F000016841F400710160016841F4806101607E
:10330000016841F480710160032000F027FB002078
:1033100000F006F800F0ECFA002010BD003C02407E
:1033200010B5044601F0CCF84FF47A71B0FBF1F01F
:1033300001F095FE00222146501E00F0EFFA002019
:1033400010BD0000F0B590F8A0400025012C06D07B
:10335000012780F8A070022480F8A14020E002201C
:10336000F0BD00BF03EB830404EBC30400EB840453
:103370000E68A46C062CF4B21BD044EA056400BFAE
:1033800006F47F4C44EA0C0406F47F0634434FF005
:10339000C40C06680CEBC31C46F80C40091D6D1CE0
:1033A0009542DFD380F8A170002180F8A010084674
:1033B000F0BD05EB051C44EA0C64E1E730B590F87C
:1033C000A030012B18D0012380F8A030022480F80F
:1033D000A1409025046805EBC212A55805F07F4571
:1033E000A5500468A15001684B6280F8A13000210B
:1033F00080F8A010084630BD022030BD2DE9F04114
:10340000044690F8A00016460F4601281DD001255D
:1034100084F8A050022084F8A10006EB860000EB9F
:10342000C60004EB800034223830FDF7F0F8324655
:103430003946204602F082FE2068456284F8A15099
:10344000002084F8A000BDE8F0810220FBE710B561
:1034500090F8A020012A15D0012200F8A02F022305
:10346000437050F8A03C842404EBC1115C5824F054
:1034700002045C5050F8A01C4A62427000210170A6
:10348000084610BD022010BD10B590F8A020012AFA
:1034900015D0012200F8A02F0223437050F8A03C61
:1034A000842404EBC1115C5844F002045C5050F8D1
:1034B000A01C4A62427000210170084610BD022023
:1034C00010BD704770B504460068816B4FF004056D
:1034D00049074FF0000615D5816B490712D5416B9E
:1034E00021F0040141632068C563D4F8A40040F0D2
:1034F0000100C4F8A40084F8A15084F8A06020461C
:10350000FFF7DFFF2068816B890716D5816B89077C
:1035100013D5416B21F00201416321680220C86389
:10352000D4F8A40040F00200C4F8A40084F8A1502C
:1035300084F8A0602046FFF7C4FF2068816BC907AC
:1035400010D0816BC9070DD0416B21F0010141639F
:1035500021680120C86384F8A10084F8A060204697
:1035600000F080F870BD000070B5040004D094F83D
:10357000A100002510B106E0012070BD84F8A05024
:10358000204600F0A1F8022084F8A100206881699B
:1035900021F070418161D4E901010843D4E90312AB
:1035A0001143084321688A691043886121688A6849
:1035B0002B4802408A60A18A0A0421688B68A669A8
:1035C000334313438B602168CA680240CA60A18BF1
:1035D0000A042168CB68266A33431343CB60216811
:1035E0000A6902400A61A18C0A0421680B69A66A73
:1035F000334313430B6121684A6902404A612268E0
:10360000A08D5169236B194341EA0041516194F83F
:1036100035002168020294F83600CB6A03F07F433C
:10362000CB622168CB6A94F8346042EA00403343AD
:103630000343CB622068416B41F004014163206881
:10364000416B41F0020141632068816941F0010151
:103650008161C4F8A450012084F8A100002070BD4D
:1036600000F800F02DE9F041164E0746002400BF97
:10367000C4EBC40006EB80056968002919DBD5E9B5
:10368000031251436A686B6956F820005A4301FBE4
:1036900002012246384600F0BDF83868416A41F020
:1036A0000101416269682046FEF748FC4FF0FF3097
:1036B0006860641C022CDBD33846BDE8F041002171
:1036C00000F08CB8C86702202DE9F0410068384945
:1036D00086B0884268D13748016841F08061016056
:1036E0007020022500268DE8610003240E27CDE915
:1036F000034769463048FFF74FFC40F214608DE8FD
:103700006100CDE9034769462C48FFF745FC680294
:103710008DE86100CDE9034769462948FFF73CFC85
:1037200044F60C508DE86100CDE903476946254811
:10373000FFF732FC48208DE86100CDE90347694678
:103740002148FFF729FC8DE870000920CDE90340EE
:10375000DFF8788069464046FFF71EFC4FF4706042
:103760008DE86100CDE9034769464046FFF714FC48
:103770004FF4C6508DE86100CDE90347694614480F
:10378000FFF70AFC80208DE86100CDE90347694618
:103790001048FFF701FC40208DE86100CDE90347A8
:1037A00069460D48FFF7F8FB06B0BDE8F081000060
:1037B00000680140443802400010024000200240EE
:1037C00000140240001C02400000024000040240BD
:1037D0000018024000080240000C024010B590F8AA
:1037E000A020012A11D0012200F8A02F022343704B
:1037F00050F8A03C5C6B44F001045C63044B19601E
:10380000427000210170084610BD022010BD00006A
:103810004068014070B5044690F8A0000B460128AE
:1038200018D0012584F8A050022084F8A10002EBF2
:10383000820000EBC20004EB80012046CB653831EA
:1038400002F07CFC2068456284F8A150002084F8D6
:10385000A00070BD022070BD70B5044690F8A000B5
:103860000B46012818D0012584F8A050022084F8C6
:10387000A10002EB820000EBC20004EB80012046B5
:10388000CB64383102F05AFC2068456284F8A150BC
:10389000002084F8A00070BD022070BD70B5044601
:1038A00090F8A0000E46012820D0012584F8A050F1
:1038B000022084F8A10003EB830000EBC30004EBBB
:1038C000800141F8386F886A3044C1E90102C86A52
:1038D0001044C8601A46204602F030FC2068456259
:1038E00084F8A150002084F8A00070BD022070BDB3
:1038F00010B5032000F032F80022BDE81040114658
:10390000501E00F00BB800F01F0201219140400949
:10391000800000F1E020C0F800117047F0B40E4BB9
:103920001B680C46C3F30223C3F10705042D00D91D
:103930000425191D072901D2002300E0DB1E012602
:1039400006FA05F1491E214099409E40761E164018
:103950003143F0BC02F088BE0CED00E0064900F0F7
:10396000070208684FF6FF03184040EA0220034AA6
:1039700010430860704700000CED00E00000FA05FD
:10398000D0F8B00303F0C0BAC1EBC10200EB820271
:10399000D0F8B003126C03F02DBAC1EBC10200EBFA
:1039A0008202D0F8B003D2F8E42103F078BAD0F85C
:1039B000B00303F0ABBA70B50A460446090602F03C
:1039C0007F0005D5C0EBC00104EB8101343105E077
:1039D000C2EBC20104EB810101F5EC7100258D7091
:1039E0000870D009487094F87C03012809D00120A0
:1039F00084F87C03206803F0ACFD84F87C5300203D
:103A000070BD022070BD70B504460D460E0601F073
:103A10007F00C0EBC00104EB810101D5343101E02E
:103A200001F5EC71ED0908704D708A60CB7000D023
:103A3000C8800025022B00D10D7194F87C03012869
:103A400009D0012084F87C03206803F069FC284633
:103A500084F87C5370BD022070BD000070B5044630
:103A60000E4601F07F00C0EBC00104EB8101002590
:103A7000C1F8E421C1E97B3581F8D95181F8D80139
:103A8000206901F5EC71012800D10A6194F87C03EA
:103A900001280DD0012084F87C037006227C206868
:103AA00008D003F0B7FD00BF84F87C53002070BD40
:103AB000022070BD03F08EFCF6E770B50D4604469B
:103AC000090605F07F0005D5C0EBC00104EB8101BC
:103AD000343105E0C5EBC50104EB810101F5EC7162
:103AE00001228A700870E809487094F87C03012864
:103AF00007D084F87C23206803F05DFD680602D0BF
:103B000007E0022070BD217C04F56072206803F09C
:103B100001FD002084F87C0370BD70B504460E469C
:103B200001F07F00C0EBC00104EB810100250A64B5
:103B3000C1E91235012381F8353001F8340F2069CD
:103B4000012800D10A6194F87C0301280BD084F885
:103B50007C337006227C206807D003F05BFD84F87C
:103B60007C53002070BD022070BD03F033FCF6E7EB
:103B70002DE9F84F044600680026054603F088FE4C
:103B8000002873D1206803F0ACFE00286ED02068B6
:103B900003F0A7FE80074FF0020A02D52168C1F8A2
:103BA00014A0206803F09DFE010304F560704FF03F
:103BB000080900904DD5206803F075FE074646E0E1
:103BC000F80742D0F1B2206803F083FE8046C007B8
:103BD00029D005EB46110120C1F8080B2069012806
:103BE00011D1C6EBC60004EB8000D1F8101BD0F851
:103BF000E021C1F31201511AC0F8F011D0F8E4111C
:103C00001144C0F8E411F1B22046FFF7C6FE206966
:103C1000012808D13EB9D4F8EC0120B9206801216F
:103C2000009A03F077FC5FEA087006D5204600F0A2
:103C3000C3F905EB4611C1F8089B5FEAC86004D5DB
:103C400005EB46111020C1F8080B7F08761C002FE9
:103C5000B6D1206803F045FE40034FF0400B5DD520
:103C6000206803F019FE0746002655E070E1F807CA
:103C700050D0F1B2206803F01DFE8046C00725D069
:103C80000120D5F8342800FA06F18A43C5F8342813
:103C900005EB4611C1F808092069012807D1C6EBD8
:103CA000C60004EB8000D0E90F2111440164F1B299
:103CB0002046FFF769FE2069012807D136B9A06CBC
:103CC00020B920680121009A03F024FC5FEA087003
:103CD00003D505EB4611C1F808995FEAC86004D521
:103CE00005EB46111020C1F808095FEA486003D5CA
:103CF00005EB4611C1F808B95FEA887003D505EBFA
:103D00004611C1F808A95FEA086003D5314620468C
:103D100002F0C0FC7F08761C002FA8D1206803F0B9
:103D2000E0FD00280CDAD5F8040820F00100C5F801
:103D30000408204600F026F920684FF00041416158
:103D4000206803F0CEFD00050AD5D5F80808C007A5
:103D500002D0204600F038F920684FF4006141613C
:103D6000206803F0BEFDC0044AD5D5F8040820F051
:103D70000100C5F804080021206803F059FD002067
:103D8000FF2106E005EB4012C2F80819C2F8081B33
:103D9000401C62688242F5D84FF0FF30C5F8180821
:103DA000D5F81C0840F00110C5F81C08E06A60B1A5
:103DB000D5F8840840F00B00C5F88408D5F844080D
:103DC00040F00B00C5F844080BE0D5F8140840F0AB
:103DD0000B00C5F81408D5F8100840F00B00C5F822
:103DE0001008D5F8000820F4FE60C5F80008217C12
:103DF0002068009A03F08EFB21684FF480504861E0
:103E0000206803F06EFD80041BD5206803F0C8FA1B
:103E10002068C16821F47051C160206803F01AFD68
:103E200050B30320C4F814B0E0602068C16841F4C6
:103E3000A051C160204600F095F821684FF4005071
:103E40004861206803F04DFDC00640D520688169B7
:103E500021F010018161D5F8208008F00F00C0EB3F
:103E6000C00004EB8007C8F3434007F5EC77022855
:103E70000CD006281CD025E00020E0604FF4007034
:103E800060612068C16841F41051D2E747F6F071D3
:103E900018EA010F16D0C8F30A1290462846F968AE
:103EA00003F023FDF8684044F860B869404408E036
:103EB00008222846009903F018FDB969C8F30A10D2
:103EC0000844B8612068816941F01001816120686F
:103ED00003F007FD000705D5204600F057F82168DC
:103EE000C1F81490206803F0FCFCC00207D5F1B2C1
:103EF000204600F02FF821684FF4801048612068B8
:103F000003F0EFFC800207D5F1B2204600F026F85E
:103F100021684FF400104861206803F0E2FC400083
:103F200006D52046FFF72CFD21684FF08040486100
:103F3000206803F0D6FC40070AD52068456868076A
:103F400002D52046FFF733FD2068416829434160D0
:103F5000BDE8F88FD0F8B00302F0F3BFD0F8B0039B
:103F600002F0F1BF10B50446C068012100B900217C
:103F7000D4F8B00303F02BF8D4F8B003BDE8104038
:103F800002F0F4BFD0F8B00303F00FB8D0F8B003DC
:103F900003F011B810B5044690F87C03012809D04D
:103FA000012084F87C03206803F0AFFC002084F833
:103FB0007C0310BD022010BDD0F8B02300F5607165
:103FC000104603F00EB8000010B50446D0F8B00358
:103FD00003F03BF82068D0F8001E41F00101C0F862
:103FE000001E206A002804D00248016841F0060142
:103FF000016010BD10ED00E02DE9F84F04460068A7
:10400000A34EA44DC1074FF0000947F6C07A4FF008
:10401000E0474FF0010B01D180074CD59E49C1F814
:104020006890FFF7A9F8804606E000BFFFF7A4F804
:10403000A0EB080064287DD828680001F6D4207819
:10404000C10796480DD09AFAAAF26168B2FA82F2D4
:10405000914097FAA7F3A268B3FA83F39A40114309
:1040600001602178890716D5016897FAA7F201F057
:10407000E041B2FA82F2D1406268237B920142EAC7
:10408000036242EA017101603068E16920F01F00BB
:10409000491E084330608049C1F868B0FFF76CF8EA
:1040A000804605E0FFF768F8A0EB0800642841D8D7
:1040B00028680001F6D52068410701D400077CD5A7
:1040C0007549C1F87090FFF757F8804606E000BFC9
:1040D000FFF752F8A0EB080064282BD82868C043EB
:1040E0008000F5D520784FF0706241076C482CD5E0
:1040F000016897FAA7F301F0E041B3FA83F3D940DE
:104100009AFAAAFC2369BCFA8CFC03FA0CF392FA23
:10411000A2F8D4F814C0B8FA88F80CFA08FC43EAFC
:104120000C0397FAA7FCBCFA8CFC01FA0CF10B43C8
:10413000036000E083E03168236A6FF0FF0C21F434
:10414000F8510CEB0323194331602178090722D57C
:1041500001689AFAAAFC01F0706392FAA2F1B1FA2E
:1041600081F1CB402169BCFA8CFC92FAA2F201FAEF
:104170000CF1B2FA82F29340194397FAA7F3A269BD
:10418000B3FA83F39A40114301603068616A20F406
:104190004030084330604049C1F870B0FEF7ECFF92
:1041A000064606E009E000BFFEF7E6FF801B642834
:1041B00045D82868C0438000F6D42078800655D5BD
:1041C00034484030016841F0805101600068354D4D
:1041D00000F080500090286840F480702860FEF75E
:1041E000CBFF064605E000BFFEF7C6FF801B642834
:1041F00025D82868C005F7D5284D143D2868218D9D
:1042000000F4407001F44071884208D028682649C3
:1042100020F44070C1F800B0C1F800902860A06A96
:10422000B0F5807F11D1FEF7A7FF064641F288372F
:1042300008E000BFFEF7A0FF801BB84202D90320B0
:10424000BDE8F88F28688007F4D5A16A1148C1F34A
:1042500001220830032A13D0016821F4F81101600B
:104260002868218DC1F30B01084328602078C0061F
:1042700004D50E4994F82C00C1F8E0010020DFE7D6
:1042800002680B4B22F4F81219400A430260E7E778
:104290008C38024000380240000047428438024017
:1042A0008838024000700040400E474200104742EC
:1042B000FFFCFF0F2DE9F05FDFF8FCA104460F467D
:1042C000DAF80000DFF8F48100F00F017B4807F016
:1042D000FF0941F2883508F10808B94262D28AF82C
:1042E0000090DAF8001001F00F01B9427ED1217878
:1042F000890707D5D8F80020A36822F0F0021A43F6
:10430000C8F800202178C9072ED0616801291AD089
:1043100002291BD0032919D000688007002865DA1C
:10432000D8F80000464620F003000843C8F8000013
:10433000FEF722FF07466068012810D002281AD035
:1043400003281ED029E000688003E7E700688001A9
:10435000E4E700BFFEF710FFC01BA84259D8306841
:10436000C0F381000128F5D189E000BFFEF704FF0A
:10437000C01BA8424DD83068C0F381000228F5D197
:104380007DE03068FEF7F8FEC01BA842F9D940E096
:10439000FEF7F2FEC01BA8423BD8306810F00C0FAD
:1043A000F6D16CE02178890707D5D8F80020A368FA
:1043B00022F0F0021A43C8F800202178C9074CD037
:1043C0006168012928D0022929D0032927D0006853
:1043D0008007002849DAD8F8002022F003020A43B7
:1043E000C8F80020FEF7C8FE064600E03DE0606821
:1043F00001281DD0022829D0032838D0AB464546D5
:10440000286810F00C0F28D0FEF7B6FE811B594526
:10441000F6D90320BDE8F09F00688003D9E7006863
:104420008001D6E7FEF7A8FE811B594502D9F0E7C7
:10443000AB4645462868C0F381000128F2D10CE064
:10444000FEF79AFE811B594502D9E2E7AB46454685
:104450002868C0F381000228F2D18AF80090DAF8C7
:10446000000000F00F00B84209D00120D2E7444616
:104470002068FEF781FE801BA842F9D9C9E72078A1
:10448000400707D5D8F80010E26821F4E051114345
:10449000C8F800102078000708D5D8F80010226965
:1044A00021F4604141EAC201C8F800100020FEF783
:1044B00037FF0020AEE70000003C02400038024019
:1044C00010B500F02DF808490968F02292FAA2F21E
:1044D00001F0F001B2FA82F2D140044A515CC840C6
:1044E0000349086010BD000008380240B6C2000849
:1044F0000400002010B5FFF7E3FF074909684FF4F7
:10450000E05292FAA2F201F4E051B2FA82F2D14002
:10451000024A515CC84010BD08380240B6C20008CB
:1045200030B51948006810F00C01184812D044103A
:1045300004290ED008290DD11349091F0A6802F079
:104540003F030A68550247F6C07204D5B4FBF3F086
:1045500003E0204630BDB0FBF3F00B680968134060
:1045600092FAA2F2B2FA82F2D34058434FF44032A8
:1045700092FAA2F201F44031B2FA82F2D140491C1F
:104580004900B0FBF1F030BD083802400024F400CF
:104590002DE9F84F04460078DFF81CA3C74DC0078B
:1045A0004FF000064BD0DAF800105046C1F38101FD
:1045B000012908D00068C0F3810002280AD1281D13
:1045C0000068400206D52868800338D56068002856
:1045D00071D034E0DFF8E49209F1020989F8006053
:1045E000FEF7CAFD804641F2883705E0FEF7C4FDBC
:1045F000A0EB0800B8427DD828688003F6D4207963
:1046000089F80000606868B1FEF7B6FD804605E0F5
:10461000FEF7B2FDA0EB0800B842ECD82868800392
:10462000F6D50CE0FEF7A8FD804605E0FEF7A4FDF8
:10463000A0EB0800B842DED828688003F6D42078C2
:104640009F4F80074FF0010B45D5DAF80010504618
:1046500011F00C0F4FF0F80909D00068C0F3810089
:1046600002280BD19448001F0068400206D4286835
:10467000800714D5E06801281DD110E0E068D8B1AA
:10468000C7F800B0FEF778FD804605E0FEF774FD40
:10469000A0EB08006428AED828688007F6D5286803
:1046A00099FAA9F22169B2FA82F220F0F800914059
:1046B000084328600FE0FCE03E60FEF75DFD8046A9
:1046C00006E000BFFEF758FDA0EB0800642811D8F3
:1046D00028688007F6D42078000729D5DFF8D8911C
:1046E0007848616909F16C0999B1C0F800B0FEF72A
:1046F00043FD00E086E0804606E000BFFEF73CFD9B
:10470000A0EB080064287DD8D9F800008007F5D513
:104710000EE00660FEF730FD804605E0FEF72CFD5A
:10472000A0EB080064286DD8D9F800008007F5D404
:10473000207840075AD560483830016841F08051F0
:1047400001600068DFF8809100F080500090D9F897
:10475000001041F48071C9F80010FEF70DFD80468D
:1047600006E000BFFEF708FDA0EB0800642849D86A
:10477000D9F80000C005F5D5DFF83C8108F16808DC
:1047800088F80060FEF7F8FC41F28839009005E0F7
:10479000FEF7F2FC0099411A494533D8D8F80000D9
:1047A0008007F5D4207A88F80000A06878B1FEF779
:1047B000E3FC009006E000BFFEF7DEFC0099411A22
:1047C00049456ED8D8F800008007F5D50EE0FEF711
:1047D000D3FC009006E000BFFEF7CEFC0099411A22
:1047E00049455ED8D8F800008007F5D4A069E8B341
:1047F000DAF80010C1F3810102295AD002283E667E
:1048000005D000E04DE0FEF7B7FC04464CE0FEF7B3
:10481000B3FC064605E000BFFEF7AEFC801B642833
:104820003FD828688001F7D4D4E90701084347F648
:10483000C07292FAA2F2616AB2FA82F29140A26A5E
:104840004FF0FF3303EB52024FF4403393FAA3F3DC
:10485000B3FA83F39A40114308434FF0706292FA1F
:10486000A2F2E16AB2FA82F2914000E01FE008434E
:104870001149091F0860C7F860B0FEF77DFC0446C7
:1048800005E000BFFEF778FC001B642809D8286803
:104890008001F7D50BE000BFFEF76EFC001B64281B
:1048A00002D90320BDE8F88F28688001F4D40020E5
:1048B000F8E70120F6E7000008380240003802401F
:1048C00000004742800E47420070004070B50D4620
:1048D000040003D094F82C0010B107E0012070BD53
:1048E000002084F82D00204600F011F8022084F802
:1048F0002C00211D2068FCF721FAD4E9000229468A
:10490000FCF76DFA012084F82C00002070BDFEF742
:10491000E7BA10B5044690F82C00022809D002200E
:1049200084F82C002068FCF72FFA012084F82C0072
:10493000002010BD70B5044690F82C000D460228EA
:104940000DD0022084F82C002068FCF723FA286898
:10495000022805D05FF0010084F82C00002070BD13
:104960000520F9E770B5040004D094F85100002543
:1049700010B106E0012070BD84F85050204600F0D0
:1049800033F8022084F851002068016821F04001CA
:104990000160D4E901010843D4E90312114308433B
:1049A00061690843218B01F400710843E169084300
:1049B000216A0843A16A084321680860A0690421AC
:1049C00001EA1040616A0843216848602168E06A92
:1049D00008612068C16921F40061C1616565012039
:1049E00084F85100002070BD70B50468254800218E
:1049F0000222032386B0844213D12348046844F47E
:104A0000004404600068CDE9021300F40040059002
:104A10004FF4E050CDE900020620049069461B489F
:104A200016E019481A4E001D0525B44214D1046839
:104A300044F480140460006802AC00F48010059017
:104A400084E82A004FF46070CDE9000269461148FD
:104A5000FEF7A2FA06B070BD0F4EB442FAD1046858
:104A600044F400140460006802AC00F400100590E7
:104A700084E82A004FF4C040CDE9000269460748A7
:104A8000E6E70000003C00404038024000080240D9
:104A90000050014000140240005401400018024040
:104AA0002DE9F84F044690F851009A4601287DD12F
:104AB000F1B3EAB394F85000012877D0012684F8C6
:104AC0005060222084F8510000256565A163A2870B
:104AD000E287A564E564A586E586A0684FF40049F1
:104AE000484504D12068036823F480430360A06A2A
:104AF0004FF40057B84209D12068036823F40053EB
:104B000003602068036843F40053036060684FF457
:104B10008278404501D1A06870B1206801684906DB
:104B200003D4016841F040010160E068F0B132E077
:104B3000FFE70120BDE8F88F84F8505013460A467D
:104B40002046CDF800A000F035F9F3E753460022E7
:104B50000121204601F034FE48BB2068C268A06BEA
:104B6000411CA1630270E08F401EE087E08F0128A6
:104B7000ECD813E0534600220121204601F020FE2C
:104B8000A8B92068C068A16B0880A06B801CA063D6
:104B9000E08F401EE087E08F0128EBD8A06AB84282
:104BA00007D12068016841F4805101E05EE007E030
:104BB0000160534600220121204601F001FE08B1A8
:104BC0000320B7E7E0680028206817D0C068A16B11
:104BD0000880A06B801CA063E08F401EE087A06A65
:104BE000B84217D1534600220121204601F0E8FDCA
:104BF00050B1606D40F002006065E1E7C168A06BF4
:104C0000421CA2630170E7E72068C068ADF80000AD
:104C1000BDF80000606840450AD1A068484502D050
:104C2000B0F5806F04D12068016821F04001016077
:104C300084F8516021688868A26AC0F30010BA4203
:104C400010D178B1606D40F002006065086820F412
:104C5000005008602068016841F40051016084F848
:104C6000505066E784F85050002063E7022061E767
:104C70002DE9F843044690F85100984601286FD179
:104C800031B32AB394F85000012869D0012684F882
:104C90005060122084F85100002565652163A286CA
:104CA000E286E564A564A587E587A06A7703B84234
:104CB00009D12068016821F4005101602068016871
:104CC00041F400510160A068B0F5004F03D007E047
:104CD0000120BDE8F8832068016841F4804101604B
:104CE00020680168490603D4016841F04001016071
:104CF000E0680028606804D0D8B1E08E012818D0A0
:104D000021E010B1E08E012808D1206B411C216305
:104D100021680078C860E08E401EE0860004000C28
:104D20001FD0434600220221204601F049FDA8B9C8
:104D3000EBE7206B21680088C860206B801C206333
:104D4000E08E401EE0860004000C0AD0434600229C
:104D50000221204601F034FD0028EAD00320B8E704
:104D600026E0A06AB84204D12068016841F480516D
:104D70000160434600220221204601F021FD30B9A6
:104D8000434601228021204601F01AFD20B1606DCA
:104D900040F010006065E1E7A06818B92068C168BC
:104DA0008068009084F8516084F85050002090E7AB
:104DB00002208EE72DE9F843044690F85100DDF813
:104DC0002080012801D022287ED169B162B15BB177
:104DD00094F85000012877D0012684F8506094F8A8
:104DE0005100012803D005E00120BDE8F8833220FE
:104DF00084F8510000256565A263A387E3872163DA
:104E0000A386E386A564E564A06A4FF40057B84220
:104E100009D12068016821F400510160206801680F
:104E200041F40051016020680168490603D401681B
:104E300041F040010160E0684FF48271B0F5006F0D
:104E4000606807D0002867D088426ED1E08E0128C4
:104E500062D06AE020B188420CD1E08E012809D1ED
:104E6000206B21680088C860206B801C2063E08E66
:104E7000401EE086E08E80B9A06AB84244D1206826
:104E8000016841F4805101603EE02068C068A16B78
:104E90000880A06B801CA0639EE043460022022194
:104EA000204601F08DFC002874D1206B2168008819
:104EB000C860206B801C2063E08E401E0004000C44
:104EC000E08609D1A06A00E0C7E0B84204D12068BA
:104ED000016841F4805101604346002201212046CF
:104EE00001F06EFC00286FD12068C068A16B0880BB
:104EF000A06B801CA063E08F401EE087E08E00283E
:104F0000CBD1606800286AD14346002201212046A7
:104F100001F056FCF0BBB8E7206B411C216321680F
:104F20000078C860E08E401EE086E08E98B9A06AE6
:104F3000B84204D12068016841F4805101604346C1
:104F400000220121204601F03BFC18BB2068C0680C
:104F5000A16B087040E0434600220221204601F088
:104F60002FFCB8B9206B411C216321680078C86010
:104F7000E08E401E0004000CE08607D1A06AB84213
:104F800004D12068016841F4805101600022434649
:104F9000012100E018E0204601F012FCA0B92068D1
:104FA000C168A06B421CA2630170E08F401EE087C5
:104FB000E08E0028CFD1606888B9434600220121E5
:104FC000204601F0FDFB08B103200EE72068C16810
:104FD000A06B421CA2630170E08F401EE087A06AB4
:104FE000B84210D1434600220121204601F0E8FBDF
:104FF00018B1606D40F002000FE02068C068ADF8A5
:105000000000BDF80000434601228021204601F047
:10501000D7FB20B1606D40F010006065D4E784F8E4
:10502000516020688168A26AC1F30011BA4210D1B0
:1050300079B1616D41F002016165016821F40051AF
:1050400001602068016841F40051016084F850500B
:10505000CAE684F850500020C7E60220C5E610B525
:10506000401EB0F1807F01D3012010BD4FF0E0243D
:1050700060610F21601701F0F7FA0020A06107209E
:105080002061002010BD7047704730B590F838207F
:10509000012A20D0012280F83820022380F83930FC
:1050A00003685C6824F070045C6003685C680D68E9
:1050B0002C435C6003689C6824F080049C60036857
:1050C0009C6849680C439C6080F83920002180F876
:1050D0003810084630BD022030BD704770B5044618
:1050E000006801694FF00005C943890715D4C168FC
:1050F000C943890711D4E91E016101202076206887
:1051000080698007204602D0FFF7E7FF04E000F047
:1051100098F8204600F056F9257620680169C943C1
:10512000490717D4C168C943490713D46FF0040174
:105130000161022020762068806910F4407F2046BB
:1051400002D0FFF7CAFF04E000F07BF8204600F031
:1051500039F9257620680169C943090716D4C16861
:10516000C943090712D46FF00801016104202076B9
:105170002068C0698007204602D0FFF7AEFF04E038
:1051800000F05FF8204600F01DF9257620680169DF
:10519000C943C90617D4C168C943C90613D46FF0FF
:1051A00010010161082020762068C06910F4407F5A
:1051B000204602D0FFF791FF04E000F042F82046BD
:1051C00000F000F9257620680169C943C90708D1B4
:1051D000C168C943C90704D1891E0161204600F096
:1051E0003DF920680169C943090609D4C168C9436A
:1051F000090605D46FF0800101612046FFF743FFE7
:1052000020680169C943490609D4C168C9434906F0
:1052100005D46FF040010161204600F035F92068A7
:105220000169C94389060BD4C168C943890607D4FB
:105230006FF0200101612046BDE87040FFF724BFF8
:1052400070BD704770B5044690F838000D460128CF
:105250000DD0012684F83860022084F8390042B16C
:10526000042A18D0082A2AD00C2A4DD139E002206D
:1052700070BD206801F0F8FB2068816941F00801E9
:1052800081612068816921F0040181612068816960
:105290002A69114311E0206801F012FC206881693D
:1052A00041F4006181612068816921F4806181613C
:1052B000206881692A6941EA0221816124E020682D
:1052C00001F030FC2068C16941F00801C16120682B
:1052D000C16921F00401C1612068C1692A691143D3
:1052E00011E0206801F04EFC2068C16941F40061C2
:1052F000C1612068C16921F48061C1612068C16910
:105300002A6941EA0221C16184F83960002084F8E9
:10531000380070BD10B5040003D094F8390010B106
:1053200007E0012010BD002084F83800204600F07E
:105330000DF8022084F83900211D206801F028FBB7
:10534000012084F83900002010BD000010B5184C71
:10535000036800201749022286B0A34210D10B68CF
:1053600043F002030B60096801F0020105918021FE
:105370000091CDE90120CDE9030269460E4812E013
:105380000E4CA34211D10B6843F008030B6009686F
:1053900001F00801059101210091CDE90120CDE93D
:1053A000030269460648FDF7F7FD06B010BD000090
:1053B000000400404038024000000240000C004061
:1053C000002002407047000010B50446006801222A
:1053D00001F03EFB08492068884202D00749884214
:1053E00003D1416C41F4004141642068016841F0FF
:1053F00001010160002010BD0000014000040140D7
:1054000010B504460068002201F022FB114841F269
:10541000111221689310814202D00F48814209D1B4
:10542000086A104206D1086A184203D1486C20F479
:10543000004048642068016A114206D1016A19429D
:1054400003D1016821F001010160012084F83900D5
:10545000002010BD000001400004014010B5094CBF
:105460000748216830F81100491C2160FBF724FC33
:105470002068B0F5C87F01D10020206010BD000079
:10548000B468022088000020704705F049FA41F214
:105490008834204605F0D0FAFBE7000010B5FF2362
:1054A0000B4CB3EB116F09D1514201EB01111A06FC
:1054B00002EB016101432068084010BD054B02EB7F
:1054C0000212D2B21B6898472168084010BD000044
:1054D000080200207C0200200449054A0968497C32
:1054E00052F821100969096808470000800100206E
:1054F000980100202DE9F04F05468DB07B48DDF87E
:1055000060901A9C00681E4617464FF0000A78B15A
:105510001B9B199ACDF808900593CDE90324DDE98A
:105520001623CDE90023046833463A46284680E036
:10553000DDE9160201EB060805EB070C1043A8F1A4
:105540000108ACF1010C012806D0C9F10800059052
:10555000002002910990C6E065480268B2F90A305D
:10556000581A002806DD361A002E63DD1946199BED
:1055700000FB0344B2F90E00A8EB0000002802DD96
:10558000361A002E56DDB2F90C00ACEB00000028F4
:1055900000DD3F1AB2F908300020AB4235DD581B60
:1055A0003F1A4B46B9F1080F26D006DC012B0BD071
:1055B000022B11D0042B28D116E0102B1ED0182B53
:1055C0001FD0202B21D11CE020F0070304EBE004C6
:1055D0001D4400F0070018E020F0030304EBA004D2
:1055E0001D4400F0030010E020F0010304EB600410
:1055F0001D4400F0010008E0044404E004EB400412
:1056000001E004EB800405440020002F12DD1B9B09
:10561000DDF864C0CDE90403CDE90069CDE902C439
:10562000527C34483B4650F82200C26854680A460F
:105630002946A0470DB0BDE8F08F1799029808449D
:105640000C902B49401E00900A68B2F90A30834240
:1056500041DCB2F90E10029881423CDB4FF0000BA6
:10566000D84603950A9434E0BBF1000F05D10A989F
:105670004FF0080B10F801AB0A900599ABEB090B42
:105680003AFA01F00AFA09F101F0FF0A04D11849C7
:105690000968097C890716D415490968C96B0A6825
:1056A0000B921B9A0AB152F82000086016990398D1
:1056B000009B4218521E029900F07EF80C490B988C
:1056C0000968C96B08600399169808F10108084435
:1056D0000390B845C8DB0998401C09900C980290CB
:1056E000199804440998B042A7DBA3E7AC01002055
:1056F0008001002098010020F0B40C46124909688E
:10570000B1F90A30A3421CDCB1F90E30A34218DB18
:10571000B1F90830834200DD1846B1F90C309342EC
:1057200000DA1A4682420CDB4B7C084951F82350C0
:1057300013462246E9688E6801462846B446F0BC06
:105740006047F0BC704700008001002098010020F5
:105750000A46174930B40968B1F90A30934225DC8A
:10576000B1F90E30934221DBB1F9083083421DDCE0
:10577000B1F90C30834219DB0B7C0E4CDB0709D0EE
:10578000497C54F82130D968CC690146A44630BC24
:1057900018466047CB6B497C1B6854F82140E16890
:1057A0008D6901462046AC4630BC604730BC70472E
:1057B000800100209801002038B5134C2468B4F90A
:1057C0000850854200DD2846B4F90C50954200DAB5
:1057D0002A46824217DBB4F90A508D4200DD294681
:1057E000B4F90E509D4200DA2B468B420BDB00933E
:1057F000647C064B53F82440E3681D6913460A464F
:1058000001462046A84738BD8001002098010020AD
:10581000082104F0D3B9000002480068806B0068DA
:10582000704700008001002002480068C06B0068DB
:1058300070470000800100200C2104F0BFB90D2149
:1058400004F0BCB9024809210068407C04F0B6B9F4
:1058500080010020092104F0B1B970B500252C4663
:105860002046FCF70BF800B16D1C641C022CF7DB22
:10587000284670BD02480068407C00F003B8000074
:105880008001002010B5FBF7F9FF002805D0C168A2
:10589000CA6ABDE810400221104710BD10B500F0E3
:1058A00005F8BDE8104000F07BB800002DE9FC4190
:1058B000144E0546144F30680C46407C57F82000C3
:1058C000C1680A6B69469047BDF90000A8420BDC2D
:1058D000BDF90400A84207DBBDF90200A04203DCC9
:1058E000BDF90600A04202DA0020BDE8FC81306864
:1058F0002246407C57F82000C1684B6929469847EA
:10590000F3E700008001002098010020F8B515465B
:105910000E460124FBF7B2FF009058B1C068042185
:10592000426A68469047030004D02A4631460098F0
:10593000984700242046F8BD02480E210068407CAC
:1059400004F03CB9800100200E2104F037B9032097
:1059500004F093B9AFF300802DE9F041002809D09D
:10596000876837B10D4E716819B10468B4F5807F4E
:1059700002DD0020BDE8F0813068844200DD04468D
:10598000002507E057F82500FFF7A6FD716841F8EC
:1059900025006D1CA542F5DB7068EBE70C020020CA
:1059A0000449054A0968497C52F821100969496887
:1059B00008470000800100209801002070477047D0
:1059C0000106C0F30723C0F30742080A40EA032098
:1059D0001043704710B50A4C606860B920688000B9
:1059E000FBF766FD606040B104F1080105480860FE
:1059F0000846FDF7D9F8002010BD012010BD0000B9
:105A00000C0200204DA000082DE9F041FFF725FF12
:105A10000746002528E02846FBF730FF18B3284644
:105A2000FCF738FB80462846FFF7F2FE082817DC13
:105A30000F48104950F825000069884210D02846C8
:105A4000FFF708FF0646002408E0E0B2FFF7A8FFD2
:105A50000246E1B2284600F0C9F9641CB442F4DB06
:105A60004046FCF717FB6D1CBD42D4DBBDE8F0815E
:105A700098010020C40502082DE9F05F1D480024AC
:105A80004FF44875E0E802454FF4F0760127DFF85F
:105A90006880D0C0D8F8001001614FF0FF0960E8BD
:105AA00005944FF4C06A80F8304080F8314080F8A7
:105AB0003240C0E90A564FF0070BC0E907AB00229D
:105AC0000C490E48FDF79AFC0A483430E0E80245DC
:105AD000D0C0D8F80410016160E8059480F8304027
