:020000040800F2
:10000000C0AB022049040008510400085304000852
:1000100055040008570400085904000800000000B7
:100020000000000000000000000000004D03000878
:100030005D04000800000000A1030008F9DA0008D0
:1000400063040008630400086304000863040008F4
:1000500063040008630400086304000863040008E4
:1000600063040008630400086304000863040008D4
:1000700063040008630400086304000863040008C4
:1000800063040008630400086304000863040008B4
:10009000630400086304000863040008C545000801
:1000A0006304000863040008630400086304000894
:1000B00011DC0008630400086304000863040008FE
:1000C0006304000863040008630400086304000874
:1000D0006304000863040008630400086304000864
:1000E0006304000863040008630400086304000854
:1000F0006304000863040008630400086304000844
:100100006304000863040008630400086304000833
:100110006304000863040008630400086304000823
:100120006304000863040008630400086304000813
:100130006304000863040008630400086304000803
:10014000630400086304000863040008E5CC0008A9
:1001500063040008630400086304000863040008E3
:1001600063040008630400086304000863040008D3
:100170006304000863040008630400080000000032
:1001800063040008630400086304000863040008B3
:1001900063040008630400086304000863040008A3
:1001A00045C20008630400086304000800F002F878
:1001B00000F0BCF80AA090E8000C82448344AAF145
:1001C0000107DA4501D100F0B1F8AFF2090EBAE843
:1001D0000F0013F0010F18BFFB1A43F0010318477B
:1001E000B4580400D458040010F8013B0A4413F03A
:1001F000030408BF10F8014B1D1108BF10F8015B84
:10020000641E05D010F8016B641E01F8016BF9D172
:10021000002D15D010F8014B03F00C030C2BA1EBB3
:1002200004040ABF10F8013BA4EB8314A4EB0324DD
:1002300005F1010314F8016B5B1E01F8016BF9D5A0
:10024000914238BF10F8013BD1D3704700230024FE
:1002500000250026103A28BF78C1FBD8520728BFD6
:1002600030C148BF0B6070476E2900F0338570299C
:1002700001F09980662926F05E81652926F05B8170
:10028000672926F05881612926F0578103681B0AE7
:1002900028BF41F08001692900F0C881642900F07D
:1002A000C581752900F0C2816F2901F02780782966
:1002B00001F06580E92900F0C187E42900F0BE87DC
:1002C000F52900F0BB87EF2901F02480F82901F01F
:1002D00064800368DB0928BF41F08001632900F0D6
:1002E0004287732900F04787E32901F06D83F329E2
:1002F00001F07283002070471FB526F012F99DE8C7
:10030000030000F03BFC00F0C0FA01F029F9040002
:100310000020002125F0DCF9401C60600020002155
:1003200025F0C0F9E0601FBD10B510BD01F05EFC06
:100330001146FFF7E1FF1EF089FA01F0DDFE03B47C
:10034000FFF7F2FF03BC01F04BFF0000294B1968D7
:100350000868B0E8F04F80F30988BFF36F8F4FF063
:10036000000080F311887047000000000648006814
:10037000006880F3088862B661B6BFF34F8FBFF3A1
:100380006F8F00DF00BF00BF08ED00E0DFF80C005A
:10039000016841F470010160704700BF88ED00E022
:1003A000EFF30980BFF36F8F124B1A681EF0100F26
:1003B00008BF20ED108A20E9F04F106008B44FF01C
:1003C000500080F3118823F0AFF94FF0000080F364
:1003D000118808BC19680868B0E8F04F1EF0100FCB
:1003E00008BFB0EC108A80F30988BFF36F8F7047A5
:1003F00000BF00BF30000020EFF311804FF050012C
:1004000081F31188704780F311887047EFF30580FE
:10041000704700000B49D1F800C04A685CF8043B03
:100420001068184442F8040B8C4528BFA1F1DC0C7D
:100430008A4228BFA1F1DC02C1F800C04A6020F066
:100440000040704754A502200948804709480047EA
:10045000FEE7FEE7FEE7FEE7FEE7FEE7FEE7FEE774
:10046000FEE7FEE704480549054A064B70470000D1
:10047000ADDB0008AD010008C0A50220C0AB022022
:10048000C0A70220C0A7022070B5064600F056FBA8
:10049000056806F10B0020F00704B4429CBF002061
:1004A00070BD2B466A68BAB11068A04210D304F13F
:1004B000080188423CBF5068586007D35168101942
:1004C00041601168091B016058601460101D70BD07
:1004D00013465268002AE7D12146284600F03AFB2D
:1004E0000028DED170BD70B50446051F00F026FB64
:1004F0000068002C14BF446870BD002C18BFAC42CB
:100500003CBF20466468F8D301680A18AA4218BFA5
:10051000456003D12A6805461144016028684119E5
:10052000A1421CBF6C6070BD6168696021680844AD
:10053000286070BD0FB41CB5084B06AA7B44694601
:100540000090059800F0EDFD04460020694600F09B
:10055000FBFD20461CBC5DF814FB0000090C0000EC
:100560000FB41CB5084B06AA7B4469460090059859
:1005700000F0D7FD04460020694600F0E5FD204666
:100580001CBC5DF814FB0000DD0B000070B50446D8
:1005900085690068C10601D5302600E02026C00725
:1005A00007D070BDD4E9012130469047206A401C35
:1005B00020626D1EF6D570BD70B504468569007861
:1005C000C00707D170BDD4E9012120209047206ADF
:1005D000401C20626D1EF6D570BD70B50C460546F8
:1005E000012A05D02878800600D5EA69002302E0B8
:1005F000012305E05B1C934202D2E05C0028F9D1A4
:10060000A869E618C01AA861286A18442862284612
:10061000FFF7BCFF04E0D5E9012114F8010B904776
:10062000B442F8D32846FFF7C7FF70BD2DE9F0416B
:100630000646002410687529314616A510D000F032
:10064000DEFA002802DA404213A507E031688A0783
:1006500001D512A502E0490704D511A5012401E046
:1006600000F0D6FA00210A2206F1240709E0B0FBC7
:10067000F2FCB0FBF2F302FB1C0030307854184659
:10068000491C0028F3D123462A463046BDE8F041F4
:1006900000F0C7BA000000002D0000002B00000091
:1006A000200000002DE9F05F894604464FF0000A63
:1006B000DFF874B1FB44C0F820A02046E168884709
:1006C000002874D0252806D0D4E901219047206A5B
:1006D000401C2062F1E700265F462046E16888471B
:1006E0002028054607DB312D05D2781910F8200C9B
:1006F00008B10643F1E7B00701D526F00406C4F8B7
:100700001CA00027C4F818A02A2D09D0284617F0ED
:10071000BBF838B304EB8708303DC8F8185019E02F
:1007200059F8041B204604EB87029161E168884771
:10073000012F054618D1E069002820DA26F02006AE
:100740001DE0D8F8180000EB800005EB40003038C1
:10075000C8F818002046E1688847054617F094F865
:100760000028EED1012F0AD02E2D08D12046E168B5
:1007700088477F1C0546022F46F02006C4DBA0698F
:10078000002803DA404246F00106A061F00701D0DC
:1007900026F010066C2D0BD0682D09D04C2D39D0C9
:1007A0006A2D35D0742D35D07A2D33D016E038E04F
:1007B000E1682F4620468847B842054609D16C2F8C
:1007C00026D04FF48060E1680643204688470546FE
:1007D00004E06C2F1AD04FF4807006430DB3A5F1DE
:1007E0004100192802D8203546F400664A462946B9
:1007F000204626604E46FFF737FD80B101280BD01A
:10080000F61D26F0070000F1080956E74020E4E74E
:100810008020D8E70020D6E706F104094DE72846F6
:1008200052E7206ABDE8F09FF84E040070B5064616
:1008300000F088F90468054630460A22002100F0DD
:100840000DFE2C6070BD70B5064600F07BF90468A3
:10085000054630460A22002100F000FE2C6070BDE3
:100860000B4910B5A1F17C020A4CC2E937123721BD
:1008700006E000EB104342F82130074B00FB034039
:100880000B1EA1F10101F4DC10BD0120E8E700001E
:10089000F4A40220E119D666CD0D010040EA01035F
:1008A000024630B59B0710D14FF0013400E008C27A
:1008B00008C91D1B9D4315EAC41FF8D013F0FF01A2
:1008C00002F8011B0DD01B0AF8E711F8013B002BC1
:1008D00002F8013B05D011F8013B002B02F8013B67
:1008E000F3D130BD10B5431C02E010F8011B71B10B
:1008F0008107FAD14FF0013202C88C1A8C4314EAF6
:10090000C211F9D0C01A0A0603D0C01E10BDC01A09
:1009100010BD0A0401D0801E10BD0902FCD0401E8B
:1009200010BD032A40F2308010F0030C00F0158057
:1009300011F8013BBCF1020F624498BF11F801CBE2
:1009400000F8013B38BF11F8013BA2F1040298BF47
:1009500000F801CB38BF00F8013B11F0030300F0B1
:100960006780083AC0F0088051F8043B083A51F813
:1009700004CBA0E80810F5E7121D5CBF51F8043B5A
:1009800040F8043BAFF30080D20724BF11F8013BCD
:1009900011F801CB48BF11F8012B24BF00F8013B2F
:1009A00000F801CB48BF00F8012B7047431A28BF5D
:1009B0009A427FF6B6AF032A1044114440F22680D3
:1009C00010F0030F1EBF11F8013D521E00F8013D4B
:1009D00010F0030F7FF4F6AF11F0030300F08985E8
:1009E000083AC0F00B8051F8043D083A51F804CDA4
:1009F00040F8043D40F804CDFFF7F3BF121D5CBF83
:100A000051F8043D40F8043DAFF30080D20724BF05
:100A100011F8013D11F801CD48BF11F8012C24BF98
:100A200000F8013D00F801CD48BF00F8012C7047E7
:100A300010B5203AC0F00B80B1E81850203AA0E879
:100A40001850B1E81850A0E81850BFF4F5AF5FEAAD
:100A5000027C24BFB1E81850A0E8185044BF18C960
:100A600018C0BDE810405FEA827C24BF51F8043B07
:100A700040F8043B08BF7047D20728BF31F8023B5B
:100A800048BF11F8012B28BF20F8023B48BF00F8EF
:100A9000012B704702F0FF0343EA032242EA0242BD
:100AA00000F002B84FF000020429C0F0128010F0EC
:100AB000030C00F01B80CCF1040CBCF1020F18BF3A
:100AC00000F8012BA8BF20F8022BA1EB0C0100F0CD
:100AD0000DB85FEAC17C24BF00F8012B00F8012BA0
:100AE00048BF00F8012B70474FF0000200B51346D5
:100AF00094469646203922BFA0E80C50A0E80C503E
:100B0000B1F12001BFF4F7AF090728BFA0E80C50EE
:100B100048BF0CC05DF804EB890028BF40F8042BE7
:100B200008BF704748BF20F8022B11F0804F18BF54
:100B300000F8012B704770477047704700487047B6
:100B400064A50220004870475CA5022070477047EA
:100B50007047704738B504460A4600206946AFF32F
:100B60000080002808BF38BD02460099204600F0EA
:100B7000FBFC012038BD012001F030B8F8B5AFF31F
:100B80000080054600200C46102000BF0646A8192C
:100B9000A0420DD9324669460020AFF3008007001D
:100BA00008BF01F01BF80098A04218BF0546C41901
:100BB000FFF7C4FF05600746F01D20F00700461947
:100BC000284600F00AF8B44208BFF8BDA21B31461F
:100BD0003868BDE8F84000F0C7BC00210160C0E9FA
:100BE000011070471020704710B5FFF7ABFF006889
:100BF00010BD10B50446FFF7A5FF046010BD0968DD
:100C00004A0501D540B27047C905FCD500B270470E
:100C100009684A0501D5C0B27047C905FCD580B244
:100C200070472DE9F0470D4699469246044600F17B
:100C300024080168880604D5E06921F010012160CC
:100C400000E00120A84201DD471B00E00027A16968
:100C50007A1902EB0900081AA0612078C00602D4B4
:100C60002046FFF793FC002608E0D4E901211AF89A
:100C700006009047206A401C761C20624E45F4DB3B
:100C80002078C0060AD52046FFF780FC06E0D4E9AC
:100C9000012130209047206A401C2062381EA7F1B5
:100CA0000107F4DC07E0D4E9012118F805009047BA
:100CB000206A401C2062281EA5F10105F3DC2046B5
:100CC000FFF77AFC2078000602D50220BDE8F08705
:100CD0000120FBE711680268006A530501D508701E
:100CE0000AE0D30501D5088006E0130603D5C21734
:100CF000C1E9000200E008600120704770472DE95B
:100D0000FF4F0C461E464FF0FF378BB0D2E9000173
:100D1000DDF860800A908A46C1F30A5505B93D4660
:100D2000002108464FF00000BAF1000F00F4400027
:100D300005DA00EB80004FF4400101EA50004FEA71
:100D40009059B9F1010F00DDB9460A9850EA4A00FE
:100D50000ED044F61050A5F2FF3545432F14B8F1DC
:100D6000000F1ED07542291E1EDDC9F100021CE0D5
:100D7000B8F1010F4FF0000001D0302103E0F24341
:100D800005E02154401CB042FBDB3046002200212C
:100D900021540B99C1F80880C1E900200FB0BDE8CB
:100DA000F08FBD1B6D1CDEE74A4600DA694206A8DB
:100DB00000F086FE06AB93E8070003AB83E807006C
:100DC00050460A9901F06BFC8DE80700A0F5005031
:100DD0001F3800900398002D09DD42F21F014A469A
:100DE000084403A90390684601F0F5FE08E0A0F569
:100DF00000504A461F3803A90390684601F013FFCC
:100E00008DE807000004000C03D04FF0FF304108CC
:100E100000E01046B8F1000F03D000220092154602
:100E20001EE0751E05D400F0B9FB303262556D1E10
:100E3000F9D5B3460122084302D000227F1C04E00A
:100E40002078302801D100227F1E002A099786D001
:100E50001DE0112D07DA00F0A1FB303262556D1C48
:100E600050EA0102F5D1084302D00098C8B10EE063
:100E70000021681E05E0235C625C63542254401E1E
:100E8000491C8142F7DBAB46A81B401E099000209D
:100E900004F80B000B98099AC0F80880C0E9002BF1
:100EA0007CE711264FF0000859E72DE9F04F8846FE
:100EB0000446D21D22F0070191B0D1E90001CDE92D
:100EC0000A0115F053F802460B98C00F01D02D20EF
:100ED00007E02068810701D52B2002E0202101EAEC
:100EE000C000032A099001D0072A05DB03464146CA
:100EF000204600F01FFD0BE12078800601D5E06957
:100F000000E00620B8F1650F814606D0B8F1660F03
:100F100018D0B8F1670F70D131E00020B9F1110F8E
:100F2000009001DB112301E009F101030AAA01A9E4
:100F30000CA8FFF7E4FEDDE90C70002609F10105BD
:100F4000834647E001204B4600904FF000470AAA35
:100F500001A90CA8FFF7D3FEDDE90DB00C995D46A1
:100F6000002610B909F101000D18B9EB050003D4F2
:100F7000C0F1FF3609F10105A5EB09002BE0B9F13D
:100F8000010F01DA4FF001090020B9F1110F0090B3
:100F9000484601DD112300E003460AAA01A90CA876
:100FA000FFF7ADFEDDE90C704D4600268346207844
:100FB00000070AD4AB4500DA5D4601A8012D04DD27
:100FC000411911F8011C302907D04F4502DA17F1F9
:100FD000040F04DA012082460FE06D1EEEE7002FB9
:100FE00002DCED1B3E4403E0781CA84200DD7D1CC2
:100FF000B81B00F1010A4FF000472078000703D426
:10100000AA4501DB4FF0FF3A0021B7F1004F0DF187
:1010100043088DF8431024D002202B23002F01DA3F
:101020007F422D230A21021EA0F1010000DC5FB1E6
:1010300097FBF1FC97FBF1F201FB1C7C17460CF1CE
:10104000300C08F801CDEEE7A8F10100037021880B
:10105000090501D5452100E06521A0F1010800F84E
:10106000011C09980FA9A1EB0807FF1D00B1012081
:10107000411901EBEA70A1693844081A401EA061C9
:101080002078C00602D42046FFF780FA099828B1DC
:10109000D4E901219047206A401C20622078C006D4
:1010A00022D52046FFF772FA1EE0002E04DBB3457E
:1010B00002DD01A8805D00E03020D4E901219047E5
:1010C000206A401C2062761CAAF101005FEA000A37
:1010D0000AD100F045FAC0680168405CD4E90121FA
:1010E0009047206A401C2062281EA5F10105DCDC27
:1010F00007E0D4E9012118F8010B9047206A401C51
:101100002062381EA7F10107F3DC2046FFF754FAEE
:10111000032011B043E6000001694A1C026108780F
:10112000704700B58FB0CDE9013100210591054927
:101130007944CDE9031011466846FFF7B3FA0FB0C2
:1011400000BD0000E5FFFFFF0A6802F8010B0A601E
:10115000704710B5436913B1AFF3008001E0FFF7AA
:101160003CFA012010BD127800F124010A7000221F
:101170004A700122EDE711684FF0FF32E9E7000005
:101180002DE9FF5F15468A460446DFF8AC80F84437
:101190000027D8E900103E46CDE9001010E03AF8EB
:1011A00016106A4602A800F0F9FC411C07D021780D
:1011B000890603D5E269391891420DD80744761C97
:1011C0002078800602D5E069B84205DDAE42E6DB54
:1011D0003AF816000028E2D1A069C01BA0612046A1
:1011E000FFF7D4F9D8E90010CDE90010002017E08E
:1011F0003AF818106A4602A800F0D0FCB0F1FF3FA0
:1012000081460BD000250DF1080B05E0D4E9012142
:101210001BF8050090476D1C4D45F7D308F1010000
:10122000B0428046E4DB206A384420622046FFF763
:10123000C3F9BDE8FF9F00005E4504002DE9F041C1
:101240008046D21D22F007020025D2E90002F529CE
:1012500015A614D0011E72F1000106DA0023D0EBAE
:10126000030063EB020211A608E0D8F800108B0718
:1012700001D50FA602E0490701D50EA601251146AA
:10128000002408F1240704E000F088F930323A55D0
:10129000641C50EA0102F7D12B46324621464046F3
:1012A000BDE8F041FFF7BDBC000000002D000000CC
:1012B0002B0000002000000030B4002100F12404C5
:1012C00008E002F00705D208303542EA4372DB0835
:1012D0006554491C52EA0305F3D10468002310A2A7
:1012E000250708D504F020040C4304D0C469012369
:1012F0000CA2641EC46130BCFFF793BC10B5044659
:1013000021461068FFF784FC02462046BDE81040E5
:101310000023D1E7D21D22F00701D1E90023CBE75A
:101320000000000030000000F0B40D4601880905FF
:1013300002D5214C7C4402E01F4C7C440E34002139
:1013400000F1240608E002F00F071209E75D42EA07
:1013500003721B097754491C52EA0307F3D1027840
:101360000023120704D5702D06D009B102231134D1
:101370002246F0BCFFF755BC01231034F8E770B5E6
:1013800004460D4621461068FFF742FC02462946F6
:101390002046BDE870400023C6E7D21D22F00703B7
:1013A000D3E90023C0E70368126843F02003036019
:1013B0000823C3610023B7E7C04304000FB4002330
:1013C00000B589B00CA900910B99CB60204B7B44F0
:1013D0000693204B7B44079304236FF00042CDE932
:1013E00001321D4A7A446B4608920246002025F0DD
:1013F00006F909B05DF814FB70B506464FF0FF30F2
:1014000015460C46324686B00091CDE90101694689
:101410000020049004A8FFF7D1FF03460498211888
:1014200025B108B10A4600E022462A6000280DD006
:10143000002B02DD0098884208D03246081B69461E
:101440000094CDE9010404A8FFF7B8FF06B070BD11
:101450000F060000270600003F0200002DE9F047BC
:1014600091460F4680460446002614F8015B2DB1D4
:1014700000F06EF80068405DC007F6D12B2D02D059
:101480002D2D18D0641E4A463946204600F0C8FA71
:1014900027B13968A14201D1C7F800804FF002049A
:1014A00071050BD54042002803DDFFF74BFB0460BC
:1014B000A007BDE8F08746F48066E4E70028F8DA84
:1014C000FFF740FB04606FF00040F2E7431A28BFCB
:1014D0009A427FF6ADAA104410F0030F11441EBFCC
:1014E00011F8013D521E00F8013D10F0030F7FF48A
:1014F000F6AF103AC0F00A8010B531E91850103A32
:1015000020E91850BFF4F9AFBDE81040530724BFDD
:1015100031E9081020E9081044BF51F8043D40F8B3
:10152000043D12F0030F08BF7047D20728BF31F8FF
:10153000023D48BF11F8012C28BF20F8023D48BFEA
:1015400000F8012C70470000004870475CA502209D
:1015500010B500F005F8001D10BD00BF7541020078
:10156000004870477CA50220034640688C4600284E
:1015700018BF88423CBF03464068F8D31868184437
:10158000884207D00CF1030020F00700001D411A2B
:10159000521A0146081D0A60FEF7A5BF30B5B0F12A
:1015A0000A024FEA900E71F100034EEA817EB0EB21
:1015B0000E0061EB91014FEA101E4EEA017E10EB26
:1015C0000E0041EB11114FEA102E4EEA016E10EBA6
:1015D0000E0041EB11214FEA104E4EEA014E10EB86
:1015E0000E0041EB1141401841F100014FEAD000DB
:1015F00040EA41704FEAD10110EB80054FEA8104C7
:1016000044EA907444EB01046D1944EB0404521B4A
:10161000A3414FF0000348BF0A3200D530BD401C43
:1016200041F1000130BD10B50446FFF791FF00689D
:10163000005D00F0010010BD2DE9F04F04460D469D
:10164000D21D22F0070089B0D0E900924846174623
:10165000394614F08BFC0246F80F01D02D2307E029
:101660002068810701D52B2302E0202101EAC00375
:101670008DF820300BB1012000E00020032A8246C3
:1016800001D0072A04DB2946204600F053F93DE14A
:101690002078800601D40D2500E0E569C7F30A56DD
:1016A0000D2D49DA00214FEA175B08464FF0000084
:1016B000002F00F4400007DA00EB80004FF44001F7
:1016C00000EBD07001EA60008115012901DD4FF0C7
:1016D000FF3100224FEA850CBCF1180F06D31346E8
:1016E000ACF118004FF08052C24003E04FF4801379
:1016F00023FA0CF30CF10C0CBCF1200F04D3ACF169
:10170000200C09FA0CF001E007FA0CF000294FF068
:10171000004801DD18B90FE00ED140450CD319EB9C
:1017200002095F4121B9404502D19F4329EA0209DC
:10173000BBEB175F00D0761C2088000502D57B48E4
:10174000784402E079487844193808AA302302F82E
:101750000A30037C0AF10101002E0AF1020A5354F7
:101760006A4602DC4FF0300101E04FF031014FF0EA
:1017700001088DF8001002D0A6F2FF3603E059EA06
:10178000470100D06A4E002D02DC2178090704D5FC
:101790004FF002082E218DF80110C44600210BE005
:1017A000C7F303433F01C35C491C6D1E02F80830B8
:1017B000052908F1010801DA002DF1DC00210CE017
:1017C00000EB1973491C1B786D1E082902F80830BC
:1017D0004FEA091908F1010801DA002DF0DC21783F
:1017E000890602D514E0A8F10108E04505DD02EB09
:1017F000080111F8011C3029F5D0B8F1000F07DD00
:1018000002EB080111F8011C2E2901D1A8F10108F1
:10181000002D05DD3E2102F808106D1E08F10108BB
:10182000407C002E02F8080008F1010804DA2D209F
:10183000764202F8080002E02B2002F808000A2194
:101840004FF47A70864208F101080BDB96FBF0F347
:10185000303302F8083096FBF0F308F1010800FB82
:10186000136601E0642E0CDB642096FBF0F330334A
:1018700002F8083096FBF0F308F1010800FB13664C
:1018800001E00A2E06DB96FBF1F0303002F808008A
:1018900008F1010896FBF1F001FB1060303002F80E
:1018A0000800A16908F1010808EB050202EB0A0033
:1018B000081AA0612078C00602D42046FEF766FE12
:1018C000216A08AE01EB0A00206204E0D4E901219C
:1018D00016F8010B9047BAF1010AF7D22078C0063A
:1018E00002D52046FEF752FE6E4609E016F8010BBF
:1018F0003E280FD0D4E901219047206A401C206285
:10190000B8F10108F2D22046FEF756FE09B00320D6
:10191000BDE8F08F206A2844206203E0D4E9012169
:10192000302090476D1EEBD3F8E70000174104000C
:1019300002FCFFFF2DE9F0411F4604460326016823
:10194000072A01F4006004DB08B116A505E016A51E
:1019500003E008B115A500E015A521F010002060F6
:10196000A069C01EA0610FB1401EA0612046FEF715
:101970000DFE4FB1D4E9012138469047206A401C42
:101980002062C01C206206E0206AFAE7D4E9012147
:1019900015F8010B9047761EF8D22046FEF70CFE94
:1019A000BDE8F0814E414E006E616E00494E46002A
:1019B000696E660010B5436913B1AFF3008001E0B2
:1019C000FFF7DEFB012010BD128800F124018284A4
:1019D0000022C2840122EDE711684FF0FF32E9E7EF
:1019E000426842B1016811F8013B23B1521EC0E9BF
:1019F0000012184670470121C160881E7047426876
:101A00005AB1C368016843B983688B4205D0491E47
:101A1000521CC0E90012002070474FF0FF307047A1
:101A20002DE9F05F824615468B4600270AF1010436
:101A3000B9460078302801D09DB113E014F8010BAD
:101A40000127782803D0582801D045B10AE00DB10C
:101A5000102D07D1002714F8010B102502E00825EE
:101A600000E00A250026B0460EE005FB080005FB55
:101A700006F101271FFA80F801EB1046B6F5803F0A
:101A800000D3B94614F8010B294600F0D4F8002819
:101A9000EBDABBF1000F05D00FB1641E00E0544635
:101AA000CBF80040B9F1000F06D0FFF74BF8022148
:101AB0000160C81EBDE8F09F48EA0640FAE7000052
:101AC0002DE9F047814616468AB0334878440DC860
:101AD0008DE80D0030487844801C03AC0DC884E8C4
:101AE0000D0041F69B300844372190FBF1F290FB4A
:101AF000F1F5A5F1800501FB12041B3C02D56442FF
:101B0000012000E00020DFF890A080460027FA4482
:101B1000AAF1BE0A0DE0E00709D03246684607EB9D
:101B200047010AEB810101F07EF88DE8070064109F
:101B30007F1C002CEFD1184F7F44AC3F18E0E80722
:101B400014D007EB04100DF1180A90E80E008AE893
:101B50000E00C068F04201D198190890324606A9DB
:101B600003A801F060F803AB83E807006D10641C64
:101B7000002DE4D132466946B8F1000F03A802D027
:101B800001F029F801E001F04EF8C9E90001C9F8B7
:101B900008200AB0BDE8F0871C3E040070B5164668
:101BA0000C460546FFF7D4FC036893F801010128B1
:101BB00006D0FF2C0FD8185D68B101202C7070BDC5
:101BC000D3F807013246214603F20713034428469F
:101BD000BDE8704018474FF0FF3070BD10B500F001
:101BE00097FABDE8104000F08DBA70477546FFF7D0
:101BF000ABFCAE4605006946534620F0070085461B
:101C000018B020B5FEF72EFCBDE820404FF00006CE
:101C10004FF000074FF000084FF0000B21F00701D4
:101C2000AC46ACE8C009ACE8C009ACE8C009ACE817
:101C3000C0098D4670473A2800D2303820F0200283
:101C4000412A01D3A2F13700884201D34FF0FF307F
:101C5000704700002DE9FF4F064689B00878FF283D
:101C600006D0491C2D2805D000244FF0000908E0BB
:101C700000200CE00124F8E709EB8903491C00EB84
:101C800043090878FF28F7D114B1C9F10000814653
:101C9000107800252C46AA4629462D2801D02B284D
:101CA00004D1521C2D2813D0002082468B46107878
:101CB000FF280FD04FF0000C0A21521CA5FB017821
:101CC00004FB018105FB0C11C5194BEB0104EEE788
:101CD0000120EAE7002108464FF00000BAF1000FAA
:101CE00002D000EB80004008C0F38158B8F1010F2A
:101CF00001DD4FF0FF380C9809EB000755EA0400AE
:101D000009D04FF0020917F5FA7F0BDA4FEACA70D3
:101D1000C6E900B012E04FEACA70C6E900B00DB0E3
:101D2000BDE8F08FB7F5FA7F0DDDF0487844D0E9D3
:101D30000010C6E9001040EACA707060FEF702FFAA
:101D4000C0F80090EBE7391E02DAC8F1000200E0AB
:101D5000424600DA794206A8FFF7B2FE06AB93E8E6
:101D6000070003AB83E8070044F23E005BEA04018E
:101D70000090584604D144F21E012C465D46009165
:101D8000210C0904014306D10099240444EA1544B6
:101D90002D041039009104F07F41014306D10099D0
:101DA000240244EA15642D020839009104F07041C0
:101DB000014306D10099240144EA15742D01091F3D
:101DC000009104F04041014306D10099A40044EA87
:101DD0009574AD00891E009104F00041084304D1C0
:101DE00000986D196441401E009042466846002FDD
:101DF000CDE9014503A902DD00F029FF01E000F073
:101E0000FEFEBAF1000F04460D4601D084F00044F6
:101E100040F2FF7724F00040284303D0C4F30A5077
:101E2000B84212D1FEF78EFEC0F80090C4F30A50FB
:101E3000B8420AD1AE487844D0E90010C6E9001093
:101E400004F000410843706069E7C6E9005466E7A2
:101E50002DE9FF4F1F464FF0000A4FF0FF3845466F
:101E600091B0D7E90146CDF83CA0FFF779FBC068F7
:101E70000168405C1090B96912986D1C8847396AF6
:101E8000814688470028F6D1B9F1FF3F0AD0002EDD
:101E900024F4D06411DDB9F12B0F08D0B9F12D0F66
:101EA0000BD102E0404615B03AE744F48064B969CA
:101EB00012986D1C8847761E8146600504A901D5DD
:101EC0002D2000E02B20002E01F1010B0DF1300838
:101ED0008DF810003FDDB9F1690F08D0B9F1490F55
:101EE00005D0B9F16E0F02D0B9F14E0F1CD13B46AF
:101EF00001A8009580E85002DDE912126FF002009F
:101F000024F081FBC11CCED10EE0B96912986D1C82
:101F1000884781461398761E44F4007405600F9834
:101F2000401C002E0F9016DDB9F1300FEDD0B9F145
:101F3000780F02D0B9F1580F0DD10F9801280AD1AE
:101F40003B46CDE90054DDE91212001F029624F051
:101F500058FBC11CA7D1109989453ED144F080049B
:101F600006E01399681CAAF1010A44F400740860A1
:101F7000B9696D1C1298761E884730288146F0D0CA
:101F80002BE01099894505D1200603D4761E44F034
:101F9000800418E0484615F077FC08B3761E0DF172
:101FA00023018B4544F4007408D2A9F130000BF8EA
:101FB000010B200607D5AAF1010003E0200602D498
:101FC0000AF101008246A00502D51399681C086039
:101FD000B96912986D1C88478146002ED1DC53E008
:101FE000002E51DDB9F1650F02D0B9F1450F4BD18B
:101FF000A00549D5B9696D1C1298761E24F4407469
:102000008847002E81460CDD2B2804D0B9F12D0F16
:1020100007D144F48074B96912986D1C8847761E04
:102020008146E00501D52D2100E02B2108F8011B98
:10203000CDF8008021E0761E0DF13901884544F489
:1020400000740CD2A9F1300010F0FF0088F80000F5
:1020500002D10099884509D908F1010806E0E00598
:1020600001D5244801E042F20F708246B969129806
:102070006D1C8847814613980560002E04DD484694
:1020800015F002FC0028D6D1F96912988847FF2084
:1020900053468BF8000088F8000000200A900B904F
:1020A00004AA0CA90AA8FFF7D5FDA00502D46FF079
:1020B0000100F8E614F0240F0AD0E00714D13868C4
:1020C000DDE90A12031D3B600068C0E900120BE065
:1020D0000AA9684615F030FBE00705D13868009A78
:1020E000011D3960006802602846DCE6843D04007A
:1020F0007A3C0400F1D8FFFF0446AFF3008020468D
:10210000FEF71DF9002801D000F06AB87047000002
:1021100010B5012805D0002103A000F067F80120C8
:1021200010BD09A1F8E7000053494752544D454DF1
:102130003A204F7574206F662068656170206D6568
:102140006D6F7279000000003A2048656170206D63
:10215000656D6F727920636F72727570746564005B
:102160004FF0013C50F8042B51F8043B9A4221D126
:10217000A2EB0C03934313EACC1317D150F8042BB2
:1021800051F8043B9A4215D1A2EB0C03934313EA96
:10219000CC130BD150F8042B51F8043B9A4209D1CF
:1021A000A2EB0C03934313EACC13DBD04FF00000F7
:1021B000704700BFD01A01BAB1FA81F101F01801DD
:1021C00022FA01F0CB40C1F12001DBB2C0B2C01A4B
:1021D0002CFA01F3D11A914311EAC311E6D17047E9
:1021E00001491820ABBEFEE72600020070B5054687
:1021F0000C460A2000E06D1C00F011F835B128787B
:102200000028F8D102E0641C00F009F814B120782D
:102210000028F8D1BDE870400A20AFF3008008B56F
:1022200069468DF800000320ABBE08BD2DE9FF4FC5
:102230001F464FF03C0987B04FF00042DDE9141013
:1022400001F10108DDF858A002EA40500390002097
:1022500004908346054604460590B969461E0898D1
:102260008847AAF1010A0290BAF1000F37DD0298FF
:102270002E2815D01021FFF7DEFC00282ADB4FF0B6
:10228000010B0499014316D0B9F1000F0BDB4A464C
:10229000C11700F0F1F905430C43A9F1040905E069
:1022A0000120059007E008B145F0010501200490E8
:1022B000059800B9361DB969089808F101088847E2
:1022C000BBF1000FAAF1010A0290CDD00999C1F823
:1022D0000080C9E70298702808D0502806D0F96914
:1022E00008988847BBF1000F14D04FE000200290FF
:1022F0000120BBF1000F049009D0B969089808F1DA
:1023000001088847AAF10109B9F1000F07DCF96952
:10231000089888476FF001000BB0BDE8F08F2B28BC
:1023200004D02D280CD14FF0FF300490B9690898E3
:1023300008F101088847A9F10109B9F1000FE6DDAC
:10234000411CE4D00A21FFF776FC0028DFDB02996C
:1023500008F1010801EB810100EB41000290B9692D
:10236000089888470A21FFF766FC099AA9F1010934
:10237000B9F1000FC2F8008001DD0028E7DAF96941
:10238000089888470499029800FB016655EA040002
:1023900004D004F04041090002D006E0039898E020
:1023A000A40044EA9574AD00B61E04F00041080094
:1023B00002D16D196441761E159810F0240F03D0D8
:1023C0004FF00B095C4803E04FF028096FF07D00E7
:1023D0008246564507DAAAEB06018944B9F1410F56
:1023E00001DD4FF0410901200021A9F1010200F0B7
:1023F00043F9024628400B462140084301D0012101
:1024000000E00021501E029143F1FF31284021409D
:10241000084301D0012000E000200299834651EAE0
:102420000B014FD0002108464FF00000039900F443
:10243000400039B100EB80004FF4400100EBD07058
:1024400001EA60008015012802DD4FF0FF3000E056
:1024500013D0401C36D0029860B3BBF1000F0CD1F2
:102460004A460120002100F007F928402140084396
:1024700001D0012000E00020E0B101204A46002107
:1024800000F0FAF8034640190A4661412D1A8C41C2
:1024900011D3B9F1400F09DD159810F0240F02D0C7
:1024A000AAF1340603E0AAF1170600E0761C002525
:1024B0004FF0004406E05B1E42F1FF3220EA0305C4
:1024C00021EA0204CAF10100B04206DA1B4903986E
:1024D00008430190002000900EE0039AC4F3D3213A
:1024E000E80A0A43164940EA44500A433146CDE916
:1024F0000002684615F07CF9159810F0240F0BD0F7
:102500001598C00715D13868DDE90012031D3B603E
:102510000068C0E900120CE002A8694615F00CF949
:102520001598C00705D13868029A011D3960006806
:1025300002604046F0E6000002FCFFFF0000F07F72
:102540000000F03F2DE9FF4F92461D4685B04FF049
:102550000041DDE9124BDDE914727F1E01EA4B50A8
:10256000414940F0FF4940EA0108002122F02000E3
:102570004928049102D04E2828D04CE03BA00126E7
:1025800007C88DE80700A9690698641C88477F1E64
:10259000014606D41DF8060018B121F02001814241
:1025A0000BD0E96906988847032E34D0082E32D024
:1025B0006FF0010009B0BDE8F08F761C032E01D04A
:1025C000082EE0D1601CCAF80000DCE7A969069873
:1025D000641C88477F1E2AD420F02000412826D181
:1025E000A9690698641C88477F1E20D420F020002B
:1025F0004E281CD1A9690698641C88477F1E48F4A0
:10260000002849F48009CAF8004001D4282806D0DF
:10261000E969069888475FEACB7012D022E0A96981
:102620000698641C88477F1E01D4002803DAE969F4
:1026300006988847BCE72928F1D1641CCAF80040F5
:10264000E9E71BF0240F07D028680499031D2B60CD
:102650000068C0E9001805E02868021D2A600068CB
:10266000C0F800902046A5E70000F07F494E46499B
:102670004E49545900000000B2F120030AD5C2F1BE
:10268000200301FA02F120FA03F300FA02F041EA12
:102690000301704700FA03F14FF0000070475FEA52
:1026A000400C08BF91F0000F4FEA8C234FEAC12283
:1026B00043EA51514FEA1C5018BF00F5F0404FEA71
:1026C000300018BF41F000415FEA6C5C00F02980E7
:1026D000BCF1FF3F08BF40F080407047130C06BFBD
:1026E00012044FF0100C4FF0000C130E04BF120236
:1026F0000CF1080C130F04BF12010CF1040C930F22
:1027000004BF92000CF1020CD30F04BF52000CF175
:10271000010C11464FF00002A0F11F00A0EB0C00CD
:10272000704711F0004F08BF704731F000413FF48F
:10273000D5AF0B0C06BF09044FF0100C4FF0000C86
:102740000B0E04BF09020CF1080C0B0F04BF0901AA
:102750000CF1040C8B0F04BF89000CF1020CCB0FA1
:1027600004BF49000CF1010CCCF12003A0EB0C00DC
:1027700022FA03F302FA0CF241EA030100F101002C
:10278000704720F07F4C80EA030023F07F47ACEBDA
:10279000070303F57C5300F0004003F1FF032DE92C
:1027A00080494FEA154B09B44FEA144325EA0B4E12
:1027B00024EA03480FF2042606EB132749083E7863
:1027C0005FEA320203FB0667C7F5000707FB06F660
:1027D0004FEA54374FEAD64606F1020607FB066C6D
:1027E000CCF1005C4FEA1C472CEA074C07FB06F4CF
:1027F0000CFB06F504EB15464FEA961634BF002095
:102800004FF000404FEAD13706FB07FC4FEA1C4C63
:102810000CFB0BF7D21B03FB0CF761EB07010CFB66
:102820000EF7B0EB074072EB17420CFB08F734BF12
:10283000A2EB0742B2EB074261EB17414FEA0C44AF
:102840004FEA910706FB07FC4FEA1C4C0CFB0BF709
:10285000B0EBC74072EB573203FB0CF734BFA2EB6F
:10286000C742B2EBC74261EB57310CFB0EF7B0EB3E
:10287000C70072EB57720CFB08F734BFA2EBC7021C
:10288000B2EBC70261EB5771039F4FEA816141EAE6
:10289000921104EBCC044FEAD1374FEA826206FB77
:1028A00007FC42EA90124FEA80604FEA1C4C0CFB96
:1028B0000BF7D21B03FB0CF761EB07010CFB0EF7C8
:1028C000B0EB074072EB17420CFB08F734BFA2EBEA
:1028D0000742B2EB074261EB17414FEA8C554FEAD2
:1028E000910704EB9C2406FB07FC4FEA1C4C0CFBF5
:1028F0000BF7B0EBC74072EB573203FB0CF734BF5A
:10290000A2EBC742B2EBC74261EB57310CFB0EF7AB
:10291000B0EBC70072EB57720CFB08F734BFA2EBA9
:10292000C702B2EBC70261EB577115EB4C254FEABA
:10293000816141EA92114FEA82624FEAD13742EA5D
:10294000901206FB07FC44F100044FEA80604FEA56
:102950001C4C0CFB0BF7D21B03FB0CF761EB0701C4
:102960000CFB0EF7B0EB074072EB17420CFB08F7BD
:1029700034BFA2EB0742B2EB074261EB174115EB04
:102980001C154FEA813141EA92414FEA823242EA14
:1029900090424FEA80304FEA0C7644F1000448EA56
:1029A00003434EEA0B484FF0000EB2EB080C71EBFC
:1029B000030724BF624639464EEB0E0E4FF0000B64
:1029C0000018524149414BEB0B0BB2EB080C71EB79
:1029D00003077BF1000B24BF624639464EEB0E0E17
:1029E0004FF0000B0018524149414BEB0B0BB2EB7F
:1029F000080C71EB03077BF1000B24BF62463946DC
:102A00004EEB0E0E51EA020718BF46F0010616EB18
:102A10000E7655F1000254F1000103D5BDE889019D
:102A2000BDE80088BDE88901BDE80048B6195241FB
:102A300041EB0101A3F10103704780807F7E7D7C23
:102A40007B7A7978777676757473727171706F6E40
:102A50006E6D6C6C6B6A6A696868676666656464EB
:102A6000636362616160605F5F5E5E5D5D5C5C5B75
:102A70005B5A5A59595858575756565555555454E4
:102A8000535352525251515050504F4F4F4E4E4D42
:102A90004D4D4C4C4C4B4B4B4A4A4A49494948488E
:102AA00048474747474646464545454444444443CE
:102AB00043434342424242414141000046EA064606
:102AC000A3F570534FEA164646EA42564FEAD22221
:102AD00042EA415210B54FEAD121A3F1010300F0BF
:102AE00017F820F0004000F1010C00F0004701EB66
:102AF00000501146BCF5006F40EA070000D210BD3F
:102B000002484FF0000140EA070010BD0000F07FCE
:102B1000002B26D4770021D01CB54FEA370703B429
:102B20004FF010004FF010014FF000000FBCBDE857
:102B300010400BF1010BBBF1010F08BF5FEA170753
:102B400022BF12F1010211F101014FF0004143F1E6
:102B5000000300F0004043EA00007047F9D3570833
:102B6000DAE746EA064613F1400F4FEA16461FDD44
:102B700013F1200FDFBF16430A46002120335B42CA
:102B8000C8D0C3F1200746EA064602FA07F74FEA23
:102B9000164646EA0706C3F1200722FA03F201FAB5
:102BA00007F721FA03F14FF0000342EA0702B1E709
:102BB00046EA020646EA06464FEA164646EA010695
:102BC000BCBF46EA0646360C4FF000034FF0000249
:102BD0004FF000019EE72DE9C048934630B491E8DC
:102BE000380007C831EA400C48BF34EA430C03D52B
:102BF000FFF7C7FDFFF78CFFF0BCBDE800882DE9AB
:102C0000C048934630B491E8380007C831EA400C18
:102C100048BF34EA430C03D5FFF7B3FDFFF74EFF7F
:102C2000F0BCBDE800882DE9C048934630B491E877
:102C3000380007C810F0804F08BF13F0804F03D151
:102C400000F019F8FFF764FFF0BCBDE800882DE93B
:102C5000C048934630B491E8380007C810F0804F60
:102C600008BF13F0804F03D100F005F8FFF726FFEF
:102C7000F0BCBDE8008820F07F4780EA030023F025
:102C80007F4C07EB0C03A3F57C5300F00040A3F14D
:102C9000FE0392F0000F00F0B38095F0000F00F0FB
:102CA00077802DE901494FEA11404FEA144621EAA5
:102CB000004800FB06FC24EA064708FB06F607FB73
:102CC00008F800FB07F718EB06484CEB164C4FEAE8
:102CD000124B18EB07484FEA15464CEB174022EA17
:102CE0000B4E0BFB06FC25EA06470EFB06F607FB20
:102CF0000EFE0BFB07F71EEB064E4CEB164C4FF08F
:102D000000061EEB074E4CEB174B18EB0B0840F17F
:102D1000000018EB0E0B58EB000840F100008F1A72
:102D20004FF000013CBFC943661B14BFB5EB040C58
:102D300000213CBFC943F61B4FEA17444EEA8E0EF2
:102D400027EA04454FEA1C4704FB07622CEA074CBC
:102D500005FB07F70CFB05F604FB0CFC16EB07461E
:102D600042EB174216EB0C4642EB1C421BEB0606ED
:102D700058EB0202414146EA9E0601D5BDE80189B1
:102D8000B619524141EB0101A3F10103BDE80189EC
:102D90004FEA14454FEA114724EA054621EA074C59
:102DA00005FB07F406FB07F70CFB06F105FB0CFC23
:102DB00011EB074144EB17444FEA124711EB0C416A
:102DC00044EB1C4422EA074C05FB07F206FB07F71D
:102DD0000CFB06F605FB0CFC16EB074642EB174214
:102DE00016EB0C4642EB1C456A1854F1000148BF33
:102DF0007047B619524141EB0101A3F1010370473D
:102E000095F0000F37D04FEA11424FEA144721EAFC
:102E1000024624EA074C02FB07F106FB07F70CFB0E
:102E200006F402FB0CFC14EB074441EB17414FEA9C
:102E3000154714EB0C4441EB1C4125EA074C02FBFF
:102E400007F506FB07F70CFB06F602FB0CFC16EB7E
:102E5000074645EB174516EB0C4645EB1C4212198D
:102E600051F1000148BF7047B619524141EB0101D1
:102E7000A3F1010370474FEA14454FEA114724EAD2
:102E8000054621EA074C05FB07F106FB07F70CFB9B
:102E900006F24FF0000605FB0CFC12EB074241EB7B
:102EA000174112EB0C4251EB1C4148BF704792187E
:102EB00041EB0101A3F10103704700007CB55820EC
:102EC00001900025002400E0641C4FF400611748C5
:102ED00005F092FA18B94CF250308442F4DB00E06D
:102EE000641C4FF40061114805F086FA18B14CF2E9
:102EF00050308442F4DB47F23050844201DB002042
:102F00007CBD012101A800F08BF80321684600F088
:102F10007BF89DF8000005449DF8010000EB0525B5
:102F20009DF8020000EB05252846E9E7000802406D
:102F30003EB516A00068029015A00068019015A08B
:102F4000006800900024042102A800F069F8042120
:102F5000684600F065F800BF4FF400610E4805F0C8
:102F60004BFA18B14CF250308442F5DB042101A831
:102F700000F056F800BF4FF40061074805F03CFA36
:102F800018B14CF250308442F5DB3EBD10004000D9
:102F900008A40280088402800008024038B50FA00F
:102FA00000680090002400BF4FF400610C4805F059
:102FB00023FA18B94CF250308442F5DB00BF4FF4CD
:102FC0000061074805F018FA18B14CF250308442FD
:102FD000F5DB0421684600F023F838BD68040001E1
:102FE000000802401CB506A103C9CDE90001062175
:102FF000684600F015F80A2004F088FF1CBD0000A8
:10300000FFFFFFFFFFFF000070B504460D460123E0
:103010002A462146014807F065F870BD843E02202B
:1030200070B504460D4601232A462146014807F0A3
:1030300077F970BD843E02203EB504460CA00068BE
:1030400002900CA0006801900BA0006800900CB1E9
:10305000694600E001A908460421FFF7E1FF0421C9
:1030600002A8FFF7DDFF0A2004F050FF3EBD00007C
:1030700008040001100040001000200010B52DEDE4
:10308000088B012204211F4805F0BEF91E4804F0F8
:1030900059FEC8211C4804F013FE1B4804F0BCFD77
:1030A000044622F02DFE41EC180B174804F0AEFE4A
:1030B00000220421134805F0A7F99FED140B53ECEF
:1030C000102B51EC180B22F06BFE41EC1B0B9FED0B
:1030D000110B53EC102B22F00BFC41EC1A0B9FED63
:1030E0000F0B53EC102B22F003FC41EC190B9FED5E
:1030F0000D0B53EC102B22F053FE41EC100BBDECEA
:10310000088B10BD000802401C3D0220000000009A
:103110000000104000000000000008400000000017
:103120000000B0406666666666660A405A490968ED
:1031300021F44031594AC2F804131146D1F804135E
:1031400042681143544A11600168496821F4807152
:103150000268516001684A68016942EA0121026817
:1031600051600168496821F040710268516001684E
:10317000496882681143026851600168896821F4D6
:1031800000610268916001688968C2681143026841
:103190009160434AC16A914218D00168896821F060
:1031A00070610268916001688968C26A11430268AF
:1031B00091600168896821F040510268916001685E
:1031C0008968026B1143026891600BE001688968AD
:1031D00021F07061026891600168896821F04051B6
:1031E000026891600168896821F0020102689160BB
:1031F00001688A68816942EA410102689160416A16
:10320000D1B10168496841F4006102685160016808
:10321000496821F460410268516001684A68816A26
:10322000491E4FF4604393FAA3F3B3FA83F3994032
:103230000A4301684A6005E00168496821F40061B9
:10324000026851600168C96A21F470010268D162A4
:103250000168CA6A018C491E42EA01510268D162C2
:103260000168896821F400710268916001688A68C8
:10327000C16942EA4121026891600168896821F4CC
:1032800080610268916001688A68416942EA81212F
:103290000268916070470000042301400020014053
:1032A0000100000F10B50446E2B24FF4004102489D
:1032B00005F0AAF810BD0000001C024010B504463D
:1032C000E2B20821014805F09FF810BD002002403D
:1032D000002800DC40427047014601F00F000A114F
:1032E00002EB820200EB4200C0B2704701460A20A6
:1032F00091FBF0F200FB12100A2291FBF2F200EBBC
:103300000210C0B2704700002DE9F04F87B00446AC
:103310000E4617469846DDE911A9109D204604F097
:1033200093FB8346C4EBC4001B4951F82000C4EB57
:10333000C401194A02EB810189680BFB0100C4EB4F
:10334000C40102EB8101C96807FB0161C4EBC4023F
:10335000114B03EB8202526901FB020006904846C2
:1033600009EBD071C5EB61010591C4EBC4001946AE
:1033700001EB8000C068401B0490DDE904012B468E
:10338000CDE900A1029041462046069A00F0E6FEF3
:1033900007B0BDE8F08F00008C14022000B52DEDC1
:1033A000028BB3B0C822484901A8FDF741FB0020B9
:1033B00000F006FFFFF762FEB0EE408AF0EE608A92
:1033C0009FED420B53EC102B51EC180B22F0ACFC90
:1033D00010D2642014F016FB642004F097FD6420E2
:1033E00014F010FB642004F091FD642014F00AFB3B
:1033F00000BFFEE74FF4FA7004F088FD012000F0F2
:10340000DFFE0120FFF75AFF14F01CFB0AF0DCFA84
:1034100001200AF007F9012291022E4804F0F4FF7E
:1034200002F088FF0AF08EFE7C222B492B48FDF724
:10343000FFFA4FF482622A492A48FDF7F9FA274831
:10344000006841F2BE5188422ED07C212348FDF70E
:103450004BFB4FF482612348FDF746FB41F2BE501F
:103460001E4908601420886601204866C8654862C5
:10347000C863086488650520C86614200867B3EE31
:10348000090A084680ED0D0A17A1001DFDF768F82E
:1034900002201249886201200866C82201A9114849
:1034A000FDF7C6FA01F0CCFA09F0A4F9C82004F03F
:1034B0002DFD012008F04AFA14F0BCFA19F07AF850
:1034C00033B0BDEC028B00BD28EF03083333333338
:1034D00033330B400018024000001F08D484022040
:1034E00000001E08C480022044544343534F4C4FF5
:1034F000000000002DE9FE4304460E461546204616
:1035000004F0A2FA0746C4EBC400144951F82000A5
:1035100007FB0608C4EBC40051F8200007FB0509AF
:103520000021C4EBC4000D4B03EB80000069CDE922
:103530000001C4EBC4000291194601EB80004A4629
:103540004146C368204600F009FEC4EBC4000349AD
:1035500001EB80008560BDE8FE8300008C14022032
:103560002DE9F04F85B004460D4616461F46DDE9AD
:103570000F8BDDF838A0204604F066FA8146C4EBD4
:10358000C400264951F82000C4EBC401234A02EBD1
:103590008101496809FB0100C4EBC40102EB810110
:1035A000C96806FB0151C4EBC4021C4B03EB820249
:1035B000526901FB02000490C4EBC400194651F8A3
:1035C0002000C4EBC4011A4602EB8101496809FBE3
:1035D0000100C4EBC40102EB8101C9680AFB01715F
:1035E000C4EBC40203EB8202526901FB02000390A8
:1035F0000021C4EBC4001A4602EB8000C068A0EBB7
:1036000008004346CDE900B002912046DDE90321E0
:1036100000F0A4FD05B0BDE8F08F00008C1402207E
:1036200038B5044620128DF80000E0B28DF8010094
:1036300000224FF48061074804F0E6FEC82302220E
:103640006946054806F06CFE01229102014804F02B
:10365000DBFE38BD00180240343F0220F0B52DEDEE
:10366000108B85B00546B0EE408AF0EE608A55B901
:103670004D4807F0A8F94C4807F027F947F6FF70C6
:10368000FFF7CEFF8BE0002048490860284622F073
:1036900037FB41EC1A0B4648006822F01AFB41EC5C
:1036A0001C0B53EC1C2B9FED430B51EC100B22F029
:1036B0001FF941EC1B0B53EC1A2B22F019F941ECCA
:1036C000190B22F0D9FA064600245EE0384800685B
:1036D00022F0FFFA41EC1D0B204622F011FB41ECD9
:1036E0001F0B9FED360B53EC102B22F059FB41ECD6
:1036F0001E0B53EC1D2B22F0FBF841EC1C0BB0EE23
:103700004C0AF0EE6C0A13F037FBB0EE40BAF0EE64
:1037100060BAF1EE040A88EE200ADFED2A0A20EEF4
:10372000200A10EE107A384622F08AFE53EC1B2B4A
:10373000CDE900019DED000B51EC100B22F030FBA8
:1037400041EC190B9FED1F0A68EE800AB1EE041AD6
:1037500080EE810ADFED1C0A30EE200A10EE107AAE
:10376000384622F06DFE41EC1A0B53EC192B22F077
:1037700003F8CDE902019DED020B51EC100B22F094
:103780007BFA124921F81400641C0948006884423D
:103790009CD330460AF044FA034807F005F905B017
:1037A000BDEC108BF0BD00003C25022090000020F5
:1037B0008C00002000000000F40694414AD8124D0D
:1037C000FB21194000FF7F4700FEFF4678250220BD
:1037D00038B50446206940680090009820F0020047
:1037E000801C009000992069416003200BF03AFC96
:1037F00038BD70B506460C4604F08000802808D11C
:1038000004F07F0000EB800106F58E7000EBC1052F
:1038100007E004F07F0000EB800106F55D7000EB2F
:10382000C10504F07F00287004F08000C0096870B2
:10383000294630460BF08EFF002070BD70B506465D
:103840000C4604F08000802808D104F07F0000EBD3
:10385000800106F58E7000EBC10505E004EB8401E4
:1038600006F55D7000EBC1050020A87004F07F0034
:103870002870C4F3C0106870294630460BF042FF30
:10388000002070BD70B505460C4604F0800080280D
:1038900005D104F07F0128460CF056F902E02846D5
:1038A0000CF02CF9002070BD2DE9F04106460D46C4
:1038B00090461F4605F08000802808D105F07F0063
:1038C00000EB800106F58E7000EBC10407E005F007
:1038D0007F0000EB800106F55D7000EBC10405F090
:1038E0007F00207005F08000C0096070C4F8088077
:1038F000E770607808B12078E080022F01D10020C5
:103900002071214630460BF0B1FE0020BDE8F08169
:103910002DE9F04105460E461746984606F07F0011
:1039200000EB800105F55D7000EBC104E760C4F8B1
:1039300014800020A061607006F07F002070E8789D
:10394000012800D12761207820B9214628460BF0B4
:10395000B1FD03E0214628460BF05DFF0020BDE8E5
:10396000F08108B500220092009A61F30A120092D9
:1039700002691268009B1A4303691A6008BD70B59A
:1039800006460C4604F08000802808D104F07F0031
:1039900000EB800106F58E7000EBC10505E004EB3D
:1039A000840106F55D7000EBC1050120A87004F0EC
:1039B0007F002870C4F3C0106870294630460BF0B1
:1039C000F8FE002070BD2DE9F04107460D46164671
:1039D000984605F07F0000EB800107F58E7000EB44
:1039E000C1040120607005F07F002070E660266150
:1039F0000020A061C4F81480207820B92146384600
:103A00000BF058FD03E0214638460BF004FF002080
:103A1000BDE8F0811CB5044620460BF016FDE068B9
:103A2000C068009020460CF0B9F803280BD10020A4
:103A3000A0704FF40070A080009820F4705000F542
:103A40001050009009E00120A0704020A080009854
:103A500020F4705000F5A05000900098E168C86014
:103A600000200190019820F4005000F500500190D2
:103A70000198E168486101201CBD0000F8B50546C9
:103A800000240020009028460CF0C7F8064690E07D
:103A900006F0010000287DD0E1B2284600F002FBCC
:103AA0000090009800F0010030B3012000FA04F704
:103AB0002869406BB843296948630020009000984A
:103AC00020F00100401C009005F1180050F824007F
:103AD00000998160E1B23948006842682846904701
:103AE000E878012808D13CB940F21110405D042863
:103AF00002D128460BF089FD0098C0F3C00060B1E8
:103B000000200090009820F008000830009005F197
:103B1000180050F82400009981600098C0F300104C
:103B200060B100200090009820F01000103000904C
:103B300005F1180050F82400009981600098C0F346
:103B4000801060B100200090009820F040004030CC
:103B5000009005F1180050F8240000998160009849
:103B6000C0F3400060B100200090009820F00200F7
:103B7000801C009005F1180050F824000099816025
:103B80000098C0F3C01028B12146284600F09EFAE4
:103B9000002000E00BE00090009820F080008030D2
:103BA000009005F1180050F8240000998160641C11
:103BB0007608002E7FF46CAF0120F8BDA81C002011
:103BC0007CB5044600250020019020460CF02DF81D
:103BD00006466FE006F00100002869D0E9B22046F1
:103BE0000CF02BF80190019800F00100C8B3002000
:103BF0000190019820F00100401C019004F1540054
:103C000050F8250001998160E078012817D104F16E
:103C1000540050F825000069009005EB850104F57B
:103C20005D7000EBC10080680099C1F31201411A78
:103C300005EB850204F55D7000EBC2008161E9B21D
:103C40001E480068026820469047E078012808D1A5
:103C50003DB940F21110005D052802D120460BF05D
:103C6000D4FC0198C0F3400060B10020019001989D
:103C700020F00200801C019004F1540050F825004F
:103C8000019981600198C0F3C00088B10B480068B9
:103C900081682046884700200190019820F00800A4
:103CA0000830019004F1540050F82500019981601A
:103CB0006D1C7608002E8DD101207CBDA81C002033
:103CC0003EB50446A07A70B1D4F80C01009000987B
:103CD00020F002000090009820F001000090009970
:103CE000D4F80C01016000200190019820F001003F
:103CF000401C01902069406801998843216948600F
:103D00000848006881692046884700200290029890
:103D100020F0004000F1004002900298E168486104
:103D200001203EBDA81C00207CB504460020019067
:103D3000019820F0100010300190E068806901992E
:103D40008843E1688861E068006A0090009800F0AC
:103D50000F0000EB800104F55D7000EBC1050098D9
:103D6000C0F3434007282DD2DFE800F02C04051DE6
:103D70001E2C1F0027E00098C0F30A1090B1009895
:103D8000C0F30A122046E9680BF061FFE868009969
:103D9000C1F30A110844E860A8690099C1F30A1147
:103DA0000844A8610FE00EE00DE0082204F2CC51B7
:103DB00020460BF04CFFA8690099C1F30A11084492
:103DC000A86100E000BF00BFE06880690199084376
:103DD000E168886101207CBD38B504460848006868
:103DE000C1682046884700200090009820F0080015
:103DF000083000900098E1684861012038BD00005B
:103E0000A81C00201FB50446002000904FF48970C4
:103E1000005D00902348006841692046884720697A
:103E20008068019000200390039820F4006000F562
:103E3000006003900398E1684861A07A70B301982C
:103E400000F0010050B340F21510005D012825D1AB
:103E50009DF80000032821D100200290029820F054
:103E60000100401C0290D4F80C010068029908433C
:103E7000D4F80C110860029820F00200801C029017
:103E8000D4F80C01006802990843D4F80C110860BA
:103E90000548006840F0060003490860012004B0AE
:103EA00010BD0000A81C002010ED00E030B587B068
:103EB0000446002002900690059004900390019023
:103EC000029820F00100401C02902069406802998D
:103ED000884321694860002120460BF035FE00250B
:103EE0000BE0FF2104F1180050F82500816004F177
:103EF000540050F8250081606D1C6078A842F0D80D
:103F00004FF0FF312069816106986FF30F00401C6C
:103F10000690069880B200F58030069006992069D8
:103F2000C161059820F0080008300590059820F040
:103F30000100401C0590059820F00200801C0590AF
:103F4000059920694161049820F00100401C04900B
:103F5000049820F0080008300490049820F0020033
:103F6000801C049004992069016120690068039015
:103F7000039820F4FE6003900399206901602046B5
:103F80000BF043FB00200190019820F4805000F5D5
:103F9000805001900198E168486104480068016917
:103FA00020468847012007B030BD0000A81C002033
:103FB0002DE9F04106460F46394630460BF05CFECF
:103FC00001214FF4897081550021801C8155002505
:103FD00011E005EB850106F58E7000EBC1040120B0
:103FE00060702570E5800020E0704020A060002017
:103FF000E06060616D1C7078A842EAD8002510E08E
:1040000005EB850106F55D7000EBC10400206070D2
:104010002570E580E0704020A0600020E0606061D5
:104020006D1C7078A842EBD830460BF0FDF9304695
:104030000BF029F8002130460BF086FE30460BF0DD
:10404000B5F830460BF049FDBDE8F08138B50446BF
:104050000020009007480068C16920468847009802
:1040600020F4801000F5801000900098E16848610D
:10407000012038BDA81C002038B50446002000905F
:1040800007480068016A20468847009820F400101D
:1040900000F5001000900098E1684861012038BDEB
:1040A000A81C002030B5024615692B6915696C6B98
:1040B00024FA01F505F0010543EAC51302F11805DC
:1040C00055F82150AD6805EA030030BD2DE9F843ED
:1040D00007460E4600250020009006EB860107F5F6
:1040E0008E7000EBC104D4E90501451AA068A8420E
:1040F00000D2A568E81C4FEA900807F1180050F8B4
:104100002600806900901BE0D4E90501451AA068EB
:10411000A84200D2A568E81C4FEA9008ABB2F2B200
:104120003846E1680BF037FEE0682844E060A0699B
:104130002844A06107F1180050F82600806900901B
:10414000009880B2404506D9D4E90510884202D2D1
:1041500060690028D8D10120BDE8F8832DE9F0413D
:10416000074606AC70CC01204FF4007CDFF84C8091
:10417000C8F800C0C446CCF80C10CCF83C20CCF8F1
:104180001050CCF84060CCF81C00A44663F31F4CE0
:10419000C8F844C0C446DCF800C04CF0010CC8F8B4
:1041A00000C000BFDFF814C0DCF800C00CF0010C48
:1041B000BCF1000FF6D1BDE8F081000000B0024074
:1041C00010B5044624B90548007808B100F038FC61
:1041D000E2B20421024804F017F910BD448B02201A
:1041E0000010024010B5002400F080F804E0601CCC
:1041F000C4B2012015F0C6FC00F01AF808B1C82CB2
:10420000F5DBC82C01DB012010BD002404E0601C9C
:10421000C4B2012015F0B6FC00F00AF808B9F02C81
:10422000F5DBF02C01DB0120EEE70020ECE70000DD
:1042300010B54FF480442146014804F0DDF810BD6C
:104240000000024070B504464FF48045E2B22946B2
:10425000014804F0D9F870BD000002402DE9F0419A
:104260002DED048B00F0A6F800F093F8FFF7BAFFED
:1042700028B19FED1B0ABDEC048BBDE8F081CC207A
:1042800000F0A4F8BE2000F0A1F800F071F8074695
:1042900000F06EF80446072C05DDE043C4B2F84395
:1042A000C7B2002600E001262546280205B2E8191B
:1042B00005B20EB1284600E0684205B2284621F05A
:1042C00008FD41EC190B9FED070B53EC102B21F06F
:1042D00067FD41EC180B21F01DFA00EE100ACAE749
:1042E00000000000000000000000B03F00B585B0F5
:1042F0004FF48040009000200190012002900220A5
:1043000003906946024803F06BFF05B000BD000052
:104310000000024000B585B04FF4804000900120BD
:1043200001900290022003906946024803F058FF72
:1043300005B000BD0000024010B5FFF7EBFF002004
:10434000FFF780FF022015F01DFC0120FFF77AFF28
:10435000FFF7CCFF0C2015F015FCFFF769FF08B143
:10436000012400E00024322015F00CFC204610BD92
:1043700070B50026012508E0FFF7DEFF0446E001E6
:1043800040EA6600C6B2681CC5B2082DF4DD3046AE
:1043900070BD10B5FFF7BEFF0020FFF753FF40F2DE
:1043A000EE2015F0EFFB0120FFF74CFF0F2015F07A
:1043B000E9FB10BD10B5FFF7ECFFFFF713FFCC20B2
:1043C00000F004F8442000F001F810BD70B5044678
:1043D000FFF7A0FF01251EE004F00106641066B19E
:1043E0000020FFF72FFF022015F0CCFB0120FFF784
:1043F00029FF3C2015F0C6FB0BE00020FFF722FF51
:104400003C2015F0BFFB0120FFF71CFF022015F038
:10441000B9FB681CC5B2082DDEDD70BD10B52DEDF1
:10442000088B112015490870012114481DF0C8F9A6
:104430000221124818F008F810494978881121F033
:1044400048FC41EC1B0B9FED0E0B53EC102B21F0A5
:10445000A7FC41EC190B0949087821F051FC41EC0B
:104460001A0B53EC192B21F087F941EC180B21F0B2
:1044700051F900EE100ABDEC088B10BD9800002029
:10448000000000000000D03F70B504460D4600203B
:1044900014490870012113481DF092F907211148B1
:1044A00017F0D2FF0F490878FEF716FFA8700D49E4
:1044B0004878FEF711FF68700A498878FEF70CFF0C
:1044C000287008490879FEF707FFA0700549487968
:1044D000FEF702FF607003498879FEF7FDFEE07089
:1044E00070BD00009800002010B50C480C49086011
:1044F0000C48486000210A488160C1604FF4804147
:104500000161002141618161C161016203F0B6FF77
:104510000021034803F084FF10BD00000058004054
:10452000AC2C0220801A060010B50F200D4908702F
:1045300001210C481DF044F901210A4817F084FFBD
:104540000848007800F0800050B10E20054908703E
:104550000420487000208870032102481DF030F9C3
:1045600010BD00009800002070B504460D460020E4
:1045700013490870A878FEF7B9FE114948706878A9
:10458000FEF7B4FE0E4988702878FEF7AFFE0C499E
:10459000C87001200871A078FEF7A8FE084948718C
:1045A0006078FEF7A3FE06498871E078FEF79EFE6C
:1045B0000349C871082102481DF002F970BD0000CE
:1045C0009800002010B5402003F0FCFD10BD000055
:1045D00070B50246012400230F48007A012818DC38
:1045E00000200D4D2D7A0C4E70553046057A001D79
:1045F00040F82520051F287A451C3572034603F133
:10460000300008703A2048702F2088700020C87051
:104610000024204670BD00008084002010B50022D8
:1046200001B909E0012901D10A0205E0022901D1FD
:104630000A0201E04FF440720B2800D9001D114B13
:104640001B6823F440730F4C236023461B681343FD
:10465000236023461B6823F0F803236023461B686E
:10466000F82494FAA4F4B4FA84F400FA04F444F0BC
:1046700002042343034C236023461B6843F4803326
:10468000236010BD103C024010B502460020144BC0
:104690001B6823F44073124C236023461B680343BA
:1046A0002360032906D123461B68E41323430C4CE3
:1046B00023600EE0012906D1094B1B6843F0040377
:1046C000074C236005E0064B1B6843F40043044C91
:1046D0002360034B1B6843F48033014C236010BDFF
:1046E000103C0240074A126822F44072054B1A60DF
:1046F0001A4612681A601A46126842F001021A60DD
:1047000001707047103C024010B50949096821F456
:104710004071074C21602146096841F440712160D5
:104720002146096841F0010121600260436010BD2B
:10473000103C0240084A126822F44072064B1A608C
:104740001A46126842F480721A601A46126842F0E1
:1047500001021A6001807047103C0240084A12684A
:1047600022F44072064B1A601A46126842F4007234
:104770001A601A46126842F001021A60016070471E
:10478000103C02402148006800F0100028B1204889
:10479000C06940F010001E49C8611C48006800F064
:1047A000200028B11A48C06940F008001849C861C3
:1047B0001648006800F0400028B11548C06940F074
:1047C00004001349C8611148006800F0800028B156
:1047D0000F48C06940F002000D49C8610B480068ED
:1047E00000F4807028B10A48C06940F0010008490F
:1047F000C8610648006800F0020028B10448C0699A
:1048000040F020000249C861704700000C3C0240A3
:10481000181F002070B50446002500201049C8610B
:1048200003F0F8FD054609E0601C38B124B103F03F
:10483000F1FD401BA04201D9032070BD094800686A
:1048400000F480300028EFD10648006800F4F970C9
:1048500018B1FFF797FF0120EFE70020EDE7000018
:10486000181F00200C3C024030B5024600230024F3
:104870000868012816D013686FF30E03D1E901050B
:104880002843CD6828430D6928434D6928438D6925
:104890002843CD6928430D6A28434D6A28430343C2
:1048A000136019E013686FF30E03D1E9070528437D
:1048B0004D6A2843034354686FF30E04D1E90105A0
:1048C0002843CD6828430D6928434D6928438D69E5
:1048D0002843044313605460002030BD02465069F1
:1048E00040EA4100506100207047F8B506460C468A
:1048F0001546002000900027D4E900010843A16874
:10490000491E40EA4110E16840EA412000900098C9
:10491000306103F07FFD07460BE0681C38B125B11C
:1049200003F078FDC01BA84201D90320F8BD012087
:10493000FCE7B06900F020000028EED100BFF5E7E9
:1049400070B50346154600220024012D1FD09A6839
:1049500002F070420868401E4E68761E40EA061655
:104960008868401E46EA0026C868401E46EA0036AF
:10497000088A401E46EA0046888A401E46EA0056DB
:10498000087E401E46EA006002439A6022E0DA6830
:1049900002F070420868401E4E68761E40EA061615
:1049A0008868401E46EA0026088A401E46EA0046FD
:1049B000087E401E46EA006002439C6804F0704492
:1049C000C868401E0603888A401E46EA0050044319
:1049D000DA609C60002070BD00B587B001200290B5
:1049E000022006900320039018200590049003F005
:1049F0004BFB01A902A803F097FA03F0EFFA07B006
:104A000000BD000010B586B00446002000900220D2
:104A100004900190012003901620029003F034FBD3
:104A200005A9684603F080FA2246E31703490220ED
:104A300003F0DEFA03F0D2FA06B010BD00001C0845
:104A4000F0B587B00020019002200590029001206F
:104A500004901720039003F017FB074606A901A84E
:104A600003F062FA074600240AE010480059C31711
:104A700005460F4821182A46022003F0B9FA241DE2
:104A8000B4F5826FF1D300240AE00A480059C31735
:104A90000546094821182A46022003F0A9FA241DD8
:104AA0007C2CF2D303F09AFA07B0F0BDC480022048
:104AB00000001E08D484022000001F082DE9F043E6
:104AC0000446C56887B090468946002002F036F952
:104AD000064625B1287910B146F0020001E026F023
:104AE000020002F02BF92069012558B1D4E9021225
:104AF0008DE826000395638822880468414648466D
:104B0000A0471EE0124F134B214638681B68427CB9
:104B1000E068984730B9E088012801D0002001E022
:104B20003868806BA288E388A1680095CDE90410FD
:104B3000CDE902320195638822884146484606F055
:104B4000C5FB07B03046BDE8F04302F0F7B80000FF
:104B50006C1D0020641D00201CB50024019401ACD4
:104B6000009400F0E7F81CBD2DE9FF4F83B08146AB
:104B700006988A46A0EB0A08109E00200090A2EB3F
:104B800009043568934654EA080018D02046FEF719
:104B90009FFB07464046FEF79BFB87420BDA204609
:104BA000444680464846D14682465846DDF818B00D
:104BB000069001200090002C07DD204606E007B09B
:104BC0004846BDE8F04F00F03BB96042A0420AD031
:104BD0004846D9466442C8F1000883464FF0FF3783
:104BE000DDF818A000E001275148B8F1000F11D0FE
:104BF00004EBD4714FEA610B01DACBF1000B4C48A6
:104C00000068807E88B3002F02DA3068204430606C
:104C100000257BE000990029016821D0897E11B12F
:104C20000027804615E007B05A4649465046BDE881
:104C3000F04F06F0ADBC28466D1C10F01FFE38B9D1
:104C4000D8F8000009EB0701406E426850469047D3
:104C50007F1CA742EFDD6D1E356007B0BDE8F08F09
:104C60008A7E1AB10027804617E019E0486E5A463E
:104C70005146036807B04846BDE8F04F184728463C
:104C80006D1C10F0FBFD38B9D8F8001009EB0700D7
:104C9000496E4A68514690477F1CA742EFDDDAE72C
:104CA00000250FE008FB05B090FBF4F101EB0A00D2
:104CB000009951B11E4A09EB05011268526E526803
:104CC00090476D1CA542EDDDC7E7194909EB0503C7
:104CD0000968496E4A6801461846F1E708FB05B0C5
:104CE00090FBF4F101EB0A00019030683844306029
:104CF00010F0C4FD48B9009890B10D4809EB0501CA
:104D00000068406E4268019890476D1CA542E5DD41
:104D10003068002F01DA20443060C01B30609CE70F
:104D2000034909EB05000968496E4A680199EBE7F8
:104D30006C1D00202DE9FF470F464049164680466E
:104D400009680C981D460A7E012A1CD0A8EB0600B3
:104D5000791B50EA01031CD0A2F1010912F052FDA7
:104D600000F58060824602F03FFE00FB09F45046E9
:104D700002F03EFE00FB09F1002C0CDAC4F50070D5
:104D8000801240420AE00090324639464046FFF722
:104D9000EBFEBDE8FF8704F50074A012002904DAD9
:104DA000C1F5007189124C4202E001F500718C12CC
:104DB000002804DD411C01EBD171491003E000EB38
:104DC000D0714910401E00EBD0704210002C04DD61
:104DD000601C00EBD070401003E004EBD470401076
:104DE000641E04EBD47308EB0104ADF800403C18DA
:104DF000ADF80240A8EB02045B10B21AADF8044013
:104E0000ADF808203144FC1AEA1AADF80C10284419
:104E1000ADF80A20ADF80E000023ADF806401A46A2
:104E20000421684600F08CF8394640460EF000FB3D
:104E3000294630460EF0FCFAABE700006C1D00205E
:104E4000064A13681A7E012A05D0521E02EBD2725E
:104E5000521000F005B85A6E526810476C1D0020C1
:104E60002DE9F05F0646884640F2C32002FB00F1C0
:104E70004FF47A7091FBF0F702FB02F102EBD27073
:104E800001EB600B1446B118234A301B7F1C1268DB
:104E9000526E13680A4641469847012538E000BF24
:104EA00005FB05F004FB040159451CDDBC4219DD7E
:104EB000194B06EB050AA6EB05091B68AAF10102CE
:104EC00008EB04015B6E09F101001B689847124B67
:104ED000AAF10102A8EB04011B6809F101005B6E55
:104EE0001B689847641E0C4B3219301B1B68924696
:104EF00008EB05015B6E81461B689847064B5246DE
:104F0000A8EB05011B6848465B6E1B6898476D1C43
:104F1000BD42C5DDBDE8F09F6C1D002070B5144694
:104F20000E4605460119001B00F0D2FC2246314610
:104F300028460EF02FFCBDE8704000F01DBC0000BC
:104F40002DE9FF4F43F6FF740F46664283B09B4640
:104F5000814600210BE000BF09EB8100B0F902009F
:104F6000A04200DA0446B04200DD0646491CB942C0
:104F7000F2DB67480068406900280DD0B0F90610E0
:104F80001A46A1EB0B01B14200DA0E46B0F902005D
:104F9000801AA04200DD0446B4E0DFF878A10020CA
:104FA0000546CAF8000088E0781E854201DA6B1CCD
:104FB00000E0002309EB850C09EB8302BCF9020039
:104FC000B2F90210A04244D1A14215D139F92330DF
:104FD000059A39F9251003EB020C4D4A0598126821
:104FE000084404EB0B01526E6045136801DA624617
:104FF0002AE00246604627E02846A4464FF0000813
:105000007A1E0BE008B1401E00E0781E09EB800319
:10501000B3F90230634504D108F101089045F1DB92
:105020002346A34248D01A1B39F92500A1EB040CF2
:10503000059B92EA0C0F09D4354A184404EB0B0186
:105040001268526E13680246984735E00BF04AFC2E
:1050500032E0A14230D001DBA04203DDA0422BDBD5
:10506000A14229DCE04688420ADC0346A04223DC58
:105070000846A14220DBB8F900C0B2F9001008E0F0
:105080000B46A14218DCA04216DBB2F900C0B8F909
:105090000010E21AA1EB0C0151430029A0EB03021E
:1050A00002DD01EB620102E0A1EB6201491CC01AC2
:1050B00091FBF0F06044C9E76D1CBD42FFF674AF90
:1050C0000598009004EB0B000190002080460546F7
:1050D00013E01149B8F1000F31F915A009D000997A
:1050E00001EB0A0208440A490968496E0B680199F4
:1050F000984788F0010850466D1C064909688D42A2
:10510000E7DB641CB4427FF748AF07B0BDE8F08F1F
:105110006C1D0020A81D0020A8A302202DE9F04F3F
:10512000DFF828B191B04FF0FF35DBF80030B3F96C
:1051300022100691DE69B3F92490F469A1898142B5
:1051400006D8E289824203D3471AD4F8008012E0DD
:10515000D4E9018100296FD00A8882426CD84D8839
:10516000854269D3801A82B2486800EB8200B0F9A8
:105170000070B0F90250781C5ED0307EA17C10FB2C
:1051800001FA217CCDE90701B3F92A60304606F027
:1051900071FDC0B20E90DBF8000007FB0A81A37C12
:1051A000826B0127CDE90412CDE90273C069089A28
:1051B000C17E807ECDE90001DDE90603494606F0A7
:1051C00085F8681C18D046F0020006F053FDDBF8A5
:1051D0000000A37C05FB0A81826BCDE90273CDE957
:1051E0000412C069089AC17E807ECDE90001DDE924
:1051F0000603494606F06AF8DBF800005D46C06920
:10520000417E007E814214D9022E12D086F0040025
:1052100006F030FD2868C069027EC37E12FB039150
:10522000437E857E089A06984B4412FB050206F0E1
:10523000D9F90E9806F01EFDDBF80000627C418C67
:105240001144418411B0BDE8F08F00006C1D0020B6
:1052500004480068C069C06909B1027C0A60407CEA
:10526000704700006C1D0020022008807047C06954
:1052700082898A4202D8C2898A4210D2806880B16B
:1052800002888A420DD843888B420AD3406800EBDB
:105290008100A0EB8200B0F90000002801DB0120B2
:1052A0007047002070470000F0B5254C054687B0D8
:1052B00020682946B0F92A60C069C06900F04BF93E
:1052C00000283AD041680088281A01EBC005304612
:1052D000AF7806F0CFFC06461A48D0F800C0BCF103
:1052E000000F15D000216868CDE9040104220120D7
:1052F00001A9009081E885002068DCF800702A7818
:10530000C1690B7EB0F92410B0F92200B8470CE057
:105310006868CDE9007020682A78C1690B7EB0F911
:105320002410B0F9220000F0DFFA304606F0A2FCAB
:1053300020686A78418C1144418407B0F0BD0000B8
:105340006C1D0020981D002070B505460B480C46CA
:1053500029460068C069C06900F0FDF800280BD03C
:10536000416800882A1A012000EBC200002C085C6A
:1053700002D011F83210216070BD00006C1D0020B9
:1053800011200880704710B5C06900F0E4F80028CB
:1053900000D0012010BD00002DE9F043304C034641
:1053A00087B020681946B0F92A60C069C06900F06A
:1053B000D2F8002850D041680088181A01EBC005C7
:1053C0003046AF7806F056FC814620686A680123B3
:1053D000816BCDE90237CDE90421C169CB7E8A7E9C
:1053E000CDE900230B7EB0F924102A78B0F9220011
:1053F00005F06CFF2068C069417E027E91421FD992
:10540000C07E11FB00F812FB00F7022E18D000F04E
:1054100016FF064600F0DCFE01F07FFC21682A78CA
:10542000CB69B1F92200DB7E12FB0302B1F9241033
:1054300001EB0803394406F0D5F8304601F06DFC65
:10544000484606F017FC20686A78C369B0F9221054
:105450009B7E12FB0311418407B0BDE8F08300007E
:105460006C1D00202DE9F3411C4E0F4600253068CD
:105470002C46C069417EC07E11FB00F81DE06846E5
:1054800001F0D4FC054630682946C069C06900F0C7
:1054900029F890B141680088281A00EB400001EB20
:1054A000800090F90210007908443168C969897E4A
:1054B00010FB01F0002800DD04447F1EDFD51DB184
:1054C000284602F03FF90444414620460BF040FCD8
:1054D000034901200870BDE8FC8100006C1D00201C
:1054E000241E002006E002888A4202D842888A42AE
:1054F00002D280680028F6D17047000030B50F4C0A
:1055000005460B4620682946C069C06900F023F8AB
:10551000002812D04168008824682A1A0120E46912
:1055200000EBC200085CA47E10FB04F0002B04D04A
:1055300011F8321011FB04F1196030BD6C1D002010
:1055400001200880704700B5C06900F004F8002809
:1055500000D0012000BD06E002888A4202D84288BD
:105560008A4202D280680028F6D1704770B50025C3
:105570000F4C19E020690F49C5EB051600EBC6007A
:1055800070220968001DFBF753FA2069002140F8DA
:10559000361000EBC60000F10C018161011D0A1DEF
:1055A000C0E90F126D1C4164A0688542E2DB70BD4A
:1055B0002C1E00206C1D002070B50E490C480860A0
:1055C000084602F0E3F90B4C143CA068C0EB001055
:1055D000C500284600F0F6F92A460021206102F0B5
:1055E000DDF94FF0FF302060BDE8704001F090BC65
:1055F00095530108401E00202DE9F0411C46154638
:105600000E46074601F074F90AF05AFF07440AF003
:1056100065FF06440AF054FF05440AF05FFF0444A6
:1056200000200AF087FF07E023462A463146384625
:105630000BF0F6F80AF024FF0028F5D1BDE8F041A0
:1056400001F048BC2DE9FF4F85B00546DDF84880E4
:105650000C464FEA4800511B9A469146091A7DD4E0
:10566000AAEB0401081A79D401F042F9DFF804B179
:1056700000200290DBF8000090F8691021B910F8C2
:10568000681F0291042101700AF01AFF47190AF0FD
:1056900025FF06190AF014FF00EB09050AF01EFFAA
:1056A00000EB0A04DBF8000090F8691039B990F8B3
:1056B0006800474346434543444308FB00F800F075
:1056C000EDFD2C49096891F8682010FB02F000F00C
:1056D000FF094FEA5900511C49083B1A0B44059336
:1056E000331A0B445F1E2B180B44A3F1010B231834
:1056F0004044A0EB520503EB010A059800F088F83E
:10570000ADF80C00584600F083F8ADF810003846AC
:1057100000F07EF8ADF80E00504600F079F8ADF8D4
:10572000120003A80AF006FF13E0DDF814805C46BF
:105730004E465946404600F0CBF8CDE90056534658
:105740002246394640460DF07DFE00F015F80AF07D
:1057500097FE0028E9D10748006800E007E090F8CC
:10576000691011B9029980F8681001F0B3FB09B013
:10577000BDE8F08F6C1D002010B50EF0F7FB04485B
:10578000016A04480068416600F10801416110BDEA
:10579000E81D00206C1D00207CB514460D46064611
:1057A00001F0A6F80AF08CFE06440AF097FE0544C4
:1057B0001648006890F8691021B990F868104E43B7
:1057C0004D434C43301B00F023F8ADF80000301976
:1057D00000F01EF8ADF80400281B00F019F8ADF831
:1057E0000200281900F014F8ADF8060068460AF027
:1057F000A1FE06E0224629463046FFF78FFB0AF05D
:105800003FFE0028F6D101F065FB7CBD6C1D002039
:105810000449096891F8681009B190FBF1F000B2F1
:10582000704700006C1D00202DE9F041224C054618
:105830000E462068002788B920480068E06110B94A
:1058400005F0A3FFE06100F0BDF8206080B31A49C5
:105850001B4824310860084602F098F8194800688F
:10586000854200DA0546E169731B4A1E20469342D1
:1058700001DD6E18761EAE4201DA2E460127124C6B
:105880002268516E4B68836301620B490F4B3431C0
:105890000B60516602C880E862000BF045FA0BF01D
:1058A0002BF9054821682C3048613846BDE8F08165
:1058B000FFE70127D2E70000E81D0020901D00202F
:1058C00081530108941D00206C1D00203133010814
:1058D000044A126892F8682090FBF2F091FBF2F112
:1058E000FFF7A2BF6C1D00207CB5084EDDE9065411
:1058F0003668367CCDE90054B60702D40DF08EFC34
:105900007CBD034C2468A0477CBD00006C1D0020BA
:10591000281D002010B5040009D000F0E9FF204642
:105920000BF038F8044601F0D5FA204610BD0020EF
:1059300010BD38B5054600F0DBFF2846FFF7EAFF4B
:10594000040009D000F0B6F82A460021009002F0C9
:1059500025F8684600F0BCF801F0BCFA204638BDD6
:10596000024A106021F00300506070472CA302200F
:1059700010B5040016D000F0BBFF0B48006B10F808
:10598000341059B1022909D2042101EBC401415854
:1059900048680AF0C3FF20460FF0A2FDBDE81040A2
:1059A00001F098BA10BD000070A20220002805D0B6
:1059B000034A916B016001B1486090637047000039
:1059C00070A202202DE9F04104460FF0B7FA2848F2
:1059D000E41C24F00305C16B2D1DA94200D90D461E
:1059E000846B13E054F8042CAA420ED184B12168D0
:1059F00009B162684A60616809B122680A60826B15
:105A0000A24231D1216881632EE02468002CE9D1C3
:105A10008046416B80680F1857F8040C3E1A3068B6
:105A200038B100200FF032FE57F8040C3E1A3068EF
:105A3000D0B97068A84217DB3044441B3046241D9F
:105A40000FF00AFED8F80810491BC8F80810D8F85B
:105A500010102944C8F810107068401B02D031465D
:105A60000AF05CFF44F8045C2046BDE8F0810000C9
:105A700070A2022010B500240FF060FA0C490F202C
:105A800001EBC002126C1AB101EBC000006C08E01F
:105A9000401EF5D508E04168A14200D90C46806857
:105AA00010B180680028F6D1A4F10C0010BD0000F0
:105AB00070A2022005498A69521C8A61096B01EBB8
:105AC000C0010A78521C0A7000F01AB870A20220B5
:105AD0000A4902680B6B52F8082C03EBC2021378D8
