:020000040800F2
:1000000020100220950300089D0300089F030008AC
:10001000A1030008A3030008A503000800000000D6
:10002000000000000000000000000000CD020008F9
:10003000A90300080000000021030008A1BB00087C
:10004000AF030008AF030008AF030008AF030008C8
:10005000AF030008AF030008AF030008AF030008B8
:10006000AF030008AF030008AF030008AF030008A8
:10007000AF030008AF030008AF030008AF03000898
:10008000AF030008AF030008AF030008AF03000888
:10009000AF030008AF030008AF030008AF03000878
:1000A000AF030008AF030008AF030008AF03000868
:1000B000B9BC0008AF030008AF030008AF03000895
:1000C000AF030008AF030008AF030008AF03000848
:1000D000AF030008AF030008AF030008AF03000838
:1000E000AF030008AF030008AF030008AF03000828
:1000F000AF030008AF030008AF030008AF03000818
:10010000AF030008AF030008AF030008AF03000807
:10011000AF030008AF030008AF030008AF030008F7
:10012000AF030008AF030008AF030008AF030008E7
:10013000AF030008AF030008AF030008AF030008D7
:10014000AF030008AF030008AF03000889AC000844
:10015000AF030008AF030008AF030008AF030008B7
:10016000AF030008AF030008AF030008AF030008A7
:10017000AF030008AF030008AF0300080000000051
:10018000AF030008AF030008AF030008AF03000887
:10019000AF030008AF030008AF030008AF03000877
:1001A00011A20008AF030008AF03000800F002F836
:1001B00000F07CF80AA090E8000C82448344AAF185
:1001C0000107DA4501D100F071F8AFF2090EBAE883
:1001D0000F0013F0010F18BFFB1A43F0010318477B
:1001E000802B0400A02B04000A444FF0000C10F8F0
:1001F000013B13F0070408BF10F8014B1D1108BFA5
:1002000010F8015B641E05D010F8016B641E01F844
:10021000016BF9D113F0080F1EBF10F8014BAD1C94
:100220000C1B09D16D1E58BF01F801CBFAD505E0B2
:1002300014F8016B01F8016B6D1EF9D59142D6D30C
:10024000704700000023002400250026103A28BF34
:1002500078C1FBD8520728BF30C148BF0B60704738
:1002600066291CF0F08467291CF0ED84642900F0F5
:100270006B81732900F09586002070471FB51CF034
:10028000D8FC9DE8030000F0B5FB00F061FF04001E
:10029000002000211BF0A4FD401C60600020002114
:1002A0001BF088FDE0601FBD10B510BD01F0E2F845
:1002B0001146FFF7E3FF17F02DF901F061FB03B4DE
:1002C000FFF7F2FF03BC01F0CFFB0000294B1968D8
:1002D0000868B0E8F04F80F30988BFF36F8F4FF0E4
:1002E000000080F311887047000000000648006895
:1002F000006880F3088862B661B6BFF34F8FBFF322
:100300006F8F00DF00BF00BF08ED00E0DFF80C00DA
:10031000016841F470010160704700BF88ED00E0A2
:10032000EFF30980BFF36F8F124B1A681EF0100FA6
:1003300008BF20ED108A20E9F04F106008B44FF09C
:10034000500080F311881AF053FA4FF0000080F348
:10035000118808BC19680868B0E8F04F1EF0100F4B
:1003600008BFB0EC108A80F30988BFF36F8F704725
:1003700000BF00BF30000020EFF311804FF05001AC
:1003800081F31188704780F311887047EFF305807F
:10039000704700000948804709480047FEE7FEE72C
:1003A000FEE7FEE7FEE7FEE7FEE7FEE7FEE7FEE725
:1003B00004480549054A064B7047000055BC000833
:1003C000AD010008200A022020100220200C02208B
:1003D000200C022070B5064600F0ECFA056806F124
:1003E0000B0020F00704B4429CBF002070BD2B46D8
:1003F0006A68BAB11068A04210D304F108018842BB
:100400003CBF5068586007D35168101941601168AB
:10041000091B016058601460101D70BD13465268BE
:10042000002AE7D12146284600F0D0FA0028DED184
:1004300070BD70B50446051F00F0BCFA0068002CC2
:1004400014BF446870BD002C18BFAC423CBF2046AE
:100450006468F8D301680A18AA4218BF456003D13E
:100460002A6805461144016028684119A1421CBF51
:100470006C6070BD6168696021680844286070BD67
:100480000FB41CB5074B06AA7B446946009005983B
:1004900000F05DFD0020694600F06CFD1CBC5DF8BD
:1004A00014FB0000E90A000070B504468569006885
:1004B000C10601D5302600E02026C00707D070BD58
:1004C000D4E9012130469047206A401C20626D1E0D
:1004D000F6D570BD70B5044685690078C00707D1B0
:1004E00070BDD4E9012120209047206A401C206281
:1004F0006D1EF6D570BD70B50C460546012A05D0B7
:100500002878800600D5EA69002302E0012305E08F
:100510005B1C934202D2E05C0028F9D1A869E6187E
:10052000C01AA861286A184428622846FFF7BCFF51
:1005300004E0D5E9012114F8010B9047B442F8D347
:100540002846FFF7C7FF70BD2DE9F041064600249D
:1005500010687529314616A510D0AFF30080002829
:1005600002DA404213A507E031688A0701D512A5D7
:1005700002E0490704D511A5012401E0AFF3008092
:1005800000210A2206F1240709E0B0FBF2FCB0FBCF
:10059000F2F302FB1C00303078541846491C002846
:1005A000F3D123462A463046BDE8F04100F063BA55
:1005B000000000002D0000002B00000020000000C3
:1005C0002DE9F05F894604464FF0000ADFF824B1B8
:1005D000FB44C0F820A02046E168884700287DD071
:1005E000252806D0D4E901219047206A401C2062CA
:1005F000F1E700255F462046E16888472028064647
:1006000007DB312E05D2B81910F8200C08B10543CC
:10061000F1E7A80701D525F00405C4F81CA00027C0
:10062000C4F818A02A2E09D0304612F0F3F838B3D7
:1006300004EB8708303EC8F8186019E059F8041B2D
:10064000204604EB87029161E1688847012F064646
:1006500018D1E069002820DA25F020051DE0D8F83F
:10066000180000EB800006EB40003038C8F8180096
:100670002046E1688847064612F0CCF80028EED103
:10068000012F0AD02E2E08D12046E16888477F1C12
:100690000646022F45F02005C4DBA069002803DAD6
:1006A000404245F00105A061E80701D025F01005A2
:1006B000A6B1A6F14100192802D8203645F40065FC
:1006C0004A463146204625604D46FFF7C9FD60B1D8
:1006D000012807D0ED1D25F0070000E007E000F13C
:1006E000080978E705F1040975E730467AE7206ADA
:1006F000BDE8F09F2C24040070B5064600F05EF9BA
:100700000468054630460A22002100F09FFC2C6058
:1007100070BD40EA0103024630B59B0710D14FF08F
:10072000013400E008C208C91D1B9D4315EAC41F1F
:10073000F8D013F0FF0102F8011B0DD01B0AF8E7F7
:1007400011F8013B002B02F8013B05D011F8013BE9
:10075000002B02F8013BF3D130BD10B5431C02E081
:1007600010F8011B71B18107FAD14FF0013202C8B4
:100770008C1A8C4314EAC211F9D0C01A0A0603D0AD
:10078000C01E10BDC01A10BD0A0401D0801E10BDCD
:100790000902FCD0401E10BD032A40F2308010F048
:1007A000030C00F0158011F8013BBCF1020F62440C
:1007B00098BF11F801CB00F8013B38BF11F8013B9D
:1007C000A2F1040298BF00F801CB38BF00F8013B4A
:1007D00011F0030300F06780083AC0F0088051F878
:1007E000043B083A51F804CBA0E80810F5E7121DC5
:1007F0005CBF51F8043B40F8043BAFF30080D207E4
:1008000024BF11F8013B11F801CB48BF11F8012BAF
:1008100024BF00F8013B00F801CB48BF00F8012BD2
:100820007047431A28BF9A427FF6B6AF032A104496
:10083000114440F2268010F0030F1EBF11F8013D55
:10084000521E00F8013D10F0030F7FF4F6AF11F0D7
:10085000030300F04684083AC0F00B8051F8043DD1
:10086000083A51F804CD40F8043D40F804CDFFF7B4
:10087000F3BF121D5CBF51F8043D40F8043DAFF3D7
:100880000080D20724BF11F8013D11F801CD48BF07
:1008900011F8012C24BF00F8013D00F801CD48BF3C
:1008A00000F8012C704710B5203AC0F00B80B1E879
:1008B0001850203AA0E81850B1E81850A0E8185095
:1008C000BFF4F5AF5FEA027C24BFB1E81850A0E89E
:1008D000185044BF18C918C0BDE810405FEA827CB8
:1008E00024BF51F8043B40F8043B08BF7047D207CF
:1008F00028BF31F8023B48BF11F8012B28BF20F870
:10090000023B48BF00F8012B704702F0FF0343EAA7
:10091000032242EA024200F002B84FF0000204292A
:10092000C0F0128010F0030C00F01B80CCF1040C1E
:10093000BCF1020F18BF00F8012BA8BF20F8022B52
:10094000A1EB0C0100F00DB85FEAC17C24BF00F8F8
:10095000012B00F8012B48BF00F8012B70474FF026
:10096000000200B5134694469646203922BFA0E8FF
:100970000C50A0E80C50B1F12001BFF4F7AF09070B
:1009800028BFA0E80C5048BF0CC05DF804EB8900FC
:1009900028BF40F8042B08BF704748BF20F8022B3F
:1009A00011F0804F18BF00F8012B70477047704757
:1009B0007047000000487047C40902200048704793
:1009C000BC090220704770477047704738B504462D
:1009D0000A4600206946AFF30080002808BF38BDF2
:1009E00002460099204600F0B7FB012038BD0120E7
:1009F00000F038BDF8B5AFF30080054600200C4686
:100A0000102000BF0646A819A0420DD932466946FB
:100A10000020AFF30080070008BF00F023FD00981E
:100A2000A04218BF0546C419FFF7C4FF056007467A
:100A3000F01D20F007004619284600F00AF8B442DD
:100A400008BFF8BDA21B31463868BDE8F84000F089
:100A500083BB00210160C0E901107047102070477E
:100A600010B5FFF7ABFF006810BD10B50446FFF7E7
:100A7000A5FF046010BD2DE9F0470D46994692464A
:100A8000044600F124080168880604D5E06921F0D5
:100A90001001216000E00120A84201DD471B00E0B9
:100AA0000027A1697A1902EB0900081AA0612078D1
:100AB000C00602D42046FFF7F7FC002608E0D4E980
:100AC00001211AF806009047206A401C761C20621B
:100AD0004E45F4DB2078C0060AD52046FFF7E4FC3B
:100AE00006E0D4E9012130209047206A401C2062B2
:100AF000381EA7F10107F4DC07E0D4E9012118F85A
:100B000005009047206A401C2062281EA5F10105BF
:100B1000F3DC2046FFF7DEFC2078000602D5022039
:100B2000BDE8F0870120FBE770472DE9FF4F0C4639
:100B30001E464FF0FF378BB0D2E90001DDF8608030
:100B40000A908A46C1F30A5505B93D460021084678
:100B50004FF00000BAF1000F00F4400005DA00EB9E
:100B600080004FF4400101EA50004FEA9059B9F17A
:100B7000010F00DDB9460A9850EA4A000ED044F64B
:100B80001050A5F2FF3545432F14B8F1000F1ED0C9
:100B90007542291E1EDDC9F100021CE0B8F1010FEB
:100BA0004FF0000001D0302103E0F24305E0215472
:100BB000401CB042FBDB30460022002121540B993F
:100BC000C1F80880C1E900200FB0BDE8F08FBD1B5F
:100BD0006D1CDEE74A4600DA694206A800F0D4FB45
:100BE00006AB93E8070003AB83E8070050460A9979
:100BF00001F099F98DE80700A0F500501F3800902A
:100C00000398002D09DD42F21F014A46084403A95A
:100C10000390684601F023FC08E0A0F500504A4626
:100C20001F3803A90390684601F041FC8DE80700D6
:100C30000004000C03D04FF0FF30410800E01046E4
:100C4000B8F1000F03D00022009215461EE0751E79
:100C500005D400F09BFA303262556D1EF9D5B346CB
:100C60000122084302D000227F1C04E020783028B3
:100C700001D100227F1E002A099786D01DE0112D88
:100C800007DA00F083FA303262556D1C50EA010237
:100C9000F5D1084302D00098C8B10EE00021681ECB
:100CA00005E0235C625C63542254401E491C81426F
:100CB000F7DBAB46A81B401E0990002004F80B0090
:100CC0000B98099AC0F80880C0E9002B7CE7112630
:100CD0004FF0000859E72DE9F04F88460446D21D31
:100CE00022F0070191B0D1E90001CDE90A0110F02D
:100CF000DFF902460B98C00F01D02D2007E02068D5
:100D0000810701D52B2002E0202101EAC000032A3F
:100D1000099001D0072A05DB03464146204600F032
:100D200083FA0BE12078800601D5E06900E0062017
:100D3000B8F1650F814606D0B8F1660F18D0B8F14A
:100D4000670F70D131E00020B9F1110F009001DB85
:100D5000112301E009F101030AAA01A90CA8FFF778
:100D6000E4FEDDE90C70002609F10105834647E049
:100D700001204B4600904FF000470AAA01A90CA899
:100D8000FFF7D3FEDDE90DB00C995D46002610B9E2
:100D900009F101000D18B9EB050003D4C0F1FF36CD
:100DA00009F10105A5EB09002BE0B9F1010F01DA0A
:100DB0004FF001090020B9F1110F0090484601DD04
:100DC000112300E003460AAA01A90CA8FFF7ADFE13
:100DD000DDE90C704D4600268346207800070AD4D2
:100DE000AB4500DA5D4601A8012D04DD411911F87B
:100DF000011C302907D04F4502DA17F1040F04DA3D
:100E0000012082460FE06D1EEEE7002F02DCED1B95
:100E10003E4403E0781CA84200DD7D1CB81B00F1B5
:100E2000010A4FF000472078000703D4AA4501DBF0
:100E30004FF0FF3A0021B7F1004F0DF143088DF854
:100E4000431024D002202B23002F01DA7F422D23D0
:100E50000A21021EA0F1010000DC5FB197FBF1FC4A
:100E600097FBF1F201FB1C7C17460CF1300C08F8E3
:100E700001CDEEE7A8F1010003702188090501D535
:100E8000452100E06521A0F1010800F8011C099846
:100E90000FA9A1EB0807FF1D00B10120411901EBCB
:100EA000EA70A1693844081A401EA0612078C00683
:100EB00002D42046FFF7F8FA099828B1D4E90121B5
:100EC0009047206A401C20622078C00622D5204628
:100ED000FFF7EAFA1EE0002E04DBB34502DD01A8AD
:100EE000805D00E03020D4E901219047206A401C59
:100EF0002062761CAAF101005FEA000A0AD100F024
:100F000027F9C0680168405CD4E901219047206A54
:100F1000401C2062281EA5F10105DCDC07E0D4E9B5
:100F2000012118F8010B9047206A401C2062381EEE
:100F3000A7F10107F3DC2046FFF7CCFA032011B03C
:100F400043E6000001694A1C02610878704700B559
:100F50008FB0CDE901310021059105497944CDE9F2
:100F6000031011466846FFF72BFB0FB000BD0000D1
:100F7000E5FFFFFF0A6802F8010B0A60704710B531
:100F8000436913B1AFF3008001E0FFF7B4FA012029
:100F900010BD127800F124010A7000224A7001226B
:100FA000EDE711684FF0FF32E9E700000FB40023CE
:100FB00000B589B00CA900910B99CB60204B7B4404
:100FC0000693204B7B44079304236FF00042CDE946
:100FD00001321D4A7A446B460892024600201BF0FB
:100FE00094FE09B05DF814FB70B506464FF0FF3073
:100FF00015460C46324686B00091CDE9010169469E
:101000000020049004A8FFF7D1FF0346049821189C
:1010100025B108B10A4600E022462A6000280DD01A
:10102000002B02DD0098884208D03246081B694632
:101030000094CDE9010404A8FFF7B8FF06B070BD25
:10104000E7020000FF0200003F0200002DE9F04728
:1010500091460F4680460446002614F8015B2DB1E8
:1010600000F06EF80068405DC007F6D12B2D02D06D
:101070002D2D18D0641E4A463946204600F034F91A
:1010800027B13968A14201D1C7F800804FF00204AE
:1010900071050BD54042002803DDFFF78FFC04608B
:1010A000A007BDE8F08746F48066E4E70028F8DA98
:1010B000FFF784FC04606FF00040F2E7431A28BF9A
:1010C0009A427FF6F0AB104410F0030F11441EBF9C
:1010D00011F8013D521E00F8013D10F0030F7FF49E
:1010E000F6AF103AC0F00A8010B531E91850103A46
:1010F00020E91850BFF4F9AFBDE81040530724BFF2
:1011000031E9081020E9081044BF51F8043D40F8C7
:10111000043D12F0030F08BF7047D20728BF31F813
:10112000023D48BF11F8012C28BF20F8023D48BFFE
:1011300000F8012C7047000000487047BC090220ED
:1011400010B500F005F8001D10BD00BF95AC010002
:1011500000487047DC090220034640688C4600289E
:1011600018BF88423CBF03464068F8D3186818444B
:10117000884207D00CF1030020F00700001D411A3F
:10118000521A0146081D0A60FFF753B930B5B0F195
:101190000A024FEA900E71F100034EEA817EB0EB35
:1011A0000E0061EB91014FEA101E4EEA017E10EB3A
:1011B0000E0041EB11114FEA102E4EEA016E10EBBA
:1011C0000E0041EB11214FEA104E4EEA014E10EB9A
:1011D0000E0041EB1141401841F100014FEAD000EF
:1011E00040EA41704FEAD10110EB80054FEA8104DB
:1011F00044EA907444EB01046D1944EB0404521B5F
:10120000A3414FF0000348BF0A3200D530BD401C57
:1012100041F1000130BD10B50446FFF791FF0068B1
:10122000005D00F0010010BD2DE9F0411F460446AD
:1012300003260168072A01F4006004DB08B116A543
:1012400005E016A503E008B115A500E015A521F0FD
:1012500010002060A069C01EA0610FB1401EA061F7
:101260002046FFF721F94FB1D4E9012138469047D4
:10127000206A401C2062C01C206206E0206AFAE757
:10128000D4E9012115F8010B9047761EF8D22046CB
:10129000FFF720F9BDE8F0814E414E006E616E000F
:1012A000494E4600696E6600426842B1016811F815
:1012B000013B23B1521EC0E90012184670470121BC
:1012C000C160881E704742685AB1C368016843B95B
:1012D00083688B4205D0491E521CC0E900120020D1
:1012E00070474FF0FF3070472DE9F05F824615469A
:1012F0008B4600270AF10104B9460078302801D056
:101300009DB113E014F8010B0127782803D0582869
:1013100001D045B10AE00DB1102D07D1002714F816
:10132000010B102502E0082500E00A250026B04642
:101330000EE005FB080005FB06F101271FFA80F807
:1013400001EB1046B6F5803F00D3B94614F8010B07
:10135000294600F0B4F80028EBDABBF1000F05D005
:101360000FB1641E00E05446CBF80040B9F1000F05
:1013700006D0FFF723FB02210160C81EBDE8F09FE5
:1013800048EA0640FAE700002DE9F0478146164694
:101390008AB0334878440DC88DE80D003048784451
:1013A000801C03AC0DC884E80D0041F69B30084456
:1013B000372190FBF1F290FBF1F5A5F1800501FBDF
:1013C00012041B3C02D56442012000E00020DFF83B
:1013D00090A080460027FA44AAF1BE0A0DE0E0077B
:1013E00009D03246684607EB47010AEB810101F05C
:1013F0005EF88DE8070064107F1C002CEFD1184FB9
:101400007F44AC3F18E0E80714D007EB04100DF15F
:10141000180A90E80E008AE80E00C068F04201D178
:1014200098190890324606A903A801F040F803ABCA
:1014300083E807006D10641C002DE4D13246694634
:10144000B8F1000F03A802D001F009F801E001F0A3
:101450002EF8C9E90001C9F808200AB0BDE8F087F4
:101460004C19040010B500F097FABDE8104000F0E8
:101470008DBA70477546FFF75FFEAE4605006946B8
:10148000534620F00700854618B020B5FEF790FFC0
:10149000BDE820404FF000064FF000074FF0000875
:1014A0004FF0000B21F00701AC46ACE8C009ACE8F6
:1014B000C009ACE8C009ACE8C0098D4670473A28BD
:1014C00000D2303820F02002412A01D3A2F13700A7
:1014D000884201D34FF0FF30704700002DE9FF4FE5
:1014E000064689B00878FF2806D0491C2D2805D06B
:1014F00000244FF0000908E000200CE00124F8E788
:1015000009EB8903491C00EB43090878FF28F7D150
:1015100014B1C9F100008146107800252C46AA4676
:1015200029462D2801D02B2804D1521C2D2813D058
:10153000002082468B461078FF280FD04FF0000C19
:101540000A21521CA5FB017804FB018105FB0C114B
:10155000C5194BEB0104EEE70120EAE7002108463C
:101560004FF00000BAF1000F02D000EB80004008FD
:10157000C0F38158B8F1010F01DD4FF0FF380C982E
:1015800009EB000755EA040009D04FF0020917F5EE
:10159000FA7F0BDA4FEACA70C6E900B012E04FEAF0
:1015A000CA70C6E900B00DB0BDE8F08FB7F5FA7F9C
:1015B0000DDDF0487844D0E90010C6E9001040EA9B
:1015C000CA707060FFF7FAF9C0F80090EBE7391EB7
:1015D00002DAC8F1000200E0424600DA794206A8C9
:1015E000FFF7D2FE06AB93E8070003AB83E80700E2
:1015F00044F23E005BEA04010090584604D144F2F4
:101600001E012C465D460091210C0904014306D1C0
:101610000099240444EA15442D041039009104F083
:101620007F41014306D10099240244EA15642D024A
:101630000839009104F07041014306D1009924015A
:1016400044EA15742D01091F009104F04041014343
:1016500006D10099A40044EA9574AD00891E00915A
:1016600004F00041084304D100986D196441401E04
:10167000009042466846002FCDE9014503A902DDEE
:1016800000F029FF01E000F0FEFEBAF1000F044671
:101690000D4601D084F0004440F2FF7724F0004072
:1016A000284303D0C4F30A50B84212D1FFF786F999
:1016B000C0F80090C4F30A50B8420AD1AE4878444A
:1016C000D0E90010C6E9001004F000410843706042
:1016D00069E7C6E9005466E72DE9FF4F1F464FF062
:1016E000000A4FF0FF38454691B0D7E90146CDF8E2
:1016F0003CA0FFF72DFDC0680168405C1090B969FF
:1017000012986D1C8847396A814688470028F6D1AF
:10171000B9F1FF3F0AD0002E24F4D06411DDB9F1F5
:101720002B0F08D0B9F12D0F0BD102E0404615B0B8
:101730003AE744F48064B96912986D1C8847761EB4
:101740008146600504A901D52D2000E02B20002E44
:1017500001F1010B0DF130088DF810003FDDB9F1FA
:10176000690F08D0B9F1490F05D0B9F16E0F02D059
:10177000B9F14E0F1CD13B4601A8009580E85002FC
:10178000DDE912126FF002001BF0C3FAC11CCED1CA
:101790000EE0B96912986D1C884781461398761E31
:1017A00044F4007405600F98401C002E0F9016DD65
:1017B000B9F1300FEDD0B9F1780F02D0B9F1580F6F
:1017C0000DD10F9801280AD13B46CDE90054DDE93F
:1017D0001212001F02961BF09AFAC11CA7D1109991
:1017E00089453ED144F0800406E01399681CAAF1B3
:1017F000010A44F400740860B9696D1C1298761EE1
:10180000884730288146F0D02BE01099894505D1D2
:10181000200603D4761E44F0800418E0484610F0F9
:10182000F9FF08B3761E0DF123018B4544F40074D3
:1018300008D2A9F130000BF8010B200607D5AAF158
:10184000010003E0200602D40AF101008246A0054F
:1018500002D51399681C0860B96912986D1C8847F5
:101860008146002ED1DC53E0002E51DDB9F1650F29
:1018700002D0B9F1450F4BD1A00549D5B9696D1C0E
:101880001298761E24F440748847002E81460CDDA1
:101890002B2804D0B9F12D0F07D144F48074B96915
:1018A00012986D1C8847761E8146E00501D52D21D2
:1018B00000E02B2108F8011BCDF8008021E0761E06
:1018C0000DF13901884544F400740CD2A9F13000BF
:1018D00010F0FF0088F8000002D10099884509D96E
:1018E00008F1010806E0E00501D5244801E042F2D4
:1018F0000F708246B96912986D1C8847814613980B
:101900000560002E04DD484610F084FF0028D6D183
:10191000F96912988847FF2053468BF8000088F831
:10192000000000200A900B9004AA0CA90AA8FFF757
:10193000D5FDA00502D46FF00100F8E614F0240FE5
:101940000AD0E00714D13868DDE90A12031D3B60B4
:101950000068C0E900120BE00AA9684610F0F4FE26
:10196000E00705D13868009A011D396000680260FF
:101970002846DCE6C8170400BE160400F1D8FFFFB5
:101980000446AFF300802046FEF799FC002801D002
:1019900000F06AB87047000010B5012805D000219A
:1019A00003A000F067F8012010BD09A1F8E70000CE
:1019B00053494752544D454D3A204F7574206F6638
:1019C0002068656170206D656D6F727900000000A0
:1019D0003A2048656170206D656D6F727920636F84
:1019E00072727570746564004FF0013C50F8042BFE
:1019F00051F8043B9A4221D1A2EB0C03934313EA22
:101A0000CC1317D150F8042B51F8043B9A4215D14E
:101A1000A2EB0C03934313EACC130BD150F8042B25
:101A200051F8043B9A4209D1A2EB0C03934313EA09
:101A3000CC13DBD04FF00000704700BFD01A01BAC2
:101A4000B1FA81F101F0180122FA01F0CB40C1F1A5
:101A50002001DBB2C0B2C01A2CFA01F3D11A9143B3
:101A600011EAC311E6D1704701491820ABBEFEE769
:101A70002600020070B505460C460A2000E06D1CE9
:101A800000F011F835B128780028F8D102E0641C84
:101A900000F009F814B120780028F8D1BDE87040B2
:101AA0000A20AFF3008008B569468DF800000320D6
:101AB000ABBE08BD2DE9FF4F1F464FF03C0987B074
:101AC0004FF00042DDE9141001F10108DDF858A0E3
:101AD00002EA4050039000200490834605460446E5
:101AE0000590B969461E08988847AAF1010A029034
:101AF000BAF1000F37DD02982E2815D01021FFF71C
:101B0000DEFC00282ADB4FF0010B0499014316D0BC
:101B1000B9F1000F0BDB4A46C11700F0F1F905439C
:101B20000C43A9F1040905E00120059007E008B184
:101B300045F0010501200490059800B9361DB969EA
:101B4000089808F101088847BBF1000FAAF1010AC3
:101B50000290CDD00999C1F80080C9E70298702899
:101B600008D0502806D0F96908988847BBF1000FC3
:101B700014D04FE0002002900120BBF1000F049030
:101B800009D0B969089808F101088847AAF1010944
:101B9000B9F1000F07DCF969089888476FF0010078
:101BA0000BB0BDE8F08F2B2804D02D280CD14FF0BE
:101BB000FF300490B969089808F101088847A9F135
:101BC0000109B9F1000FE6DD411CE4D00A21FFF75D
:101BD00076FC0028DFDB029908F1010801EB8101A6
:101BE00000EB41000290B969089888470A21FFF785
:101BF00066FC099AA9F10109B9F1000FC2F8008049
:101C000001DD0028E7DAF969089888470499029805
:101C100000FB016655EA040004D004F040410900CD
:101C200002D006E0039898E0A40044EA9574AD0061
:101C3000B61E04F00041080002D16D196441761E01
:101C4000159810F0240F03D04FF00B095C4803E007
:101C50004FF028096FF07D008246564507DAAAEB5F
:101C600006018944B9F1410F01DD4FF0410901201E
:101C70000021A9F1010200F043F9024628400B4679
:101C80002140084301D0012100E00021501E0291B3
:101C900043F1FF3128402140084301D0012000E0FA
:101CA00000200299834651EA0B014FD000210846DB
:101CB0004FF00000039900F4400039B100EB8000C0
:101CC0004FF4400100EBD07001EA6000801501285C
:101CD00002DD4FF0FF3000E013D0401C36D00298F8
:101CE00060B3BBF1000F0CD14A460120002100F087
:101CF00007F928402140084301D0012000E00020DE
:101D0000E0B101204A46002100F0FAF803464019EC
:101D10000A4661412D1A8C4111D3B9F1400F09DDFA
:101D2000159810F0240F02D0AAF1340603E0AAF1AE
:101D3000170600E0761C00254FF0004406E05B1E0D
:101D400042F1FF3220EA030521EA0204CAF1010050
:101D5000B04206DA1B490398084301900020009026
:101D60000EE0039AC4F3D321E80A0A43164940EA75
:101D700044500A433146CDE90002684610F040FD68
:101D8000159810F0240F0BD01598C00715D138689E
:101D9000DDE90012031D3B600068C0E900120CE0A1
:101DA00002A8694610F0D0FC1598C00705D1386824
:101DB000029A011D3960006802604046F0E60000AA
:101DC00002FCFFFF0000F07F0000F03F2DE9FF4F15
:101DD00092461D4685B04FF00041DDE9124BDDE92A
:101DE00014727F1E01EA4B50414940F0FF4940EA1E
:101DF0000108002122F020004928049102D04E2839
:101E000028D04CE03BA0012607C88DE80700A9694F
:101E10000698641C88477F1E014606D41DF80600FC
:101E200018B121F0200181420BD0E969069888475A
:101E3000032E34D0082E32D06FF0010009B0BDE877
:101E4000F08F761C032E01D0082EE0D1601CCAF85A
:101E50000000DCE7A9690698641C88477F1E2AD425
:101E600020F02000412826D1A9690698641C8847E3
:101E70007F1E20D420F020004E281CD1A96906988E
:101E8000641C88477F1E48F4002849F48009CAF87A
:101E9000004001D4282806D0E969069888475FEAFF
:101EA000CB7012D022E0A9690698641C88477F1E77
:101EB00001D4002803DAE96906988847BCE7292895
:101EC000F1D1641CCAF80040E9E71BF0240F07D0E9
:101ED00028680499031D2B600068C0E9001805E01C
:101EE0002868021D2A600068C0F800902046A5E717
:101EF0000000F07F494E46494E4954590000000009
:101F0000B2F120030AD5C2F1200301FA02F120FA4E
:101F100003F300FA02F041EA0301704700FA03F10B
:101F20004FF0000070475FEA400C08BF91F0000FCF
:101F30004FEA8C234FEAC12243EA51514FEA1C5029
:101F400018BF00F5F0404FEA300018BF41F00041E3
:101F50005FEA6C5C00F02980BCF1FF3F08BF40F0F5
:101F600080407047130C06BF12044FF0100C4FF066
:101F7000000C130E04BF12020CF1080C130F04BF67
:101F800012010CF1040C930F04BF92000CF1020C2F
:101F9000D30F04BF52000CF1010C11464FF00002A8
:101FA000A0F11F00A0EB0C00704711F0004F08BF1C
:101FB000704731F000413FF4D5AF0B0C06BF090468
:101FC0004FF0100C4FF0000C0B0E04BF09020CF187
:101FD000080C0B0F04BF09010CF1040C8B0F04BF9C
:101FE00089000CF1020CCB0F04BF49000CF1010C6D
:101FF000CCF12003A0EB0C0022FA03F302FA0CF25E
:1020000041EA030100F10100704720F07F4C80EAB3
:10201000030023F07F47ACEB070303F57C5300F08C
:10202000004003F1FF032DE980494FEA154B09B445
:102030004FEA144325EA0B4E24EA03480FF2042624
:1020400006EB132749083E785FEA320203FB066776
:10205000C7F5000707FB06F64FEA54374FEAD646A6
:1020600006F1020607FB066CCCF1005C4FEA1C4748
:102070002CEA074C07FB06F40CFB06F504EB1546AF
:102080004FEA961634BF00204FF000404FEAD13798
:1020900006FB07FC4FEA1C4C0CFB0BF7D21B03FBA7
:1020A0000CF761EB07010CFB0EF7B0EB074072EB8E
:1020B00017420CFB08F734BFA2EB0742B2EB074212
:1020C00061EB17414FEA0C444FEA910706FB07FC0E
:1020D0004FEA1C4C0CFB0BF7B0EBC74072EB5732CE
:1020E00003FB0CF734BFA2EBC742B2EBC74261EB74
:1020F00057310CFB0EF7B0EBC70072EB57720CFBBD
:1021000008F734BFA2EBC702B2EBC70261EB57710D
:10211000039F4FEA816141EA921104EBCC044FEA3C
:10212000D1374FEA826206FB07FC42EA90124FEA7F
:1021300080604FEA1C4C0CFB0BF7D21B03FB0CF727
:1021400061EB07010CFB0EF7B0EB074072EB174297
:102150000CFB08F734BFA2EB0742B2EB074261EB7E
:1021600017414FEA8C554FEA910704EB9C2406FB7C
:1021700007FC4FEA1C4C0CFB0BF7B0EBC74072EBB3
:10218000573203FB0CF734BFA2EBC742B2EBC74296
:1021900061EB57310CFB0EF7B0EBC70072EB5772D7
:1021A0000CFB08F734BFA2EBC702B2EBC70261EB2E
:1021B000577115EB4C254FEA816141EA92114FEAC4
:1021C00082624FEAD13742EA901206FB07FC44F1E3
:1021D00000044FEA80604FEA1C4C0CFB0BF7D21B4B
:1021E00003FB0CF761EB07010CFB0EF7B0EB0740AC
:1021F00072EB17420CFB08F734BFA2EB0742B2EBBD
:10220000074261EB174115EB1C154FEA813141EA9A
:1022100092414FEA823242EA90424FEA80304FEADE
:102220000C7644F1000448EA03434EEA0B484FF0B1
:10223000000EB2EB080C71EB030724BF624639466F
:102240004EEB0E0E4FF0000B0018524149414BEB84
:102250000B0BB2EB080C71EB03077BF1000B24BFF7
:10226000624639464EEB0E0E4FF0000B00185241FD
:1022700049414BEB0B0BB2EB080C71EB03077BF105
:10228000000B24BF624639464EEB0E0E51EA0207A0
:1022900018BF46F0010616EB0E7655F1000254F118
:1022A000000103D5BDE88901BDE80088BDE88901CA
:1022B000BDE80048B619524141EB0101A3F1010309
:1022C000704780807F7E7D7C7B7A797877767675A3
:1022D0007473727171706F6E6E6D6C6C6B6A6A691B
:1022E0006868676666656464636362616160605FB5
:1022F0005F5E5E5D5D5C5C5B5B5A5A59595858572E
:102300005756565555555454535352525251515095
:1023100050504F4F4F4E4E4D4D4D4C4C4C4B4B4BE8
:102320004A4A4A494949484848474747474646462E
:102330004545454444444443434343424242424169
:102340004141000046EA0646A3F570534FEA16469F
:1023500046EA42564FEAD22242EA415210B54FEACB
:10236000D121A3F1010300F017F820F0004000F1A3
:10237000010C00F0004701EB00501146BCF5006F66
:1023800040EA070000D210BD02484FF0000140EAC9
:10239000070010BD0000F07F002B26D4770021D06D
:1023A0001CB54FEA370703B44FF010004FF010018F
:1023B0004FF000000FBCBDE810400BF1010BBBF16A
:1023C000010F08BF5FEA170722BF12F1010211F1E6
:1023D00001014FF0004143F1000300F0004043EAE7
:1023E00000007047F9D35708DAE746EA064613F1CA
:1023F000400F4FEA16461FDD13F1200FDFBF1643D3
:102400000A46002120335B42C8D0C3F1200746EAC8
:10241000064602FA07F74FEA164646EA0706C3F1F0
:10242000200722FA03F201FA07F721FA03F14FF02D
:10243000000342EA0702B1E746EA020646EA064618
:102440004FEA164646EA0106BCBF46EA0646360C87
:102450004FF000034FF000024FF000019EE72DE91E
:10246000C048934630B491E8380007C831EA400CC0
:1024700048BF34EA430C03D5FFF7C7FDFFF78CFFD5
:10248000F0BCBDE800882DE9C048934630B491E81F
:10249000380007C831EA400C48BF34EA430C03D582
:1024A000FFF7B3FDFFF74EFFF0BCBDE800882DE954
:1024B000C048934630B491E8380007C810F0804F08
:1024C00008BF13F0804F03D100F019F8FFF764FF45
:1024D000F0BCBDE800882DE9C048934630B491E8CF
:1024E000380007C810F0804F08BF13F0804F03D1A9
:1024F00000F005F8FFF726FFF0BCBDE8008820F0EB
:102500007F4780EA030023F07F4C07EB0C03A3F521
:102510007C5300F00040A3F1FE0392F0000F00F0A6
:10252000B38095F0000F00F077802DE901494FEA64
:1025300011404FEA144621EA004800FB06FC24EA59
:10254000064708FB06F607FB08F800FB07F718EB41
:1025500006484CEB164C4FEA124B18EB07484FEA73
:1025600015464CEB174022EA0B4E0BFB06FC25EA06
:1025700006470EFB06F607FB0EFE0BFB07F71EEBEE
:10258000064E4CEB164C4FF000061EEB074E4CEB84
:10259000174B18EB0B0840F1000018EB0E0B58EB33
:1025A000000840F100008F1A4FF000013CBFC94302
:1025B000661B14BFB5EB040C00213CBFC943F61BDE
:1025C0004FEA17444EEA8E0E27EA04454FEA1C47AD
:1025D00004FB07622CEA074C05FB07F70CFB05F62A
:1025E00004FB0CFC16EB074642EB174216EB0C46BD
:1025F00042EB1C421BEB060658EB0202414146EA45
:102600009E0601D5BDE80189B619524141EB010191
:10261000A3F10103BDE801894FEA14454FEA1147D0
:1026200024EA054621EA074C05FB07F406FB07F7F9
:102630000CFB06F105FB0CFC11EB074144EB1744C6
:102640004FEA124711EB0C4144EB1C4422EA074CC1
:1026500005FB07F206FB07F70CFB06F605FB0CFC77
:1026600016EB074642EB174216EB0C4642EB1C45B5
:102670006A1854F1000148BF7047B619524141EB46
:102680000101A3F10103704795F0000F37D04FEA25
:1026900011424FEA144721EA024624EA074C02FBA2
:1026A00007F106FB07F70CFB06F402FB0CFC14EB2E
:1026B000074441EB17414FEA154714EB0C4441EB3B
:1026C0001C4125EA074C02FB07F506FB07F70CFB4C
:1026D00006F602FB0CFC16EB074645EB174516EB1E
:1026E0000C4645EB1C42121951F1000148BF7047DE
:1026F000B619524141EB0101A3F1010370474FEAC2
:1027000014454FEA114724EA054621EA074C05FB28
:1027100007F106FB07F70CFB06F24FF0000605FB7E
:102720000CFC12EB074241EB174112EB0C4251EB50
:102730001C4148BF7047921841EB0101A3F101030E
:10274000704700007CB5582001900025002400E06F
:10275000641C4FF40061174804F04CF918B94CF2AE
:1027600050308442F4DB00E0641C4FF400611148F7
:1027700004F040F918B14CF250308442F4DB47F2D7
:102780003050844201DB00207CBD012101A800F013
:102790008BF80321684600F07BF89DF800000544A3
:1027A0009DF8010000EB05259DF8020000EB0525D2
:1027B0002846E9E7000802403EB516A000680290EE
:1027C00015A00068019015A0006800900024042165
:1027D00002A800F069F80421684600F065F800BF1F
:1027E0004FF400610E4804F005F918B14CF2503076
:1027F0008442F5DB042101A800F056F800BF4FF435
:102800000061074804F0F6F818B14CF250308442E9
:10281000F5DB3EBD1000400008A402800884028061
:102820000008024038B50FA000680090002400BFE7
:102830004FF400610C4804F0DDF818B94CF2503048
:102840008442F5DB00BF4FF40061074804F0D2F882
:1028500018B14CF250308442F5DB0421684600F098
:1028600023F838BD68040001000802401CB506A129
:1028700003C9CDE900010621684600F015F80A20D9
:1028800003F056FE1CBD0000FFFFFFFFFFFF00002E
:1028900070B504460D4601232A462146014805F03D
:1028A000E1FE70BD6CA6012070B504460D46012303
:1028B0002A462146014805F0F3FF70BD6CA60120B1
:1028C0001CB509A00068019008A0006800900421D0
:1028D0006846FFF7E9FF042101A8FFF7E5FF642040
:1028E00003F026FE1CBD000008040001100040009B
:1028F00010B52DED088B012204211F4804F082F849
:102900001E4803F031FDC8211C4803F0EBFC1B48B6
:1029100003F094FC044619F07BFD41EC180B1748BA
:1029200003F086FD00220421134804F06BF89FEDAC
:10293000140B53EC102B51EC180B19F0B9FD41ECB2
:102940001B0B9FED110B53EC102B19F059FB41ECB5
:102950001A0B9FED0F0B53EC102B19F051FB41ECB0
:10296000190B9FED0D0B53EC102B19F0A1FD41EC51
:10297000100BBDEC088B10BD00080240E4A4012040
:1029800000000000000010400000000000000840AF
:10299000000000000000B0406666666666660A4099
:1029A0005A49096821F44031594AC2F804131146C2
:1029B000D1F8041342681143544A11600168496810
:1029C00021F480710268516001684A68016942EA35
:1029D0000121026851600168496821F04071026874
:1029E000516001684968826811430268516001685A
:1029F000896821F400610268916001688968C26891
:102A0000114302689160434AC16A914218D001683B
:102A1000896821F070610268916001688968C26A02
:102A20001143026891600168896821F04051026891
:102A3000916001688968026B1143026891600BE044
:102A40000168896821F07061026891600168896895
:102A500021F04051026891600168896821F002010B
:102A60000268916001688A68816942EA41010268EE
:102A70009160416AD1B10168496841F4006102681E
:102A800051600168496821F4604102685160016841
:102A90004A68816A491E4FF4604393FAA3F3B3FA7C
:102AA00083F399400A4301684A6005E00168496878
:102AB00021F40061026851600168C96A21F4700163
:102AC0000268D1620168CA6A018C491E42EA01515A
:102AD0000268D1620168896821F40071026891601E
:102AE00001688A68C16942EA41210268916001680F
:102AF000896821F480610268916001688A6841698F
:102B000042EA81210268916070470000042301407D
:102B1000002001400100000F10B50446E2B24FF45E
:102B20000041024803F06EFF10BD0000001C02408F
:102B300010B50446E2B20821014803F063FF10BD5E
:102B4000002002402DE9F04F87B004460E4617469C
:102B50009846DDE911A9109D204603F087FA8346C7
:102B6000C4EBC4001B4951F82000C4EBC401194A4E
:102B700002EB810189680BFB0100C4EBC40102EB8D
:102B80008101C96807FB0161C4EBC402114B03EB6F
:102B90008202526901FB02000690484609EBD0719F
:102BA000C5EB61010591C4EBC400194601EB80003F
:102BB000C068401B0490DDE904012B46CDE900A16B
:102BC000029041462046069A00F0A2FE07B0BDE8FA
:102BD000F08F00009080012010B52DED028B0020B9
:102BE00000F0C8FEFFF784FEB0EE408AF0EE608A87
:102BF0009FED3C0B53EC102B51EC180B19F01CFC07
:102C000010D264200FF00EFE642003F091FC6420CB
:102C10000FF008FE642003F08BFC64200FF002FE2E
:102C200000BFFEE74FF4FA7003F082FC012000F0D1
:102C3000A1FE0FF00FFE08F0F1FE012008F01CFDD0
:102C400001229102294803F0DDFE02F01BFA09F08F
:102C500055FA2748406C012803D02548406C0228CB
:102C600001D100F0E9FE742222492148FDF71BFE44
:102C70004FF47A7220492148FDF715FE1C48006F79
:102C800041F2BE5188421ED074211948FDF767FEFB
:102C90004FF47A711948FDF762FE41F2BE501449B3
:102CA00008671420486501200865C8648861486188
:102CB000052088651420C865B3EE090A084680ED32
:102CC000120A01F0B9F907F07BFD012006F042FF7E
:102CD0000749486D06F0BCFB0FF0B4FDBDEC028B5C
:102CE00010BD00003333333333330B400018024040
:102CF00050EC012000001F0800001E0868E80120B9
:102D00002DE9FE4304460E461546204603F0AEF973
:102D10000746C4EBC400144951F8200007FB06081D
:102D2000C4EBC40051F8200007FB05090021C4EBE7
:102D3000C4000D4B03EB80000069CDE90001C4EB3A
:102D4000C4000291194601EB80004A464146C3681F
:102D5000204600F0DDFDC4EBC400034901EB800018
:102D60008560BDE8FE830000908001202DE9F04FD2
:102D700085B004460D4616461F46DDE90F8BDDF88B
:102D800038A0204603F072F98146C4EBC4002649FE
:102D900051F82000C4EBC401234A02EB81014968C9
:102DA00009FB0100C4EBC40102EB8101C96806FB09
:102DB0000151C4EBC4021C4B03EB8202526901FBBC
:102DC00002000490C4EBC400194651F82000C4EB83
:102DD000C4011A4602EB8101496809FB0100C4EBFA
:102DE000C40102EB8101C9680AFB0171C4EBC40292
:102DF00003EB8202526901FB020003900021C4EB45
:102E0000C4001A4602EB8000C068A0EB08004346ED
:102E1000CDE900B002912046DDE9032100F078FD04
:102E200005B0BDE8F08F00009080012038B5044661
:102E300020128DF80000E0B28DF8010000224FF45E
:102E40008061074803F0DEFDC82302226946054879
:102E500005F026FD01229102014803F0D3FD38BDA3
:102E6000001802401CA70120F0B52DED108B83B097
:102E70000546B0EE408AF0EE608A55B93F4806F04C
:102E800062F83E4805F0E1FF47F6FF70FFF7CEFF1E
:102E900070E000203A490860284619F0B9FA41EC80
:102EA0001A0B53EC1A2B9FED370B51EC100B19F04A
:102EB000A7F841EC190B19F067FA0646002450E018
:102EC000204619F0A5FA41EC1F0B9FED300B53EC97
:102ED000102B19F0EDFA41EC1E0B9FED2E0B53EC6D
:102EE000102B19F08DF8CDE900019DED000B0EF0CF
:102EF0004BFFB0EE40CAF0EE60CAF1EE040A88EE75
:102F0000200ADFED260A20EE200A10EE107A38465D
:102F100019F01EFE41EC1D0B53EC1C2B19F0C8FAE6
:102F200041EC1A0B9FED1D0A68EE800AB1EE041AFF
:102F300080EE810ADFED1A0A30EE200A10EE107AD8
:102F4000384619F005FE41EC1B0B53EC1A2B18F018
:102F50009BFF41EC190B19F017FA124921F81400E4
:102F6000641CB4F5C87FABD3304608F0ADFE03480F
:102F700005F0DAFF03B0BDEC108BF0BD40910120ED
:102F80008C0000200000000080A209414AD8124DA8
:102F9000FB211940000000000000794000FF7F473E
:102FA00000FEFF467C91012070B506460C4604F0F9
:102FB0008000802808D104F07F0000EB800106F536
:102FC0008E7000EBC10507E004F07F0000EB80018C
:102FD00006F55D7000EBC10504F07F00287004F079
:102FE0008000C0096870294630460AF08FFB002037
:102FF00070BD70B506460C4604F08000802808D1EC
:1030000004F07F0000EB800106F58E7000EBC10537
:1030100005E004EB840106F55D7000EBC1050020BE
:10302000A87004F07F002870C4F3C01068702946AF
:1030300030460AF043FB002070BD70B505460C46D3
:1030400004F08000802805D104F07F0128460AF0B2
:1030500057FD02E028460AF02DFD002070BD2DE945
:10306000F04106460D4690461F4605F08000802838
:1030700008D105F07F0000EB800106F58E7000EBB3
:10308000C10407E005F07F0000EB800106F55D70EC
:1030900000EBC10405F07F00207005F08000C0093E
:1030A0006070C4F80880E770607808B12078E0802C
:1030B000022F01D100202071214630460AF0B2FAD9
:1030C0000020BDE8F0812DE9F04105460E46174687
:1030D000984606F07F0000EB800105F55D7000EB7F
:1030E000C104E760C4F814800020A061607006F09D
:1030F0007F002070E878012800D12761207820B96E
:10310000214628460AF0B2F903E0214628460AF093
:103110005EFB0020BDE8F08108B500220092009A15
:1031200061F30A12009202691268009B1A43036954
:103130001A6008BD70B506460C4604F08000802871
:1031400008D104F07F0000EB800106F58E7000EBE3
:10315000C10505E004EB840106F55D7000EBC105D7
:103160000120A87004F07F002870C4F3C0106870BC
:10317000294630460AF0F9FA002070BD2DE9F041E9
:1031800007460D461646984605F07F0000EB800185
:1031900007F58E7000EBC1040120607005F07F0020
:1031A0002070E66026610020A061C4F814802078B9
:1031B00020B9214638460AF059F903E0214638463D
:1031C0000AF005FB0020BDE8F0811CB5044620464E
:1031D0000AF017F9E068C068009020460AF0BAFCCF
:1031E00003280BD10020A0704FF40070A08000983D
:1031F00020F4705000F51050009009E00120A070FC
:103200004020A080009820F4705000F5A05000905D
:103210000098E168C86000200190019820F40050F7
:1032200000F5005001900198E168486101201CBD43
:10323000F8B5054600240020009028460AF0C9FC95
:10324000064690E006F0010000287DD0E1B2284655
:1032500000F002FB0090009800F0010030B3012064
:1032600000FA04F72869406BB843296948630020D5
:103270000090009820F00100401C009005F118001B
:1032800050F8240000998160E1B239480068426832
:1032900028469047E878012808D13CB940F211103F
:1032A000405D042802D128460AF08BF90098C0F34B
:1032B000C00060B100200090009820F008000830A5
:1032C000009005F1180050F82400009981600098E2
:1032D000C0F3001060B100200090009820F01000B2
:1032E0001030009005F1180050F82400009981601A
:1032F0000098C0F3801060B100200090009820F08A
:1033000040004030009005F1180050F8240000996A
:1033100081600098C0F3400060B1002000900098E8
:1033200020F00200801C009005F1180050F82400E5
:10333000009981600098C0F3C01028B1214628464A
:1033400000F09EFA002000E00BE00090009820F0D2
:1033500080008030009005F1180050F8240000999A
:103360008160641C7608002E7FF46CAF0120F8BDEC
:10337000C41800207CB5044600250020019020469A
:103380000AF02FFC06466FE006F00100002869D025
:10339000E9B220460AF02DFC0190019800F00100EE
:1033A000C8B300200190019820F00100401C01905A
:1033B00004F1540050F8250001998160E07801285B
:1033C00017D104F1540050F825000069009005EB76
:1033D000850104F55D7000EBC10080680099C1F3C0
:1033E0001201411A05EB850204F55D7000EBC20085
:1033F0008161E9B21E480068026820469047E07883
:10340000012808D13DB940F21110005D052802D114
:1034100020460AF0D6F80198C0F3400060B10020C1
:103420000190019820F00200801C019004F15400EA
:1034300050F82500019981600198C0F3C00088B15F
:103440000B48006881682046884700200190019859
:1034500020F008000830019004F1540050F82500D5
:10346000019981606D1C7608002E8DD101207CBDF4
:10347000C41800203EB50446A07A70B1D4F80C01FF
:103480000090009820F002000090009820F00100C9
:1034900000900099D4F80C0101600020019001987F
:1034A00020F00100401C0190206940680199884388
:1034B00021694860084800688169204688470020E3
:1034C0000290029820F0004000F100400290029823
:1034D000E168486101203EBDC41800207CB5044667
:1034E00000200190019820F0100010300190E06859
:1034F000806901998843E1688861E068006A00900A
:10350000009800F00F0000EB800104F55D7000EB07
:10351000C1050098C0F3434007282DD2DFE800F032
:103520002C04051D1E2C1F0027E00098C0F30A1074
:1035300090B10098C0F30A122046E9680AF063FBD4
:10354000E8680099C1F30A110844E860A869009985
:10355000C1F30A110844A8610FE00EE00DE0082253
:1035600004F2CC5120460AF04EFBA8690099C1F341
:103570000A110844A86100E000BF00BFE06880694C
:1035800001990843E168886101207CBD38B5044693
:1035900008480068C16820468847002000900098CD
:1035A00020F00800083000900098E1684861012090
:1035B00038BD0000C41800201FB50446002000904C
:1035C0004FF48970005D00902348006841692046EF
:1035D000884720698068019000200390039820F4B8
:1035E000006000F5006003900398E1684861A07AEC
:1035F00070B3019800F0010050B340F21510005D67
:10360000012825D19DF80000032821D10020029037
:10361000029820F00100401C0290D4F80C010068D0
:1036200002990843D4F80C110860029820F00200B7
:10363000801C0290D4F80C01006802990843D4F869
:103640000C1108600548006840F006000349086056
:10365000012004B010BD0000C418002010ED00E0EF
:1036600030B587B004460020029006900590049083
:1036700003900190029820F00100401C0290206904
:1036800040680299884321694860002120460AF079
:1036900037FA00250BE0FF2104F1180050F825004F
:1036A000816004F1540050F8250081606D1C607841
:1036B000A842F0D84FF0FF312069816106986FF37E
:1036C0000F00401C0690069880B200F580300690EE
:1036D00006992069C161059820F00800083005901E
:1036E000059820F00100401C0590059820F002008C
:1036F000801C0590059920694161049820F0010023
:10370000401C0490049820F00800083004900498AD
:1037100020F00200801C0490049920690161206956
:1037200000680390039820F4FE60039003992069D9
:103730000160204609F045FF00200190019820F427
:10374000805000F5805001900198E168486104487C
:103750000068016920468847012007B030BD00009D
:10376000C41800202DE9F04106460F463946304680
:103770000AF05EFA01214FF4897081550021801C06
:103780008155002511E005EB850106F58E7000EBF3
:10379000C104012060702570E5800020E0704020A9
:1037A000A0600020E06060616D1C7078A842EAD8DB
:1037B000002510E005EB850106F55D7000EBC10406
:1037C000002060702570E580E0704020A06000203F
:1037D000E06060616D1C7078A842EBD8304609F05B
:1037E000FFFD304609F02BFC002130460AF088FA34
:1037F000304609F0B7FC30460AF04BF9BDE8F081DD
:1038000038B504460020009007480068C16920468A
:103810008847009820F4801000F5801000900098F0
:10382000E1684861012038BDC418002038B504465D
:103830000020009007480068016A204688470098E9
:1038400020F4001000F5001000900098E168486135
:10385000012038BDC418002030B5024615692B6917
:1038600015696C6B24FA01F505F0010543EAC513EF
:1038700002F1180555F82150AD6805EA030030BD86
:103880002DE9F84307460E4600250020009006EB80
:10389000860107F58E7000EBC104D4E90501451AD5
:1038A000A068A84200D2A568E81C4FEA900807F17A
:1038B000180050F82600806900901BE0D4E905014B
:1038C000451AA068A84200D2A568E81C4FEA9008F3
:1038D000ABB2F2B23846E1680AF039FAE06828443F
:1038E000E060A0692844A06107F1180050F82600A4
:1038F00080690090009880B2404506D9D4E905104F
:10390000884202D260690028D8D10120BDE8F8833E
:103910002DE9F041074606AC70CC01204FF4007C45
:10392000DFF84C80C8F800C0C446CCF80C10CCF8C6
:103930003C20CCF81050CCF84060CCF81C00A446D9
:1039400063F31F4CC8F844C0C446DCF800C04CF018
:10395000010CC8F800C000BFDFF814C0DCF800C0DC
:103960000CF0010CBCF1000FF6D1BDE8F0810000B5
:1039700000B0024010B5044624B90548007808B1EB
:1039800000F05AFBE2B20421024803F03BF810BDFC
:10399000B8F201200010024010B5002400F0A0F899
:1039A00004E0601CC4B2012010F0DAFD00F01AF847
:1039B00008B1C82CF5DBC82C01DB012010BD0024A8
:1039C00004E0601CC4B2012010F0CAFD00F00AF847
:1039D00008B9F02CF5DBF02C01DB0120EEE700202C
:1039E000ECE7000010B50748406C012801D1202009
:1039F00001E04FF4804004462146034802F0FAFFFC
:103A000010BD000050EC01200000024070B50446DB
:103A10000748406C012801D1202001E04FF480408C
:103A20000546E2B22946034802F0ECFF70BD0000F3
:103A300050EC0120000002402DE9F0412DED048BF7
:103A400000F0C2F800F0AFF8FFF7A6FFCC2000F0BE
:103A5000C7F8BE2000F0C4F800F094F8074600F064
:103A600091F80446072C05DDE043C4B2F843C7B221
:103A7000002600E0012625462D023D440EB12846D1
:103A800000E068420546284618F0ABFC41EC190BF3
:103A90009FED0F0B53EC102B18F00AFD41EC180BA7
:103AA00018F042FC0546284618F09BFC41EC190B27
:103AB0009FED090B53EC102B18F0A2FA41EC180BF8
:103AC00018F0B0F900EE100ABDEC048BBDE8F081EF
:103AD000000000000000E43F00000000000024405F
:103AE00000B585B00948406C012801D1202001E0D3
:103AF0004FF480400090002001900290022003903B
:103B00006946034802F06AFE05B000BD50EC012092
:103B10000000024000B585B00A48406C012801D180
:103B2000202001E04FF4804000900120019000200F
:103B30000290022003906946034802F04FFE05B050
:103B400000BD000050EC01200000024010B5FFF75E
:103B5000E1FF0020FFF75AFF022010F001FD0120D5
:103B6000FFF754FFFFF7BCFF0C2010F0F9FCFFF744
:103B700039FF08B1012400E00024322010F0F0FCED
:103B8000204610BD70B50026012508E0FFF7DEFFD6
:103B90000446E00140EA6600C6B2681CC5B2082DC2
:103BA000F4DD304670BD10B5FFF7B4FF0020FFF71D
:103BB0002DFF40F2EE2010F0D3FC0120FFF726FF8E
:103BC0000F2010F0CDFC10BD10B5FFF7ECFFFFF794
:103BD000E3FECC2000F004F8442000F001F810BD12
:103BE00070B50446FFF796FF01251EE004F00106BC
:103BF000641066B10020FFF709FF022010F0B0FC4E
:103C00000120FFF703FF3C2010F0AAFC0BE000208E
:103C1000FFF7FCFE3C2010F0A3FC0120FFF7F6FEAE
:103C2000022010F09DFC681CC5B2082DDEDD70BDC1
:103C300070B50246012400230F48007A012818DCE1
:103C400000200D4D2D7A0C4E70553046057A001D22
:103C500040F82520051F287A451C3572034603F1DC
:103C6000300008703A2048702F2088700020C870FB
:103C70000024204670BD00008480002010B5002282
:103C800001B909E0012901D10A0205E0022901D1A7
:103C90000A0201E04FF440720B2800D9001D114BBD
:103CA0001B6823F440730F4C236023461B681343A7
:103CB000236023461B6823F0F803236023461B6818
:103CC000F82494FAA4F4B4FA84F400FA04F444F066
:103CD00002042343034C236023461B6843F48033D0
:103CE000236010BD103C024010B502460020144B6A
:103CF0001B6823F44073124C236023461B68034364
:103D00002360032906D123461B68E41323430C4C8C
:103D100023600EE0012906D1094B1B6843F0040320
:103D2000074C236005E0064B1B6843F40043044C3A
:103D30002360034B1B6843F48033014C236010BDA8
:103D4000103C0240074A126822F44072054B1A6088
:103D50001A4612681A601A46126842F001021A6086
:103D600001707047103C024010B50949096821F400
:103D70004071074C21602146096841F4407121607F
:103D80002146096841F0010121600260436010BDD5
:103D9000103C0240084A126822F44072064B1A6036
:103DA0001A46126842F480721A601A46126842F08B
:103DB00001021A6001807047103C0240084A1268F4
:103DC00022F44072064B1A601A46126842F40072DE
:103DD0001A601A46126842F001021A6001607047C8
:103DE000103C02402148006800F0100028B1204833
:103DF000C06940F010001E49C8611C48006800F00E
:103E0000200028B11A48C06940F008001849C8616C
:103E10001648006800F0400028B11548C06940F01D
:103E200004001349C8611148006800F0800028B1FF
:103E30000F48C06940F002000D49C8610B48006896
:103E400000F4807028B10A48C06940F001000849B8
:103E5000C8610648006800F0020028B10448C06943
:103E600040F020000249C861704700000C3C02404D
:103E70001C1B002070B50446002500201049C861B5
:103E800002F0C6FD054609E0601C38B124B102F01D
:103E9000BFFD401BA04201D9032070BD0948006846
:103EA00000F480300028EFD10648006800F4F97073
:103EB00018B1FFF797FF0120EFE70020EDE70000C2
:103EC0001C1B00200C3C024030B50246002300249D
:103ED0000868012816D013686FF30E03D1E90105B5
:103EE0002843CD6828430D6928434D6928438D69CF
:103EF0002843CD6928430D6A28434D6A284303436C
:103F0000136019E013686FF30E03D1E90705284326
:103F10004D6A2843034354686FF30E04D1E9010549
:103F20002843CD6828430D6928434D6928438D698E
:103F30002843044313605460002030BD024650699A
:103F400040EA4100506100207047F8B506460C4633
:103F50001546002000900027D4E900010843A1681D
:103F6000491E40EA4110E16840EA41200090009873
:103F7000306102F04DFD07460BE0681C38B125B1F9
:103F800002F046FDC01BA84201D90320F8BD012064
:103F9000FCE7B06900F020000028EED100BFF5E793
:103FA00070B50346154600220024012D1FD09A68E3
:103FB00002F070420868401E4E68761E40EA0616FF
:103FC0008868401E46EA0026C868401E46EA003659
:103FD000088A401E46EA0046888A401E46EA005685
:103FE000087E401E46EA006002439A6022E0DA68DA
:103FF00002F070420868401E4E68761E40EA0616BF
:104000008868401E46EA0026088A401E46EA0046A6
:10401000087E401E46EA006002439C6804F070443B
:10402000C868401E0603888A401E46EA00500443C2
:10403000DA609C60002070BDF0B587B00020019070
:10404000022005900290012004901720039002F0B6
:104050002DFB074606A901A802F078FA07460024BE
:104060000AE010480059C31705460F4821182A4690
:10407000022002F0CFFA241DB4F57A7FF1D3002498
:104080000AE00A480059C3170546094821182A467C
:10409000022002F0BFFA241D742CF2D302F0B0FA11
:1040A00007B0F0BD68E8012000001E0850EC0120B8
:1040B00000001F082DE9F0430446C56887B090460C
:1040C0008946002001F038FA064625B1287910B15A
:1040D00046F0020001E026F0020001F02DFA20690E
:1040E000012558B1D4E902128DE8260003956388B2
:1040F0002288046841464846A0471EE0124F134BF1
:10410000214638681B68427CE068984730B9E088EF
:10411000012801D0002001E03868806BA288E38884
:10412000A1680095CDE90410CDE9023201956388BC
:1041300022884146484605F0E1F907B03046BDE81F
:10414000F04301F0F9B9000088190020801900201F
:104150002DE9F04FDFF828B191B04FF0FF35DBF8D3
:104160000030B3F922100691DE69B3F92490F469A6
:10417000A189814206D8E289824203D3471AD4F842
:10418000008012E0D4E9018100296FD00A888242C0
:104190006CD84D88854269D3801A82B2486800EB9A
:1041A0008200B0F90070B0F90250781C5ED0307E09
:1041B000A17C10FB01FA217CCDE90701B3F92A604B
:1041C000304605F059FEC0B20E90DBF8000007FB48
:1041D0000A81A37C826B0127CDE90412CDE9027329
:1041E000C069089AC17E807ECDE90001DDE9060341
:1041F000494605F083F9681C18D046F0020005F026
:104200003BFEDBF80000A37C05FB0A81826BCDE955
:104210000273CDE90412C069089AC17E807ECDE99F
:104220000001DDE90603494605F068F9DBF8000006
:104230005D46C069417E007E814214D9022E12D0B3
:1042400086F0040005F018FE2868C069027EC37E6F
:1042500012FB0391437E857E089A06984B4412FB1D
:10426000050205F0ADFA0E9805F006FEDBF8000039
:10427000627C418C1144418411B0BDE8F08F000094
:104280008819002004480068C069C06909B1027C2F
:104290000A60407C704700008819002002200880D6
:1042A0007047C06982898A4202D8C2898A4210D284
:1042B000806880B102888A420DD843888B420AD335
:1042C000406800EB8100A0EB8200B0F900000028FC
:1042D00001DB01207047002070470000F0B5254C3D
:1042E000054687B020682946B0F92A60C069C069D0
:1042F00000F04BF900283AD041680088281A01EBF9
:10430000C0053046AF7805F0B7FD06461A48D0F82C
:1043100000C0BCF1000F15D000216868CDE9040190
:104320000422012001A9009081E885002068DCF8C2
:1043300000702A78C1690B7EB0F92410B0F9220010
:10434000B8470CE06868CDE9007020682A78C16938
:104350000B7EB0F92410B0F9220000F07DFA30464F
:1043600005F08AFD20686A78418C1144418407B0C9
:10437000F0BD000088190020B419002070B5054672
:104380000B480C4629460068C069C06900F0FDF87A
:1043900000280BD0416800882A1A012000EBC200D7
:1043A000002C085C02D011F83210216070BD0000B2
:1043B0008819002011200880704710B5C06900F0EE
:1043C000E4F8002800D0012010BD00002DE9F043E2
:1043D000304C034687B020681946B0F92A60C0699E
:1043E000C06900F0D2F8002850D041680088181A3F
:1043F00001EBC0053046AF7805F03EFD81462068F0
:104400006A680123816BCDE90237CDE90421C169D6
:10441000CB7E8A7ECDE900230B7EB0F924102A786A
:10442000B0F9220005F06AF82068C069417E027E7A
:1044300091421FD9C07E11FB00F812FB00F7022E3B
:1044400018D000F0ADFD064600F078FD01F063F8ED
:1044500021682A78CB69B1F92200DB7E12FB0302C6
:10446000B1F9241001EB0803394405F0A9F93046ED
:1044700001F051F8484605F0FFFC20686A78C369EE
:10448000B0F922109B7E12FB0311418407B0BDE8F6
:10449000F0830000881900202DE9F3411C4E0F46DF
:1044A000002530682C46C069417EC07E11FB00F8B3
:1044B0001DE0684601F0AAF8054630682946C06943
:1044C000C06900F029F890B141680088281A00EB13
:1044D000400001EB800090F9021000790844316837
:1044E000C969897E10FB01F0002800DD04447F1EAD
:1044F000DFD51DB1284601F073FC04444146204637
:104500000AF0E8F9034901200870BDE8FC810000C9
:1045100088190020281A002006E002888A4202D862
:1045200042888A4202D280680028F6D17047000093
:1045300030B50F4C05460B4620682946C069C06956
:1045400000F023F8002812D04168008824682A1A55
:104550000120E46900EBC200085CA47E10FB04F0BB
:10456000002B04D011F8321011FB04F1196030BD9A
:104570008819002001200880704700B5C06900F04C
:1045800004F8002800D0012000BD06E002888A421D
:1045900002D842888A4202D280680028F6D1704749
:1045A00070B500250F4C19E020690F49C5EB0516C1
:1045B00000EBC60070220968001DFCF774F9206941
:1045C000002140F8361000EBC60000F10C018161BB
:1045D000011D0A1DC0E90F126D1C4164A0688542CF
:1045E000E2DB70BD301A00208819002070B50E493A
:1045F0000C480860084601F00BFD0B4C143CA06809
:10460000C0EB0010C500284600F094F92A460021AE
:10461000206101F005FD4FF0FF302060BDE87040E3
:1046200001F066B831090108441A00202DE9FF4F56
:1046300085B00546DDF848800C464FEA4800511B1E
:104640009A469146091A7DD4AAEB0401081A79D436
:1046500000F04CFDDFF804B100200290DBF8000010
:1046600090F8691021B910F8681F029104210170B7
:1046700009F0B4FE471909F0BFFE061909F0AEFEB5
:1046800000EB090509F0B8FE00EB0A04DBF80000B6
:1046900090F8691039B990F868004743464345439C
:1046A000444308FB00F800F0A9FC2C49096891F884
:1046B000682010FB02F000F0FF094FEA5900511C7E
:1046C00049083B1A0B440593331A0B445F1E2B1801
:1046D0000B44A3F1010B23184044A0EB520503EB5C
:1046E000010A059800F04CF8ADF80C00584600F0AF
:1046F00047F8ADF81000384600F042F8ADF80E006B
:10470000504600F03DF8ADF8120003A809F0A0FEF5
:1047100013E0DDF814805C464E465946404600F0F2
:104720008FF8CDE9005653462246394640460BF0F5
:10473000B7F800F015F809F031FE0028E9D1074874
:10474000006800E007E090F8691011B9029980F85C
:10475000681000F0AFFF09B0BDE8F08F88190020A5
:1047600010B50BF0BBFD0448016A044800684166BF
:1047700000F10801416110BDEC19002088190020EA
:104780000449096891F8681009B190FBF1F000B292
:1047900070470000881900202DE9F041224C0546A1
:1047A0000E462068002788B920480068E06110B9EB
:1047B00005F0D1F8E06100F0BDF8206080B31A493F
:1047C0001B4824310860084601F022FC19480068A3
:1047D000854200DA0546E169731B4A1E2046934272
:1047E00001DD6E18761EAE4201DA2E460127124C0C
:1047F0002268516E4B68836301620B490F4B343161
:104800000B60516602C880E862000AF04FF80AF0B7
:104810002FF8054821682C3048613846BDE8F08102
:10482000FFE70127D2E70000EC190020AC190020B7
:104830001D090108B019002088190020A1F70008FF
:10484000044A126892F8682090FBF2F091FBF2F1B2
:10485000FFF7A2BF881900207CB5084EDDE9065499
:104860003668367CCDE90054B60702D40AF00EFF54
:104870007CBD034C2468A0477CBD00008819002043
:104880004419002010B5040009D000F02FFC204688
:1048900009F090FF044600F00DFF204610BD0020F7
:1048A00010BD38B5054600F021FC2846FFF7EAFFA9
:1048B000040009D000F096F82A460021009001F08B
:1048C000AFFB684600F09CF800F0F4FE204638BDCF
:1048D000024A106021F003005060704788080220EF
:1048E00010B5040016D000F001FC0B48006B10F866
:1048F000341059B1022909D2042101EBC4014158F5
:10490000486809F01BFF20460CF074F8BDE8104021
:1049100000F0D0BE10BD0000CC070220002805D05A
:10492000034A916B016001B14860906370470000D9
:10493000CC0702202DE9F04104460BF00DFF28487A
:10494000E41C24F00305C16B2D1DA94200D90D46BE
:10495000846B13E054F8042CAA420ED184B1216870
:1049600009B162684A60616809B122680A60826BB5
:10497000A24231D1216881632EE02468002CE9D164
:104980008046416B80680F1857F8040C3E1A306857
:1049900038B100200CF05CF857F8040C3E1A30686F
:1049A000D0B97068A84217DB3044441B3046241D40
:1049B0000CF034F8D8F80810491BC8F80810D8F8DB
:1049C00010102944C8F810107068401B02D03146FE
:1049D00009F0B4FE44F8045C2046BDE8F081000014
:1049E000CC07022005498A69521C8A61096B01EBD8
:1049F000C0010A78521C0A7000F01AB8CC070220D5
:104A00000A4902680B6B52F8082C03EBC2021378B8
:104A1000022B03D38B690BB15B1E8B611178491E8E
:104A2000117000210160084670470000CC07022089
:104A3000002806D00349042202EBC000096B085885
:104A400008307047CC070220F0B52D271C68B0F164
:104A5000004F08D0002600280DDA651C1D60277065
:104A60004042012408E0651C01261D606FF00040F3
:104A70002770491E01E00024091BC9B22AB3491E50
:104A8000C9B222E00C46491EC9B2944205D1124C6B
:104A900027781C68651C1D602770104C54F8215045
:104AA00090FBF5F4E4B20A2C11D804FB150011B9FF
:104AB0000EB1641CE4B20A2C02D10124491CC9B213
:104AC0001D686F1C30341F602C700029DAD1196802
:104AD00000200870F0BD00007C190020242104088B
:104AE00010B5C2B2CBB2D21A00D5524293B25B43D8
:104AF000C0F30722C1F30724121B00D55242000C59
:104B000092B2A0EB114002FB023200B2002801DA9F
:104B1000404200B280B200FB002010BD10B5002161
:104B2000084600F09DFA43F6FF725042BDE810407F
:104B300013460146AFF300802DE9FC411C461546A3
:104B40000E46074600F0D2FA042005F095F980469B
:104B50001248C068C16C006D0F4406440D44044403
:104B6000ADF80070ADF80450ADF80260ADF8064045
:104B7000684609F06DFC07E023462A463146384670
:104B800004F01EFE09F00AFC0028F5D1404605F0AD
:104B900073F900F08FFDBDE8FC8100007C19002056
:104BA0002DE9F0411C4616460D460746022B02DB56
:104BB0000020BDE8F0811C20FFF7BCFE0028F8D0E3
:104BC0000DB105610AE0094A52F8241009B905E05F
:104BD00011460A68002AFBD1096901618461868255
:104BE000002101604160C0E90217E2E7A01900203E
:104BF00070B51D46FFF7D4FF040009D000F00EF891
:104C0000E068006820B90348006800EB850084650F
:104C1000204670BD88190020FFF780BE70B590B3A4
:104C20008269022A30DA1E4C54F8221019B944F86D
:104C3000220032E019464B68002BFBD106E0CB681E
:104C4000C5681B682D68AB4203DD09680029F6D1F1
:104C50001AE0C1B1CB68C6681B683668B3420CD194
:104C6000838A012B05D008E01946DB681B68AB423C
:104C700003DB0B68002BF7D129B14B6833B1186007
:104C80004A68426004E0FFE7012070BD44F822005A
:104C90004860884200D100210160002070BD000002
:104CA000A019002010B503E00468FFF7B7FF204605
:104CB0000028F9D110BD0CF07DB900002DE9F041BC
:104CC0000026DFF834800D4F354600BF58F82540E8
:104CD00009E0E0680068385C20B120460CF06AF911
:104CE000266026462468002CF3D16D1C022DEDDBD6
:104CF0003046BDE8F0810000A01900207C040408C3
:104D0000022801DB00207047054951F8200004E02B
:104D1000C16809680029F6D000680028F8D17047FA
:104D2000A01900207FB51E4614460D46CDF80CD0C4
:104D300003AB00223146FFF787FE2246294668462C
:104D400000F086F87FBD00002DE9FC4706005FD02B
:104D500000F0CCF900F030F93C4C81462068B0F905
:104D6000228000F057F9216807468A8CD01B88847E
:104D700041E000BF47F6FF71304601F015F882466A
:104D80000146304600F0E6FF2168054691F82C0008
:104D900000F00300012841D002283BD000204A8CBB
:104DA000101A4884ADF800006A1E1044ADF80400E3
:104DB000888CADF80200A9F101010844ADF80600A5
:104DC0006A465146304600F095FD2168BDF8020064
:104DD00088845146304600F02FFC064430780A287B
:104DE0001ED00D281CD0BDF800002168284448843E
:104DF000307818B1761C30780028BBD12068818CBF
:104E000039448184818D21F00301818500F052FCB9
:104E1000BDE8FC8705EBD5704010C0E72846BEE72B
:104E2000206890F82C1001F0030101290BD0022911
:104E300009D0018C418431780A29D9D1828C02EBC6
:104E400009018184D4E7A0F82280F4E788190020C2
:104E500070B514460D46064600F048F9054800684E
:104E6000458484843046FFF76FFFBDE8704000F052
:104E700021BC0000881900202DE9FC4114460D4694
:104E8000064600F033F9114F3968C86C096D0544C6
:104E900004440E44ADF80050ADF80440ADF8026093
:104EA000ADF80660684609F0D3FA08E03868224693
:104EB0003146406E03682846984709F06FFA00288B
:104EC000F4D100F0F7FBBDE8FC8100008819002058
:104ED0002DE9FC411C4615460E46074600F006F932
:104EE00010480068C16C006D0F4406440D44044432
:104EF000ADF80070ADF80450ADF80260ADF80640B2
:104F0000684609F0A5FA07E023462A4631463846A6
:104F100004F056FC09F042FA0028F5D100F0CAFB73
:104F2000BDE8FC8188190020034951F82000C168C0
:104F30008A6A082110470000A019002010B500F06F
:104F4000D5F804F06DFC04F02FFD044600F0B2FB30
:104F5000204610BD10B5044600F0C8F805480021F1
:104F60000068C069426820469047044600F0A2FBF2
:104F7000204610BD8819002070B50C46054600F08B
:104F8000B5F8064821460068C0694268284690473F
:104F9000044600F08FFB204670BD000088190020F9
:104FA00010B500F0A3F804F043FC04F0FDFC044647
:104FB00000F080FB204610BD10B500F097F80448C3
:104FC0000068C069447E00F075FB204610BD0000FB
:104FD0008819002070B514460D46064600F086F884
:104FE00022462946304604F095FC10B10020286086
:104FF0002060BDE8704000F05DBB000010B500F01F
:1050000075F803480068047E00F054FB204610BD8C
:105010008819002010B5002400F068F80B480068DB
:1050200090F82C1001F00C01042904D0082906D0B6
:105030000C2907D103E0C069047E641E02E0C06948
:10504000007E440800F036FB204610BD8819002081
:10505000024951F82000006940687047A0190020FB
:1050600070B50D46044600F041F820460BF0F6FA04
:10507000044628460BF0FAFA044300F01BFB2046D6
:1050800070BD0000134810B5016821F001010160F6
:10509000114801218160114901600068104988426E
:1050A00000D0FEE700F00AFC0E492E20087000F048
:1050B0001EFB0D480BF018FB0FF0ACFE0446002160
:1050C000084600F055FA08F0D7FFFFF769FA2046C6
:1050D00010BD0000002000E000300240C2A507F42F
:1050E000CDB5E8B57C1900209408022070B5214C9C
:1050F000E06820B100F0F7FA6168884204D000F05F
:105100000DFB00F0F0FA6060E068401CE0600128F0
:105110002AD100250BE000BF00F0E5FA2269C5EBBB
:10512000051152F83110814205D0F1B16D1CA06813
:105130008542F1DB00252068854215D0002812DB6E
:10514000FFF7BCFD2168C1EB0112216901EBC2022E
:105150005067C5EB0510084A01EBC000011D116046
:10516000406FFFF79FFD256070BDC5EB051142F84C
:105170003100E0E7301A00208819002038B504001B
:105180001CD0FFF7B3FF0E480068006EA04201D1AB
:1051900000F090F92046FFF725FC0090406908B127
:1051A00000F072FA00980068FFF736FD6846FFF7D6
:1051B00027FC2046FFF794FB00F07CFA38BD000086
:1051C0008819002038B50446FFF790FF2046FFF706
:1051D00009FC00F1180400906846FFF711FC00F08C
:1051E00069FA204638BD00002DE9F74F8EB014460D
:1051F00089460E98FFF7F6FB0990B0F908B0B0F9B0
:105200000A600068006940680C9009A8FFF7F8FB85
:10521000564D574F2868407C57F82000C1688A6A6D
:10522000082190470790182801D32020079028686C
:10523000407C57F820000069069003C80B904D4849
:10524000814201D0012000E000200A90002000F0FF
:1052500077FA00287DD1286809EB0B01B0F90C2002
:10526000891A491E002902DDABEB010500E05D460D
:10527000B0F90810494505DDA1EB090189446D1A13
:10528000089101E000210891002D6BDDB0F90E209E
:10529000A119891A491E002902DDA6EB010800E0C8
:1052A000B046B0F90A00A04204DD061B3444A8EB66
:1052B000060800E00026B8F1000F53DD08980190C1
:1052C0000DA95F46DDF830A00E980091FFF77AFF38
:1052D000774300EB870101982B4601EB8002009990
:1052E0004846CDE900A1214600F05CFB0090002873
:1052F00038D00A98E8B1DDE906322946009800F076
:105300002AFAB0B90698009FDA46D0F810C0BCF16E
:10531000000F05D004235A4639463846E04708E0D6
:105320000B993868884701C7AAF101005FEA000AB3
:10533000F6D100990020079ACDE9030105900120DC
:105340000090CDE9010221460346641C2A464846E6
:1053500000E007E004F0D2F8A8F10100761C5FEA53
:105360000008ABD111B0BDE8F08F00008819002013
:10537000A0190020C7990008094A126802B100204C
:10538000074A1C3252F82030002B07DBA2F1180329
:1053900043F820104FF0FF3142F820107047000012
:1053A000BC19002010B5002821D009B30AB3B1F907
:1053B0000040B2F900309C4200DA23460380B1F984
:1053C0000240B2F902309C4200DA23464380B1F930
:1053D0000440B2F904309C4200DD23468380B1F9D9
:1053E0000610B2F90620914200DC1146C18010BDC2
:1053F00011460A6802604968416010BD00280BD060
:1054000003880B44038083881944818041881144B8
:105410004180C1881144C180704700002DE9FC41E2
:10542000154DDDE908742D68B5F90860864200DD88
:105430003046B5F90C60964200DA3246824219DBFA
:10544000B5F90A608E4200DD3146B5F90E509D4235
:1054500000DA2B468B420DDB00E02C46E5682D6818
:1054600025B1042D02D02568002DF6D1CDE90074B8
:1054700004F0B6FBBDE8FC8188190020B0F90220D9
:10548000B1F906309A4213DCB1F90220B0F90630C6
:105490009A420DDCB0F90020B1F904309A4207DCE1
:1054A000B1F90010B0F90400814201DC012070471D
:1054B0000020704710B5FFF719FE04F05DFC04F002
:1054C0007BFD08F09BFCBDE8104000F0F3B8000045
:1054D00070B5094D04462868467CFFF707FE022C8C
:1054E00003D228684474FFF7E5FF0448046000F025
:1054F000E1F8304670BD000088190020681A0020CD
:1055000010B50446FFF7F2FD204604F055FCBDE857
:10551000104000F0CFB810B50446FFF7E7FD204675
:1055200004F082FCBDE8104000F0C4B80149886076
:10553000704700007C19002010B50446FFF7D6FD27
:10554000204604F099FC044600F0B4F8204610BD53
:1055500070B50446FFF7CAFD04480068C56904B188
:10556000C46100F0A7F8284670BD0000881900202B
:1055700070B50C460546FFF7B9FD0948224605807F
:105580000848048008480068417C084850F8210019
:10559000C1680B6A29469847BDE8704000F08AB898
:1055A000B8190020BA19002088190020A01900207D
:1055B00070B50546FFF79AFD03480068047E05763E
:1055C00000F078F8204670BD8819002070B50446B8
:1055D000FFF78CFD04480068B0F92C50848500F07A
:1055E00069F8284670BD000088190020024800684C
:1055F000002800D0004770470C1B002002498A6831
:1056000002B98860FFF7F2BF001B00202DE9F041CE
:10561000084E0446056830680168284688470746F2
:105620003068416828468847284420603846BDE8ED
:10563000F08100008C1900202DE9F0410C4606464F
:105640000025064F05E03868416830468847064423
:105650000544641EF7D22846BDE8F0818C1900206D
:105660002DE9F0411E46069C1746884605463A46F7
:10567000A8687F1C3346D0F804C041462846E0475E
:10568000641EF4D1BDE8F08138B50546FFF72EFD64
:105690002846FFF7A7F900908189491E0CB2848142
:1056A0006846FFF7ADF914B92846FFF719F900F07D
:1056B00001F838BD0348C168491EC16001D100F03E
:1056C00037B87047301A002010B54FF480310348C6
:1056D000FFF7FEF80248FFF729FF10BD9080002079
:1056E00000210408704710B512F0B9F810BD7047DA
:1056F0001CB50020019001A811F0B0FF0549086019
:10570000002000900121684612F006F80249086066
:105710001CBD00007C0000208000002010B54FF070
:10572000FF310248006811F0C5FF10BD7C00002069
:1057300010B50248006811F097FF10BD7C000020F2
:105740000EB508B102AA00E00022002301A96846B4
:1057500000F0B2FA0EBD2DE9F0411E680D46044678
:10576000082A09DC0746012A1AD0022A5BD0042A3B
:105770007DD0082A13D18DE0102A07DCD3F810C0A1
:105780000746BCF1000F04D0022389E00020BDE8E9
:10579000F08101CCB04727F8020B6D1EF9D18AE0E9
:1057A00001CCB047C0074FEA10686D1E36D001CC5F
:1057B000B04748EA801000F0FF086D1E2ED001CCE3
:1057C000B04748EA401000F0FF086D1E26D001CC1B
:1057D000B04748EA001000F0FF086D1E1ED001CC53
:1057E000B04748EAC00000F0FF086D1E16D001CC9B
:1057F000B04748EA800000F0FF086D1E0ED001CCD3
:10580000B04748EA400000F0FF086D1E06D001CC0A
:10581000B04740EA080000F0FF086D1E07F8018B52
:10582000002DBDD147E001CCB04780074FEA10689A
:105830006D1E16D001CCB04748EA001000F0FF08FA
:105840006D1E0ED001CCB04748EA800000F0FF0882
:105850006D1E06D001CCB04740EA080000F0FF08FA
:105860006D1E07F8018B002DDDD124E0FFE701CC90
:10587000B04700074FEA10686D1E06D001CCB04754
:1058800040EA080000F0FF086D1E07F8018B002DAC
:10589000EDD110E0D3F810C0BCF1000F05D001230A
:1058A0000A4601463846E04705E001CCB04707F814
:1058B000010B6D1EF9D1012069E700000B4810B5FE
:1058C0008169002910D101218161FFF7FDFEFEF7FA
:1058D0008DFE04F083FB054905481C310860BDE8D6
:1058E0001040084600F094BB10BD00007C19002059
:1058F000F10801087CB5064628480D46006868B1E5
:10590000002008F0A5FD06E06A462946304609F069
:10591000A1F808F043FD0028F6D17CBD1068009086
:105920001F4C506801902268BDF8000032F84C1FEF
:105930000844ADF80000BDF8020091880844ADF8B5
:105940000200BDF8040011880844ADF80400BDF859
:10595000060091880844ADF80600684608F078FD16
:105960000EE000BF2068BDF800106A464184BDF813
:10597000021081842946304609F06CF808F00EFDCB
:105980000028EFD1206830F8221F428D891A01804B
:105990004188C28D891A41807CBD0000B419002065
:1059A000881900202DE9FF4F8DB00020DDF86CA094
:1059B000164600901D4604460246CAF8000008AB91
:1059C00003A902A800F078F918B1002011B0BDE8D1
:1059D000F08F0898854200DD0546614F0B956149BF
:1059E0003868407C51F82010049109690691FFF74E
:1059F0009BFA05903868407CFFF72AFB5A4981469C
:105A0000884204D05949894501D0012000E0002096
:105A10000A9001CE1A9988478346000E079077D0E6
:105A2000009870BB0D9800EB04084D480068B0F971
:105A30000800404503DDA0EB0807804600E0002792
:105A40000298049900EB840000EB8700CDE9000187
:105A50000B990D98421809920E9B40461946521E0A
:105A6000FFF7DCFC01200090059818280ADA02985C
:105A7000DDE9052300EB840000EB8700E91B00F063
:105A800079F812E00A9880B1029800EB840000EBEC
:105A900087070998A0EB080849463868884701C776
:105AA000A8F101005FEA0008F6D13148C06980B36F
:105AB000DDE9020700EB840007EB8402CDE9020276
:105AC0002B4C361F3046E4692B460299A047FF2134
:105AD0003068B1EB106F02D10298006804E0029ABE
