:020000040800F2
:1000000000C90220750300087D0300087F03000873
:100010008103000883030008850300080000000036
:10002000000000000000000000000000AD02000819
:1000300089030008000000000103000891890008FE
:100040008F0300088F0300088F0300088F03000848
:100050008F0300088F0300088F0300088F03000838
:100060008F0300088F0300088F0300088F03000828
:100070008F0300088F0300088F0300088F03000818
:100080008F0300088F0300088F0300088F03000808
:100090008F0300088F0300088F0300088F030008F8
:1000A0008F0300088F0300088F0300088F030008E8
:1000B000A98A00088F0300088F0300088F03000837
:1000C0008F0300088F0300088F0300088F030008C8
:1000D0008F0300088F0300088F0300088F030008B8
:1000E0008F0300088F0300088F0300088F030008A8
:1000F0008F0300088F0300088F0300088F03000898
:100100008F0300088F0300088F0300088F03000887
:100110008F0300088F0300088F0300088F03000877
:100120008F0300088F0300088F0300088F03000867
:100130008F0300088F0300088F0300088F03000857
:100140008F0300088F0300088F030008398600081A
:100150008F0300088F0300088F0300088F03000837
:100160008F0300088F0300088F0300088F03000827
:100170008F0300088F0300088F03000800000000B1
:100180008F0300088F0300088F0300088F03000807
:100190008F0300088F0300088F0300088F030008F7
:1001A000F57E00088F0300088F03000800F002F8B6
:1001B00000F06CF80AA090E8000C82448344AAF195
:1001C0000107DA4501D100F061F8AFF2090EBAE893
:1001D0000F0013F0010F18BFFB1A43F0010318477B
:1001E000C03B0200E03B02000A444FF0000C10F854
:1001F000013B13F0070408BF10F8014B1D1108BFA5
:1002000010F8015B641E05D010F8016B641E01F844
:10021000016BF9D113F0080F1EBF10F8014BAD1C94
:100220000C1B09D16D1E58BF01F801CBFAD505E0B2
:1002300014F8016B01F8016B6D1EF9D59142D6D30C
:10024000704700000023002400250026103A28BF34
:1002500078C1FBD8520728BF30C148BF0B60704738
:1002600066290FF03F83642900F0E080002070478A
:100270001FB50FF032FB00F0A7FD040000200021A5
:100280000EF0F2FFE0601FBD10B510BD00F095FE4E
:100290001146FFF7EDFF0DF0BBFA00F0B3FE03B41B
:1002A000FFF7F2FF03BC00F0F3FE0000294B1968D2
:1002B0000868B0E8F04F80F30988BFF36F8F4FF004
:1002C000000080F3118870470000000006480068B5
:1002D000006880F3088862B661B6BFF34F8FBFF342
:1002E0006F8F00DF00BF00BF08ED00E0DFF80C00FB
:1002F000016841F470010160704700BF88ED00E0C3
:10030000EFF30980BFF36F8F124B1A681EF0100FC6
:1003100008BF20ED108A20E9F04F106008B44FF0BC
:10032000500080F311880EF085F84FF0000080F344
:10033000118808BC19680868B0E8F04F1EF0100F6B
:1003400008BFB0EC108A80F30988BFF36F8F704745
:1003500000BF00BF30000020EFF311804FF05001CC
:1003600081F31188704780F311887047EFF305809F
:10037000704700000948804709480047FEE7FEE74C
:10038000FEE7FEE7FEE7FEE7FEE7FEE7FEE7FEE745
:1003900004480549054A064B70470000458A000895
:1003A000AD01000800C3022000C9022000C50220E0
:1003B00000C502200FB41CB5074B06AA7B44694652
:1003C0000090059800F0A7FC0020694600F0B6FCFC
:1003D0001CBC5DF814FB00007D09000070B50446EC
:1003E00085690068C10601D5302600E02026C007D7
:1003F00007D070BDD4E9012130469047206A401CE7
:1004000020626D1EF6D570BD70B504468569007812
:10041000C00707D170BDD4E9012120209047206A90
:10042000401C20626D1EF6D570BD00002DE9F04124
:100430000646002410687529314616A510D0AFF382
:100440000080002802DA404213A507E031688A07DD
:1004500001D512A502E0490704D511A5012401E048
:10046000AFF3008000210A2206F1240709E0B0FB67
:10047000F2FCB0FBF2F302FB1C003030785418465B
:10048000491C0028F3D123462A463046BDE8F041F6
:1004900000F0D5B9000000002D0000002B00000086
:1004A000200000002DE9F05F894604464FF0000A65
:1004B000DFF824B1FB44C0F820A02046E16888475B
:1004C00000287DD0252806D0D4E901219047206A54
:1004D000401C2062F1E700255F462046E16888471E
:1004E0002028064607DB312E05D2B81910F8200C5B
:1004F00008B10543F1E7A80701D525F00405C4F8C4
:100500001CA00027C4F818A02A2E09D030460CF0F1
:100510000BFF38B304EB8708303EC8F8186019E0C9
:1005200059F8041B204604EB87029161E168884773
:10053000012F064618D1E069002820DA25F02005B1
:100540001DE0D8F8180000EB800006EB40003038C2
:10055000C8F818002046E168884706460CF0E4FE1B
:100560000028EED1012F0AD02E2E08D12046E168B6
:1005700088477F1C0646022F45F02005C4DBA06992
:10058000002803DA404245F00105A061E80701D0E8
:1005900025F01005A6B1A6F14100192802D8203691
:1005A00045F400654A463146204625604D46FFF732
:1005B00057FE60B1012807D0ED1D25F0070000E0CF
:1005C00007E000F1080978E705F1040975E730460E
:1005D0007AE7206ABDE8F09F2C38020040EA010368
:1005E000024630B59B0710D14FF0013400E008C23D
:1005F00008C91D1B9D4315EAC41FF8D013F0FF0165
:1006000002F8011B0DD01B0AF8E711F8013B002B83
:1006100002F8013B05D011F8013B002B02F8013B29
:10062000F3D130BD032A40F2308010F0030C00F00B
:10063000158011F8013BBCF1020F624498BF11F81C
:1006400001CB00F8013B38BF11F8013BA2F10402D5
:1006500098BF00F801CB38BF00F8013B11F003034D
:1006600000F06780083AC0F0088051F8043B083A6F
:1006700051F804CBA0E80810F5E7121D5CBF51F853
:10068000043B40F8043BAFF30080D20724BF11F8CD
:10069000013B11F801CB48BF11F8012B24BF00F832
:1006A000013B00F801CB48BF00F8012B7047431A0B
:1006B00028BF9A427FF6B6AF032A1044114440F295
:1006C000268010F0030F1EBF11F8013D521E00F8E6
:1006D000013D10F0030F7FF4F6AF11F0030300F0BB
:1006E0004583083AC0F00B8051F8043D083A51F8B0
:1006F00004CD40F8043D40F804CDFFF7F3BF121DD0
:100700005CBF51F8043D40F8043DAFF30080D207D0
:1007100024BF11F8013D11F801CD48BF11F8012C9B
:1007200024BF00F8013D00F801CD48BF00F8012CBE
:10073000704710B5203AC0F00B80B1E81850203A4D
:10074000A0E81850B1E81850A0E81850BFF4F5AF71
:100750005FEA027C24BFB1E81850A0E8185044BFFB
:1007600018C918C0BDE810405FEA827C24BF51F868
:10077000043B40F8043B08BF7047D20728BF31F85C
:10078000023B48BF11F8012B28BF20F8023B48BFAD
:1007900000F8012B704702F0FF0343EA032242EA0C
:1007A000024200F002B84FF000020429C0F01280AB
:1007B00010F0030C00F01B80CCF1040CBCF1020F14
:1007C00018BF00F8012BA8BF20F8022BA1EB0C01E9
:1007D00000F00DB85FEAC17C24BF00F8012B00F8DF
:1007E000012B48BF00F8012B70474FF0000200B505
:1007F000134694469646203922BFA0E80C50A0E844
:100800000C50B1F12001BFF4F7AF090728BFA0E8F1
:100810000C5048BF0CC05DF804EB890028BF40F8BD
:10082000042B08BF704748BF20F8022B11F0804FFF
:1008300018BF00F8012B70477047704770472DE9CB
:10084000F0470D4699469246044600F12408016897
:10085000880604D5E06921F01001216000E0012044
:10086000A84201DD471B00E00027A1697A1902EBCD
:100870000900081AA0612078C00602D42046FFF7BC
:10088000ADFD002608E0D4E901211AF806009047E2
:10089000206A401C761C20624E45F4DB2078C0069E
:1008A0000AD52046FFF79AFD06E0D4E90121302061
:1008B0009047206A401C2062381EA7F10107F4DC33
:1008C00007E0D4E9012118F805009047206A401C90
:1008D0002062281EA5F10105F3DC2046FFF794FDF8
:1008E0002078000602D50220BDE8F0870120FBE752
:1008F00070472DE9FF4F0C461E464FF0FF378BB077
:10090000D2E90001DDF860800A908A46C1F30A55F9
:1009100005B93D46002108464FF00000BAF1000F2E
:1009200000F4400005DA00EB80004FF4400101EADA
:1009300050004FEA9059B9F1010F00DDB9460A980D
:1009400050EA4A000ED044F61050A5F2FF35454358
:100950002F14B8F1000F1ED07542291E1EDDC9F1FB
:1009600000021CE0B8F1010F4FF0000001D030216F
:1009700003E0F24305E02154401CB042FBDB30466B
:100980000022002121540B99C1F80880C1E9002000
:100990000FB0BDE8F08FBD1B6D1CDEE74A4600DAE4
:1009A000694206A800F09AFA06AB93E8070003AB89
:1009B00083E8070050460A9900F070FB8DE80700B5
:1009C000A0F500501F3800900398002D09DD42F279
:1009D0001F014A46084403A90390684600F0CFFD72
:1009E00008E0A0F500504A461F3803A90390684666
:1009F00000F0D9FD8DE807000004000C03D04FF093
:100A0000FF30410800E01046B8F1000F03D000228B
:100A1000009215461EE0751E05D400F0D9F930325B
:100A200062556D1EF9D5B3460122084302D000225B
:100A30007F1C04E02078302801D100227F1E002A8C
:100A4000099786D01DE0112D07DA00F0C1F9303288
:100A500062556D1C50EA0102F5D1084302D000989E
:100A6000C8B10EE00021681E05E0235C625C63549F
:100A70002254401E491C8142F7DBAB46A81B401E96
:100A80000990002004F80B000B98099AC0F8088020
:100A9000C0E9002B7CE711264FF0000859E72DE94B
:100AA000F04F88460446D21D22F0070191B0D1E9EB
:100AB0000001CDE90A010CF01FFC02460B98C00FA3
:100AC00001D02D2007E02068810701D52B2002E00E
:100AD000202101EAC000032A099001D0072A05DB82
:100AE00003464146204600F0B9F90BE12078800624
:100AF00001D5E06900E00620B8F1650F814606D017
:100B0000B8F1660F18D0B8F1670F70D131E000204E
:100B1000B9F1110F009001DB112301E009F101038C
:100B20000AAA01A90CA8FFF7E4FEDDE90C70002673
:100B300009F10105834647E001204B4600904FF044
:100B400000470AAA01A90CA8FFF7D3FEDDE90DB002
:100B50000C995D46002610B909F101000D18B9EB9A
:100B6000050003D4C0F1FF3609F10105A5EB09002A
:100B70002BE0B9F1010F01DA4FF001090020B9F1C2
:100B8000110F0090484601DD112300E003460AAA38
:100B900001A90CA8FFF7ADFEDDE90C704D4600265B
:100BA0008346207800070AD4AB4500DA5D4601A8E9
:100BB000012D04DD411911F8011C302907D04F45E2
:100BC00002DA17F1040F04DA012082460FE06D1EED
:100BD000EEE7002F02DCED1B3E4403E0781CA84248
:100BE00000DD7D1CB81B00F1010A4FF000472078A2
:100BF000000703D4AA4501DB4FF0FF3A0021B7F10B
:100C0000004F0DF143088DF8431024D002202B2310
:100C1000002F01DA7F422D230A21021EA0F10100DC
:100C200000DC5FB197FBF1FC97FBF1F201FB1C7C50
:100C300017460CF1300C08F801CDEEE7A8F10100E1
:100C400003702188090501D5452100E06521A0F147
:100C5000010800F8011C09980FA9A1EB0807FF1D66
:100C600000B10120411901EBEA70A1693844081A6A
:100C7000401EA0612078C00602D42046FFF7AEFBDC
:100C8000099828B1D4E901219047206A401C2062CC
:100C90002078C00622D52046FFF7A0FB1EE0002EDC
:100CA00004DBB34502DD01A8805D00E03020D4E91B
:100CB00001219047206A401C2062761CAAF10100A5
:100CC0005FEA000A0AD100F07FF8C0680168405C62
:100CD000D4E901219047206A401C2062281EA5F11A
:100CE0000105DCDC07E0D4E9012118F8010B90478D
:100CF000206A401C2062381EA7F10107F3DC204661
:100D0000FFF782FB032011B043E6000001694A1C93
:100D100002610878704700B58FB0CDE9013100213C
:100D2000059105497944CDE9031011466846FFF75E
:100D3000B9FB0FB000BD0000E5FFFFFF0A6802F835
:100D4000010B0A607047431A28BF9A427FF6F1AC44
:100D5000104410F0030F11441EBF11F8013D521E44
:100D600000F8013D10F0030F7FF4F6AF103AC0F029
:100D70000A8010B531E91850103A20E91850BFF434
:100D8000F9AFBDE81040530724BF31E9081020E94E
:100D9000081044BF51F8043D40F8043D12F0030F21
:100DA00008BF7047D20728BF31F8023D48BF11F88D
:100DB000012C28BF20F8023D48BF00F8012C7047E5
:100DC000004870479CC2022000487047BCC2022005
:100DD00030B5B0F10A024FEA900E71F100034EEA0D
:100DE000817EB0EB0E0061EB91014FEA101E4EEADE
:100DF000017E10EB0E0041EB11114FEA102E4EEA6E
:100E0000016E10EB0E0041EB11214FEA104E4EEA3D
:100E1000014E10EB0E0041EB1141401841F1000171
:100E20004FEAD00040EA41704FEAD10110EB800553
:100E30004FEA810444EA907444EB01046D1944EBD9
:100E40000404521BA3414FF0000348BF0A3200D5EF
:100E500030BD401C41F1000130BD00002DE9F041E2
:100E60001F46044603260168072A01F4006004DBDC
:100E700008B116A505E016A503E008B115A500E028
:100E800015A521F010002060A069C01EA0610FB15F
:100E9000401EA0612046FFF7A1FA4FB1D4E901211D
:100EA00038469047206A401C2062C01C206206E041
:100EB000206AFAE7D4E9012115F8010B9047761E64
:100EC000F8D22046FFF7A0FABDE8F0814E414E006F
:100ED0006E616E00494E4600696E66002DE9F0476E
:100EE000814616468AB0334878440DC88DE80D0017
:100EF00030487844801C03AC0DC884E80D0041F6EE
:100F00009B300844372190FBF1F290FBF1F5A5F1FD
:100F1000800501FB12041B3C02D56442012000E065
:100F20000020DFF890A080460027FA44AAF1BE0A0C
:100F30000DE0E00709D03246684607EB47010AEBAF
:100F4000810100F030FB8DE8070064107F1C002C4D
:100F5000EFD1184F7F44AC3F18E0E80714D007EBFF
:100F600004100DF1180A90E80E008AE80E00C0681F
:100F7000F04201D198190890324606A903A800F062
:100F800012FB03AB83E807006D10641C002DE4D155
:100F900032466946B8F1000F03A802D000F0EFFA1C
:100FA00001E000F000FBC9E90001C9F808200AB01F
:100FB000BDE8F087882E020070477546FFF700FFF6
:100FC000AE4605006946534620F00700854618B036
:100FD00020B5FFF7DDF9BDE820404FF000064FF0E7
:100FE00000074FF000084FF0000B21F00701AC465E
:100FF000ACE8C009ACE8C009ACE8C009ACE8C0097D
:101000008D4670470446AFF300802046FFF747F94E
:101010004FF0013C50F8042B51F8043B9A4221D187
:10102000A2EB0C03934313EACC1317D150F8042B13
:1010300051F8043B9A4215D1A2EB0C03934313EAF7
:10104000CC130BD150F8042B51F8043B9A4209D130
:10105000A2EB0C03934313EACC13DBD04FF0000058
:10106000704700BFD01A01BAB1FA81F101F018013E
:1010700022FA01F0CB40C1F12001DBB2C0B2C01AAC
:101080002CFA01F3D11A914311EAC311E6D170474A
:1010900001491820ABBEFEE7260002005FEA400CC3
:1010A00008BF91F0000F4FEA8C234FEAC12243EAB8
:1010B00051514FEA1C5018BF00F5F0404FEA300084
:1010C00018BF41F000415FEA6C5C00F02980BCF180
:1010D000FF3F08BF40F080407047130C06BF12046A
:1010E0004FF0100C4FF0000C130E04BF12020CF165
:1010F000080C130F04BF12010CF1040C930F04BF72
:1011000092000CF1020CD30F04BF52000CF1010C41
:1011100011464FF00002A0F11F00A0EB0C00704739
:1011200011F0004F08BF704731F000413FF4D5AFD8
:101130000B0C06BF09044FF0100C4FF0000C0B0E07
:1011400004BF09020CF1080C0B0F04BF09010CF1DC
:10115000040C8B0F04BF89000CF1020CCB0F04BFF1
:1011600049000CF1010CCCF12003A0EB0C0022FA99
:1011700003F302FA0CF241EA030100F101007047A7
:1011800020F07F4C80EA030023F07F47ACEB07039D
:1011900003F57C5300F0004003F1FF032DE9804983
:1011A0004FEA154B09B44FEA144325EA0B4E24EAE3
:1011B00003480FF2042606EB132749083E785FEA3E
:1011C000320203FB0667C7F5000707FB06F64FEA86
:1011D00054374FEAD64606F1020607FB066CCCF1FF
:1011E000005C4FEA1C472CEA074C07FB06F40CFB9B
:1011F00006F504EB15464FEA961634BF00204FF073
:1012000000404FEAD13706FB07FC4FEA1C4C0CFBB1
:101210000BF7D21B03FB0CF761EB07010CFB0EF77E
:10122000B0EB074072EB17420CFB08F734BFA2EBA0
:101230000742B2EB074261EB17414FEA0C444FEA19
:10124000910706FB07FC4FEA1C4C0CFB0BF7B0EBBD
:10125000C74072EB573203FB0CF734BFA2EBC74217
:10126000B2EBC74261EB57310CFB0EF7B0EBC70096
:1012700072EB57720CFB08F734BFA2EBC702B2EB5C
:10128000C70261EB5771039F4FEA816141EA9211F6
:1012900004EBCC044FEAD1374FEA826206FB07FC2D
:1012A00042EA90124FEA80604FEA1C4C0CFB0BF7AD
:1012B000D21B03FB0CF761EB07010CFB0EF7B0EB45
:1012C000074072EB17420CFB08F734BFA2EB074252
:1012D000B2EB074261EB17414FEA8C554FEA910799
:1012E00004EB9C2406FB07FC4FEA1C4C0CFB0BF7A1
:1012F000B0EBC74072EB573203FB0CF734BFA2EBE5
:10130000C742B2EBC74261EB57310CFB0EF7B0EBB3
:10131000C70072EB57720CFB08F734BFA2EBC70291
:10132000B2EBC70261EB577115EB4C254FEA8161B7
:1013300041EA92114FEA82624FEAD13742EA9012B3
:1013400006FB07FC44F100044FEA80604FEA1C4CA6
:101350000CFB0BF7D21B03FB0CF761EB07010CFB3B
:101360000EF7B0EB074072EB17420CFB08F734BFE7
:10137000A2EB0742B2EB074261EB174115EB1C15DC
:101380004FEA813141EA92414FEA823242EA904289
:101390004FEA80304FEA0C7644F1000448EA0343F8
:1013A0004EEA0B484FF0000EB2EB080C71EB03074E
:1013B00024BF624639464EEB0E0E4FF0000B00186C
:1013C000524149414BEB0B0BB2EB080C71EB03079D
:1013D0007BF1000B24BF624639464EEB0E0E4FF0F8
:1013E000000B0018524149414BEB0B0BB2EB080CC0
:1013F00071EB03077BF1000B24BF624639464EEBCD
:101400000E0E51EA020718BF46F0010616EB0E76E3
:1014100055F1000254F1000103D5BDE88901BDE892
:101420000088BDE88901BDE80048B619524141EB8A
:101430000101A3F10103704780807F7E7D7C7B7A70
:101440007978777676757473727171706F6E6E6D70
:101450006C6C6B6A6A696868676666656464636316
:1014600062616160605F5F5E5E5D5D5C5C5B5B5A9C
:101470005A59595858575756565555555454535309
:1014800052525251515050504F4F4F4E4E4D4D4D64
:101490004C4C4C4B4B4B4A4A4A49494948484847AF
:1014A00047474746464645454544444444434343ED
:1014B0004342424242414141002B26D4770021D091
:1014C0001CB54FEA370703B44FF010004FF010017E
:1014D0004FF000000FBCBDE810400BF1010BBBF159
:1014E000010F08BF5FEA170722BF12F1010211F1D5
:1014F00001014FF0004143F1000300F0004043EAD6
:1015000000007047F9D35708DAE746EA064613F1B8
:10151000400F4FEA16461FDD13F1200FDFBF1643C1
:101520000A46002120335B42C8D0C3F1200746EAB7
:10153000064602FA07F74FEA164646EA0706C3F1DF
:10154000200722FA03F201FA07F721FA03F14FF01C
:10155000000342EA0702B1E746EA020646EA064607
:101560004FEA164646EA0106BCBF46EA0646360C76
:101570004FF000034FF000024FF000019EE72DE90D
:10158000C048934630B491E8380007C831EA400CAF
:1015900048BF34EA430C03D5FFF7F2FDFFF78CFF99
:1015A000F0BCBDE800882DE9C048934630B491E80E
:1015B000380007C810F0804F08BF13F0804F03D1E8
:1015C00000F005F8FFF778FFF0BCBDE8008820F0D8
:1015D0007F4780EA030023F07F4C07EB0C03A3F561
:1015E0007C5300F00040A3F1FE0392F0000F00F0E6
:1015F000B38095F0000F00F077802DE901494FEAA4
:1016000011404FEA144621EA004800FB06FC24EA98
:10161000064708FB06F607FB08F800FB07F718EB80
:1016200006484CEB164C4FEA124B18EB07484FEAB2
:1016300015464CEB174022EA0B4E0BFB06FC25EA45
:1016400006470EFB06F607FB0EFE0BFB07F71EEB2D
:10165000064E4CEB164C4FF000061EEB074E4CEBC3
:10166000174B18EB0B0840F1000018EB0E0B58EB72
:10167000000840F100008F1A4FF000013CBFC94341
:10168000661B14BFB5EB040C00213CBFC943F61B1D
:101690004FEA17444EEA8E0E27EA04454FEA1C47EC
:1016A00004FB07622CEA074C05FB07F70CFB05F669
:1016B00004FB0CFC16EB074642EB174216EB0C46FC
:1016C00042EB1C421BEB060658EB0202414146EA84
:1016D0009E0601D5BDE80189B619524141EB0101D1
:1016E000A3F10103BDE801894FEA14454FEA114710
:1016F00024EA054621EA074C05FB07F406FB07F739
:101700000CFB06F105FB0CFC11EB074144EB174405
:101710004FEA124711EB0C4144EB1C4422EA074C00
:1017200005FB07F206FB07F70CFB06F605FB0CFCB6
:1017300016EB074642EB174216EB0C4642EB1C45F4
:101740006A1854F1000148BF7047B619524141EB85
:101750000101A3F10103704795F0000F37D04FEA64
:1017600011424FEA144721EA024624EA074C02FBE1
:1017700007F106FB07F70CFB06F402FB0CFC14EB6D
:10178000074441EB17414FEA154714EB0C4441EB7A
:101790001C4125EA074C02FB07F506FB07F70CFB8B
:1017A00006F602FB0CFC16EB074645EB174516EB5D
:1017B0000C4645EB1C42121951F1000148BF70471D
:1017C000B619524141EB0101A3F1010370474FEA01
:1017D00014454FEA114724EA054621EA074C05FB68
:1017E00007F106FB07F70CFB06F24FF0000605FBBE
:1017F0000CFC12EB074241EB174112EB0C4251EB90
:101800001C4148BF7047921841EB0101A3F101034D
:101810007047000010B52DED088B012204211F48F0
:1018200003F086FC1E4803F097F9C8211C4803F01A
:1018300051F91B4803F0FAF804460DF08FFE41EC15
:10184000180B174803F0ECF900220421134803F0A9
:101850006FFC9FED140B53EC102B51EC180B0DF09B
:10186000CDFE41EC1B0B9FED110B53EC102B0DF03B
:101870001DFD41EC1A0B9FED0F0B53EC102B0DF0DF
:1018800015FD41EC190B9FED0D0B53EC102B0DF0DA
:10189000B5FE41EC100BBDEC088B10BD00080240FA
:1018A000D071022000000000000010400000000085
:1018B00000000840000000000000B0406666666658
:1018C00066660A405A49096821F44031594AC2F80B
:1018D00004131146D1F8041342681143544A1160AD
:1018E0000168496821F480710268516001684A68A2
:1018F000016942EA0121026851600168496821F0EA
:101900004071026851600168496882681143026849
:1019100051600168896821F4006102689160016882
:101920008968C268114302689160434AC16A914262
:1019300018D00168896821F07061026891600168BF
:101940008968C26A1143026891600168896821F060
:1019500040510268916001688968026B1143026816
:1019600091600BE00168896821F070610268916004
:101970000168896821F040510268916001688968B6
:1019800021F002010268916001688A68816942EA77
:10199000410102689160416AD1B10168496841F42E
:1019A0000061026851600168496821F46041026881
:1019B000516001684A68816A491E4FF4604393FA96
:1019C000A3F3B3FA83F399400A4301684A6005E040
:1019D0000168496821F40061026851600168C96AC0
:1019E00021F470010268D1620168CA6A018C491E43
:1019F00042EA01510268D1620168896821F40071EC
:101A00000268916001688A68C16942EA41210268FE
:101A100091600168896821F48061026891600168C1
:101A20008A68416942EA812102689160704700003A
:101A300004230140002001400100000F2DE9F04F78
:101A400087B004460E4617469846DDE911A9109D59
:101A5000204602F003FF8346C4EBC4001B4951F843
:101A60002000C4EBC401194A02EB810189680BFB19
:101A70000100C4EBC40102EB8101C96807FB0161ED
:101A8000C4EBC402114B03EB8202526901FB02005A
:101A90000690484609EBD071C5EB61010591C4EB96
:101AA000C400194601EB8000C068401B0490DDE9CA
:101AB00004012B46CDE900A1029041462046069A3A
:101AC00000F066FD07B0BDE8F08F0000B06D0220A9
:101AD00010B52DED028B002000F08CFDFFF79AFE73
:101AE000B0EE408AF0EE608A9FED300B53EC102B85
:101AF00051EC180B0DF046FD10D264200BF01CFCCD
:101B0000642003F00DF964200BF016FC642003F050
:101B100007F964200BF010FC00BFFEE74FF4FA70E9
:101B200003F0FEF8012000F065FD0BF01DFC06F04F
:101B3000F7FE012006F060FE012291021D4803F02D
:101B4000F7FA01F081FE07F0A1F9012005F072FE1D
:101B50000BF002FC602218491848FEF7EAFD4FF42A
:101B60007A7217491748FEF7E4FD1448006841F2FD
:101B7000BE51884216D060211048FEF736FE4FF461
:101B80007A711048FEF731FE41F2BE500B490860F1
:101B9000FA220C490A4800F0B1FE1822074906480B
:101BA00000F0ACFEBDEC028B10BD00006666666600
:101BB00066660A400018024000001D083CB9022079
:101BC00000001E0854B502202DE9FE4304460E46CF
:101BD0001546204602F042FE0746C4EBC4001449F5
:101BE00051F8200007FB0608C4EBC40051F82000A0
:101BF00007FB05090021C4EBC4000D4B03EB80007B
:101C00000069CDE90001C4EBC4000291194601EB63
:101C100080004A464146C368204600F0B9FCC4EB48
:101C2000C400034901EB80008560BDE8FE8300002D
:101C3000B06D02202DE9F04F85B004460D461646E2
:101C40001F46DDE90F8BDDF838A0204602F006FEC6
:101C50008146C4EBC400264951F82000C4EBC401FE
:101C6000234A02EB8101496809FB0100C4EBC4016E
:101C700002EB8101C96806FB0151C4EBC4021C4B95
:101C800003EB8202526901FB02000490C4EBC40022
:101C9000194651F82000C4EBC4011A4602EB810139
:101CA000496809FB0100C4EBC40102EB8101C9686A
:101CB0000AFB0171C4EBC40203EB8202526901FB0F
:101CC000020003900021C4EBC4001A4602EB80001E
:101CD000C068A0EB08004346CDE900B00291204661
:101CE000DDE9032100F054FC05B0BDE8F08F0000F1
:101CF000B06D022038B5044620128DF80000E0B225
:101D00008DF8010000224FF48061074803F010FABB
:101D1000C82302226946054804F0BCFE0122910254
:101D2000014803F005FA38BD00180240087402208B
:101D300070B506460C4604F08000802808D104F0F7
:101D40007F0000EB800106F58E7000EBC10505E019
:101D500004EB840106F55D7000EBC1050020A8705E
:101D600004F07F002870C4F3C01068702946304624
:101D700007F066FF002070BD2DE9F04106460D46D4
:101D800090461F4605F08000802808D105F07F00AE
:101D900000EB800106F58E7000EBC10407E005F052
:101DA0007F0000EB800106F55D7000EBC10405F0DB
:101DB0007F00207005F08000C0096070C4F80880C2
:101DC000E770607808B12078E080022F01D1002010
:101DD00020712146304607F0E7FE0020BDE8F08183
:101DE0002DE9F04105460E461746984606F07F005D
:101DF00000EB800105F55D7000EBC104E760C4F8FD
:101E000014800020A061607006F07F002070E878E8
:101E1000012800D12761207820B92146284607F003
:101E2000E7FD03E02146284607F064FF0020BDE8F7
:101E3000F08108B500220092009A61F30A12009224
:101E400002691268009B1A4303691A6008BD70B5E5
:101E500006460C4604F08000802808D104F07F007C
:101E600000EB800106F58E7000EBC10505E004EB88
:101E7000840106F55D7000EBC1050120A87004F037
:101E80007F002870C4F3C01068702946304607F000
:101E9000FFFE002070BD2DE9F04107460D461646B5
:101EA000984605F07F0000EB800107F58E7000EB8F
:101EB000C1040120607005F07F002070E66026619B
:101EC0000020A061C4F81480207820B9214638464B
:101ED00007F08EFD03E02146384607F00BFF002097
:101EE000BDE8F0811CB50446204607F04CFDE068D3
:101EF000C0680090204608F023F803280BD100208A
:101F0000A0704FF40070A080009820F4705000F58D
:101F10001050009009E00120A0704020A08000989F
:101F200020F4705000F5A05000900098E168C8605F
:101F300000200190019820F4005000F5005001901D
:101F40000198E168486101201CBD0000F8B5054614
:101F5000002400200090284608F025F8064690E06E
:101F600006F0010000287DD0E1B2284600F0B4FA66
:101F70000090009800F0010030B3012000FA04F74F
:101F80002869406BB8432969486300200090009895
:101F900020F00100401C009005F1180050F82400CA
:101FA00000998160E1B2394800684268284690474C
:101FB000E878012808D13CB940F21110405D0428AE
:101FC00002D1284607F0BFFD0098C0F3C00060B101
:101FD00000200090009820F008000830009005F1E3
:101FE000180050F82400009981600098C0F3001098
:101FF00060B100200090009820F010001030009098
:1020000005F1180050F82400009981600098C0F391
:10201000801060B100200090009820F04000403017
:10202000009005F1180050F8240000998160009894
:10203000C0F3400060B100200090009820F0020042
:10204000801C009005F1180050F824000099816070
:102050000098C0F3C01028B12146284600F050FA7D
:10206000002000E00BE00090009820F0800080301D
:10207000009005F1180050F8240000998160641C5C
:102080007608002E7FF46CAF0120F8BDB00600206A
:102090007CB50446002500200190204607F08BFF08
:1020A00006466FE006F00100002869D0E9B220463C
:1020B00007F089FF0190019800F00100C8B30020EB
:1020C0000190019820F00100401C019004F154009F
:1020D00050F8250001998160E078012817D104F1BA
:1020E000540050F825000069009005EB850104F5C7
:1020F0005D7000EBC10080680099C1F31201411AC4
:1021000005EB850204F55D7000EBC2008161E9B268
:102110001E480068026820469047E078012808D1F0
:102120003DB940F21110005D052802D1204607F0AC
:102130000AFD0198C0F3400060B1002001900198B1
:1021400020F00200801C019004F1540050F825009A
:10215000019981600198C0F3C00088B10B48006804
:1021600081682046884700200190019820F00800EF
:102170000830019004F1540050F825000199816065
:102180006D1C7608002E8DD101207CBDB00600208C
:102190003EB50446A07A70B1D4F80C0100900098C6
:1021A00020F002000090009820F0010000900099BB
:1021B000D4F80C01016000200190019820F001008A
:1021C000401C01902069406801998843216948605A
:1021D00008480068816920468847002002900298DC
:1021E00020F0004000F1004002900298E168486150
:1021F00001203EBDB00600207CB5044600200190C1
:10220000019820F0100010300190E0688069019979
:102210008843E1688861E068006A0090009800F0F7
:102220000F0000EB800104F55D7000EBC105009824
:10223000C0F3434007282DD2DFE800F02C04051D31
:102240001E2C1F0027E00098C0F30A1090B10098E0
:10225000C0F30A122046E96807F0BFFEE86800995B
:10226000C1F30A110844E860A8690099C1F30A1192
:102270000844A8610FE00EE00DE0082204F2CC5102
:10228000204607F0AAFEA8690099C1F30A11084484
:10229000A86100E000BF00BFE068806901990843C1
:1022A000E168886101207CBD38B5044608480068B3
:1022B000C1682046884700200090009820F0080060
:1022C000083000900098E1684861012038BD0000A6
:1022D000B00600201FB50446002000904FF489701E
:1022E000005D0090234800684169204688472069C6
:1022F0008068019000200390039820F4006000F5AE
:10230000006003900398E1684861A07A70B3019877
:1023100000F0010050B340F21510005D012825D1F6
:102320009DF80000032821D100200290029820F09F
:102330000100401C0290D4F80C0100680299084387
:10234000D4F80C110860029820F00200801C029062
:10235000D4F80C01006802990843D4F80C11086005
:102360000548006840F0060003490860012004B0F9
:1023700010BD0000B006002010ED00E030B587B0C1
:10238000044600200290069005900490039001906E
:10239000029820F00100401C0290206940680299D8
:1023A0008843216948600021204607F09FFD0025F1
:1023B0000BE0FF2104F1180050F82500816004F1C2
:1023C000540050F8250081606D1C6078A842F0D858
:1023D0004FF0FF312069816106986FF30F00401CB8
:1023E0000690069880B200F5803006900699206924
:1023F000C161059820F0080008300590059820F08C
:102400000100401C0590059820F00200801C0590FA
:10241000059920694161049820F00100401C049056
:10242000049820F0080008300490049820F002007E
:10243000801C049004992069016120690068039060
:10244000039820F4FE600390039920690160204600
:1024500007F079FB00200190019820F4805000F5EE
:10246000805001900198E168486104480068016962
:1024700020468847012007B030BD0000B00600208C
:1024800038B504460020009007480068C16920461E
:102490008847009820F4801000F580100090009884
:1024A000E1684861012038BDB006002038B5044617
:1024B0000020009007480068016A2046884700987D
:1024C00020F4001000F5001000900098E1684861C9
:1024D000012038BDB006002030B5024615692B69D1
:1024E00015696C6B24FA01F505F0010543EAC51383
:1024F00002F1180555F82150AD6805EA030030BD1A
:102500002DE9F84307460E4600250020009006EB13
:10251000860107F58E7000EBC104D4E90501451A68
:10252000A068A84200D2A568E81C4FEA900807F10D
:10253000180050F82600806900901BE0D4E90501DE
:10254000451AA068A84200D2A568E81C4FEA900886
:10255000ABB2F2B23846E16807F053FDE0682844B8
:10256000E060A0692844A06107F1180050F8260037
:1025700080690090009880B2404506D9D4E90510E2
:10258000884202D260690028D8D10120BDE8F883D2
:102590002DE9F041074606AC70CC01204FF4007CD9
:1025A000DFF84C80C8F800C0C446CCF80C10CCF85A
:1025B0003C20CCF81050CCF84060CCF81C00A4466D
:1025C00063F31F4CC8F844C0C446DCF800C04CF0AC
:1025D000010CC8F800C000BFDFF814C0DCF800C070
:1025E0000CF0010CBCF1000FF6D1BDE8F081000049
:1025F00000B0024010B50446E2B20421014802F0E6
:1026000097FD10BD00100240074A126822F4407284
:10261000054B1A601A4612681A601A46126842F090
:1026200001021A6001707047103C024010B5094960
:10263000096821F44071074C21602146096841F482
:10264000407121602146096841F00101216002606A
:10265000436010BD103C0240084A126822F44072E8
:10266000064B1A601A46126842F480721A601A46C3
:10267000126842F001021A6001807047103C02406B
:10268000084A126822F44072064B1A601A46126811
:1026900042F400721A601A46126842F001021A608F
:1026A00001607047103C02402148006800F01000B3
:1026B00028B12048C06940F010001E49C8611C487C
:1026C000006800F0200028B11A48C06940F00800F6
:1026D0001849C8611648006800F0400028B1154844
:1026E000C06940F004001349C8611148006800F057
:1026F000800028B10F48C06940F002000D49C86150
:102700000B48006800F4807028B10A48C06940F0A6
:1027100001000849C8610648006800F0020028B1BD
:102720000448C06940F020000249C86170470000B9
:102730000C3C0240A008002070B504460025002093
:102740001049C86102F0FAFC054609E0601C38B186
:1027500024B102F0F3FC401BA04201D9032070BD5C
:102760000948006800F480300028EFD1064800686E
:1027700000F4F97018B1FFF797FF0120EFE7002090
:10278000EDE70000A00800200C3C024030B50246F6
:10279000002300240868012816D013686FF30E0385
:1027A000D1E901052843CD6828430D6928434D69C7
:1027B00028438D692843CD6928430D6A28434D6A13
:1027C00028430343136019E013686FF30E03D1E944
:1027D000070528434D6A2843034354686FF30E04EA
:1027E000D1E901052843CD6828430D6928434D6987
:1027F00028438D692843044313605460002030BD92
:102800000246506940EA4100506100207047F8B527
:1028100006460C461546002000900027D4E900012A
:102820000843A168491E40EA4110E16840EA41209E
:1028300000900098306102F081FC07460BE0681CB4
:1028400038B125B102F07AFCC01BA84201D903209F
:10285000F8BD0120FCE7B06900F020000028EED1AF
:1028600000BFF5E770B50346154600220024012D90
:102870001FD09A6802F070420868401E4E68761EAB
:1028800040EA06168868401E46EA0026C868401ED0
:1028900046EA0036088A401E46EA0046888A401EFC
:1028A00046EA0056087E401E46EA006002439A60EF
:1028B00022E0DA6802F070420868401E4E68761E18
:1028C00040EA06168868401E46EA0026088A401E2E
:1028D00046EA0046087E401E46EA006002439C68C5
:1028E00004F07044C868401E0603888A401E46EA09
:1028F00000500443DA609C60002070BD2DE9F04177
:1029000005460E461746002402F06EFA00BF0AE0A4
:10291000A00056F820C005EB840162460023022087
:1029200002F016FA641CBC42F2D302F007FABDE8CA
:10293000F08100002DE9F0430446C56887B0904659
:102940008946002001F0F0F9064625B1287910B13A
:1029500046F0020001E026F0020001F0E5F92069EE
:10296000012558B1D4E902128DE826000395638849
:102970002288046841464846A0471EE0124F134B88
:10298000214638681B68427CE068984730B9E08887
:10299000012801D0002001E03868806BA288E3881C
:1029A000A1680095CDE90410CDE902320195638854
:1029B00022884146484604F011FC07B03046BDE885
:1029C000F04301F0B1B90000080700200007002023
:1029D0002DE9F04FDFF828B191B04FF0FF35DBF86B
:1029E0000030B3F922100691DE69B3F92490F4693E
:1029F000A189814206D8E289824203D3471AD4F8DA
:102A0000008012E0D4E9018100296FD00A88824257
:102A10006CD84D88854269D3801A82B2486800EB31
:102A20008200B0F90070B0F90250781C5ED0307EA0
:102A3000A17C10FB01FA217CCDE90701B3F92A60E2
:102A4000304605F089F8C0B20E90DBF8000007FBB5
:102A50000A81A37C826B0127CDE90412CDE90273C0
:102A6000C069089AC17E807ECDE90001DDE90603D8
:102A7000494604F0B3FB681C18D046F0020005F08C
:102A80006BF8DBF80000A37C05FB0A81826BCDE9C3
:102A90000273CDE90412C069089AC17E807ECDE937
:102AA0000001DDE90603494604F098FBDBF800006D
:102AB0005D46C069417E007E814214D9022E12D04B
:102AC00086F0040005F048F82868C069027EC37EDD
:102AD00012FB0391437E857E089A06984B4412FBB5
:102AE000050204F0DDFC0E9805F036F8DBF8000076
:102AF000627C418C1144418411B0BDE8F08F00002C
:102B00000807002004480068C069C06909B1027C58
:102B10000A60407C704700000807002002200880FF
:102B20007047C06982898A4202D8C2898A4210D21B
:102B3000806880B102888A420DD843888B420AD3CC
:102B4000406800EB8100A0EB8200B0F90000002893
:102B500001DB01207047002070470000F0B5254CD4
:102B6000054687B020682946B0F92A60C069C06967
:102B700000F04BF900283AD041680088281A01EB90
:102B8000C0053046AF7804F0E7FF06461A48D0F893
:102B900000C0BCF1000F15D000216868CDE9040128
:102BA0000422012001A9009081E885002068DCF85A
:102BB00000702A78C1690B7EB0F92410B0F92200A8
:102BC000B8470CE06868CDE9007020682A78C169D0
:102BD0000B7EB0F92410B0F9220000F07DFA3046E7
:102BE00004F0BAFF20686A78418C1144418407B030
:102BF000F0BD0000080700203807002070B505462A
:102C00000B480C4629460068C069C06900F0FDF811
:102C100000280BD0416800882A1A012000EBC2006E
:102C2000002C085C02D011F83210216070BD000049
:102C30000807002011200880704710B5C06900F017
:102C4000E4F8002800D0012010BD00002DE9F04379
:102C5000304C034687B020681946B0F92A60C06935
:102C6000C06900F0D2F8002850D041680088181AD6
:102C700001EBC0053046AF7804F06EFF8146206856
:102C80006A680123816BCDE90237CDE90421C1696E
:102C9000CB7E8A7ECDE900230B7EB0F924102A7802
:102CA000B0F9220004F09AFA2068C069417E027EE1
:102CB00091421FD9C07E11FB00F812FB00F7022ED3
:102CC00018D000F04FFD064600F01AFD01F01BF889
:102CD00021682A78CB69B1F92200DB7E12FB03025E
:102CE000B1F9241001EB0803394404F0D9FB304654
:102CF00001F009F8484604F02FFF20686A78C3699C
:102D0000B0F922109B7E12FB0311418407B0BDE88D
:102D1000F0830000080700202DE9F3411C4E0F4608
:102D2000002530682C46C069417EC07E11FB00F84A
:102D30001DE0684601F062F8054630682946C06922
:102D4000C06900F029F890B141680088281A00EBAA
:102D5000400001EB800090F90210007908443168CE
:102D6000C969897E10FB01F0002800DD04447F1E44
:102D7000DFD51DB1284601F02BFC04444146204616
:102D800007F0CCFE034901200870BDE8FC8100007B
:102D900008070020AC07002006E002888A4202D81B
:102DA00042888A4202D280680028F6D1704700002B
:102DB00030B50F4C05460B4620682946C069C069EE
:102DC00000F023F8002812D04168008824682A1AED
:102DD0000120E46900EBC200085CA47E10FB04F053
:102DE000002B04D011F8321011FB04F1196030BD32
:102DF0000807002001200880704700B5C06900F076
:102E000004F8002800D0012000BD06E002888A42B4
:102E100002D842888A4202D280680028F6D17047E0
:102E200070B500250F4C19E020690F49C5EB051658
:102E300000EBC60070220968001DFDF77AFC2069CE
:102E4000002140F8361000EBC60000F10C01816152
:102E5000011D0A1DC0E90F126D1C4164A068854266
:102E6000E2DB70BDB40700200807002070B50E49F2
:102E70000C480860084601F0C3FC0B4C143CA068E9
:102E8000C0EB0010C500284600F094F92A46002146
:102E9000206101F0BDFC4FF0FF302060BDE87040C4
:102EA00001F01EB879CB0008C80700202DE9FF4FBC
:102EB00085B00546DDF848800C464FEA4800511BB6
:102EC0009A469146091A7DD4AAEB0401081A79D4CE
:102ED00000F0EEFCDFF804B100200290DBF8000007
:102EE00090F8691021B910F8681F0291042101704F
:102EF00007F098FB471907F0A3FB061907F092FBB0
:102F000000EB090507F09CFB00EB0A04DBF800006E
:102F100090F8691039B990F8680047434643454333
:102F2000444308FB00F800F04BFC2C49096891F879
:102F3000682010FB02F000F0FF094FEA5900511C15
:102F400049083B1A0B440593331A0B445F1E2B1898
:102F50000B44A3F1010B23184044A0EB520503EBF3
:102F6000010A059800F04CF8ADF80C00584600F046
:102F700047F8ADF81000384600F042F8ADF80E0002
:102F8000504600F03DF8ADF8120003A807F084FBAE
:102F900013E0DDF814805C464E465946404600F08A
:102FA0008FF8CDE90056534622463946404608F090
:102FB0009BFD00F015F807F015FB0028E9D1074844
:102FC000006800E007E090F8691011B9029980F8F4
:102FD000681000F067FF09B0BDE8F08F0807002017
:102FE00010B509F09FFA0448016A04480068416678
:102FF00000F10801416110BD7007002008070020A2
:103000000449096891F8681009B190FBF1F000B229
:1030100070470000080700202DE9F041224C0546CA
:103020000E462068002788B920480068E06110B982
:1030300004F001FBE06100F0BDF8206080B31A49A4
:103040001B4824310860084601F0DAFB1948006883
:10305000854200DA0546E169731B4A1E2046934209
:1030600001DD6E18761EAE4201DA2E460127124CA3
:103070002268516E4B68836301620B490F4B3431F8
:103080000B60516602C880E8620007F033FD07F06C
:1030900013FD054821682C3048613846BDE8F081B1
:1030A000FFE70127D2E70000700700202C0700206F
:1030B00065CB00083007002008070020E9B90008A8
:1030C000044A126892F8682090FBF2F091FBF2F14A
:1030D000FFF7A2BF080700207CB5084EDDE90654C3
:1030E0003668367CCDE90054B60702D408F0F2FB0E
:1030F0007CBD034C2468A0477CBD0000080700206D
:10310000C406002010B5040009D000F0D1FB204611
:1031100007F074FC044600F0C5FE204610BD0020F8
:1031200010BD38B5054600F0C3FB2846FFF7EAFF9F
:10313000040009D000F096F82A460021009001F022
:1031400067FB684600F09CF800F0ACFE204638BDF6
:10315000024A106021F003005060704768C10220ED
:1031600010B5040016D000F0A3FB0B48006B10F85C
:10317000341059B1022909D2042101EBC40141588C
:10318000486807F0FFFB204609F058FDBDE81040F5
:1031900000F088BE10BD0000ACC00220002805D0A1
:1031A000034A916B016001B1486090637047000071
:1031B000ACC002202DE9F041044609F0F1FB28489B
:1031C000E41C24F00305C16B2D1DA94200D90D4656
:1031D000846B13E054F8042CAA420ED184B1216808
:1031E00009B162684A60616809B122680A60826B4D
:1031F000A24231D1216881632EE02468002CE9D1FC
:103200008046416B80680F1857F8040C3E1A3068EE
:1032100038B1002009F040FD57F8040C3E1A306820
:10322000D0B97068A84217DB3044441B3046241DD7
:1032300009F018FDD8F80810491BC8F80810D8F88C
:1032400010102944C8F810107068401B02D0314695
:1032500007F098FB44F8045C2046BDE8F0810000CC
:10326000ACC0022005498A69521C8A61096B01EBD6
:10327000C0010A78521C0A7000F01AB8ACC00220D3
:103280000A4902680B6B52F8082C03EBC202137850
:10329000022B03D38B690BB15B1E8B611178491E26
:1032A000117000210160084670470000ACC0022088
:1032B000002806D00349042202EBC000096B08581D
:1032C00008307047ACC0022010B5C2B2CBB2D21ADF
:1032D00000D5524293B25B43C0F30722C1F30724E7
:1032E000121B00D55242000C92B2A0EB114002FB1F
:1032F000023200B2002801DA404200B280B200FB84
:10330000002010BD10B50021084600F08BFA43F6EE
:10331000FF725042BDE8104013460146AFF30080F3
:103320002DE9FC411C4615460E46074600F0C0FA42
:10333000042004F011FC80461248C068C16C006D86
:103340000F4406440D440444ADF80070ADF8045039
:10335000ADF80260ADF80640684607F09DF907E059
:1033600023462A463146384604F09AF807F03AF9DF
:103370000028F5D1404604F0EFFB00F093FDBDE8D6
:10338000FC810000FC0600202DE9F0411C46164699
:103390000D460746022B02DB0020BDE8F0811C2011
:1033A000FFF708FF0028F8D00DB105610AE0094ACF
:1033B00052F8241009B905E011460A68002AFBD129
:1033C0000969016184618682002101604160C0E970
:1033D0000217E2E72007002070B51D46FFF7D4FF73
:1033E000040009D000F00EF8E068006820B9034836
:1033F000006800EB85008465204670BD080700204A
:10340000FFF7CCBE70B590B38269022A30DA1E4C49
:1034100054F8221019B944F8220032E019464B68DA
:10342000002BFBD106E0CB68C5681B682D68AB425A
:1034300003DD09680029F6D11AE0C1B1CB68C6687E
:103440001B683668B3420CD1838A012B05D008E093
:103450001946DB681B68AB4203DB0B68002BF7D116
:1034600029B14B6833B118604A68426004E0FFE755
:10347000012070BD44F822004860884200D100213C
:103480000160002070BD00002007002010B503E09F
:103490000468FFF7B7FF20460028F9D110BD09F0F6
:1034A000ADBE00002DE9F0410026DFF834800D4F5D
:1034B000354600BF58F8254009E0E0680068385CF0
:1034C00020B1204609F09AFE266026462468002C8A
:1034D000F3D16D1C022DEDDB3046BDE8F08100001C
:1034E0002007002088170208022801DB002070470F
:1034F000054951F8200004E0C16809680029F6D0A8
:1035000000680028F8D17047200700202DE9FC470B
:1035100006005FD000F0CCF900F030F93C4C814659
:103520002068B0F9228000F057F9216807468A8C9C
:10353000D01B888441E000BF47F6FF71304601F0A0
:103540002BF882460146304600F0FCFF2168054614
:1035500091F82C0000F00300012841D002283BD054
:1035600000204A8C101A4884ADF800006A1E1044EE
:10357000ADF80400888CADF80200A9F101010844FF
:10358000ADF806006A465146304600F0ABFD2168B2
:10359000BDF8020088845146304600F045FC0644E0
:1035A00030780A281ED00D281CD0BDF800002168F4
:1035B00028444884307818B1761C30780028BBD174
:1035C0002068818C39448184818D21F003018185BB
:1035D00000F068FCBDE8FC8705EBD5704010C0E743
:1035E0002846BEE7206890F82C1001F0030101295D
:1035F0000BD0022909D0018C418431780A29D9D114
:10360000828C02EB09018184D4E7A0F82280F4E7E0
:103610000807002070B514460D46064600F048F92C
:1036200005480068458484843046FFF76FFFBDE895
:10363000704000F037BC0000080700202DE9FC4175
:1036400014460D46064600F033F9114F3968C86C30
:10365000096D054404440E44ADF80050ADF8044033
:10366000ADF80260ADF80660684607F015F808E0AE
:10367000386822463146406E03682846984706F06F
:10368000B1FF0028F4D100F00DFCBDE8FC81000082
:10369000080700202DE9FC411C4615460E4607464A
:1036A00000F006F910480068C16C006D0F44064434
:1036B0000D440444ADF80070ADF80450ADF802605C
:1036C000ADF80640684606F0E7FF07E023462A46C5
:1036D0003146384603F0E4FE06F084FF0028F5D1B9
:1036E00000F0E0FBBDE8FC8108070020034951F829
:1036F0002000C1688A6A08211047000020070020C6
:1037000010B500F0D5F803F0FBFE03F0BDFF044652
:1037100000F0C8FB204610BD10B5044600F0C8F804
:10372000054800210068C069426820469047044669
:1037300000F0B8FB204610BD0807002070B50C460D
:10374000054600F0B5F8064821460068C0694268A1
:1037500028469047044600F0A5FB204670BD0000B7
:103760000807002010B500F0A3F803F0D1FE03F025
:103770008BFF044600F096FB204610BD10B500F00C
:1037800097F804480068C069447E00F08BFB20462F
:1037900010BD00000807002070B514460D4606460F
:1037A00000F086F822462946304603F023FF10B188
:1037B000002028602060BDE8704000F073BB00006E
:1037C00010B500F075F803480068047E00F06AFB4D
:1037D000204610BD0807002010B5002400F068F84E
:1037E0000B48006890F82C1001F00C01042904D05B
:1037F000082906D00C2907D103E0C069047E641EA5
:1038000002E0C069007E440800F04CFB204610BD79
:1038100008070020024951F82000006940687047FD
:103820002007002070B50D46044600F041F8204600
:1038300009F038F80446284609F03CF8044300F043
:1038400031FB204670BD0000134810B5016821F01F
:103850000101016011480121816011490160006886
:103860001049884200D0FEE700F020FC0E492E20CF
:10387000087000F034FB0D4809F05AF809F0A6FE74
:1038800004460021084600F06BFA06F019FDFFF728
:10389000C7FA204610BD0000002000E000300240C2
:1038A000C2A507F4CDB5E8B5FC06002074C102201E
:1038B00070B5214CE06820B100F00DFB61688842D2
:1038C00004D000F023FB00F006FB6060E068401CC1
:1038D000E06001282AD100250BE000BF00F0FBFAD0
:1038E0002269C5EB051152F83110814205D0F1B1C2
:1038F0006D1CA0688542F1DB00252068854215D04B
:10390000002812DBFFF7CEFD2168C1EB011221690F
:1039100001EBC2025067C5EB0510084A01EBC0007D
:10392000011D1160406FFFF7B1FD256070BDC5EB53
:10393000051142F83100E0E7B40700200807002035
:1039400038B504001CD0FFF7B3FF0E480068006EC6
:10395000A04201D100F0A6F92046FFF783FC0090B9
:10396000406908B100F088FA00980068FFF748FD48
:103970006846FFF785FC2046FFF7F2FB00F092FA5D
:1039800038BD00000807002038B50446FFF790FF57
:103990002046FFF767FC00F1180400906846FFF727
:1039A0006FFC00F07FFA204638BD00002DE9F74F8C
:1039B0008EB0144689460E98FFF754FC0990B0F972
:1039C00008B0B0F90A600068006940680C9009A866
:1039D000FFF756FC564D574F2868407C57F820009B
:1039E000C1688A6A082190470790182801D32020CF
:1039F00007902868407C57F820000069069003C8AB
:103A00000B904D48814201D0012000E000200A9037
:103A1000002000F08DFA00287DD1286809EB0B0109
:103A2000B0F90C20891A491E002902DDABEB010513
:103A300000E05D46B0F90810494505DDA1EB09013C
:103A400089446D1A089101E000210891002D6BDD79
:103A5000B0F90E20A119891A491E002902DDA6EB32
:103A6000010800E0B046B0F90A00A04204DD061BE0
:103A70003444A8EB060800E00026B8F1000F53DD3F
:103A8000089801900DA95F46DDF830A00E980091CE
:103A9000FFF77AFF774300EB870101982B4601EB94
:103AA000800200994846CDE900A1214600F072FB52
:103AB0000090002838D00A98E8B1DDE9063229469E
:103AC000009800F040FAB0B90698009FDA46D0F8A6
:103AD00010C0BCF1000F05D004235A4639463846C1
:103AE000E04708E00B993868884701C7AAF1010050
:103AF0005FEA000AF6D100990020079ACDE9030198
:103B0000059001200090CDE9010221460346641C86
:103B10002A46484600E007E003F060FBA8F10100F8
:103B2000761C5FEA0008ABD111B0BDE8F08F000051
:103B30000807002020070020A77600080146024859
:103B40000068407C00F002B808070020044A1268B0
:103B500002B10020002900DC0121024A1154704703
:103B60004007002034070020094A126802B10020F3
:103B7000074A1C3252F82030002B07DBA2F1180351
:103B800043F820104FF0FF3142F82010704700003A
:103B90004007002010B5002821D009B30AB3B1F9BD
:103BA0000040B2F900309C4200DA23460380B1F9AC
:103BB0000240B2F902309C4200DA23464380B1F958
:103BC0000440B2F904309C4200DD23468380B1F901
:103BD0000610B2F90620914200DC1146C18010BDEA
:103BE00011460A6802604968416010BD00280BD088
:103BF00003880B44038083881944818041881144E1
:103C00004180C1881144C180704700002DE9FC410A
:103C1000154DDDE908742D68B5F90860864200DDB0
:103C20003046B5F90C60964200DA3246824219DB22
:103C3000B5F90A608E4200DD3146B5F90E509D425D
:103C400000DA2B468B420DDB00E02C46E5682D6840
:103C500025B1042D02D02568002DF6D1CDE90074E0
:103C600003F02EFEBDE8FC8108070020B0F9022019
:103C7000B1F906309A4213DCB1F90220B0F90630EE
:103C80009A420DDCB0F90020B1F904309A4207DC09
:103C9000B1F90010B0F90400814201DC0120704745
:103CA0000020704710B5FFF703FE03F0D5FE03F0C8
:103CB000F3FF06F0C7F9BDE8104000F0F3B80000CC
:103CC00070B5094D04462868467CFFF7F1FD022CCB
:103CD00003D228684474FFF7E5FF0448046000F04D
:103CE000E1F8304670BD000008070020EC07002016
:103CF00010B50446FFF7DCFD204603F0CDFEBDE81D
:103D0000104000F0CFB810B50446FFF7D1FD2046B3
:103D100003F0FAFEBDE8104000F0C4B80149886025
:103D200070470000FC06002010B50446FFF7C0FDF8
:103D3000204603F011FF044600F0B4F8204610BD01
:103D400070B50446FFF7B4FD04480068C56904B1C6
:103D5000C46100F0A7F8284670BD000008070020E5
:103D600070B50C460546FFF7A3FD094822460580BD
:103D70000848048008480068417C084850F8210041
:103D8000C1680B6A29469847BDE8704000F08AB8C0
:103D90003C0700203E0700200807002020070020E5
:103DA00070B50546FFF784FD03480068047E05767C
:103DB00000F078F8204670BD0807002070B5044672
:103DC000FFF776FD04480068B0F92C50848500F0B8
:103DD00069F8284670BD0000080700200248006806
:103DE000002800D0004770479008002002498A68E8
:103DF00002B98860FFF7F2BF840800202DE9F04186
:103E0000084E04460568306801682846884707461A
:103E10003068416828468847284420603846BDE815
:103E2000F08100000C0700202DE9F0410C46064609
:103E30000025064F05E0386841683046884706444B
:103E40000544641EF7D22846BDE8F0810C07002027
:103E50002DE9F0411E46069C1746884605463A461F
:103E6000A8687F1C3346D0F804C041462846E04786
:103E7000641EF4D1BDE8F08138B50546FFF718FDA2
:103E80002846FFF7EFF900908189491E0CB2848122
:103E90006846FFF7F5F914B92846FFF761F900F015
:103EA00001F838BD0348C168491EC16001D100F066
:103EB00037B87047B407002010B54FF400310348FD
:103EC000FFF746F90248FFF729FF10BDB06D00204B
:103ED0000C340208704710B509F090FD10BD704712
:103EE0001CB50020019001A809F0ECFC0549086010
:103EF000002000900121684609F042FD0249086057
:103F00001CBD0000740000207800002010B54FF0A8
:103F1000FF310248006809F001FD10BD7400002067
:103F200010B50248006809F0D3FC10BD74000020F1
:103F30000EB508B102AA00E00022002301A96846DC
:103F400000F0B2FA0EBD2DE9F0411E680D460446A0
:103F5000082A09DC0746012A1AD0022A5BD0042A63
:103F60007DD0082A13D18DE0102A07DCD3F810C0C9
:103F70000746BCF1000F04D0022389E00020BDE811
:103F8000F08101CCB04727F8020B6D1EF9D18AE011
:103F900001CCB047C0074FEA10686D1E36D001CC87
:103FA000B04748EA801000F0FF086D1E2ED001CC0B
:103FB000B04748EA401000F0FF086D1E26D001CC43
:103FC000B04748EA001000F0FF086D1E1ED001CC7B
:103FD000B04748EAC00000F0FF086D1E16D001CCC3
:103FE000B04748EA800000F0FF086D1E0ED001CCFB
:103FF000B04748EA400000F0FF086D1E06D001CC33
:10400000B04740EA080000F0FF086D1E07F8018B7A
:10401000002DBDD147E001CCB04780074FEA1068C2
:104020006D1E16D001CCB04748EA001000F0FF0822
:104030006D1E0ED001CCB04748EA800000F0FF08AA
:104040006D1E06D001CCB04740EA080000F0FF0822
:104050006D1E07F8018B002DDDD124E0FFE701CCB8
:10406000B04700074FEA10686D1E06D001CCB0477C
:1040700040EA080000F0FF086D1E07F8018B002DD4
:10408000EDD110E0D3F810C0BCF1000F05D0012332
:104090000A4601463846E04705E001CCB04707F83C
:1040A000010B6D1EF9D1012069E700000B4810B526
:1040B0008169002910D101218161FFF7FDFEFEF722
:1040C000D5FE03F0FBFD054905481C310860BDE83D
:1040D0001040084600F094BB10BD0000FC06002014
:1040E00039CB00087CB5064628480D46006868B103
:1040F000002006F0D1FA06E06A462946304606F06E
:10410000CDFD06F06FFA0028F6D17CBD1068009056
:104110001F4C506801902268BDF8000032F84C1F17
:104120000844ADF80000BDF8020091880844ADF8DD
:104130000200BDF8040011880844ADF80400BDF881
:10414000060091880844ADF80600684606F0A4FA17
:104150000EE000BF2068BDF800106A464184BDF83B
:10416000021081842946304606F098FD06F03AFA9E
:104170000028EFD1206830F8221F428D891A018073
:104180004188C28D891A41807CBD0000380700201B
:10419000080700202DE9FF4F8DB00020DDF86CA04E
:1041A000164600901D4604460246CAF8000008ABB9
:1041B00003A902A800F078F918B1002011B0BDE8F9
:1041C000F08F0898854200DD0546614F0B956149E7
:1041D0003868407C51F82010049109690691FFF776
:1041E00085FA05903868407CFFF714FB5A498146F0
:1041F000884204D05949894501D0012000E00020BF
:104200000A9001CE1A9988478346000E079077D00E
:10421000009870BB0D9800EB04084D480068B0F999
:104220000800404503DDA0EB0807804600E00027BA
:104230000298049900EB840000EB8700CDE90001AF
:104240000B990D98421809920E9B40461946521E32
:10425000FFF7DCFC01200090059818280ADA029884
:10426000DDE9052300EB840000EB8700E91B00F08B
:1042700079F812E00A9880B1029800EB840000EB14
:1042800087070998A0EB080849463868884701C79E
:10429000A8F101005FEA0008F6D13148C06980B397
:1042A000DDE9020700EB840007EB8402CDE902029E
:1042B0002B4C361F3046E4692B460299A047FF215C
:1042C0003068B1EB106F02D10298006804E0029AE6
:1042D0001268B1EB126F01D1039A1060029806F1D7
:1042E0000406001D02900398001D03906D1EE7D187
:1042F0000397DAF8000040F00101CAF8001020E04E
:1043000021E0FFE70798FF2811D0C0F1FF020298D3
:1043100050F82410584600F019FA039941F8240087
:10432000DAF8000040F00101CAF8001005E0029838
:10433000039950F8240041F82400641C6D1E7FF49A
:1043400060AF03983AE7039941F824B0E8E700002A
:104350000807002020070020A7760008A57600089F
:10436000440800202DE9F05F0C1E16DD5E68014652
:1043700000EB8405082A12DC611E012A26D0022ADD
:1043800047D0042A6AD0082A07D1071917F8010D67
:10439000B04745F8040D641EF8D1BDE8F09F102A1F
:1043A000FBDC5F693FB12246BC46BDE8F04F02230B
:1043B0005DF804EB604701EB440700BF37F8020DDE
:1043C000B04745F8040D641EF8D1E6E700EBE100C4
:1043D00001F0070710F801A98146802020FA07F8AC
:1043E000B5F104050AEA0800C7F10701C840B04763
:1043F00045F804093FB14FEA48604FEA10687F1E54
:10440000641EEFD1C9E719F801A907274FF0010889
:10441000F6E700EBA10001F0030710F801A98146BF
:104420007900C02020FA01F84FF0060BB5F1040521
:104430000AEA0800ABEB4701C840B04745F8040959
:104440003FB14FEA88604FEA10687F1E641EEFD1CB
:10445000A3E7032719F801A9B846F7E700EB6100C5
:10446000012710F801A9A7438146B900F02020FADE
:1044700001F84FF0040B2D1F0AEA0800ABEB87018F
:10448000C840B04745F804093FB14FEA08704FEA09
:1044900010687F1E641EEFD17FE719F801A901277C
:1044A0004FF00F08F6E700002DE9F047224C0646D2
:1044B0001F46A06990468946002540B90120A061A9
:1044C00004F120011D480860084600F099F9606970
:1044D00030B91B480068606110B903F0ACF8606146
:1044E00007B138604EB1A06830B960698000FEF74E
:1044F00061FEA06000B901253060B9F1000F0AD05B
:10450000E06830B960698000FEF754FEE06000B9F1
:104510000125C9F80000B8F1000F0AD0206930B9B0
:1045200060698000FEF746FE206100B90125C8F8E9
:1045300000002846BDE8F08744080020D5CB0008DD
:104540002C07002073B5124A01A900981268904701
:1045500000240090C8B10F4900250968C96949695C
:1045600059B10A684AB1019990477CBD6846FFF786
:1045700045FC0546FFF7D0F804440198401E019021
:10458000F4D5284600F024F8044420467CBD000001
:10459000800800200807002073B50D46009800240D
:1045A00090B10A490968C969496959B14A684AB16B
:1045B000294690477CBD6846FFF720FC20B10A28B9
:1045C00002D0641CAC42F6DB20467CBD080700200C
:1045D00038B5002469460094FFF7B0F8009981428D
:1045E00000DD0C1A204638BDB0F90030B1F90020CA
:1045F000934200DA0280B0F90230B1F9022093420E
:1046000000DA4280B0F90430B1F90420934200DDB1
:104610008280B0F90620B1F906108A4200DDC1801F
:10462000704770B5B1F90040B2F900309C4200DD2E
:1046300023460380B1F90250B2F90240A54200DDE1
:104640002C464480B1F90460B2F90450AE4200DA5D
:1046500035468580B1F90610B2F90620914200DB9B
:104660001146C1809D4201DBA14201DA002070BDEC
:10467000012070BD014602480068407C00F002B88D
:10468000080700202DE9F843012604468946022840
:1046900057DADFF8B480080008F1040530D00128AB
:1046A00002D002294DD116E055F8240088B92046E1
:1046B000FEF71AFF009010B3C0680D21426A6846E9
:1046C000904702003DD049460098904755F8240095
:1046D0000026401C33E02046FEF706FF009070B134
:1046E000C0680D21426A68469047040029D0D8F876
:1046F000000000B1804749460098A047002620E00E
:1047000055F82400012813D12046FEF7EDFE009055
:1047100070B1C0680D21426A68469047070007D013
:10472000D8F8000000B1804749460098B8470026F5
:1047300055F8240008B1012100E00021401A45F895
:1047400024003046BDE8F8836C08002070B5FF23D4
:10475000B3EB116F2CD0C3B213FB02F500F47F440E
:1047600000F47F0354435343000E10FB02F6C2F1E2
:10477000FF00CAB212FB005201F47F4505FB004462
:1047800001F47F0505FB0033090E11FB0065C2F340
:1047900007204FF47F024FF47F4102EA132201EA1F
:1047A00014214FF07F43084303EA054310431843A5
:1047B00070BD2DE9F04F0646DDE90CB915460C46F3
:1047C00000208046584519D20B9F4FF0FF0A01CEBA
:1047D00008CCAAEB106202FB09F2B2FBFAF1CAB2F2
:1047E0001946FFF7B3FF20F07F4001C57F1EEED1D1
:1047F000099804EB800408F10100E2E7BDE8F08FBE
:1048000002494A694260486170470000FC06002086
:1048100010B502E000F8011B521E0AB18307F9D15E
:10482000930818D001EB014402F0030204EB0424C6
:1048300006E010C01B1F10C040F8084B40F8044CA5
:10484000042BF6DA01E010C05B1E002BFBD102E066
:1048500000F8011B521E002AFAD110BD10B5014606
:10486000C1EBC102094B03EB8202D268C1EBC10369
:10487000064C04EB83031B695A43C1EBC10304EBF1
:1048800083035B6902FB03F010BD0000B06D0220E2
:1048900018B502460020009000BF92F83C000128A5
:1048A00001D1022018BD012082F83C0000BF086839
:1048B000092816D91068C0680B780A3B03EB43043B
:1048C0000723A34098431368D8600B780A3B03EB97
:1048D0004303886898401368DB6818431368D860FE
:1048E00013E0106800690B7803EB43040723A3402F
:1048F0009843136818610B7803EB4303886898406A
:1049000013681B691843136818614868072817D291
:104910001068406B0B795B1E03EB83041F23A340DD
:10492000984313685863088880B20B795B1E03EBC9
:104930008303984013685B6B18431368586331E036
:1049400048680D2817D21068006B0B79DB1F03EB4A
:1049500083041F23A340984313681863088880B218
:104960000B79DB1F03EB8303984013681B6B184321
:104970001368186316E01068C06A0B790D3B03EBEF
:1049800083041F23A34098431368D862088880B229
:104990000B790D3B03EB830398401368DB6A1843E4
:1049A0001368D8621C4B1068984208D10868122816
:1049B00005D11A48006840F48000C3F80403164B80
:1049C0001068984220D1164B0868984202D00868B7
:1049D000112819D11148006840F400000F4B1860ED
:1049E0000F4B086898420FD10E4800680E4BB0FB81
:1049F000F3F000EB80004000009002E00098401EC1
:104A0000009000980028F9D100BF002082F83C00F7
:104A100000BF00BF46E70000002001400423014022
:104A2000120000100400002040420F0001460868F8
:104A3000C06C704710B504460CB9012010BD104978
:104A4000E06A884200D000BF94F83D0028B90020F9
:104A500084F83C00204600F015F8022084F83D0060
:104A60002046FCF72FFF00202064012084F83D0041
:104A700000BF002084F83C0000BF00BFDEE700005C
:104A80000100000F10B586B004460F492068884227
:104A900017D100BF0D48006840F480700B490860D2
:104AA0000846006800F48070009000BF00BF082036
:104AB0000190032002900020039001A9044800F017
:104AC0002BFA06B010BD000000200140443802401F
:104AD0000008024070B504460D4600262068806834
:104AE00000F4806070B12068806800F4807048B184
:104AF000042084F83D0000BF002084F83C0000BF83
:104B0000012070BD00F01AFB064611E0681C78B168
:104B100025B100F013FB801BA84209D9032084F8BB
:104B20003D0000BF002084F83C0000BF0320E8E700
:104B30002068006800F002000228E7D194F83D00E8
:104B4000252803D1352084F83D0002E0152084F8A3
:104B50003D000020D5E7000008B501460020009088
:104B600000BF91F83C00012801D1022008BD0120BE
:104B700081F83C0000BF91F83D00222803D132208B
:104B800081F83D0002E0122081F83D00086880684D
:104B900000F00100A0B90868806840F001000A68D0
:104BA00090601B4800681B4AB0FBF2F000EB40002D
:104BB000009002E00098401E009000980028F9D173
:104BC00000BF002081F83C0000BF1348006800F0DF
:104BD0001F0058B90868806800F04050A8B90868FC
:104BE000806840F080400A6890600EE00B4A0868D8
:104BF00090420AD10868806800F0405028B90868DF
:104C0000806840F080400A6890600020AEE70000B5
:104C10000400002040420F00042301400020014016
:104C200001460868806820F001000A689060012051
:104C300081F83D000020704710B504460CB90120F2
:104C400010BD607920B900202071204600F006F8E0
:104C500002206071012060710020F1E708B5094A67
:104C6000016891420DD100BF0749096841F48051A4
:104C7000054A11601146096801F48051009100BF96
:104C800000BF08BD003002403038024070B5044615
:104C900000250CB9012070BD94F8390028B9002016
:104CA00084F83800204600F023F8022084F8390008
:104CB0002068056825F44035606805432068056074
:104CC0002068456B25F00705A0680543206845630B
:104CD0002068056C6FF30D05E068054320680564E6
:104CE0000020E063012084F839000020D3E70000B1
:104CF00008B5094A016891420DD100BF074909680A
:104D000041F40001054A11601146096801F40001EF
:104D1000009100BF00BF08BD00B002403038024023
:104D200031B5002400F00AFA044600BF00F006FA8C
:104D3000001B00998842F9D338BD00000348006881
:104D400040F000400149086000207047103C0240DC
:104D50002DE9F04106460F4614461D464FF0010866
:104D600000BF1F48007E012802D10220BDE8F0816B
:104D700001201B49087600BF4CF25030FDF7DCFCE7
:104D80008046B8F1000F23D126B9E1B23846FDF7CD
:104D90003BFC12E0012E04D1A1B23846FDF75CFCC9
:104DA0000BE0022E04D121463846FDF769FC04E0F1
:104DB00022462B463846FDF739FC4CF25030FDF7C1
:104DC000BBFC80460748006820F0010005490860E8
:104DD00000BF00200249087600BF4046C6E7000039
:104DE000A0080020103C02400748006800F0004086
:104DF00030B1064804490C3908600548086001E0F4
:104E0000012070470020FCE7103C02402301674569
:104E1000AB89EFCD00B587B03748006808B107B05F
:104E200000BD01203449086000BF3448006840F0EC
:104E30000100324908600846006800F00100019056
:104E400000BF00BF4FF63F000290022003900020F9
:104E50000490032005900C20069002A9284800F039
:104E60005BF80120029002200390002004900320B0
:104E700005900C20069002A9224800F04DF848F257
:104E8000331002900220039000200490032005902C
:104E90000C20069002A91C4800F03EF84FF68370E3
:104EA00002900220039000200490032005900C2023
:104EB000069002A9154800F02FF8C02002900220A9
:104EC000039000200490032005900C20069002A976
:104ED0000F4800F021F84CF203700290022003907A
:104EE00000200490032005900C20069002A9094898
:104EF00000F012F800BF92E790000020383802401E
:104F00000014024000080240001802400010024055
:104F1000001C0240000C0240F8B502460B4600257A
:104F2000002400200021E4E0012606FA01F51E68B5
:104F300006EA0504AC4271D15E68022E02D05E68BA
:104F4000122E13D1CF0802F1200656F827004E0783
:104F5000F70E0F26BE40B0434F07FF0E1E69BE403E
:104F60003043CF0802F1200646F8270010684F00B2
:104F70000326BE40B0431E7906F003064F00BE4034
:104F8000304310605E68012E08D05E68022E05D0A6
:104F90005E68112E02D05E68122E13D190684F0009
:104FA0000326BE40B0434F00DE68BE4030439060F1
:104FB000506801268E40B0431E79C6F300168E401D
:104FC00030435060D0684F000326BE40B0434F00CE
:104FD0009E68BE403043D0605E6806F08056B6F1F1
:104FE000805FA8D100BF454E366846F48046434FE7
:104FF0003E603E46366806F48046009600BF00BF1D
:105000003F4E8F0856F827008E07370F0F26BE40F9
:10501000B0433C4EB24202D100262EE068E03A4E48
:10502000B24201D1012628E0384EB24201D1022617
:1050300023E0374EB24201D103261EE0354EB24284
:1050400001D1042619E0344EB24201D1052614E004
:10505000324EB24201D106260FE0314EB24201D1AA
:1050600007260AE02F4EB24201D1082605E02E4E57
:10507000B24201D1092600E00A268F073F0FBE4049
:1050800030431F4E8F0846F82700284E3068A04353
:105090005E6806F48036B6F5803F00D12043234E8B
:1050A0003060361D3068A0435E6806F40036B6F501
:1050B000003F00D120431D4E361D3060361D306844
:1050C000A0435E6806F48016B6F5801F00D1204329
:1050D000164E08363060361D3068A0435E6806F410
:1050E0000016B6F5001F00D12043104E0C3630607C
:1050F000491C1029FFF418AFF8BD000044380240E5
:10510000083801400000024000040240000802404C
:10511000000C02400010024000140240001802403F
:10512000001C02400020024000240240003C0140DC
:105130000AB1816101E00B04836170470148006896
:10514000704700000000002070B5044600260025CE
:105150000CB9012070BD94F8350028B9002084F8FE
:105160003400204600F080F8022084F835002068E2
:10517000006820F001002168086001F03BF8054656
:105180003748B5FBF0F620684660364960688842CB
:1051900001D8701C07E04FF4967070434FF47A7199
:1051A000B0FBF1F0401C216808622E49606888421B
:1051B0000ED860684000B5FBF0F0C0F30B00042887
:1051C00001D204202DE060684000B5FBF0F028E03B
:1051D000A06828B9606800EB4000B5FBF0F008E07B
:1051E000606800EBC00101EB0010B5FBF0F040F48B
:1051F0008040C0F30B0008B9012012E0A06828B974
:10520000606800EB4000B5FBF0F008E0606800EB80
:10521000C00101EB0010B5FBF0F040F4804040F419
:1052200000402168C861D4E907010843216808608B
:10523000D4E90310084321688860D4E905010843D4
:105240002168C8602068006840F00100216808609B
:105250000020A063012084F8350000207AE70000D8
:1052600040420F00A086010010B586B004461849E0
:10527000206888422AD14015019012200290012016
:105280000390002004900420059001A91148FFF725
:1052900043FE4FF480700190122002900120039091
:1052A000002004900420059001A90B48FFF734FE6C
:1052B00000BF0A48006840F400000849086008463A
:1052C000006800F40000009000BF00BF06B010BDF1
:1052D000005C0040000802400000024040380240EC
:1052E00002480068401C0149086070470000002027
:1052F00010B50D48006840F400700B49086008467E
:10530000006840F4806008600846006840F48070DF
:105310000860032000F032FC002000F007F800F0E5
:10532000D7FB002010BD0000003C024070B50446D1
:1053300000F044FF4FF47A71B0FBF1F5284601F01C
:1053400088FC00222146501E00F0D9FB002070BDD1
:10535000F0B50446154600260022002700BF94F849
:10536000A000012801D10220F0BD012084F8A00096
:1053700000BF022084F8A100002237E003EB830085
:1053800000EBC30C04F1380000EB8C000069062828
:1053900013D108784FF0100C0CFB022C40EA0C6083
:1053A000B1F800C00CF47F4C40EA0C00D1F800C00A
:1053B0000CF47F0C40EA0C060EE0087840EA02602C
:1053C000B1F800C00CF47F4C40EA0C00D1F800C0EA
:1053D0000CF47F0C40EA0C060F1D3946206884301F
:1053E0004FF0800C0CFB03000664521CAA42C5D38C
:1053F000012084F8A10000BF002084F8A00000BFB5
:1054000000BFB1E730B5034600BF93F8A000012804
:1054100001D1022030BD012083F8A00000BF02208E
:1054200083F8A10018688430802404FB0200C0685F
:1054300000F07F4418688430802505FB0200C460BA
:1054400018688430802404FB0200C16001201C68BD
:10545000606283F8A10000BF002083F8A00000BFB5
:1054600000BFD7E770B504460E46154600BF94F856
:10547000A000012801D1022070BD012084F8A00005
:1054800000BF022084F8A10005EB850101EBC502F5
:1054900004F1380101EB820034223146FBF749F96F
:1054A0002A463146204602F02DFD0120216848623F
:1054B00084F8A10000BF002084F8A00000BF00BF56
:1054C000DAE710B5024600BF92F8A000012801D12A
:1054D000022010BD012082F8A00000BF022082F847
:1054E000A10010688430CB01C05820F0020310687E
:1054F0008430CC01035101201368586282F8A10066
:1055000000BF002082F8A00000BF00BFE1E710B597
:10551000024600BF92F8A000012801D1022010BD70
:10552000012082F8A00000BF022082F8A1001068CC
:105530008430CB01C05840F0020310688430CC01A5
:10554000035101201368586282F8A10000BF0020B7
:1055500082F8A00000BF00BFE1E7704710B5044625
:105560002068806B00F00400F0B12068806B00F0D0
:105570000400C8B12068406B20F004002168486333
:1055800004202168C863D4F8A40040F00100C4F8E6
:10559000A400042084F8A10000BF002084F8A0002B
:1055A00000BF2046FFF7D9FF2068806B00F00200A3
:1055B000F0B12068806B00F00200C8B12068406B39
:1055C00020F002002168486302202168C863D4F8F3
:1055D000A40040F00200C4F8A400042084F8A10054
:1055E00000BF002084F8A00000BF2046FFF7B5FFF1
:1055F0002068806B00F00100B8B12068806B00F07B
:10560000010090B12068406B20F0010021684863E0
:1056100001202168C86384F8A10000BF002084F83D
:10562000A00000BF204600F095F810BD70B50446FC
:10563000002500260CB9012070BD94F8A10028B9FE
:10564000002084F8A000204600F0D4F8022084F85E
:10565000A1002068806920F0704021688861D4E949
:1056600001010843E1680843216908432168896909
:1056700008432168886120688068354908402168AE
:105680008860A08A050420688068A16929430843CE
:10569000216888602068C0682D4908402168C8607A
:1056A000A08B05042068C068216A2943084321684B
:1056B000C860206800692649084021680861A08CFC
:1056C000050420680069A16A29430843216808612C
:1056D000206840691E49084021684861A08D050482
:1056E00020684069216B294308432168486194F888
:1056F0003500050294F8360006042068C06A00F000
:105700007F402168C86246EA050094F834100843D7
:105710002168C96A08432168C8622068406B40F06C
:105720000400216848632068406B40F00200216853
:1057300048632068806940F001002168886100208A
:10574000C4F8A400012084F8A100002074E7000040
:1057500000F800F070B50546002442E0C4EBC40038
:10576000234901EB80004068002839DBC4EBC4000A
:1057700001EB8000C068C4EBC4011D4A02EB81014B
:1057800009694843C4EBC40102EB810149684843FD
:10579000C4EBC40102EB81014969C4EBC402144BA0
:1057A00053F8222000FB012622463146284600F00D
:1057B000FDF82868406A40F0010029684862C4EB9F
:1057C000C4000B4A02EB800041682046FEF7CCF98A
:1057D0004FF0FF30C4EBC401054A02EB8101486081
:1057E000641C022CBAD30021284600F0BBF870BD1F
:1057F000B06D022010B586B004464F49206888423B
:105800007ED14E48006840F080604C4908607020AE
:1058100001900220029000200390032004900E20AB
:10582000059001A94648FFF777FB40F2146001900C
:105830000220029000200390032004900E20059087
:1058400001A94048FFF768FB4FF4806001900220F7
:10585000029000200390032004900E20059001A9DF
:105860003948FFF759FB44F60C5001900220029092
:1058700000200390032004900E20059001A93348D6
:10588000FFF74AFB4820019002200290002003907D
:10589000032004900E20059001A92D48FFF73CFB42
:1058A0000320019002200290002003900320049026
:1058B0000920059001A92748FFF72EFB4FF47060DF
:1058C00001900220029000200390032004900E20FB
:1058D000059001A91F48FFF71FFB4FF4C650019028
:1058E0000220029000200390032004900E200590D7
:1058F00001A91948FFF710FB80200190022000E069
:1059000018E0029000200390032004900E200590E0
:1059100001A91248FFF700FB4020019002200290ED
:1059200000200390032004900E20059001A90C484C
:10593000FFF7F2FA06B010BD00680140443802409B
:10594000001002400020024000140240001C0240EF
:10595000000002400004024000180240000802401B
:10596000000C0240024600BF92F8A000012801D1BD
:1059700002207047012082F8A00000BF022082F8B8
:10598000A1001068406B40F001001368586306489E
:105990000160012082F8A10000BF002082F8A00071
:1059A00000BF00BFE5E70000406801402DE9F0417D
:1059B00004460E46174600BF94F8A000012802D105
:1059C0000220BDE8F081012084F8A00000BF022081
:1059D00084F8A10007EB870000EBC70104F1380051
:1059E00000EB81056E623A462946204602F08AFAAB
:1059F00001202168486284F8A10000BF002084F8DB
:105A0000A00000BF00BFDCE72DE9F04104460E46D0
:105A1000174600BF94F8A000012802D10220BDE87B
:105A2000F081012084F8A00000BF022084F8A100CA
:105A300007EB870000EBC70104F1380000EB81059C
:105A40006E613A462946204602F05CFA0120216840
:105A5000486284F8A10000BF002084F8A00000BFC5
:105A600000BFDCE72DE9F04104460E461746984694
:105A700000BF94F8A000012802D10220BDE8F08107
:105A8000012084F8A00000BF022084F8A10008EBE8
:105A9000880000EBC80104F1380000EB81052E609E
:105AA000A86A30446860AF60E86A3844E8604246FB
:105AB0002946204602F026FA01202168486284F82F
:105AC000A10000BF002084F8A00000BF00BFD5E700
:105AD00010B5032000F052F800221146501E00F0CD
