:020000040800F2
:10000000F80B0220950300089D0300089F030008D9
:10001000A1030008A3030008A503000800000000D6
:10002000000000000000000000000000CD020008F9
:10003000A90300080000000021030008819F0008B8
:10004000AF030008AF030008AF030008AF030008C8
:10005000AF030008AF030008AF030008AF030008B8
:10006000AF030008AF030008AF030008AF030008A8
:10007000AF030008AF030008AF030008AF03000898
:10008000AF030008AF030008AF030008AF03000888
:10009000AF030008AF030008AF030008AF03000878
:1000A000AF030008AF030008AF030008AF03000868
:1000B00071A00008AF030008AF030008AF030008F9
:1000C000AF030008AF030008AF030008AF03000848
:1000D000AF030008AF030008AF030008AF03000838
:1000E000AF030008AF030008AF030008AF03000828
:1000F000AF030008AF030008AF030008AF03000818
:10010000AF030008AF030008AF030008AF03000807
:10011000AF030008AF030008AF030008AF030008F7
:10012000AF030008AF030008AF030008AF030008E7
:10013000AF030008AF030008AF030008AF030008D7
:10014000AF030008AF030008AF030008A194000844
:10015000AF030008AF030008AF030008AF030008B7
:10016000AF030008AF030008AF030008AF030008A7
:10017000AF030008AF030008AF0300080000000051
:10018000AF030008AF030008AF030008AF03000887
:10019000AF030008AF030008AF030008AF03000877
:1001A000D58C0008AF030008AF03000800F002F888
:1001B00000F07CF80AA090E8000C82448344AAF185
:1001C0000107DA4501D100F071F8AFF2090EBAE883
:1001D0000F0013F0010F18BFFB1A43F0010318477B
:1001E00018D5030038D503000A444FF0000C10F86E
:1001F000013B13F0070408BF10F8014B1D1108BFA5
:1002000010F8015B641E05D010F8016B641E01F844
:10021000016BF9D113F0080F1EBF10F8014BAD1C94
:100220000C1B09D16D1E58BF01F801CBFAD505E0B2
:1002300014F8016B01F8016B6D1EF9D59142D6D30C
:10024000704700000023002400250026103A28BF34
:1002500078C1FBD8520728BF30C148BF0B60704738
:10026000662917F0BC81672917F0B981642900F06D
:100270006B81732900F09586002070471FB517F039
:10028000A4F99DE8030000F0B5FB00F061FF040055
:100290000020002116F070FA401C60600020002150
:1002A00016F054FAE0601FBD10B510BD01F0E2F881
:1002B0001146FFF7E3FF13F05FF901F061FB03B4B0
:1002C000FFF7F2FF03BC01F0CFFB0000294B1968D8
:1002D0000868B0E8F04F80F30988BFF36F8F4FF0E4
:1002E000000080F311887047000000000648006895
:1002F000006880F3088862B661B6BFF34F8FBFF322
:100300006F8F00DF00BF00BF08ED00E0DFF80C00DA
:10031000016841F470010160704700BF88ED00E0A2
:10032000EFF30980BFF36F8F124B1A681EF0100FA6
:1003300008BF20ED108A20E9F04F106008B44FF09C
:10034000500080F3118815F07FFA4FF0000080F321
:10035000118808BC19680868B0E8F04F1EF0100F4B
:1003600008BFB0EC108A80F30988BFF36F8F704725
:1003700000BF00BF30000020EFF311804FF05001AC
:1003800081F31188704780F311887047EFF305807F
:10039000704700000948804709480047FEE7FEE72C
:1003A000FEE7FEE7FEE7FEE7FEE7FEE7FEE7FEE725
:1003B00004480549054A064B704700001DA0000887
:1003C000AD010008F8050220F80B0220F807022012
:1003D000F807022070B5064600F0ECFA056806F151
:1003E0000B0020F00704B4429CBF002070BD2B46D8
:1003F0006A68BAB11068A04210D304F108018842BB
:100400003CBF5068586007D35168101941601168AB
:10041000091B016058601460101D70BD13465268BE
:10042000002AE7D12146284600F0D0FA0028DED184
:1004300070BD70B50446051F00F0BCFA0068002CC2
:1004400014BF446870BD002C18BFAC423CBF2046AE
:100450006468F8D301680A18AA4218BF456003D13E
:100460002A6805461144016028684119A1421CBF51
:100470006C6070BD6168696021680844286070BD67
:100480000FB41CB5074B06AA7B446946009005983B
:1004900000F05DFD0020694600F06CFD1CBC5DF8BD
:1004A00014FB0000E90A000070B504468569006885
:1004B000C10601D5302600E02026C00707D070BD58
:1004C000D4E9012130469047206A401C20626D1E0D
:1004D000F6D570BD70B5044685690078C00707D1B0
:1004E00070BDD4E9012120209047206A401C206281
:1004F0006D1EF6D570BD70B50C460546012A05D0B7
:100500002878800600D5EA69002302E0012305E08F
:100510005B1C934202D2E05C0028F9D1A869E6187E
:10052000C01AA861286A184428622846FFF7BCFF51
:1005300004E0D5E9012114F8010B9047B442F8D347
:100540002846FFF7C7FF70BD2DE9F041064600249D
:1005500010687529314616A510D0AFF30080002829
:1005600002DA404213A507E031688A0701D512A5D7
:1005700002E0490704D511A5012401E0AFF3008092
:1005800000210A2206F1240709E0B0FBF2FCB0FBCF
:10059000F2F302FB1C00303078541846491C002846
:1005A000F3D123462A463046BDE8F04100F063BA55
:1005B000000000002D0000002B00000020000000C3
:1005C0002DE9F05F894604464FF0000ADFF824B1B8
:1005D000FB44C0F820A02046E168884700287DD071
:1005E000252806D0D4E901219047206A401C2062CA
:1005F000F1E700255F462046E16888472028064647
:1006000007DB312E05D2B81910F8200C08B10543CC
:10061000F1E7A80701D525F00405C4F81CA00027C0
:10062000C4F818A02A2E09D030460FF093FD38B335
:1006300004EB8708303EC8F8186019E059F8041B2D
:10064000204604EB87029161E1688847012F064646
:1006500018D1E069002820DA25F020051DE0D8F83F
:10066000180000EB800006EB40003038C8F8180096
:100670002046E168884706460FF06CFD0028EED161
:10068000012F0AD02E2E08D12046E16888477F1C12
:100690000646022F45F02005C4DBA069002803DAD6
:1006A000404245F00105A061E80701D025F01005A2
:1006B000A6B1A6F14100192802D8203645F40065FC
:1006C0004A463146204625604D46FFF7C9FD60B1D8
:1006D000012807D0ED1D25F0070000E007E000F13C
:1006E000080978E705F1040975E730467AE7206ADA
:1006F000BDE8F09FC4CD030070B5064600F05EF97A
:100700000468054630460A22002100F09FFC2C6058
:1007100070BD40EA0103024630B59B0710D14FF08F
:10072000013400E008C208C91D1B9D4315EAC41F1F
:10073000F8D013F0FF0102F8011B0DD01B0AF8E7F7
:1007400011F8013B002B02F8013B05D011F8013BE9
:10075000002B02F8013BF3D130BD10B5431C02E081
:1007600010F8011B71B18107FAD14FF0013202C8B4
:100770008C1A8C4314EAC211F9D0C01A0A0603D0AD
:10078000C01E10BDC01A10BD0A0401D0801E10BDCD
:100790000902FCD0401E10BD032A40F2308010F048
:1007A000030C00F0158011F8013BBCF1020F62440C
:1007B00098BF11F801CB00F8013B38BF11F8013B9D
:1007C000A2F1040298BF00F801CB38BF00F8013B4A
:1007D00011F0030300F06780083AC0F0088051F878
:1007E000043B083A51F804CBA0E80810F5E7121DC5
:1007F0005CBF51F8043B40F8043BAFF30080D207E4
:1008000024BF11F8013B11F801CB48BF11F8012BAF
:1008100024BF00F8013B00F801CB48BF00F8012BD2
:100820007047431A28BF9A427FF6B6AF032A104496
:10083000114440F2268010F0030F1EBF11F8013D55
:10084000521E00F8013D10F0030F7FF4F6AF11F0D7
:10085000030300F04684083AC0F00B8051F8043DD1
:10086000083A51F804CD40F8043D40F804CDFFF7B4
:10087000F3BF121D5CBF51F8043D40F8043DAFF3D7
:100880000080D20724BF11F8013D11F801CD48BF07
:1008900011F8012C24BF00F8013D00F801CD48BF3C
:1008A00000F8012C704710B5203AC0F00B80B1E879
:1008B0001850203AA0E81850B1E81850A0E8185095
:1008C000BFF4F5AF5FEA027C24BFB1E81850A0E89E
:1008D000185044BF18C918C0BDE810405FEA827CB8
:1008E00024BF51F8043B40F8043B08BF7047D207CF
:1008F00028BF31F8023B48BF11F8012B28BF20F870
:10090000023B48BF00F8012B704702F0FF0343EAA7
:10091000032242EA024200F002B84FF0000204292A
:10092000C0F0128010F0030C00F01B80CCF1040C1E
:10093000BCF1020F18BF00F8012BA8BF20F8022B52
:10094000A1EB0C0100F00DB85FEAC17C24BF00F8F8
:10095000012B00F8012B48BF00F8012B70474FF026
:10096000000200B5134694469646203922BFA0E8FF
:100970000C50A0E80C50B1F12001BFF4F7AF09070B
:1009800028BFA0E80C5048BF0CC05DF804EB8900FC
:1009900028BF40F8042B08BF704748BF20F8022B3F
:1009A00011F0804F18BF00F8012B70477047704757
:1009B00070470000004870479C05022000487047BF
:1009C00094050220704770477047704738B5044659
:1009D0000A4600206946AFF30080002808BF38BDF2
:1009E00002460099204600F0B7FB012038BD0120E7
:1009F00000F038BDF8B5AFF30080054600200C4686
:100A0000102000BF0646A819A0420DD932466946FB
:100A10000020AFF30080070008BF00F023FD00981E
:100A2000A04218BF0546C419FFF7C4FF056007467A
:100A3000F01D20F007004619284600F00AF8B442DD
:100A400008BFF8BDA21B31463868BDE8F84000F089
:100A500083BB00210160C0E901107047102070477E
:100A600010B5FFF7ABFF006810BD10B50446FFF7E7
:100A7000A5FF046010BD2DE9F0470D46994692464A
:100A8000044600F124080168880604D5E06921F0D5
:100A90001001216000E00120A84201DD471B00E0B9
:100AA0000027A1697A1902EB0900081AA0612078D1
:100AB000C00602D42046FFF7F7FC002608E0D4E980
:100AC00001211AF806009047206A401C761C20621B
:100AD0004E45F4DB2078C0060AD52046FFF7E4FC3B
:100AE00006E0D4E9012130209047206A401C2062B2
:100AF000381EA7F10107F4DC07E0D4E9012118F85A
:100B000005009047206A401C2062281EA5F10105BF
:100B1000F3DC2046FFF7DEFC2078000602D5022039
:100B2000BDE8F0870120FBE770472DE9FF4F0C4639
:100B30001E464FF0FF378BB0D2E90001DDF8608030
:100B40000A908A46C1F30A5505B93D460021084678
:100B50004FF00000BAF1000F00F4400005DA00EB9E
:100B600080004FF4400101EA50004FEA9059B9F17A
:100B7000010F00DDB9460A9850EA4A000ED044F64B
:100B80001050A5F2FF3545432F14B8F1000F1ED0C9
:100B90007542291E1EDDC9F100021CE0B8F1010FEB
:100BA0004FF0000001D0302103E0F24305E0215472
:100BB000401CB042FBDB30460022002121540B993F
:100BC000C1F80880C1E900200FB0BDE8F08FBD1B5F
:100BD0006D1CDEE74A4600DA694206A800F0D4FB45
:100BE00006AB93E8070003AB83E8070050460A9979
:100BF00001F099F98DE80700A0F500501F3800902A
:100C00000398002D09DD42F21F014A46084403A95A
:100C10000390684601F023FC08E0A0F500504A4626
:100C20001F3803A90390684601F041FC8DE80700D6
:100C30000004000C03D04FF0FF30410800E01046E4
:100C4000B8F1000F03D00022009215461EE0751E79
:100C500005D400F09BFA303262556D1EF9D5B346CB
:100C60000122084302D000227F1C04E020783028B3
:100C700001D100227F1E002A099786D01DE0112D88
:100C800007DA00F083FA303262556D1C50EA010237
:100C9000F5D1084302D00098C8B10EE00021681ECB
:100CA00005E0235C625C63542254401E491C81426F
:100CB000F7DBAB46A81B401E0990002004F80B0090
:100CC0000B98099AC0F80880C0E9002B7CE7112630
:100CD0004FF0000859E72DE9F04F88460446D21D31
:100CE00022F0070191B0D1E90001CDE90A010DF030
:100CF0007FFE02460B98C00F01D02D2007E0206830
:100D0000810701D52B2002E0202101EAC000032A3F
:100D1000099001D0072A05DB03464146204600F032
:100D200083FA0BE12078800601D5E06900E0062017
:100D3000B8F1650F814606D0B8F1660F18D0B8F14A
:100D4000670F70D131E00020B9F1110F009001DB85
:100D5000112301E009F101030AAA01A90CA8FFF778
:100D6000E4FEDDE90C70002609F10105834647E049
:100D700001204B4600904FF000470AAA01A90CA899
:100D8000FFF7D3FEDDE90DB00C995D46002610B9E2
:100D900009F101000D18B9EB050003D4C0F1FF36CD
:100DA00009F10105A5EB09002BE0B9F1010F01DA0A
:100DB0004FF001090020B9F1110F0090484601DD04
:100DC000112300E003460AAA01A90CA8FFF7ADFE13
:100DD000DDE90C704D4600268346207800070AD4D2
:100DE000AB4500DA5D4601A8012D04DD411911F87B
:100DF000011C302907D04F4502DA17F1040F04DA3D
:100E0000012082460FE06D1EEEE7002F02DCED1B95
:100E10003E4403E0781CA84200DD7D1CB81B00F1B5
:100E2000010A4FF000472078000703D4AA4501DBF0
:100E30004FF0FF3A0021B7F1004F0DF143088DF854
:100E4000431024D002202B23002F01DA7F422D23D0
:100E50000A21021EA0F1010000DC5FB197FBF1FC4A
:100E600097FBF1F201FB1C7C17460CF1300C08F8E3
:100E700001CDEEE7A8F1010003702188090501D535
:100E8000452100E06521A0F1010800F8011C099846
:100E90000FA9A1EB0807FF1D00B10120411901EBCB
:100EA000EA70A1693844081A401EA0612078C00683
:100EB00002D42046FFF7F8FA099828B1D4E90121B5
:100EC0009047206A401C20622078C00622D5204628
:100ED000FFF7EAFA1EE0002E04DBB34502DD01A8AD
:100EE000805D00E03020D4E901219047206A401C59
:100EF0002062761CAAF101005FEA000A0AD100F024
:100F000027F9C0680168405CD4E901219047206A54
:100F1000401C2062281EA5F10105DCDC07E0D4E9B5
:100F2000012118F8010B9047206A401C2062381EEE
:100F3000A7F10107F3DC2046FFF7CCFA032011B03C
:100F400043E6000001694A1C02610878704700B559
:100F50008FB0CDE901310021059105497944CDE9F2
:100F6000031011466846FFF72BFB0FB000BD0000D1
:100F7000E5FFFFFF0A6802F8010B0A60704710B531
:100F8000436913B1AFF3008001E0FFF7B4FA012029
:100F900010BD127800F124010A7000224A7001226B
:100FA000EDE711684FF0FF32E9E700000FB40023CE
:100FB00000B589B00CA900910B99CB60204B7B4404
:100FC0000693204B7B44079304236FF00042CDE946
:100FD00001321D4A7A446B4608920246002016F000
:100FE00060FB09B05DF814FB70B506464FF0FF30AA
:100FF00015460C46324686B00091CDE9010169469E
:101000000020049004A8FFF7D1FF0346049821189C
:1010100025B108B10A4600E022462A6000280DD01A
:10102000002B02DD0098884208D03246081B694632
:101030000094CDE9010404A8FFF7B8FF06B070BD25
:10104000E7020000FF0200003F0200002DE9F04728
:1010500091460F4680460446002614F8015B2DB1E8
:1010600000F06EF80068405DC007F6D12B2D02D06D
:101070002D2D18D0641E4A463946204600F034F91A
:1010800027B13968A14201D1C7F800804FF00204AE
:1010900071050BD54042002803DDFFF78FFC04608B
:1010A000A007BDE8F08746F48066E4E70028F8DA98
:1010B000FFF784FC04606FF00040F2E7431A28BF9A
:1010C0009A427FF6F0AB104410F0030F11441EBF9C
:1010D00011F8013D521E00F8013D10F0030F7FF49E
:1010E000F6AF103AC0F00A8010B531E91850103A46
:1010F00020E91850BFF4F9AFBDE81040530724BFF2
:1011000031E9081020E9081044BF51F8043D40F8C7
:10111000043D12F0030F08BF7047D20728BF31F813
:10112000023D48BF11F8012C28BF20F8023D48BFFE
:1011300000F8012C70470000004870479405022019
:1011400010B500F005F8001D10BD00BF2D560100C0
:1011500000487047B4050220034640688C460028CA
:1011600018BF88423CBF03464068F8D3186818444B
:10117000884207D00CF1030020F00700001D411A3F
:10118000521A0146081D0A60FFF753B930B5B0F195
:101190000A024FEA900E71F100034EEA817EB0EB35
:1011A0000E0061EB91014FEA101E4EEA017E10EB3A
:1011B0000E0041EB11114FEA102E4EEA016E10EBBA
:1011C0000E0041EB11214FEA104E4EEA014E10EB9A
:1011D0000E0041EB1141401841F100014FEAD000EF
:1011E00040EA41704FEAD10110EB80054FEA8104DB
:1011F00044EA907444EB01046D1944EB0404521B5F
:10120000A3414FF0000348BF0A3200D530BD401C57
:1012100041F1000130BD10B50446FFF791FF0068B1
:10122000005D00F0010010BD2DE9F0411F460446AD
:1012300003260168072A01F4006004DB08B116A543
:1012400005E016A503E008B115A500E015A521F0FD
:1012500010002060A069C01EA0610FB1401EA061F7
:101260002046FFF721F94FB1D4E9012138469047D4
:10127000206A401C2062C01C206206E0206AFAE757
:10128000D4E9012115F8010B9047761EF8D22046CB
:10129000FFF720F9BDE8F0814E414E006E616E000F
:1012A000494E4600696E6600426842B1016811F815
:1012B000013B23B1521EC0E90012184670470121BC
:1012C000C160881E704742685AB1C368016843B95B
:1012D00083688B4205D0491E521CC0E900120020D1
:1012E00070474FF0FF3070472DE9F05F824615469A
:1012F0008B4600270AF10104B9460078302801D056
:101300009DB113E014F8010B0127782803D0582869
:1013100001D045B10AE00DB1102D07D1002714F816
:10132000010B102502E0082500E00A250026B04642
:101330000EE005FB080005FB06F101271FFA80F807
:1013400001EB1046B6F5803F00D3B94614F8010B07
:10135000294600F0B4F80028EBDABBF1000F05D005
:101360000FB1641E00E05446CBF80040B9F1000F05
:1013700006D0FFF723FB02210160C81EBDE8F09FE5
:1013800048EA0640FAE700002DE9F0478146164694
:101390008AB0334878440DC88DE80D003048784451
:1013A000801C03AC0DC884E80D0041F69B30084456
:1013B000372190FBF1F290FBF1F5A5F1800501FBDF
:1013C00012041B3C02D56442012000E00020DFF83B
:1013D00090A080460027FA44AAF1BE0A0DE0E0077B
:1013E00009D03246684607EB47010AEB810101F05C
:1013F0005EF88DE8070064107F1C002CEFD1184FB9
:101400007F44AC3F18E0E80714D007EB04100DF15F
:10141000180A90E80E008AE80E00C068F04201D178
:1014200098190890324606A903A801F040F803ABCA
:1014300083E807006D10641C002DE4D13246694634
:10144000B8F1000F03A802D001F009F801E001F0A3
:101450002EF8C9E90001C9F808200AB0BDE8F087F4
:10146000E4C2030010B500F097FABDE8104000F0A8
:101470008DBA70477546FFF75FFEAE4605006946B8
:10148000534620F00700854618B020B5FEF790FFC0
:10149000BDE820404FF000064FF000074FF0000875
:1014A0004FF0000B21F00701AC46ACE8C009ACE8F6
:1014B000C009ACE8C009ACE8C0098D4670473A28BD
:1014C00000D2303820F02002412A01D3A2F13700A7
:1014D000884201D34FF0FF30704700002DE9FF4FE5
:1014E000064689B00878FF2806D0491C2D2805D06B
:1014F00000244FF0000908E000200CE00124F8E788
:1015000009EB8903491C00EB43090878FF28F7D150
:1015100014B1C9F100008146107800252C46AA4676
:1015200029462D2801D02B2804D1521C2D2813D058
:10153000002082468B461078FF280FD04FF0000C19
:101540000A21521CA5FB017804FB018105FB0C114B
:10155000C5194BEB0104EEE70120EAE7002108463C
:101560004FF00000BAF1000F02D000EB80004008FD
:10157000C0F38158B8F1010F01DD4FF0FF380C982E
:1015800009EB000755EA040009D04FF0020917F5EE
:10159000FA7F0BDA4FEACA70C6E900B012E04FEAF0
:1015A000CA70C6E900B00DB0BDE8F08FB7F5FA7F9C
:1015B0000DDDF0487844D0E90010C6E9001040EA9B
:1015C000CA707060FFF7FAF9C0F80090EBE7391EB7
:1015D00002DAC8F1000200E0424600DA794206A8C9
:1015E000FFF7D2FE06AB93E8070003AB83E80700E2
:1015F00044F23E005BEA04010090584604D144F2F4
:101600001E012C465D460091210C0904014306D1C0
:101610000099240444EA15442D041039009104F083
:101620007F41014306D10099240244EA15642D024A
:101630000839009104F07041014306D1009924015A
:1016400044EA15742D01091F009104F04041014343
:1016500006D10099A40044EA9574AD00891E00915A
:1016600004F00041084304D100986D196441401E04
:10167000009042466846002FCDE9014503A902DDEE
:1016800000F029FF01E000F0FEFEBAF1000F044671
:101690000D4601D084F0004440F2FF7724F0004072
:1016A000284303D0C4F30A50B84212D1FFF786F999
:1016B000C0F80090C4F30A50B8420AD1AE4878444A
:1016C000D0E90010C6E9001004F000410843706042
:1016D00069E7C6E9005466E72DE9FF4F1F464FF062
:1016E000000A4FF0FF38454691B0D7E90146CDF8E2
:1016F0003CA0FFF72DFDC0680168405C1090B969FF
:1017000012986D1C8847396A814688470028F6D1AF
:10171000B9F1FF3F0AD0002E24F4D06411DDB9F1F5
:101720002B0F08D0B9F12D0F0BD102E0404615B0B8
:101730003AE744F48064B96912986D1C8847761EB4
:101740008146600504A901D52D2000E02B20002E44
:1017500001F1010B0DF130088DF810003FDDB9F1FA
:10176000690F08D0B9F1490F05D0B9F16E0F02D059
:10177000B9F14E0F1CD13B4601A8009580E85002FC
:10178000DDE912126FF0020015F08FFFC11CCED1FF
:101790000EE0B96912986D1C884781461398761E31
:1017A00044F4007405600F98401C002E0F9016DD65
:1017B000B9F1300FEDD0B9F1780F02D0B9F1580F6F
:1017C0000DD10F9801280AD13B46CDE90054DDE93F
:1017D0001212001F029615F066FFC11CA7D11099C6
:1017E00089453ED144F0800406E01399681CAAF1B3
:1017F000010A44F400740860B9696D1C1298761EE1
:10180000884730288146F0D02BE01099894505D1D2
:10181000200603D4761E44F0800418E048460EF0FB
:1018200099FC08B3761E0DF123018B4544F4007436
:1018300008D2A9F130000BF8010B200607D5AAF158
:10184000010003E0200602D40AF101008246A0054F
:1018500002D51399681C0860B96912986D1C8847F5
:101860008146002ED1DC53E0002E51DDB9F1650F29
:1018700002D0B9F1450F4BD1A00549D5B9696D1C0E
:101880001298761E24F440748847002E81460CDDA1
:101890002B2804D0B9F12D0F07D144F48074B96915
:1018A00012986D1C8847761E8146E00501D52D21D2
:1018B00000E02B2108F8011BCDF8008021E0761E06
:1018C0000DF13901884544F400740CD2A9F13000BF
:1018D00010F0FF0088F8000002D10099884509D96E
:1018E00008F1010806E0E00501D5244801E042F2D4
:1018F0000F708246B96912986D1C8847814613980B
:101900000560002E04DD48460EF024FC0028D6D1E8
:10191000F96912988847FF2053468BF8000088F831
:10192000000000200A900B9004AA0CA90AA8FFF757
:10193000D5FDA00502D46FF00100F8E614F0240FE5
:101940000AD0E00714D13868DDE90A12031D3B60B4
:101950000068C0E900120BE00AA968460EF094FB8B
:10196000E00705D13868009A011D396000680260FF
:101970002846DCE660C1030056C00300F1D8FFFF33
:101980000446AFF300802046FEF799FC002801D002
:1019900000F06AB87047000010B5012805D000219A
:1019A00003A000F067F8012010BD09A1F8E70000CE
:1019B00053494752544D454D3A204F7574206F6638
:1019C0002068656170206D656D6F727900000000A0
:1019D0003A2048656170206D656D6F727920636F84
:1019E00072727570746564004FF0013C50F8042BFE
:1019F00051F8043B9A4221D1A2EB0C03934313EA22
:101A0000CC1317D150F8042B51F8043B9A4215D14E
:101A1000A2EB0C03934313EACC130BD150F8042B25
:101A200051F8043B9A4209D1A2EB0C03934313EA09
:101A3000CC13DBD04FF00000704700BFD01A01BAC2
:101A4000B1FA81F101F0180122FA01F0CB40C1F1A5
:101A50002001DBB2C0B2C01A2CFA01F3D11A9143B3
:101A600011EAC311E6D1704701491820ABBEFEE769
:101A70002600020070B505460C460A2000E06D1CE9
:101A800000F011F835B128780028F8D102E0641C84
:101A900000F009F814B120780028F8D1BDE87040B2
:101AA0000A20AFF3008008B569468DF800000320D6
:101AB000ABBE08BD2DE9FF4F1F464FF03C0987B074
:101AC0004FF00042DDE9141001F10108DDF858A0E3
:101AD00002EA4050039000200490834605460446E5
:101AE0000590B969461E08988847AAF1010A029034
:101AF000BAF1000F37DD02982E2815D01021FFF71C
:101B0000DEFC00282ADB4FF0010B0499014316D0BC
:101B1000B9F1000F0BDB4A46C11700F0F1F905439C
:101B20000C43A9F1040905E00120059007E008B184
:101B300045F0010501200490059800B9361DB969EA
:101B4000089808F101088847BBF1000FAAF1010AC3
:101B50000290CDD00999C1F80080C9E70298702899
:101B600008D0502806D0F96908988847BBF1000FC3
:101B700014D04FE0002002900120BBF1000F049030
:101B800009D0B969089808F101088847AAF1010944
:101B9000B9F1000F07DCF969089888476FF0010078
:101BA0000BB0BDE8F08F2B2804D02D280CD14FF0BE
:101BB000FF300490B969089808F101088847A9F135
:101BC0000109B9F1000FE6DD411CE4D00A21FFF75D
:101BD00076FC0028DFDB029908F1010801EB8101A6
:101BE00000EB41000290B969089888470A21FFF785
:101BF00066FC099AA9F10109B9F1000FC2F8008049
:101C000001DD0028E7DAF969089888470499029805
:101C100000FB016655EA040004D004F040410900CD
:101C200002D006E0039898E0A40044EA9574AD0061
:101C3000B61E04F00041080002D16D196441761E01
:101C4000159810F0240F03D04FF00B095C4803E007
:101C50004FF028096FF07D008246564507DAAAEB5F
:101C600006018944B9F1410F01DD4FF0410901201E
:101C70000021A9F1010200F043F9024628400B4679
:101C80002140084301D0012100E00021501E0291B3
:101C900043F1FF3128402140084301D0012000E0FA
:101CA00000200299834651EA0B014FD000210846DB
:101CB0004FF00000039900F4400039B100EB8000C0
:101CC0004FF4400100EBD07001EA6000801501285C
:101CD00002DD4FF0FF3000E013D0401C36D00298F8
:101CE00060B3BBF1000F0CD14A460120002100F087
:101CF00007F928402140084301D0012000E00020DE
:101D0000E0B101204A46002100F0FAF803464019EC
:101D10000A4661412D1A8C4111D3B9F1400F09DDFA
:101D2000159810F0240F02D0AAF1340603E0AAF1AE
:101D3000170600E0761C00254FF0004406E05B1E0D
:101D400042F1FF3220EA030521EA0204CAF1010050
:101D5000B04206DA1B490398084301900020009026
:101D60000EE0039AC4F3D321E80A0A43164940EA75
:101D700044500A433146CDE9000268460EF0E0F9CE
:101D8000159810F0240F0BD01598C00715D138689E
:101D9000DDE90012031D3B600068C0E900120CE0A1
:101DA00002A869460EF070F91598C00705D1386889
:101DB000029A011D3960006802604046F0E60000AA
:101DC00002FCFFFF0000F07F0000F03F2DE9FF4F15
:101DD00092461D4685B04FF00041DDE9124BDDE92A
:101DE00014727F1E01EA4B50414940F0FF4940EA1E
:101DF0000108002122F020004928049102D04E2839
:101E000028D04CE03BA0012607C88DE80700A9694F
:101E10000698641C88477F1E014606D41DF80600FC
:101E200018B121F0200181420BD0E969069888475A
:101E3000032E34D0082E32D06FF0010009B0BDE877
:101E4000F08F761C032E01D0082EE0D1601CCAF85A
:101E50000000DCE7A9690698641C88477F1E2AD425
:101E600020F02000412826D1A9690698641C8847E3
:101E70007F1E20D420F020004E281CD1A96906988E
:101E8000641C88477F1E48F4002849F48009CAF87A
:101E9000004001D4282806D0E969069888475FEAFF
:101EA000CB7012D022E0A9690698641C88477F1E77
:101EB00001D4002803DAE96906988847BCE7292895
:101EC000F1D1641CCAF80040E9E71BF0240F07D0E9
:101ED00028680499031D2B600068C0E9001805E01C
:101EE0002868021D2A600068C0F800902046A5E717
:101EF0000000F07F494E46494E4954590000000009
:101F0000B2F120030AD5C2F1200301FA02F120FA4E
:101F100003F300FA02F041EA0301704700FA03F10B
:101F20004FF0000070475FEA400C08BF91F0000FCF
:101F30004FEA8C234FEAC12243EA51514FEA1C5029
:101F400018BF00F5F0404FEA300018BF41F00041E3
:101F50005FEA6C5C00F02980BCF1FF3F08BF40F0F5
:101F600080407047130C06BF12044FF0100C4FF066
:101F7000000C130E04BF12020CF1080C130F04BF67
:101F800012010CF1040C930F04BF92000CF1020C2F
:101F9000D30F04BF52000CF1010C11464FF00002A8
:101FA000A0F11F00A0EB0C00704711F0004F08BF1C
:101FB000704731F000413FF4D5AF0B0C06BF090468
:101FC0004FF0100C4FF0000C0B0E04BF09020CF187
:101FD000080C0B0F04BF09010CF1040C8B0F04BF9C
:101FE00089000CF1020CCB0F04BF49000CF1010C6D
:101FF000CCF12003A0EB0C0022FA03F302FA0CF25E
:1020000041EA030100F10100704720F07F4C80EAB3
:10201000030023F07F47ACEB070303F57C5300F08C
:10202000004003F1FF032DE980494FEA154B09B445
:102030004FEA144325EA0B4E24EA03480FF2042624
:1020400006EB132749083E785FEA320203FB066776
:10205000C7F5000707FB06F64FEA54374FEAD646A6
:1020600006F1020607FB066CCCF1005C4FEA1C4748
:102070002CEA074C07FB06F40CFB06F504EB1546AF
:102080004FEA961634BF00204FF000404FEAD13798
:1020900006FB07FC4FEA1C4C0CFB0BF7D21B03FBA7
:1020A0000CF761EB07010CFB0EF7B0EB074072EB8E
:1020B00017420CFB08F734BFA2EB0742B2EB074212
:1020C00061EB17414FEA0C444FEA910706FB07FC0E
:1020D0004FEA1C4C0CFB0BF7B0EBC74072EB5732CE
:1020E00003FB0CF734BFA2EBC742B2EBC74261EB74
:1020F00057310CFB0EF7B0EBC70072EB57720CFBBD
:1021000008F734BFA2EBC702B2EBC70261EB57710D
:10211000039F4FEA816141EA921104EBCC044FEA3C
:10212000D1374FEA826206FB07FC42EA90124FEA7F
:1021300080604FEA1C4C0CFB0BF7D21B03FB0CF727
:1021400061EB07010CFB0EF7B0EB074072EB174297
:102150000CFB08F734BFA2EB0742B2EB074261EB7E
:1021600017414FEA8C554FEA910704EB9C2406FB7C
:1021700007FC4FEA1C4C0CFB0BF7B0EBC74072EBB3
:10218000573203FB0CF734BFA2EBC742B2EBC74296
:1021900061EB57310CFB0EF7B0EBC70072EB5772D7
:1021A0000CFB08F734BFA2EBC702B2EBC70261EB2E
:1021B000577115EB4C254FEA816141EA92114FEAC4
:1021C00082624FEAD13742EA901206FB07FC44F1E3
:1021D00000044FEA80604FEA1C4C0CFB0BF7D21B4B
:1021E00003FB0CF761EB07010CFB0EF7B0EB0740AC
:1021F00072EB17420CFB08F734BFA2EB0742B2EBBD
:10220000074261EB174115EB1C154FEA813141EA9A
:1022100092414FEA823242EA90424FEA80304FEADE
:102220000C7644F1000448EA03434EEA0B484FF0B1
:10223000000EB2EB080C71EB030724BF624639466F
:102240004EEB0E0E4FF0000B0018524149414BEB84
:102250000B0BB2EB080C71EB03077BF1000B24BFF7
:10226000624639464EEB0E0E4FF0000B00185241FD
:1022700049414BEB0B0BB2EB080C71EB03077BF105
:10228000000B24BF624639464EEB0E0E51EA0207A0
:1022900018BF46F0010616EB0E7655F1000254F118
:1022A000000103D5BDE88901BDE80088BDE88901CA
:1022B000BDE80048B619524141EB0101A3F1010309
:1022C000704780807F7E7D7C7B7A797877767675A3
:1022D0007473727171706F6E6E6D6C6C6B6A6A691B
:1022E0006868676666656464636362616160605FB5
:1022F0005F5E5E5D5D5C5C5B5B5A5A59595858572E
:102300005756565555555454535352525251515095
:1023100050504F4F4F4E4E4D4D4D4C4C4C4B4B4BE8
:102320004A4A4A494949484848474747474646462E
:102330004545454444444443434343424242424169
:102340004141000046EA0646A3F570534FEA16469F
:1023500046EA42564FEAD22242EA415210B54FEACB
:10236000D121A3F1010300F017F820F0004000F1A3
:10237000010C00F0004701EB00501146BCF5006F66
:1023800040EA070000D210BD02484FF0000140EAC9
:10239000070010BD0000F07F002B26D4770021D06D
:1023A0001CB54FEA370703B44FF010004FF010018F
:1023B0004FF000000FBCBDE810400BF1010BBBF16A
:1023C000010F08BF5FEA170722BF12F1010211F1E6
:1023D00001014FF0004143F1000300F0004043EAE7
:1023E00000007047F9D35708DAE746EA064613F1CA
:1023F000400F4FEA16461FDD13F1200FDFBF1643D3
:102400000A46002120335B42C8D0C3F1200746EAC8
:10241000064602FA07F74FEA164646EA0706C3F1F0
:10242000200722FA03F201FA07F721FA03F14FF02D
:10243000000342EA0702B1E746EA020646EA064618
:102440004FEA164646EA0106BCBF46EA0646360C87
:102450004FF000034FF000024FF000019EE72DE91E
:10246000C048934630B491E8380007C831EA400CC0
:1024700048BF34EA430C03D5FFF7C7FDFFF78CFFD5
:10248000F0BCBDE800882DE9C048934630B491E81F
:10249000380007C831EA400C48BF34EA430C03D582
:1024A000FFF7B3FDFFF74EFFF0BCBDE800882DE954
:1024B000C048934630B491E8380007C810F0804F08
:1024C00008BF13F0804F03D100F019F8FFF764FF45
:1024D000F0BCBDE800882DE9C048934630B491E8CF
:1024E000380007C810F0804F08BF13F0804F03D1A9
:1024F00000F005F8FFF726FFF0BCBDE8008820F0EB
:102500007F4780EA030023F07F4C07EB0C03A3F521
:102510007C5300F00040A3F1FE0392F0000F00F0A6
:10252000B38095F0000F00F077802DE901494FEA64
:1025300011404FEA144621EA004800FB06FC24EA59
:10254000064708FB06F607FB08F800FB07F718EB41
:1025500006484CEB164C4FEA124B18EB07484FEA73
:1025600015464CEB174022EA0B4E0BFB06FC25EA06
:1025700006470EFB06F607FB0EFE0BFB07F71EEBEE
:10258000064E4CEB164C4FF000061EEB074E4CEB84
:10259000174B18EB0B0840F1000018EB0E0B58EB33
:1025A000000840F100008F1A4FF000013CBFC94302
:1025B000661B14BFB5EB040C00213CBFC943F61BDE
:1025C0004FEA17444EEA8E0E27EA04454FEA1C47AD
:1025D00004FB07622CEA074C05FB07F70CFB05F62A
:1025E00004FB0CFC16EB074642EB174216EB0C46BD
:1025F00042EB1C421BEB060658EB0202414146EA45
:102600009E0601D5BDE80189B619524141EB010191
:10261000A3F10103BDE801894FEA14454FEA1147D0
:1026200024EA054621EA074C05FB07F406FB07F7F9
:102630000CFB06F105FB0CFC11EB074144EB1744C6
:102640004FEA124711EB0C4144EB1C4422EA074CC1
:1026500005FB07F206FB07F70CFB06F605FB0CFC77
:1026600016EB074642EB174216EB0C4642EB1C45B5
:102670006A1854F1000148BF7047B619524141EB46
:102680000101A3F10103704795F0000F37D04FEA25
:1026900011424FEA144721EA024624EA074C02FBA2
:1026A00007F106FB07F70CFB06F402FB0CFC14EB2E
:1026B000074441EB17414FEA154714EB0C4441EB3B
:1026C0001C4125EA074C02FB07F506FB07F70CFB4C
:1026D00006F602FB0CFC16EB074645EB174516EB1E
:1026E0000C4645EB1C42121951F1000148BF7047DE
:1026F000B619524141EB0101A3F1010370474FEAC2
:1027000014454FEA114724EA054621EA074C05FB28
:1027100007F106FB07F70CFB06F24FF0000605FB7E
:102720000CFC12EB074241EB174112EB0C4251EB50
:102730001C4148BF7047921841EB0101A3F101030E
:10274000704700007CB55820124D8DF8040000261B
:102750004FF400642146284603F0D8FC0028F9D045
:102760002146284603F0D2FC0028F9D1012101A816
:1027700000F076F80321684600F06AF89DF8000042
:102780009DF80110304401EB00209DF8021001EB90
:1027900000207CBD000802403EB512A00421006864
:1027A000009011A00068019010A000680290684697
:1027B00000F056F8042102A800F052F80C4D4FF436
:1027C00000642146284603F0A1FC0028F9D1042129
:1027D00001A800F045F82146284603F097FC0028A0
:1027E000F9D13EBD1000400008A402800884028098
:1027F0000008024038B50BA00B4D00684FF4006490
:1028000000902146284603F081FC0028F9D021469B
:10281000284603F07BFC0028F9D10421684600F02B
:102820001FF838BD68040001000802401CB506A06E
:10283000D0E90010CDE900100521684600F010F83D
:10284000012003F065FA1CBDFFFFFFFFFF00000041
:102850000A4601460123014804F058BE48A301205E
:102860000A4601460123014804F038BF48A301206D
:102870001CB507A004210068009006A00068019024
:1028800001A8FFF7EDFF04216846FFF7E9FF1CBD33
:10289000080400011000400010B51E4C01222DED6F
:1028A000028B0421204603F036FC1B4803F078F924
:1028B000C821194803F03EF9174803F0F9F814F05D
:1028C00073FA41EC180B144803F0AEF9002204210E
:1028D000204603F020FC9FED110B51EC180B53EC3C
:1028E000102B14F0B1FA9FED0F1B53EC112B14F0C9
:1028F00053F89FED0E1B53EC112B14F0A5FA9FED2E
:102900000D1B53EC112B14F09FFABDEC028B41EC24
:10291000100B10BD00080240C0A101200000000003
:10292000000010400000000000000840000000000F
:102930000000303F6666666666660A404A4910B522
:10294000D1F8042322F44032C1F80423D1F804233F
:1029500043681A43C1F8042301684A6822F480726C
:102960004A6001684A68036942EA03224A600168D2
:102970004A6822F040724A6001684A6883681A43D4
:102980004A6001688A6822F400628A6001688A6885
:10299000C3681A438A60C16A6FF07062D1420168ED
:1029A0008A6822F070628A6001688A680CD0C36A03
:1029B0001A438A6001688A6822F040528A6001687E
:1029C0008A68036B1A4301E022F040528A60016872
:1029D0008A6822F002028A6001688A68836942EA92
:1029E00043028A60416A002901684A6815D042F4AE
:1029F00000624A6001684A6822F460424A600168E5
:102A00004B684FF46044826A94FAA4F4B4FA84F4F4
:102A1000521EA24013434B6002E022F400624A605F
:102A20000168CA6A22F47002CA620168CA6A038C29
:102A30000E4C04EB03531A43CA6201688A6822F4FD
:102A400000728A6001688A68C36942EA43228A6028
:102A500001688A6822F480628A6001688A68406935
:102A600042EA8020886010BD002001400000F0FF95
:102A7000C2B24FF40041014803F04DBB001C0240BC
:102A8000C2B20821014803F046BB0000002002400A
:102A90002DE9FE4F9A46DDE90C4917468846054662
:102AA0000E9E02F04DFF01460F4BC5EBC50053F8DB
:102AB000202003EB8000836801FB0322C16840698A
:102AC00007FB018303FB002206EBD670C4EB60001A
:102AD000091BCDF80090CDE9010123465146284657
:102AE00000F02EFCBDE8FE8F6C7D012070B500204B
:102AF00000F042FCFFF7D0FE9FED2A1B51EC100BBB
:102B000053EC112B14F064F90FD264200DF02AFB62
:102B1000642003F0FDF864200DF024FB642003F032
:102B2000F7F864200DF01EFBFEE74FF4FA7003F097
:102B3000EFF8012000F020FC0DF02CFB07F094F9D9
:102B4000012007F01BF801229102184803F0E3FA74
:102B500001F00AFF07F02AFC012005F097FD0DF0B7
:102B600013FB742212491348FDF79DFE4FF47A7649
:102B7000324611491148FDF796FE0E4C41F2BE5502
:102B8000206FA8420AD074212046FDF7E8FE3146A6
:102B90000A48FDF7E4FE256700F0C6FEBDE8704078
:102BA00006F0A0BA3333333333330B4000180240FE
:102BB00000001F082CE9012000001E0844E5012048
:102BC000FEB515460C46064602F0BAFE0B4FC6EBA4
:102BD000C60257F8223000FB043100FB053007EB3A
:102BE000820400232269CDE9002302930246304685
:102BF000E36800F0A5FBA560FEBD00006C7D012030
:102C00002DE9FE4F9846DDE90C9416460F46054621
:102C1000DDF838A002F094FE02461149C5EBC5006C
:102C200051F820C001EB80004168C36802FB01C17C
:102C300006FB03774669406807FB061102FB00C7E5
:102C400009FB038000FB0672181B0026CDF800A0CC
:102C5000CDE901062346284600F072FBBDE8FE8F51
:102C60006C7D012038B5010A8DF800100A4D8DF8F1
:102C700001004FF4806400222146284603F04BFAFD
:102C8000C82302226946054804F028FD0122214696
:102C9000284603F040FA38BD00180240F8A301208E
:102CA0002DE9F04100282DED088BB0EE608AF0EEA2
:102CB000408A69D03C4900260E6014F075F841EC5A
:102CC000110B9FED3A0B53EC112B51EC100B13F041
:102CD00063FE14F025F8B1EE041ADFED3A0A88EE2F
:102CE000810A9FED349B9FED35AB384F054600249C
:102CF0004FF4C87860EE20BA68EE200A80EE810AB0
:102D0000DFED310A30EE20BA204614F04DF853ECD6
:102D1000192B14F099F853EC1A2B13F03DFE41ECEB
:102D2000100B0CF0D1FCB0EE408AF0EE608A1BEE86
:102D3000900A14F0D9FB53EC182B14F085F841ECF1
:102D4000180B1BEE100A14F0CFFB53EC182B13F0EA
:102D500067FD13F0E5FF27F81400641C4445D3D346
:102D60001A484FF080413C386D1EC0E90016C0E99A
:102D70000265066104F003FFBDEC088BBDE8F0417D
:102D800012483C3804F042BF10483C3804F04AFF77
:102D90000E483C3804F0D7FEBDEC088B47F6FF70B8
:102DA000BDE8F041FFF75EBF90000020000000008A
:102DB00080A209414AD8124DFB21194000000000B1
:102DC0000000794000FF7F4700FEFF46588E01203B
:102DD00010B50B460C0601F07F0202EB820100EBFE
:102DE000C10102D501F58E7101E001F55D710A7036
:102DF000DA094A7008F06EFA002010BD0A4610B5D4
:102E0000090602F07F0306D503EB830100EBC10145
:102E100001F58E7105E002EB820100EBC10101F5C5
:102E20005D7100248C700B70D2094A7008F039FA79
:102E3000002010BD10B50A0604D501F07F0108F08E
:102E40005BFB01E008F03AFB002010BD70B50D46B9
:102E50000E0601F07F0404EB840100EBC10102D5F2
:102E600001F58E7101E001F55D71ED090C704D7099
:102E70008A60CB7000D0CC80022B01D100220A7175
:102E800008F0E6F9002070BD10B501F07F0404EBF6
:102E9000840100EBC101C1F88833C1F8802300230D
:102EA000C1F88C3381F8753381F87443C37801F528
:102EB0005D71012B00D10A6114F0FF0F03D008F0FF
:102EC0003BFA002010BD08F054F9FAE7006900222F
:102ED00061F30A1201681143016070470A4610B598
:102EE000090602F07F0306D503EB830100EBC10165
:102EF00001F58E7105E002EB820100EBC10101F5E5
:102F00005D7101248C700B70D2094A7008F0FCF9D5
:102F1000002010BD70B511F07F0404EB840100EBBC
:102F2000C1014FF0010581F81D5181F81C41C1F824
:102F30002821C1F82C2101F58E714FF00002C1E962
:102F4000053203D008F0F8F9002070BD08F011F93F
:102F5000FAE700002DE9F0410646002408F015FBD1
:102F6000074655E0F80751D03069E1B20369426B7A
:102F7000CA4006EB810102F00102896943EAC212EC
:102F80008D681540E9071AD00125426B05FA04F156
:102F90008A43426306EB8400806985601F48E1B282
:102FA0000068426830469047F078012807D134B96C
:102FB00096F81101042802D1304608F037F92807A5
:102FC00004D506EB8400082580698560E80604D5F1
:102FD00006EB8400102580698560680604D506EB41
:102FE0008400402580698560A80704D506EB84002D
:102FF000022580698560280608D52146304600F004
:1030000066F906EB84018020896988607F08641C6A
:10301000002FA7D10120BDE8F08100009C15002001
:103020002DE9F0410546002408F0B5FA0746DFF81F
:10303000988043E0F8073FD0E1B2284608F0B1FAA3
:103040000646C00725D005EB84000126416D8E6041
:10305000E97801290CD1406D016904EB840005EB8E
:10306000C000C1F31201D0F87C23511AC0F88C13B0
:10307000D8F80000E1B2026828469047E8780128B5
:1030800007D134B995F81101052802D1284608F076
:10309000CDF8B00704D505EB84000226406D8660AC
:1030A000300709D5D8F8000081682846884705EB25
:1030B00084010820496D88607F08641C002FB9D105
:1030C0000120BDE8F08100009C15002070B5054688
:1030D000C068816921F010018161E868066A06F024
:1030E0000F0000EB800005EBC004C6F3434004F57D
:1030F0005D74072821D2DFE800F020200420202082
:10310000150047F6F070064217D0C6F30A1632468D
:103110002846E16808F04DFAE0683044E060A069B4
:10312000304409E0082205F2CC51284608F041FA63
:10313000A069C6F30A110844A061E868816941F0FA
:1031400010018161012070BD38B5044600208DF862
:10315000000094F812018DF80000154800684169DC
:103160002046884720698068E2684FF40061516119
:10317000A17AD1B1C00718D094F81501012814D153
:103180009DF80000032810D1D4F80C01016841F02B
:1031900001010160D4F80C01016841F003010160F4
:1031A0000448016841F006010160012038BD0000BB
:1031B0009C15002010ED00E070B504460069002564
:1031C0000126416821F0010141602946204608F0AE
:1031D00093F90020FF2206E004EB80018B699A60DE
:1031E000496D8A60401C61788142F5D821694FF0B1
:1031F000FF3088612846216966F30F0066F31F409F
:10320000C861216945F00B004861216945F00B0058
:1032100008612069016821F4FE610160204608F020
:1032200005F8E1684FF4805048610348006801697F
:1032300020468847012070BD9C15002070B50446CB
:1032400008F0C8F90120002384F8120184F8143131
:103250001A46402510E002EB820104EBC10181F81F
:103260001D0181F81C21A1F8222181F81F31C1E93B
:103270004953521CC1F8303161789142EBD800209B
:1032800010E000EB800104EBC10181F8753381F897
:103290007403A1F87A0381F87733C1E9DF53401C46
:1032A000C1F8883361788142EBD8204607F03CFFB3
:1032B000204607F037FE0021204608F0EBF92046B3
:1032C00007F070FE2046BDE8704008F0EFB82DE929
:1032D000F0470E4601EB860100EBC1048146D4E9BC
:1032E0004C01401AD4F8241104F58E74814200D2A6
:1032F0000846C01C870809EB860812E0451AA0683A
:10330000A84200D20546E81C8708ABB2F2B2484694
:10331000E16808F0D4F9E0682844E060A069284436
:10332000A061D8F81800806980B2B84205D9D4E904
:103330000501814201D20028E0D10120BDE8F087DB
:10334000F0B50C48DDE905574FF4007C079E0124D9
:10335000C0F800C0C160C26307610664C46163F362
:103360001F454564016841F0010101600168C9071A
:10337000FCD1F0BD00B0024010B5040004D10648F5
:10338000007808B100F0D0FAE2B2BDE810400421A4
:10339000024802F0C0BE000094EF0120001002407D
:1033A00010B5002400F082F804E0641CE4B20120AF
:1033B0000DF006FF00F01AF810B1C82CF5D30DE09F
:1033C000C82C0BD2002404E0641CE4B201200DF0F0
:1033D000F7FE00F00BF818B1F02C04D3012010BD5B
:1033E000F02CF1D3FAE7002010BD00000548406C36
:1033F000012804D04FF48041034802F087BE202109
:10340000FAE700002CE90120000002400549496C60
:10341000012905D04FF48041C2B2034802F07BBEBF
:103420002021F9E72CE901200000024010B500F04E
:10343000B0F800F09CF8FFF7B3FFCC2000F0B6F82E
:10344000BE2000F0B3F800F083F8044600F080F8E6
:10345000072805D9C043E143CCB2C0B2002100E047
:10346000012104EB002000B201B9404200B213F088
:1034700084FC9FED0A1B53EC112B13F0E5FC13F0B9
:103480001FFC13F07AFC9FED071B53EC112B13F07C
:1034900083FA13F093F900EE100A10BD000000004B
:1034A0000000E43F000000000000244000B50A488E
:1034B00085B0406C01280DD04FF480400090002072
:1034C00001900290022003906946044802F030FD0A
:1034D00005B000BD2020F1E72CE9012000000240EA
:1034E00000B50B4885B0406C01280ED04FF48040E9
:1034F0000090012001900020029002200390694674
:10350000044802F015FD05B000BD2020F0E70000E2
:103510002CE901200000024010B5FFF7E1FF002078
:10352000FFF774FF02200DF04BFE0120FFF76EFF46
:10353000FFF7BCFF0C200DF043FEFFF757FF08B16B
:10354000012400E0002432200DF03AFE204610BD98
:1035500070B500250124FFF7DFFFC001641C40EABD
:103560005500E4B2C5B2082CF5D9284670BD10B597
:10357000FFF7B6FF0020FFF749FF40F2EE200DF005
:103580001FFE0120FFF742FFBDE810400F200DF0A5
:1035900017BE10B5FFF7EBFFFFF702FFCC2000F0DE
:1035A00005F8BDE810404420AFF3008070B5054633
:1035B000FFF796FF012415F0010F4FEA55054FF074
:1035C000000009D0FFF722FF02200DF0F9FD0120D5
:1035D000FFF71CFF3C2008E0FFF718FF3C200DF030
:1035E000EFFD0120FFF712FF02200DF0E9FD641C42
:1035F000E4B2082CDFD970BD0C4A10B50346147A2A
:103600000120012C11D8107A00241454107A02EBF6
:1036100080004360107A431C1372303008703A20E7
:1036200048702F208870CC70204610BD607D00202F
:10363000002229B1012922D0022923D04FF440725F
:103640000B2800D9001D11490B6823F440730B604F
:103650000B6813430B600A6822F0F8020A600A68DC
:10366000F82393FAA3F3B3FA83F3984040F00200EF
:1036700002430A60086840F48030086070474FF4E5
:103680008072DDE74FF40072DAE70000103C024080
:103690000D48026822F44072026002680260032949
:1036A0000AD0012901680CD041F400410160016891
:1036B00041F4803101607047016848F2040211430F
:1036C000F4E741F00401F1E7103C0240064A1368B8
:1036D00023F44073136013681360136843F001030D
:1036E0001360017070470000103C0240084910B59B
:1036F0000C6824F440740C600C6844F440740C6052
:103700000C6844F001040C600260436010BD0000CE
:10371000103C0240074A136823F440731360136897
:1037200043F480731360136843F001031360018056
:1037300070470000103C0240074A136823F44073AE
:103740001360136843F400731360136843F00103BC
:103750001360016070470000103C02401649086881
:10376000C206164803D5C26942F01002C2610A6857
:10377000920603D5C26942F00802C2610A68520685
:1037800003D5C26942F00402C2610A68120603D579
:10379000C26942F00202C2610A68D20503D5C26959
:1037A00042F00102C2610968890703D5C16941F08D
:1037B0002001C161704700000C3C0240F817002056
:1037C00070B50F4904460020C86102F0A9FC054607
:1037D0000C4E09E0601C07D024B102F0A1FC401B94
:1037E000A04201D9032070BD3068C003F2D4306814
:1037F00010F4F970F7D0FFF7B1FF012070BD0000A1
:10380000F81700200C3C024030B5D1E901231A43DF
:10381000D1E9033423431A434B690D681A438B697A
:103820001A43D1E90734012D496A05686FF30E0583
:1038300005D01A4322430A432A43026008E0234387
:1038400029430B43416803606FF30E010A43426052
:10385000002030BD426942EA4101416100207047C9
:10386000F8B514460546D1E9000210438A686FF0A6
:103870001F03C96803EB421242EA4121084300904A
:10388000286102F04DFC0646A86980060BD5601C35
:1038900007D024B102F044FC801BA04201D90320D0
:1038A000F8BD0120F8BD0020F8BDF0B56FF00F05A0
:1038B000D1E9003405EB04145B1E2E0123438C6810
:1038C0002F0306EB04244FEA054C23430D8A8E8A0E
:1038D000CC68097E4FF07F4E07EB05450CEB065692
:1038E0000EEB0161012A0CD082683F1107EB043412
:1038F00023432B43334302F070420B431343836053
:103900000FE0C2682B430B4302F0704281681343FF
:1039100001F070422103A1F5805131431143C3608E
:1039200081600020F0BD0000F0B587B0002000905D
:10393000022004900190012003901720029002F0D1
:1039400087FA05A9684602F0EFF90F4D0F4E0024E3
:103950004FF47A772A59A119D317022002F03AFAC4
:10396000241DBC42F6D30A4D0A4E0024A1192A593F
:103970000220D31702F02EFA241D742CF6D302F085
:103980001FFA07B0F0BD000044E5012000001E084A
:103990002CE9012000001F082DE9F0430446C5680A
:1039A00087B090468946002001F038FA064625B1D6
:1039B000287910B146F0020001E026F0020001F083
:1039C0002DFA2069012558B1D4E902128DE82600AC
:1039D000039563882288046841464846A0471EE054
:1039E000124F134B214638681B68427CE0689847A9
:1039F00030B9E088012801D0002001E03868806BF0
:103A0000A288E388A1680095CDE90410CDE90232CF
:103A10000195638822884146484604F025FB07B09B
:103A20003046BDE8F04301F0F9B90000641600200B
:103A30005C1600202DE9F04FDFF828B191B04FF06F
:103A4000FF35DBF80030B3F922100691DE69B3F9D7
:103A50002490F469A189814206D8E289824203D385
:103A6000471AD4F8008012E0D4E9018100296FD010
:103A70000A8882426CD84D88854269D3801A82B206
:103A8000486800EB8200B0F90070B0F90250781C71
:103A90005ED0307EA17C10FB01FA217CCDE90701CC
:103AA000B3F92A60304604F085FFC0B20E90DBF80F
:103AB000000007FB0A81A37C826B0127CDE9041279
:103AC000CDE90273C069089AC17E807ECDE900010C
:103AD000DDE90603494604F0C7FA681C18D046F031
:103AE000020004F067FFDBF80000A37C05FB0A81FD
:103AF000826BCDE90273CDE90412C069089AC17ED8
:103B0000807ECDE90001DDE90603494604F0ACFA08
:103B1000DBF800005D46C069417E007E814214D919
:103B2000022E12D086F0040004F044FF2868C06919
:103B3000027EC37E12FB0391437E857E089A06981F
:103B40004B4412FB050204F0F1FB0E9804F032FF27
:103B5000DBF80000627C418C1144418411B0BDE867
:103B6000F08F00006416002004480068C069C06936
:103B700009B1027C0A60407C704700006416002096
:103B8000022008807047C06982898A4202D8C289AF
:103B90008A4210D2806880B102888A420DD8438858
:103BA0008B420AD3406800EB8100A0EB8200B0F9A1
:103BB0000000002801DB0120704700207047000052
:103BC000F0B5254C054687B020682946B0F92A6033
:103BD000C069C06900F04BF900283AD041680088FC
:103BE000281A01EBC0053046AF7804F0E3FE064624
:103BF0001A48D0F800C0BCF1000F15D00021686849
:103C0000CDE904010422012001A9009081E885008A
:103C10002068DCF800702A78C1690B7EB0F92410A6
:103C2000B0F92200B8470CE06868CDE90070206860
:103C30002A78C1690B7EB0F92410B0F9220000F097
:103C40007DFA304604F0B6FE20686A78418C114453
:103C5000418407B0F0BD00006416002090160020DB
:103C600070B505460B480C4629460068C069C06916
:103C700000F0FDF800280BD0416800882A1A0120C6
:103C800000EBC200002C085C02D011F83210216059
:103C900070BD00006416002011200880704710B528
:103CA000C06900F0E4F8002800D0012010BD000039
:103CB0002DE9F043304C034687B020681946B0F92F
:103CC0002A60C069C06900F0D2F8002850D041686D
:103CD0000088181A01EBC0053046AF7804F06AFE80
:103CE000814620686A680123816BCDE90237CDE9FE
:103CF0000421C169CB7E8A7ECDE900230B7EB0F919
:103D000024102A78B0F9220004F0AEF92068C069C6
:103D1000417E027E91421FD9C07E11FB00F812FB4A
:103D200000F7022E18D000F0ADFD064600F078FD39
:103D300001F063F821682A78CB69B1F92200DB7EB3
:103D400012FB0302B1F9241001EB0803394404F01B
:103D5000EDFA304601F051F8484604F02BFE206899
:103D60006A78C369B0F922109B7E12FB031141846B
:103D700007B0BDE8F0830000641600202DE9F34190
:103D80001C4E0F46002530682C46C069417EC07E1F
:103D900011FB00F81DE0684601F0AAF805463068FE
:103DA0002946C069C06900F029F890B141680088CF
:103DB000281A00EB400001EB800090F90210007916
:103DC00008443168C969897E10FB01F0002800DDD4
:103DD00004447F1EDFD51DB1284601F06BFC04446E
:103DE0004146204608F016FA034901200870BDE854
:103DF000FC810000641600200017002006E0028805
:103E00008A4202D842888A4202D280680028F6D1CB
:103E10007047000030B50F4C05460B462068294618
:103E2000C069C06900F023F8002812D041680088FA
:103E300024682A1A0120E46900EBC200085CA47E11
:103E400010FB04F0002B04D011F8321011FB04F128
:103E5000196030BD6416002001200880704700B54D
:103E6000C06900F004F8002800D0012000BD06E081
:103E700002888A4202D842888A4202D28068002898
:103E8000F6D1704770B500250F4C19E020690F4935
:103E9000C5EB051600EBC60070220968001DFCF793
:103EA00002FD2069002140F8361000EBC60000F149
:103EB0000C018161011D0A1DC0E90F126D1C4164D6
:103EC000A0688542E2DB70BD081700206416002060
:103ED00070B50E490C480860084601F003FD0B4C14
:103EE000143CA068C0EB0010C500284600F094F90F
:103EF0002A460021206101F0FDFC4FF0FF302060D8
:103F0000BDE8704001F066B871E200081C1700209F
:103F10002DE9FF4F85B00546DDF848800C464FEA95
:103F20004800511B9A469146091A7DD4AAEB040118
:103F3000081A79D400F04CFDDFF804B1002002909B
:103F4000DBF8000090F8691021B910F8681F0291A1
:103F50000421017007F0E2FE471907F0EDFE061993
:103F600007F0DCFE00EB090507F0E6FE00EB0A04B3
:103F7000DBF8000090F8691039B990F86800474301
:103F800046434543444308FB00F800F0A9FC2C4994
:103F9000096891F8682010FB02F000F0FF094FEA71
:103FA0005900511C49083B1A0B440593331A0B4422
:103FB0005F1E2B180B44A3F1010B23184044A0EB08
:103FC000520503EB010A059800F04CF8ADF80C001F
:103FD000584600F047F8ADF81000384600F042F8B7
:103FE000ADF80E00504600F03DF8ADF8120003A801
:103FF00007F0CEFE13E0DDF814805C464E465946CD
:10400000404600F08FF8CDE9005653462246394627
:10401000404609F0E5F800F015F807F05FFE0028CB
:10402000E9D10748006800E007E090F8691011B98D
:10403000029980F8681000F0AFFF09B0BDE8F08F7A
:104040006416002010B509F0E9FD0448016A04482F
:104050000068416600F10801416110BDC4160020EE
:10406000641600200449096891F8681009B190FBB2
:10407000F1F000B270470000641600202DE9F04115
:10408000224C05460E462068002788B92048006863
:10409000E06110B904F015FAE06100F0BDF82060AD
:1040A00080B31A491B4824310860084601F01AFC05
:1040B00019480068854200DA0546E169731B4A1E0B
:1040C0002046934201DD6E18761EAE4201DA2E467E
:1040D0000127124C2268516E4B68836301620B49C1
:1040E0000F4B34310B60516602C880E8620008F063
:1040F0007DF808F05DF8054821682C3048613846A5
:10410000BDE8F081FFE70127D2E70000C4160020D8
:10411000881600205DE200088C160020641600203E
:10412000E1D00008044A126892F8682090FBF2F08F
:1041300091FBF2F1FFF7A2BF641600207CB5084E98
:10414000DDE906543668367CCDE90054B60702D462
:1041500008F03CFF7CBD034C2468A0477CBD0000F8
:10416000641600202016002010B5040009D000F0CD
:104170002FFC204607F0BEFF044600F00DFF20464E
:1041800010BD002010BD38B5054600F021FC2846C2
:10419000FFF7EAFF040009D000F096F82A46002154
:1041A000009001F0A7FB684600F09CF800F0F4FED8
:1041B000204638BD024A106021F00300506070476D
:1041C0006004022010B5040016D000F001FC0B487A
:1041D000006B10F8341059B1022909D2042101EB07
:1041E000C4014158486807F049FF20460AF0A2F888
:1041F000BDE8104000F0D0BE10BD0000A4030220B6
:10420000002805D0034A916B016001B148609063BA
:1042100070470000A40302202DE9F041044609F094
:104220003BFF2848E41C24F00305C16B2D1DA94267
:1042300000D90D46846B13E054F8042CAA420ED129
:1042400084B1216809B162684A60616809B1226875
:104250000A60826BA24231D1216881632EE024681A
:10426000002CE9D18046416B80680F1857F8040C88
:104270003E1A306838B100200AF08AF857F8040C6A
:104280003E1A3068D0B97068A84217DB3044441B2E
:104290003046241D0AF062F8D8F80810491BC8F807
:1042A0000810D8F810102944C8F810107068401B86
:1042B00002D0314607F0E2FE44F8045C2046BDE837
:1042C000F0810000A403022005498A69521C8A611A
:1042D000096B01EBC0010A78521C0A7000F01AB891
:1042E000A40302200A4902680B6B52F8082C03EB66
:1042F000C2021378022B03D38B690BB15B1E8B6157
:104300001178491E117000210160084670470000B5
:10431000A4030220002806D00349042202EBC000B7
:10432000096B085808307047A4030220F0B52D2708
:104330001C68B0F1004F08D0002600280DDA651C7B
:104340001D6027704042012408E0651C01261D60A5
:104350006FF000402770491E01E00024091BC9B21C
:104360002AB3491EC9B222E00C46491EC9B2944282
:1043700005D1124C27781C68651C1D602770104CF5
:1043800054F8215090FBF5F4E4B20A2C11D804FB48
:10439000150011B90EB1641CE4B20A2C02D101243B
:1043A000491CC9B21D686F1C30341F602C70002975
:1043B000DAD1196800200870F0BD000058160020FE
:1043C000B0CA030810B5C2B2CBB2D21A00D552425D
:1043D00093B25B43C0F30722C1F30724121B00D53D
:1043E0005242000C92B2A0EB114002FB023200B22A
:1043F000002801DA404200B280B200FB002010BD6C
:1044000010B50021084600F09DFA43F6FF725042B5
:10441000BDE8104013460146AFF300802DE9FC4192
:104420001C4615460E46074600F0D2FA042004F05A
:10443000C1FA80461248C068C16C006D0F44064442
:104440000D440444ADF80070ADF80450ADF80260BE
:10445000ADF80640684607F09BFC07E023462A4675
:104460003146384603F062FF07F038FC0028F5D1EA
:10447000404604F09FFA00F08FFDBDE8FC8100008B
:10448000581600202DE9F0411C4616460D460746F9
:10449000022B02DB0020BDE8F0811C20FFF7BCFEF0
:1044A0000028F8D00DB105610AE0094A52F824103D
:1044B00009B905E011460A68002AFBD109690161C2
:1044C00084618682002101604160C0E90217E2E751
:1044D0007C16002070B51D46FFF7D4FF040009D0FC
:1044E00000F00EF8E068006820B90348006800EBAF
:1044F00085008465204670BD64160020FFF780BEED
:1045000070B590B38269022A30DA1E4C54F822103A
:1045100019B944F8220032E019464B68002BFBD150
:1045200006E0CB68C5681B682D68AB4203DD0968EF
:104530000029F6D11AE0C1B1CB68C6681B6836689D
:10454000B3420CD1838A012B05D008E01946DB6801
:104550001B68AB4203DB0B68002BF7D129B14B681A
:1045600033B118604A68426004E0FFE7012070BD83
:1045700044F822004860884200D1002101600020F8
:1045800070BD00007C16002010B503E00468FFF742
:10459000B7FF20460028F9D110BD0AF0ABB90000E2
:1045A0002DE9F0410026DFF834800D4F354600BF7D
:1045B00058F8254009E0E0680068385C20B12046E2
:1045C0000AF098F9266026462468002CF3D16D1C69
:1045D000022DEDDB3046BDE8F08100007C160020A6
:1045E00014AE0308022801DB00207047054951F88A
:1045F000200004E0C16809680029F6D0006800289E
:10460000F8D170477C1600207FB51E4614460D4633
:10461000CDF80CD003AB00223146FFF787FE2246CF
:104620002946684600F086F87FBD00002DE9FC476A
:1046300006005FD000F0CCF900F030F93C4C814628
:104640002068B0F9228000F057F9216807468A8C6B
:10465000D01B888441E000BF47F6FF71304601F06F
:104660000DF882460146304600F0DEFF216805461F
:1046700091F82C0000F00300012841D002283BD023
:1046800000204A8C101A4884ADF800006A1E1044BD
:10469000ADF80400888CADF80200A9F101010844CE
:1046A000ADF806006A465146304600F08DFD21689F
:1046B000BDF8020088845146304600F02FFC0644C5
:1046C00030780A281ED00D281CD0BDF800002168C3
:1046D00028444884307818B1761C30780028BBD143
:1046E0002068818C39448184818D21F0030181858A
:1046F00000F052FCBDE8FC8705EBD5704010C0E728
:104700002846BEE7206890F82C1001F0030101292B
:104710000BD0022909D0018C418431780A29D9D1E2
:10472000828C02EB09018184D4E7A0F82280F4E7AF
:104730006416002070B514460D46064600F048F990
:1047400005480068458484843046FFF76FFFBDE864
:10475000704000F021BC0000641600202DE9FC41EF
:1047600014460D46064600F033F9114F3968C86CFF
:10477000096D054404440E44ADF80050ADF8044002
:10478000ADF80260ADF80660684607F001FB08E08E
:10479000386822463146406E03682846984707F03D
:1047A0009DFA0028F4D100F0F7FBBDE8FC81000081
:1047B000641600202DE9FC411C4615460E460746AE
:1047C00000F006F910480068C16C006D0F44064403
:1047D0000D440444ADF80070ADF80450ADF802602B
:1047E000ADF80640684607F0D3FA07E023462A46AC
:1047F0003146384603F09AFD07F070FA0028F5D1EB
:1048000000F0CAFBBDE8FC8164160020034951F8A2
:104810002000C1688A6A0821104700007C16002029
:1048200010B500F0D5F803F0B1FD03F073FE0446B7
:1048300000F0B2FB204610BD10B5044600F0C8F8E9
:10484000054800210068C069426820469047044638
:1048500000F0A2FB204610BD6416002070B50C4687
:10486000054600F0B5F8064821460068C069426870
:1048700028469047044600F08FFB204670BD00009C
:104880006416002010B500F0A3F803F087FD03F0D4
:1048900041FE044600F080FB204610BD10B500F03C
:1048A00097F804480068C069447E00F075FB204614
:1048B00010BD00006416002070B514460D46064673
:1048C00000F086F822462946304603F0D9FD10B1A3
:1048D000002028602060BDE8704000F05DBB000053
:1048E00010B500F075F803480068047E00F054FB32
:1048F000204610BD6416002010B5002400F068F8B2
:104900000B48006890F82C1001F00C01042904D029
:10491000082906D00C2907D103E0C069047E641E73
:1049200002E0C069007E440800F036FB204610BD5E
:1049300064160020024951F8200000694068704761
:104940007C16002070B50D46044600F041F8204664
:1049500009F024FB0446284609F028FB044300F034
:104960001BFB204670BD0000134810B5016821F004
:104970000101016011480121816011490160006855
:104980001049884200D0FEE700F002FC0E492E20BC
:10499000087000F01EFB0D4809F046FB0DF032F8E0
:1049A00004460021084600F055FA07F005F8FFF725
:1049B00069FA204610BD0000002000E000300240EF
:1049C000C2A507F4CDB5E8B5581600206C04022046
:1049D00070B5214CE06820B100F0F9FA61688842B6
:1049E00004D000F009FB00F0F2FA6060E068401CBF
:1049F000E06001282AD100250BE000BF00F0E7FAB3
:104A00002269C5EB051152F83110814205D0F1B190
:104A10006D1CA0688542F1DB00252068854215D019
:104A2000002812DBFFF7BCFD2168C1EB01122169F0
:104A300001EBC2025067C5EB0510084A01EBC0004C
:104A4000011D1160406FFFF79FFD256070BDC5EB34
:104A5000051142F83100E0E7081700206416002035
:104A600038B504001CD0FFF7B3FF0E480068006E95
:104A7000A04201D100F090F92046FFF725FC0090FC
:104A8000406908B100F072FA00980068FFF736FD3F
:104A90006846FFF727FC2046FFF794FB00F07CFAFE
:104AA00038BD00006416002038B50446FFF790FFBB
:104AB0002046FFF709FC00F1180400906846FFF754
:104AC00011FC00F069FA204638BD00002DE9F74FCF
:104AD0008EB0144689460E98FFF7F6FB0990B0F9A0
:104AE00008B0B0F90A600068006940680C9009A835
:104AF000FFF7F8FB564D574F2868407C57F82000C9
:104B0000C1688A6A082190470790182801D320209D
:104B100007902868407C57F820000069069003C879
:104B20000B904D48814201D0012000E000200A9006
:104B3000002000F06FFA00287DD1286809EB0B01F6
:104B4000B0F90C20891A491E002902DDABEB0105E2
:104B500000E05D46B0F90810494505DDA1EB09010B
:104B600089446D1A089101E000210891002D6BDD48
:104B7000B0F90E20A119891A491E002902DDA6EB01
:104B8000010800E0B046B0F90A00A04204DD061BAF
:104B90003444A8EB060800E00026B8F1000F53DD0E
:104BA000089801900DA95F46DDF830A00E9800919D
:104BB000FFF77AFF774300EB870101982B4601EB63
:104BC000800200994846CDE900A1214600F054FB3F
:104BD0000090002838D00A98E8B1DDE9063229466D
:104BE000009800F022FAB0B90698009FDA46D0F893
:104BF00010C0BCF1000F05D004235A463946384690
:104C0000E04708E00B993868884701C7AAF101001E
:104C10005FEA000AF6D100990020079ACDE9030166
:104C2000059001200090CDE9010221460346641C55
:104C30002A46484600E007E003F016FAA8F1010012
:104C4000761C5FEA0008ABD111B0BDE8F08F000020
:104C5000641600207C16002033850008094A12687B
:104C600002B10020074A1C3252F82030002B07DB2B
:104C7000A2F1180343F820104FF0FF3142F8201042
:104C8000704700009816002010B5002821D009B305
:104C90000AB3B1F90040B2F900309C4200DA234671
:104CA0000380B1F90240B2F902309C4200DA234697
:104CB0004380B1F90440B2F904309C4200DD234640
:104CC0008380B1F90610B2F90620914200DC11464A
:104CD000C18010BD11460A6802604968416010BD7C
:104CE00000280BD003880B440380838819448180FB
:104CF000418811444180C1881144C180704700003F
:104D00002DE9FC41154DDDE908742D68B5F9086001
:104D1000864200DD3046B5F90C60964200DA324634
:104D2000824219DBB5F90A608E4200DD3146B5F9E1
:104D30000E509D4200DA2B468B420DDB00E02C46E4
:104D4000E5682D6825B1042D02D02568002DF6D127
:104D5000CDE9007403F0E2FCBDE8FC81641600209C
:104D6000B0F90220B1F906309A4213DCB1F9022001
:104D7000B0F906309A420DDCB0F90020B1F90430E8
:104D80009A4207DCB1F90010B0F90400814201DC5D
:104D9000012070470020704710B5FFF719FE03F09F
:104DA00089FD03F0A7FE06F0C9FCBDE8104000F045
:104DB000F3B8000070B5094D04462868467CFFF73B
:104DC00007FE022C03D228684474FFF7E5FF04486D
:104DD000046000F0E1F8304670BD00006416002069
:104DE0004417002010B50446FFF7F2FD204603F0FB
:104DF00081FDBDE8104000F0CFB810B50446FFF7C4
:104E0000E7FD204603F0AEFDBDE8104000F0C4B859
:104E100001498860704700005816002010B504460C
:104E2000FFF7D6FD204603F0C5FD044600F0B4F8B8
:104E3000204610BD70B50446FFF7CAFD044800685F
:104E4000C56904B1C46100F0A7F8284670BD000030
:104E50006416002070B50C460546FFF7B9FD0948F9
:104E6000224605800848048008480068417C0848BC
:104E700050F82100C1680B6A29469847BDE8704088
:104E800000F08AB8941600209616002064160020C0
:104E90007C16002070B50546FFF79AFD03480068B0
:104EA000047E057600F078F8204670BD6416002078
:104EB00070B50446FFF78CFD04480068B0F92C502B
:104EC000848500F069F8284670BD00006416002053
:104ED00002480068002800D000477047E81700200B
:104EE00002498A6802B98860FFF7F2BFDC17002028
:104EF0002DE9F041084E04460568306801682846EF
:104F0000884707463068416828468847284420601B
:104F10003846BDE8F0810000681600202DE9F04118
:104F20000C4606460025064F05E0386841683046C5
:104F3000884706440544641EF7D22846BDE8F08140
:104F4000681600202DE9F0411E46069C174688464B
:104F500005463A46A8687F1C3346D0F804C041464F
:104F60002846E047641EF4D1BDE8F08138B5054617
:104F7000FFF72EFD2846FFF7A7F900908189491E0B
:104F80000CB284816846FFF7ADF914B92846FFF7E3
:104F900019F900F001F838BD0348C168491EC16025
:104FA00001D100F031B870470817002010B54FF458
:104FB00080310448FFF7FEF8BDE810400248FFF7D3
:104FC00027BF00006C7D00208CCA030870470EF0DC
:104FD00077BC70477CB50025684600950EF07BFBDA
:104FE000044C0121206001A801950EF0CBFB60600C
:104FF0007CBD00007C00002002484FF0FF310068BB
:105000000EF090BB7C000020014800680EF066BBEB
:105010007C0000200EB508B102AA00E000220023A7
:1050200001A9684600F0B2FA0EBD2DE9F0411E68F4
:105030000D460446082A09DC0746012A1AD0022A2E
:105040005BD0042A7DD0082A13D18DE0102A07DC1A
:10505000D3F810C00746BCF1000F04D0022389E04A
:105060000020BDE8F08101CCB04727F8020B6D1E8F
:10507000F9D18AE001CCB047C0074FEA10686D1E35
:1050800036D001CCB04748EA801000F0FF086D1E12
:105090002ED001CCB04748EA401000F0FF086D1E4A
:1050A00026D001CCB04748EA001000F0FF086D1E82
:1050B0001ED001CCB04748EAC00000F0FF086D1ECA
:1050C00016D001CCB04748EA800000F0FF086D1E02
:1050D0000ED001CCB04748EA400000F0FF086D1E3A
:1050E00006D001CCB04740EA080000F0FF086D1E72
:1050F00007F8018B002DBDD147E001CCB0478007F8
:105100004FEA10686D1E16D001CCB04748EA001077
:1051100000F0FF086D1E0ED001CCB04748EA8000B9
:1051200000F0FF086D1E06D001CCB04740EA080031
:1051300000F0FF086D1E07F8018B002DDDD124E083
:10514000FFE701CCB04700074FEA10686D1E06D09C
:1051500001CCB04740EA080000F0FF086D1E07F8D8
:10516000018B002DEDD110E0D3F810C0BCF1000F81
:1051700005D001230A4601463846E04705E001CC48
:10518000B04707F8010B6D1EF9D1012069E7000057
:105190000B4810B58169002910D101218161FFF709
:1051A00005FFFEF795FE03F0B7FC054905481C31E5
:1051B0000860BDE81040084600F094BB10BD000038
:1051C0005816002031E200087CB5064628480D46F6
:1051D000006868B1002006F0DBFD06E06A4629465B
:1051E000304607F0D7F806F079FD0028F6D17CBDEF
:1051F000106800901F4C506801902268BDF80000B4
:1052000032F84C1F0844ADF80000BDF80200918848
:105210000844ADF80200BDF8040011880844ADF858
:105220000400BDF8060091880844ADF80600684601
:1052300006F0AEFD0EE000BF2068BDF800106A4623
:105240004184BDF8021081842946304607F0A2F857
:1052500006F044FD0028EFD1206830F8221F428D6F
:10526000891A01804188C28D891A41807CBD000065
:1052700090160020641600202DE9FF4F8DB000200D
:10528000DDF86CA0164600901D4604460246CAF89A
:10529000000008AB03A902A800F078F918B10020BB
:1052A00011B0BDE8F08F0898854200DD0546614FDA
:1052B0000B9561493868407C51F8201004910969C8
:1052C0000691FFF7A3FA05903868407CFFF732FBA0
:1052D0005A498146884204D05949894501D0012064
:1052E00000E000200A9001CE1A9988478346000EFC
:1052F000079077D0009870BB0D9800EB04084D48DC
:105300000068B0F90800404503DDA0EB08078046BF
:1053100000E000270298049900EB840000EB87006E
:10532000CDE900010B990D98421809920E9B404659
:105330001946521EFFF7E4FC01200090059818283A
:105340000ADA0298DDE9052300EB840000EB870010
:10535000E91B00F079F812E00A9880B1029800EB9E
:10536000840000EB87070998A0EB080849463868D5
:10537000884701C7A8F101005FEA0008F6D131486B
:10538000C06980B3DDE9020700EB840007EB84020B
:10539000CDE902022B4C361F3046E4692B460299B8
:1053A000A047FF213068B1EB106F02D1029800686E
:1053B00004E0029A1268B1EB126F01D1039A1060F7
:1053C000029806F10406001D02900398001D039048
:1053D0006D1EE7D10397DAF8000040F00101CAF82A
:1053E000001020E021E0FFE70798FF2811D0C0F16E
:1053F000FF02029850F82410584600F019FA039959
:1054000041F82400DAF8000040F00101CAF8001069
:1054100005E00298039950F8240041F82400641C28
:105420006D1E7FF460AF03983AE7039941F824B00A
:10543000E8E70000641600207C1600203385000891
:10544000318500089C1700202DE9F05F0C1E16DD49
:105450005E68014600EB8405082A12DC611E012A01
:1054600026D0022A47D0042A6AD0082A07D1071971
:1054700017F8010DB04745F8040D641EF8D1BDE8DA
:10548000F09F102AFBDC5F693FB12246BC46BDE8B5
:10549000F04F02235DF804EB604701EB440700BFC7
:1054A00037F8020DB04745F8040D641EF8D1E6E761
:1054B00000EBE10001F0070710F801A98146802008
:1054C00020FA07F8B5F104050AEA0800C7F1070158
:1054D000C840B04745F804093FB14FEA48604FEA79
:1054E00010687F1E641EEFD1C9E719F801A90727CC
:1054F0004FF00108F6E700EBA10001F0030710F8F8
:1055000001A981467900C02020FA01F84FF0060B6E
:10551000B5F104050AEA0800ABEB4701C840B04703
:1055200045F804093FB14FEA88604FEA10687F1ED2
:10553000641EEFD1A3E7032719F801A9B846F7E7DE
:1055400000EB6100012710F801A9A7438146B900CB
:10555000F02020FA01F84FF0040B2D1F0AEA080092
:10556000ABEB8701C840B04745F804093FB14FEAAB
:1055700008704FEA10687F1E641EEFD17FE719F8AC
:1055800001A901274FF00F08F6E700002DE9F047C9
:10559000224C06461F46A06990468946002540B920
:1055A0000120A06104F120011D480860084600F0B8
:1055B00099F9606930B91B480068606110B902F060
:1055C00080FF606107B138604EB1A06830B9606992
:1055D0008000FEF721FEA06000B901253060B9F11E
:1055E000000F0AD0E06830B960698000FEF714FE51
:1055F000E06000B90125C9F80000B8F1000F0AD039
:10560000206930B960698000FEF706FE206100B9AC
:105610000125C8F800002846BDE8F0879C17002047
:10562000CDE200088816002073B5124A01A900983F
:105630001268904700240090C8B10F4900250968FE
:10564000C969496959B10A684AB1019990477CBD55
:105650006846FFF74DFC0546FFF7EEF80444019855
:10566000401E0190F4D5284600F024F8044420465A
:105670007CBD0000D81700206416002073B50D46CD
:105680000098002490B10A490968C969496959B16B
:105690004A684AB1294690477CBD6846FFF728FC16
:1056A00020B10A2802D0641CAC42F6DB20467CBD47
:1056B0006416002038B5002469460094FFF7CEF840
:1056C0000099814200DD0C1A204638BDB0F9003047
:1056D000B1F90020934200DA0280B0F90230B1F94A
:1056E0000220934200DA4280B0F90430B1F904207C
:1056F000934200DD8280B0F90620B1F906108A429B
:1057000000DDC180704770B5B1F90040B2F90030DA
:105710009C4200DD23460380B1F90250B2F90240F9
:10572000A54200DD2C464480B1F90460B2F9045072
:10573000AE4200DA35468580B1F90610B2F906208E
:10574000914200DB1146C1809D4201DBA14201DA9A
:10575000002070BD012070BD014602480068407CF9
:1057600000F002B8641600202DE9F8430126044633
:105770008946022857DADFF8B480080008F10405EA
:1057800030D0012802D002294DD116E055F824006E
:1057900088B92046FEF726FF009010B3C0680D219F
:1057A000426A6846904702003DD0494600989047BB
:1057B00055F824000026401C33E02046FEF712FF77
:1057C000009070B1C0680D21426A6846904704009D
:1057D00029D0D8F8000000B1804749460098A0477A
:1057E000002620E055F82400012813D12046FEF7BA
:1057F000F9FE009070B1C0680D21426A684690477A
:10580000070007D0D8F8000000B18047494600984B
:10581000B847002655F8240008B1012100E0002116
:10582000401A45F824003046BDE8F883C41700202C
:1058300070B5FF23B3EB116F2CD0C3B213FB02F58D
:1058400000F47F4400F47F0354435343000E10FBE5
:1058500002F6C2F1FF00CAB212FB005201F47F450A
:1058600005FB004401F47F0505FB0033090E11FB25
:105870000065C2F307204FF47F024FF47F4102EA34
:10588000132201EA14214FF07F43084303EA054342
:105890001043184370BD2DE9F04F0646DDE90CB901
:1058A00015460C4600208046584519D20B9F4FF0F4
:1058B000FF0A01CE08CCAAEB106202FB09F2B2FB90
:1058C000FAF1CAB21946FFF7B3FF20F07F4001C5D5
:1058D0007F1EEED1099804EB800408F10100E2E795
:1058E000BDE8F08F02494A69426048617047000094
:1058F0005816002010B502E000F8011B521E0AB134
:105900008307F9D1930818D001EB014402F0030298
:1059100004EB042406E010C01B1F10C040F8084B25
:1059200040F8044C042BF6DA01E010C05B1E002B9B
:10593000FBD102E000F8011B521E002AFAD110BD73
:10594000C0EBC001044800EB8101D1E903024969C1
:1059500050434843704700006C7D012078B5002417
:10596000009490F83C20012A19D0012280F83C20B4
:105970000A6807250368092A13D9DE680A3A02EB88
:1059800042029540AE43DE600A788B680A3A02EB29
:10599000420293400268D5682B43D36010E0022096
:1059A00078BD1E6902EB42029540AE431E610A7843
:1059B0008B6802EB42029340026815692B43136126
:1059C0004A681F25072A13D203685E6B521E02EB3A
:1059D00082029540AE435E630A8893B20A79521EF2
:1059E00002EB820293400268556B2B43536327E01E
:1059F00003680D2A12D21E6BD21F02EB8202954061
:105A0000AE431E630A8893B20A79D21F02EB820268
:105A100093400268156B2B43136311E0DE6A0D3A65
:105A200002EB82029540AE43DE620A8893B20A79A5
:105A30000D3A02EB820293400268D56A2B43D3628F
:105A4000174B02689A4208D10A68122A05D1D3F886
:105A5000042342F48002C3F8042302689A421BD153
:105A6000104D0A68AA4201D0112A15D1D3F8042397
:105A700042F40002C3F804230968A9420CD10A4980
:105A80000A4A0968B1FBF2F101EB8101490000E02B
:105A9000491E00910029FBD180F83C40002078BDD0
:105AA00000200140120000100400002040420F00BE
:105AB0000068C06C704770B5040004D094F83D00D5
:105AC000002510B106E0012070BD84F83C5020464E
:105AD00000F00EF8022084F83D002046FCF72EFF6F
