:020000040800F2
:10000000C87E02205D03000865030008670300083E
:10001000690300086B0300086D030008000000007E
:100020000000000000000000000000009502000831
:100030007103000800000000E902000831730008A5
:1000400077030008770300087703000877030008A8
:100050007703000877030008770300087703000898
:100060007703000877030008770300087703000888
:100070007703000877030008770300087703000878
:100080007703000877030008770300087703000868
:100090007703000877030008770300087703000858
:1000A0007703000877030008770300087703000848
:1000B00049740008770300087703000877030008F5
:1000C0007703000877030008770300087703000828
:1000D0007703000877030008770300087703000818
:1000E0007703000877030008770300087703000808
:1000F00077030008770300087703000877030008F8
:1001000077030008770300087703000877030008E7
:1001100077030008770300087703000877030008D7
:1001200077030008770300087703000877030008C7
:1001300077030008770300087703000877030008B7
:10014000770300087703000877030008B170000800
:100150007703000877030008770300087703000897
:100160007703000877030008770300087703000887
:1001700077030008770300087703000800000000F9
:100180007703000877030008770300087703000867
:100190007703000877030008770300087703000857
:1001A0006D690008770300087703000800F002F883
:1001B00000F061F80AA090E8000C82448344AAF1A0
:1001C0000107DA4501D100F056F8AFF2090EBAE89E
:1001D0000F0013F0010F18BFFB1A43F0010318477B
:1001E000CC170200EC1702000A444FF0000C10F884
:1001F000013B13F0070408BF10F8014B1D1108BFA5
:1002000010F8015B641E05D010F8016B641E01F844
:10021000016BF9D113F0080F1EBF10F8014BAD1C94
:100220000C1B09D16D1E58BF01F801CBFAD505E0B2
:1002300014F8016B01F8016B6D1EF9D59142D6D30C
:10024000704700000023002400250026103A28BF34
:1002500078C1FBD8520728BF30C148BF0B60704738
:10026000732900F0B282002070471FB50DF086F9A7
:100270001FBD10B510BD00F0EEFA1146FFF7F5FFF7
:100280000BF09CFD00F00CFB03B4FFF7F2FF03BC86
:1002900000F00CFB294B19680868B0E8F04F80F3B8
:1002A0000988BFF36F8F4FF0000080F3118870470B
:1002B0000000000006480068006880F3088862B605
:1002C00061B6BFF34F8FBFF36F8F00DF00BF00BF7A
:1002D00008ED00E0DFF80C00016841F470010160F6
:1002E000704700BF88ED00E0EFF30980BFF36F8F28
:1002F000124B1A681EF0100F08BF20ED108A20E97B
:10030000F04F106008B44FF0500080F311880CF0EB
:1003100059FB4FF0000080F3118808BC1968086889
:10032000B0E8F04F1EF0100F08BFB0EC108A80F359
:100330000988BFF36F8F704700BF00BF30000020F7
:10034000EFF311804FF0500181F31188704780F373
:1003500011887047EFF30580704700000948804717
:1003600009480047FEE7FEE7FEE7FEE7FEE7FEE797
:10037000FEE7FEE7FEE7FEE704480549054A064BAF
:1003800070470000E5730008AD010008C87802203E
:10039000C87E0220C87A0220C87A02200FB41CB599
:1003A000074B06AA7B4469460090059800F0E3F9E4
:1003B0000020694600F0F2F91CBC5DF814FB000057
:1003C000F503000070B50C460546012A05D02878D3
:1003D000800600D5EA69002302E0012305E05B1CEA
:1003E000934202D2E05C0028F9D1A869E618C01A4D
:1003F000A861286A184428622846AFF3008004E008
:10040000D5E9012114F8010B9047B442F8D32846EE
:10041000AFF3008070BD00002DE9F05F894604460F
:100420004FF0000ADFF824B1FB44C0F820A02046BA
:10043000E168884700287DD0252806D0D4E901212D
:100440009047206A401C2062F1E700255F46204665
:10045000E16888472028064607DB312E05D2B81907
:1004600010F8200C08B10543F1E7A80701D525F0E5
:100470000405C4F81CA00027C4F818A02A2E09D02F
:1004800030460BF0ADFB38B304EB8708303EC8F8BC
:10049000186019E059F8041B204604EB87029161AB
:1004A000E1688847012F064618D1E069002820DA64
:1004B00025F020051DE0D8F8180000EB800006EBC1
:1004C00040003038C8F818002046E16888470646E2
:1004D0000BF086FB0028EED1012F0AD02E2E08D17A
:1004E0002046E16888477F1C0646022F45F020051C
:1004F000C4DBA069002803DA404245F00105A06191
:10050000E80701D025F01005A6B1A6F14100192891
:1005100002D8203645F400654A463146204625601B
:100520004D46FFF79DFE60B1012807D0ED1D25F077
:10053000070000E007E000F1080978E705F1040989
:1005400075E730467AE7206ABDE8F09F581502004B
:10055000032A40F2308010F0030C00F0158011F8EF
:10056000013BBCF1020F624498BF11F801CB00F8C7
:10057000013B38BF11F8013BA2F1040298BF00F81B
:1005800001CB38BF00F8013B11F0030300F0678096
:10059000083AC0F0088051F8043B083A51F804CBFF
:1005A000A0E80810F5E7121D5CBF51F8043B40F8C5
:1005B000043BAFF30080D20724BF11F8013B11F8D0
:1005C00001CB48BF11F8012B24BF00F8013B00F814
:1005D00001CB48BF00F8012B7047431A28BF9A424D
:1005E0007FF6B6AF032A1044114440F2268010F083
:1005F000030F1EBF11F8013D521E00F8013D10F01F
:10060000030F7FF4F6AF11F0030300F0F580083A12
:10061000C0F00B8051F8043D083A51F804CD40F881
:10062000043D40F804CDFFF7F3BF121D5CBF51F845
:10063000043D40F8043DAFF30080D20724BF11F819
:10064000013D11F801CD48BF11F8012C24BF00F87D
:10065000013D00F801CD48BF00F8012C704710B5EE
:10066000203AC0F00B80B1E81850203AA0E81850AA
:10067000B1E81850A0E81850BFF4F5AF5FEA027C6B
:1006800024BFB1E81850A0E8185044BF18C918C0DA
:10069000BDE810405FEA827C24BF51F8043B40F87B
:1006A000043B08BF7047D20728BF31F8023B48BF60
:1006B00011F8012B28BF20F8023B48BF00F8012B9E
:1006C000704702F0FF0343EA032242EA024200F0CD
:1006D00002B84FF000020429C0F0128010F0030CA1
:1006E00000F01B80CCF1040CBCF1020F18BF00F825
:1006F000012BA8BF20F8022BA1EB0C0100F00DB8D4
:100700005FEAC17C24BF00F8012B00F8012B48BF31
:1007100000F8012B70474FF0000200B513469446D5
:100720009646203922BFA0E80C50A0E80C50B1F149
:100730002001BFF4F7AF090728BFA0E80C5048BF5D
:100740000CC05DF804EB890028BF40F8042B08BFFB
:10075000704748BF20F8022B11F0804F18BF00F8F7
:10076000012B7047704770477047000001694A1CB1
:1007700002610878704700B58FB0CDE901310021E2
:10078000059105497944CDE9031011466846FFF704
:1007900043FE0FB000BD0000E5FFFFFF0A6802F84E
:1007A000010B0A60704710B5436913B1AFF30080C5
:1007B00001E0FFF707FE012010BD127800F12401CF
:1007C0000A7000224A700122EDE711684FF0FF32F3
:1007D000E9E7431A28BF9A427FF641AF104410F070
:1007E000030F11441EBF11F8013D521E00F8013DD8
:1007F00010F0030F7FF4F6AF103AC0F00A8010B586
:1008000031E91850103A20E91850BFF4F9AFBDE8AB
:100810001040530724BF31E9081020E9081044BFF5
:1008200051F8043D40F8043D12F0030F08BF704733
:10083000D20728BF31F8023D48BF11F8012C28BF6C
:1008400020F8023D48BF00F8012C7047004870476F
:100850006478022070477546FFF7F8FFAE46050042
:100860006946534620F00700854618B020B5FFF7CB
:1008700083FDBDE820404FF000064FF000074FF029
:1008800000084FF0000B21F00701AC46ACE8C009AE
:10089000ACE8C009ACE8C009ACE8C0098D467047B7
:1008A0000446AFF300802046FFF7EEFC0149182014
:1008B000ABBEFEE7260002005A49096821F4403128
:1008C000594AC2F804131146D1F80413426811437F
:1008D000544A11600168496821F4807102685160CE
:1008E00001684A68016942EA0121026851600168B1
:1008F000496821F040710268516001684968826866
:100900001143026851600168896821F4006102683E
:10091000916001688968C268114302689160434A26
:10092000C16A914218D00168896821F0706102683B
:10093000916001688968C26A114302689160016828
:10094000896821F040510268916001688968026BF2
:100950001143026891600BE00168896821F07061C1
:10096000026891600168896821F0405102689160D5
:100970000168896821F002010268916001688A6853
:10098000816942EA410102689160416AD1B101681E
:10099000496841F40061026851600168496821F4C6
:1009A00060410268516001684A68816A491E4FF4DB
:1009B000604393FAA3F3B3FA83F399400A430168BF
:1009C0004A6005E00168496821F4006102685160ED
:1009D0000168C96A21F470010268D1620168CA6ABB
:1009E000018C491E42EA01510268D162016889689E
:1009F00021F400710268916001688A68C16942EA65
:100A00004121026891600168896821F4806102686F
:100A1000916001688A68416942EA812102689160B7
:100A20007047000004230140002001400100000F36
:100A30002DE9F04F87B004460E4617469846DDE98B
:100A400011A9109D204602F0B5FD8346C4EBC400F9
:100A50001B4951F82000C4EBC401194A02EB810183
:100A600089680BFB0100C4EBC40102EB8101C9687A
:100A700007FB0161C4EBC402114B03EB8202526914
:100A800001FB02000690484609EBD071C5EB6101FD
:100A90000591C4EBC400194601EB8000C068401BFF
:100AA0000490DDE904012B46CDE900A10290414606
:100AB0002046069A00F008FD07B0BDE8F08F000060
:100AC000EC68022010B5012000F030FD0BF098F822
:100AD00006F014FC012006F07DFB0122910207487C
:100AE00003F0B8F801F05CFD642002F00FFF012074
:100AF00005F0DCFB0BF07CF810BD00000018024094
:100B00002DE9FE4304460E461546204602F052FDEE
:100B10000746C4EBC400144951F8200007FB06083F
:100B2000C4EBC40051F8200007FB05090021C4EB09
:100B3000C4000D4B03EB80000069CDE90001C4EB5C
:100B4000C4000291194601EB80004A464146C36841
:100B5000204600F0B9FCC4EBC400034901EB80005F
:100B60008560BDE8FE830000EC6802202DE9F04FAF
:100B700085B004460D4616461F46DDE90F8BDDF8AD
:100B800038A0204602F016FD8146C4EBC400264979
:100B900051F82000C4EBC401234A02EB81014968EB
:100BA00009FB0100C4EBC40102EB8101C96806FB2B
:100BB0000151C4EBC4021C4B03EB8202526901FBDE
:100BC00002000490C4EBC400194651F82000C4EBA5
:100BD000C4011A4602EB8101496809FB0100C4EB1C
:100BE000C40102EB8101C9680AFB0171C4EBC402B4
:100BF00003EB8202526901FB020003900021C4EB67
:100C0000C4001A4602EB8000C068A0EB080043460F
:100C1000CDE900B002912046DDE9032100F054FC4B
:100C200005B0BDE8F08F0000EC68022038B504463E
:100C300020128DF80000E0B28DF8010000224FF480
:100C40008061074803F006F8C82302226946054878
:100C500004F060FC01229102014802F0FBFF38BD64
:100C600000180240306F022070B506460C4604F0B2
:100C70008000802808D104F07F0000EB800106F599
:100C80008E7000EBC10505E004EB840106F55D7094
:100C900000EBC1050020A87004F07F002870C4F3A9
:100CA000C01068702946304607F03EFC002070BD39
:100CB0002DE9F04106460D4690461F4605F080009E
:100CC000802808D105F07F0000EB800106F58E70CA
:100CD00000EBC10407E005F07F0000EB800106F5A2
:100CE0005D7000EBC10405F07F00207005F080000E
:100CF000C0096070C4F80880E770607808B1207897
:100D0000E080022F01D1002020712146304607F0FB
:100D1000BFFB0020BDE8F0812DE9F04105460E46FD
:100D20001746984606F07F0000EB800105F55D70E0
:100D300000EBC104E760C4F814800020A06160707B
:100D400006F07F002070E878012800D12761207824
:100D500020B92146284607F0BFFA03E0214628467D
:100D600007F03CFC0020BDE8F08108B500220092AD
:100D7000009A61F30A12009202691268009B1A43FA
:100D800003691A6008BD70B506460C4604F0800081
:100D9000802808D104F07F0000EB800106F58E70FA
:100DA00000EBC10505E004EB840106F55D7000EB86
:100DB000C1050120A87004F07F002870C4F3C010A2
:100DC00068702946304607F0D7FB002070BD2DE93A
:100DD000F04107460D461646984605F07F0000EBA9
:100DE000800107F58E7000EBC1040120607005F0F2
:100DF0007F002070E66026610020A061C4F81480A6
:100E0000207820B92146384607F066FA03E02146EB
:100E1000384607F0E3FB0020BDE8F0811CB504462E
:100E2000204607F024FAE068C0680090204607F0EA
:100E3000FBFC03280BD10020A0704FF40070A080B1
:100E4000009820F4705000F51050009009E0012047
:100E5000A0704020A080009820F4705000F5A050B1
:100E600000900098E168C86000200190019820F48B
:100E7000005000F5005001900198E16848610120A0
:100E80001CBD0000F8B5054600240020009028464F
:100E900007F0FDFC064690E006F0010000287DD03A
:100EA000E1B2284600F0B4FA0090009800F001008A
:100EB00030B3012000FA04F72869406BB843296970
:100EC000486300200090009820F00100401C009032
:100ED00005F1180050F8240000998160E1B239480A
:100EE0000068426828469047E878012808D13CB954
:100EF00040F21110405D042802D1284607F097FA0D
:100F00000098C0F3C00060B100200090009820F06D
:100F100008000830009005F1180050F824000099EE
:100F200081600098C0F3001060B10020009000982C
:100F300020F010001030009005F1180050F8240047
:100F4000009981600098C0F3801060B1002000908B
:100F5000009820F040004030009005F1180050F853
:100F60002400009981600098C0F3400060B1002027
:100F70000090009820F00200801C009005F11800FD
:100F800050F82400009981600098C0F3C01028B187
:100F90002146284600F050FA002000E00BE00090C7
:100FA000009820F080008030009005F1180050F883
:100FB000240000998160641C7608002E7FF46CAFD9
:100FC0000120F8BD0C0200207CB50446002500205D
:100FD0000190204607F063FC06466FE006F0010032
:100FE000002869D0E9B2204607F061FC0190019821
:100FF00000F00100C8B300200190019820F001002A
:10100000401C019004F1540050F8250001998160C2
:10101000E078012817D104F1540050F82500006948
:10102000009005EB850104F55D7000EBC100806860
:101030000099C1F31201411A05EB850204F55D70B8
:1010400000EBC2008161E9B21E48006802682046D8
:101050009047E078012808D13DB940F21110005DB9
:10106000052802D1204607F0E2F90198C0F34000BC
:1010700060B100200190019820F00200801C0190D6
:1010800004F1540050F82500019981600198C0F3E3
:10109000C00088B10B48006881682046884700205E
:1010A0000190019820F008000830019004F15400EC
:1010B00050F82500019981606D1C7608002E8DD1B5
:1010C00001207CBD0C0200203EB50446A07A70B120
:1010D000D4F80C010090009820F0020000900098D5
:1010E00020F0010000900099D4F80C01016000206C
:1010F0000190019820F00100401C01902069406897
:101100000199884321694860084800688169204640
:10111000884700200290029820F0004000F1004033
:1011200002900298E168486101203EBD0C02002057
:101130007CB5044600200190019820F0100010308A
:101140000190E068806901998843E1688861E068FE
:10115000006A0090009800F00F0000EB800104F599
:101160005D7000EBC1050098C0F3434007282DD205
:10117000DFE800F02C04051D1E2C1F0027E000985E
:10118000C0F30A1090B10098C0F30A122046E96833
:1011900007F097FBE8680099C1F30A110844E8607A
:1011A000A8690099C1F30A110844A8610FE00EE094
:1011B0000DE0082204F2CC51204607F082FBA8691A
:1011C0000099C1F30A110844A86100E000BF00BF04
:1011D000E068806901990843E168886101207CBD6D
:1011E00038B5044608480068C16820468847002092
:1011F0000090009820F00800083000900098E16806
:101200004861012038BD00000C0200201FB50446D3
:10121000002000904FF48970005D00902348006822
:10122000416920468847206980680190002003902A
:10123000039820F4006000F5006003900398E168D3
:101240004861A07A70B3019800F0010050B340F2F9
:101250001510005D012825D19DF80000032821D13B
:1012600000200290029820F00100401C0290D4F867
:101270000C01006802990843D4F80C110860029828
:1012800020F00200801C0290D4F80C010068029942
:101290000843D4F80C1108600548006840F00600C7
:1012A00003490860012004B010BD00000C020020BA
:1012B00010ED00E030B587B00446002002900690A3
:1012C0000590049003900190029820F00100401CCA
:1012D0000290206940680299884321694860002192
:1012E000204607F077FA00250BE0FF2104F11800F3
:1012F00050F82500816004F1540050F82500816009
:101300006D1C6078A842F0D84FF0FF3120698161F0
:1013100006986FF30F00401C0690069880B200F507
:101320008030069006992069C161059820F0080078
:1013300008300590059820F00100401C05900598A4
:1013400020F00200801C05900599206941610498F5
:1013500020F00100401C0490049820F008000830A0
:101360000490049820F00200801C049004992069E5
:101370000161206900680390039820F4FE600390E7
:10138000039920690160204607F051F80020019080
:10139000019820F4805000F5805001900198E16898
:1013A000486104480068016920468847012007B069
:1013B00030BD00000C02002038B50446002000902B
:1013C00007480068C16920468847009820F48010CB
:1013D00000F5801000900098E1684861012038BD58
:1013E0000C02002038B50446002000900748006831
:1013F000016A20468847009820F4001000F500108C
:1014000000900098E1684861012038BD0C0200207E
:1014100030B5024615692B6915696C6B24FA01F524
:1014200005F0010543EAC51302F1180555F82150EE
:10143000AD6805EA030030BD2DE9F84307460E46C6
:1014400000250020009006EB860107F58E7000EB6A
:10145000C104D4E90501451AA068A84200D2A568D4
:10146000E81C4FEA900807F1180050F82600806940
:1014700000901BE0D4E90501451AA068A84200D2FB
:10148000A568E81C4FEA9008ABB2F2B23846E168B2
:1014900007F02BFAE0682844E060A0692844A061C6
:1014A00007F1180050F8260080690090009880B27B
:1014B000404506D9D4E90510884202D26069002867
:1014C000D8D10120BDE8F8832DE9F041074606ACEC
:1014D00070CC01204FF4007CDFF84C80C8F800C0CD
:1014E000C446CCF80C10CCF83C20CCF81050CCF80A
:1014F0004060CCF81C00A44663F31F4CC8F844C0FD
:10150000C446DCF800C04CF0010CC8F800C000BFB5
:10151000DFF814C0DCF800C00CF0010CBCF1000FC7
:10152000F6D1BDE8F081000000B0024010B50446DD
:10153000E2B20421014802F08DFB10BD0010024010
:1015400030B50246002300240868012816D013682D
:101550006FF30E03D1E901052843CD6828430D69D7
:1015600028434D6928438D692843CD6928430D6A76
:1015700028434D6A28430343136019E013686FF34F
:101580000E03D1E9070528434D6A284303435468F5
:101590006FF30E04D1E901052843CD6828430D6996
:1015A00028434D6928438D692843044313605460E0
:1015B000002030BD0246506940EA410050610020E1
:1015C0007047F8B506460C461546002000900027E7
:1015D000D4E900010843A168491E40EA4110E168CE
:1015E00040EA412000900098306102F039FB074644
:1015F0000BE0681C38B125B102F032FBC01BA842D9
:1016000001D90320F8BD0120FCE7B06900F02000FB
:101610000028EED100BFF5E770B50346154600225D
:101620000024012D1FD09A6802F070420868401E05
:101630004E68761E40EA06168868401E46EA002676
:10164000C868401E46EA0036088A401E46EA004640
:10165000888A401E46EA0056087E401E46EA006020
:1016600002439A6022E0DA6802F070420868401E85
:101670004E68761E40EA06168868401E46EA002636
:10168000088A401E46EA0046087E401E46EA006080
:1016900002439C6804F07044C868401E0603888AB0
:1016A000401E46EA00500443DA609C60002070BD92
:1016B0002DE9F0430446C56887B09046894600206E
:1016C00001F0DEF9064625B1287910B146F0020096
:1016D00001E026F0020001F0D3F92069012558B19C
:1016E000D4E902128DE826000395638822880468F5
:1016F00041464846A0471EE0124F134B214638682A
:101700001B68427CE068984730B9E088012801D026
:10171000002001E03868806BA288E388A16800950A
:10172000CDE90410CDE90232019563882288414653
:10173000484604F08FFA07B03046BDE8F04301F0A8
:101740009FB90000640200205C0200202DE9F04FE8
:10175000DFF828B191B04FF0FF35DBF80030B3F976
:1017600022100691DE69B3F92490F469A1898142BF
:1017700006D8E289824203D3471AD4F8008012E0E7
:10178000D4E9018100296FD00A8882426CD84D8843
:10179000854269D3801A82B2486800EB8200B0F9B2
:1017A0000070B0F90250781C5ED0307EA17C10FB36
:1017B00001FA217CCDE90701B3F92A60304604F033
:1017C00007FFC0B20E90DBF8000007FB0A81A37C84
:1017D000826B0127CDE90412CDE90273C069089A32
:1017E000C17E807ECDE90001DDE90603494604F0B3
:1017F00031FA681C18D046F0020004F0E9FEDBF86C
:101800000000A37C05FB0A81826BCDE90273CDE960
:101810000412C069089AC17E807ECDE90001DDE92D
:101820000603494604F016FADBF800005D46C0697D
:10183000417E007E814214D9022E12D086F004002F
:1018400004F0C6FE2868C069027EC37E12FB0391C5
:10185000437E857E089A06984B4412FB050204F0ED
:101860005BFB0E9804F0B4FEDBF80000627C418C58
:101870001144418411B0BDE8F08F000064020020E3
:1018800004480068C069C06909B1027C0A60407CF4
:101890007047000064020020022008807047C06981
:1018A00082898A4202D8C2898A4210D2806880B175
:1018B00002888A420DD843888B420AD3406800EBE5
:1018C0008100A0EB8200B0F90000002801DB0120BC
:1018D0007047002070470000F0B5254C054687B0E2
:1018E00020682946B0F92A60C069C06900F04BF948
:1018F00000283AD041680088281A01EBC00530461C
:10190000AF7804F065FE06461A48D0F800C0BCF176
:10191000000F15D000216868CDE9040104220120E0
:1019200001A9009081E885002068DCF800702A7821
:10193000C1690B7EB0F92410B0F92200B8470CE061
:101940006868CDE9007020682A78C1690B7EB0F91B
:101950002410B0F9220000F07DFA304604F038FE81
:1019600020686A78418C1144418407B0F0BD0000C2
:10197000640200209402002070B505460B480C4616
:1019800029460068C069C06900F0FDF800280BD046
:10199000416800882A1A012000EBC200002C085C74
:1019A00002D011F83210216070BD000064020020E6
:1019B00011200880704710B5C06900F0E4F80028D5
:1019C00000D0012010BD00002DE9F043304C03464B
:1019D00087B020681946B0F92A60C069C06900F074
:1019E000D2F8002850D041680088181A01EBC005D1
:1019F0003046AF7804F0ECFD814620686A68012328
:101A0000816BCDE90237CDE90421C169CB7E8A7EA5
:101A1000CDE900230B7EB0F924102A78B0F922001A
:101A200004F018F92068C069417E027E91421FD9F6
:101A3000C07E11FB00F812FB00F7022E18D000F058
:101A40003DFD064600F008FD01F009F821682A78FE
:101A5000CB69B1F92200DB7E12FB0302B1F924103D
:101A600001EB0803394404F057FA304600F0F7FF61
:101A7000484604F0ADFD20686A78C369B0F92210C9
:101A80009B7E12FB0311418407B0BDE8F083000088
:101A9000640200202DE9F3411C4E0F4600253068FA
:101AA0002C46C069417EC07E11FB00F81DE06846EF
:101AB00001F050F8054630682946C069C06900F059
:101AC00029F890B141680088281A00EB400001EB2A
:101AD000800090F90210007908443168C969897E54
:101AE00010FB01F0002800DD04447F1EDFD51DB18E
:101AF000284601F019FC04444146204607F082FCC8
:101B0000034901200870BDE8FC8100006402002048
:101B10000803002006E002888A4202D842888A42EE
:101B200002D280680028F6D17047000030B50F4C13
:101B300005460B4620682946C069C06900F023F8B5
:101B4000002812D04168008824682A1A0120E4691C
:101B500000EBC200085CA47E10FB04F0002B04D054
:101B600011F8321011FB04F1196030BD640200203D
:101B700001200880704700B5C06900F004F8002813
:101B800000D0012000BD06E002888A4202D84288C7
:101B90008A4202D280680028F6D1704770B50025CD
:101BA0000F4C19E020690F49C5EB051600EBC60084
:101BB00070220968001DFEF752FD2069002140F8DF
:101BC000361000EBC60000F10C018161011D0A1DF9
:101BD000C0E90F126D1C4164A0688542E2DB70BD54
:101BE000100300206402002070B50E490C48086004
:101BF000084601F0B1FC0B4C143CA068C0EB00108F
:101C0000C500284600F094F92A460021206101F021
:101C1000ABFC4FF0FF302060BDE8704001F00CB825
:101C200061B40008240300202DE9FF4F85B005466C
:101C3000DDF848800C464FEA4800511B9A46914611
:101C4000091A7DD4AAEB0401081A79D400F0DCFC4F
:101C5000DFF804B100200290DBF8000090F8691072
:101C600021B910F8681F02910421017007F04EF9A4
:101C7000471907F059F9061907F048F900EB09056B
:101C800007F052F900EB0A04DBF8000090F8691045
:101C900039B990F86800474346434543444308FB3D
:101CA00000F800F039FC2C49096891F8682010FB15
:101CB00002F000F0FF094FEA5900511C49083B1A95
:101CC0000B440593331A0B445F1E2B180B44A3F1EE
:101CD000010B23184044A0EB520503EB010A0598C1
:101CE00000F04CF8ADF80C00584600F047F8ADF89D
:101CF0001000384600F042F8ADF80E00504600F0F3
:101D00003DF8ADF8120003A807F03AF913E0DDF84A
:101D100014805C464E465946404600F08FF8CDE9A7
:101D20000056534622463946404608F051FB00F023
:101D300015F807F0CBF80028E9D10748006800E063
:101D400007E090F8691011B9029980F8681000F066
:101D500055FF09B0BDE8F08F6402002010B509F00E
:101D600055F80448016A04480068416600F108011A
:101D7000416110BDCC0200206402002004490968C2
:101D800091F8681009B190FBF1F000B270470000C3
:101D9000640200202DE9F041224C05460E462068E1
:101DA000002788B920480068E06110B904F07FF985
:101DB000E06100F0BDF8206080B31A491B4824316F
:101DC0000860084601F0C8FB19480068854200DA3F
:101DD0000546E169731B4A1E2046934201DD6E18D9
:101DE000761EAE4201DA2E460127124C2268516E51
:101DF0004B68836301620B490F4B34310B605166B2
:101E000002C880E8620007F0E9FA07F0C9FA05485D
:101E100021682C3048613846BDE8F081FFE7012792
:101E2000D2E70000CC020020880200204DB4000858
:101E30008C02002064020020D1A20008044A12682B
:101E400092F8682090FBF2F091FBF2F1FFF7A2BF4D
:101E5000640200207CB5084EDDE906543668367C05
:101E6000CDE90054B60702D408F0A8F97CBD034CB4
:101E70002468A0477CBD00006402002020020020EE
:101E800010B5040009D000F0BFFB204607F02AFA85
:101E9000044600F0B3FE204610BD002010BD38B54A
:101EA000054600F0B1FB2846FFF7EAFF040009D021
:101EB00000F096F82A460021009001F055FB684694
:101EC00000F09CF800F09AFE204638BD024A1060EF
:101ED00021F00300506070473077022010B50400F5
:101EE00016D000F091FB0B48006B10F8341059B17C
:101EF000022909D2042101EBC4014158486807F0C6
:101F0000B5F9204609F00EFBBDE8104000F076BEA2
:101F100010BD000074760220002805D0034A916BA2
:101F2000016001B148609063704700007476022040
:101F30002DE9F041044609F0A7F92848E41C24F0F3
:101F40000305C16B2D1DA94200D90D46846B13E01A
:101F500054F8042CAA420ED184B1216809B16268F8
:101F60004A60616809B122680A60826BA24231D17D
:101F7000216881632EE02468002CE9D18046416B02
:101F800080680F1857F8040C3E1A306838B10020EA
:101F900009F0F6FA57F8040C3E1A3068D0B97068A8
:101FA000A84217DB3044441B3046241D09F0CEFA0A
:101FB000D8F80810491BC8F80810D8F810102944A0
:101FC000C8F810107068401B02D0314607F04EF977
:101FD00044F8045C2046BDE8F081000074760220DD
:101FE00005498A69521C8A61096B01EBC0010A78B4
:101FF000521C0A7000F01AB8747602200A4902686E
:102000000B6B52F8082C03EBC2021378022B03D39C
:102010008B690BB15B1E8B611178491E1170002119
:10202000016008467047000074760220002806D040
:102030000349042202EBC000096B085808307047BE
:102040007476022010B5C2B2CBB2D21A00D5524279
:1020500093B25B43C0F30722C1F30724121B00D5E0
:102060005242000C92B2A0EB114002FB023200B2CD
:10207000002801DA404200B280B200FB002010BD0F
:1020800010B50021084600F079FA43F6FF7250427D
:10209000BDE8104013460146AFF300802DE9FC4136
:1020A0001C4615460E46074600F0AEFA042004F022
:1020B0008FFA80461248C068C16C006D0F44064418
:1020C0000D440444ADF80070ADF80450ADF8026062
:1020D000ADF80640684606F053FF07E023462A465F
:1020E0003146384603F018FF06F0F0FE0028F5D11F
:1020F000404604F06DFA00F081FDBDE8FC8100006F
:10210000580200202DE9F0411C4616460D460746B0
:10211000022B02DB0020BDE8F0811C20FFF708FF46
:102120000028F8D00DB105610AE0094A52F82410E0
:1021300009B905E011460A68002AFBD10969016165
:1021400084618682002101604160C0E90217E2E7F4
:102150007C02002070B51D46FFF7D4FF040009D0B3
:1021600000F00EF8E068006820B90348006800EB52
:1021700085008465204670BD64020020FFF7CCBE58
:1021800070B590B38269022A30DA1E4C54F82210DE
:1021900019B944F8220032E019464B68002BFBD1F4
:1021A00006E0CB68C5681B682D68AB4203DD096893
:1021B0000029F6D11AE0C1B1CB68C6681B68366841
:1021C000B3420CD1838A012B05D008E01946DB68A5
:1021D0001B68AB4203DB0B68002BF7D129B14B68BE
:1021E00033B118604A68426004E0FFE7012070BD27
:1021F00044F822004860884200D10021016000209C
:1022000070BD00007C02002010B503E00468FFF7F9
:10221000B7FF20460028F9D110BD09F063BC0000CB
:102220002DE9F0410026DFF834800D4F354600BF20
:1022300058F8254009E0E0680068385C20B1204685
:1022400009F050FC266026462468002CF3D16D1C52
:10225000022DEDDB3046BDE8F08100007C0200205D
:1022600028F40108022801DB00207047054951F8D5
:10227000200004E0C16809680029F6D00068002841
:10228000F8D170477C0200202DE9FC4706005FD0A2
:1022900000F0BAF900F01EF93C4C81462068B0F914
:1022A000228000F045F9216807468A8CD01B88847B
:1022B00041E000BF47F6FF71304601F019F8824651
:1022C0000146304600F0EAFF2168054691F82C00EF
:1022D00000F00300012841D002283BD000204A8CA6
:1022E000101A4884ADF800006A1E1044ADF80400CE
:1022F000888CADF80200A9F101010844ADF8060090
:102300006A465146304600F099FD2168BDF802004A
:1023100088845146304600F033FC064430780A2861
:102320001ED00D281CD0BDF8000021682844488428
:10233000307818B1761C30780028BBD12068818CA9
:1023400039448184818D21F00301818500F056FCA0
:10235000BDE8FC8705EBD5704010C0E72846BEE716
:10236000206890F82C1001F0030101290BD00229FC
:1023700009D0018C418431780A29D9D1828C02EBB1
:1023800009018184D4E7A0F82280F4E764020020E8
:1023900070B514460D46064600F036F9054800684B
:1023A000458484843046FFF76FFFBDE8704000F03D
:1023B00025BC0000640200202DE9F04107460A48D0
:1023C00015460E460068B0F92C0040F0020000F0FF
:1023D000A1FB04462A4631463846FFF7D9FF20467E
:1023E000BDE8F04100F096BB640200202DE9FC41FD
:1023F0001C4615460E46074600F006F910480068D0
:10240000C16C006D0F4406440D440444ADF80070E7
:10241000ADF80450ADF80260ADF80640684606F02D
:10242000AFFD07E023462A463146384603F074FDE7
:1024300006F04CFD0028F5D100F0E0FBBDE8FC8182
:1024400064020020034951F82000C1688A6A08210B
:10245000104700007C02002010B500F0D5F803F012
:102460008BFD03F04DFE044600F0C8FB204610BD76
:1024700010B5044600F0C8F8054800210068C0699E
:10248000426820469047044600F0B8FB204610BD45
:102490006402002070B50C46054600F0B5F8064809
:1024A00021460068C069426828469047044600F00B
:1024B000A5FB204670BD00006402002010B500F0AE
:1024C000A3F803F061FD03F01BFE044600F096FB49
:1024D000204610BD10B500F097F804480068C069A8
:1024E000447E00F08BFB204610BD000064020020FB
:1024F00070B514460D46064600F086F82246294679
:10250000304603F0B3FD10B1002028602060BDE824
:10251000704000F073BB000010B500F075F8034880
:102520000068047E00F06AFB204610BD64020020B3
:1025300010B5002400F068F80B48006890F82C10E3
:1025400001F00C01042904D0082906D00C2907D178
:1025500003E0C069047E641E02E0C069007E440896
:1025600000F04CFB204610BD64020020024951F8E7
:1025700020000069406870477C02002070B50D465D
:10258000044600F041F8204608F000FE04462846C4
:1025900008F004FE044300F031FB204670BD00004B
:1025A000134810B5016821F00101016011480121B3
:1025B00081601149016000681049884200D0FEE73F
:1025C00000F020FC0E492E20087000F034FB0D486E
:1025D00008F022FE09F0A4FB04460021084600F0A2
:1025E0006BFA06F0E1FAFFF7D9FA204610BD0000B9
:1025F000002000E000300240C2A507F4CDB5E8B5E8
:10260000580200203C77022070B5214CE06820B1D0
:1026100000F00DFB6168884204D000F023FB00F05D
:1026200006FB6060E068401CE06001282AD10025BC
:102630000BE000BF00F0FBFA2269C5EB051152F870
:102640003110814205D0F1B16D1CA0688542F1DBEB
:1026500000252068854215D0002812DBFFF7E0FD39
:102660002168C1EB0112216901EBC2025067C5EB81
:102670000510084A01EBC000011D1160406FFFF713
:10268000C3FD256070BDC5EB051142F83100E0E7E0
:10269000100300206402002038B504001CD0FFF7AE
:1026A000B3FF0E480068006EA04201D100F0A6F909
:1026B0002046FFF795FC0090406908B100F088FAC9
:1026C00000980068FFF75AFD6846FFF797FC204620
:1026D000FFF704FC00F092FA38BD0000640200200D
:1026E00038B50446FFF790FF2046FFF779FC00F16C
:1026F000180400906846FFF781FC00F07FFA20463E
:1027000038BD00002DE9F74F8EB0144689460E986B
:10271000FFF766FC0990B0F908B0B0F90A600068EC
:10272000006940680C9009A8FFF768FC564D574FA8
:102730002868407C57F82000C1688A6A08219047C1
:102740000790182801D3202007902868407C57F86C
:1027500020000069069003C80B904D48814201D0CB
:10276000012000E000200A90002000F08DFA0028EF
:102770007DD1286809EB0B01B0F90C20891A491E9C
:10278000002902DDABEB010500E05D46B0F9081061
:10279000494505DDA1EB090189446D1A089101E065
:1027A00000210891002D6BDDB0F90E20A119891AC6
:1027B000491E002902DDA6EB010800E0B046B0F991
:1027C0000A00A04204DD061B3444A8EB060800E022
:1027D0000026B8F1000F53DD089801900DA95F465F
:1027E000DDF830A00E980091FFF77AFF774300EBF9
:1027F000870101982B4601EB800200994846CDE9FC
:1028000000A1214600F072FB0090002838D00A9801
:10281000E8B1DDE906322946009800F040FAB0B987
:102820000698009FDA46D0F810C0BCF1000F05D022
:1028300004235A4639463846E04708E00B99386881
:10284000884701C7AAF101005FEA000AF6D10099A2
:102850000020079ACDE90301059001200090CDE901
:10286000010221460346641C2A46484600E007E070
:1028700003F0F0F9A8F10100761C5FEA0008ABD183
:1028800011B0BDE8F08F0000640200207C0200203F
:102890001F610008014602480068407C00F002B851
:1028A00064020020044A126802B10020002900DC02
:1028B0000121024A115470479C020020900200201E
:1028C000094A126802B10020074A1C3252F820302F
:1028D000002B07DBA2F1180343F820104FF0FF3163
:1028E00042F82010704700009C02002010B500281C
:1028F00021D009B30AB3B1F90040B2F900309C42CB
:1029000000DA23460380B1F90240B2F902309C425A
:1029100000DA23464380B1F90440B2F904309C4206
:1029200000DD23468380B1F90610B2F906209142FA
:1029300000DC1146C18010BD11460A68026049687A
:10294000416010BD00280BD003880B4403808388AE
:1029500019448180418811444180C1881144C1805B
:10296000704700002DE9FC41154DDDE908742D6824
:10297000B5F90860864200DD3046B5F90C60964234
:1029800000DA3246824219DBB5F90A608E4200DD78
:102990003146B5F90E509D4200DA2B468B420DDBD5
:1029A00000E02C46E5682D6825B1042D02D025688D
:1029B000002DF6D1CDE9007403F0BEFCBDE8FC812A
:1029C00064020020B0F90220B1F906309A4213DC0B
:1029D000B1F90220B0F906309A420DDCB0F90020BE
:1029E000B1F904309A4207DCB1F90010B0F90400E3
:1029F000814201DC012070470020704710B5FFF7CD
:102A000003FE03F065FD03F083FE05F08FFFBDE8D4
:102A1000104000F0F3B8000070B5094D0446286876
:102A2000467CFFF7F1FD022C03D228684474FFF7BF
:102A3000E5FF0448046000F0E1F8304670BD000096
:102A4000640200204803002010B50446FFF7DCFDB7
:102A5000204603F05DFDBDE8104000F0CFB810B592
:102A60000446FFF7D1FD204603F08AFDBDE8104083
:102A700000F0C4B801498860704700005802002087
:102A800010B50446FFF7C0FD204603F0A1FD044643
:102A900000F0B4F8204610BD70B50446FFF7B4FD51
:102AA00004480068C56904B1C46100F0A7F828466D
:102AB00070BD00006402002070B50C460546FFF7AB
:102AC000A3FD09482246058008480480084800689C
:102AD000417C084850F82100C1680B6A2946984794
:102AE000BDE8704000F08AB8980200209A020020E9
:102AF000640200207C02002070B50546FFF784FDCB
:102B000003480068047E057600F078F8204670BD22
:102B10006402002070B50446FFF776FD04480068A3
:102B2000B0F92C50848500F069F8284670BD00008B
:102B30006402002002480068002800D00047704767
:102B4000EC03002002498A6802B98860FFF7F2BFEF
:102B5000E00300202DE9F041084E04460568306886
:102B600001682846884707463068416828468847F4
:102B7000284420603846BDE8F0810000680200204B
:102B80002DE9F0410C4606460025064F05E0386861
:102B900041683046884706440544641EF7D22846FB
:102BA000BDE8F081680200202DE9F0411E46069C38
:102BB0001746884605463A46A8687F1C3346D0F833
:102BC00004C041462846E047641EF4D1BDE8F081C8
:102BD00038B50546FFF718FD2846FFF701FA0090C3
:102BE0008189491E0CB284816846FFF707FA14B93F
:102BF0002846FFF773F900F001F838BD0348C168B3
:102C0000491EC16001D100F037B8704710030020A1
:102C100010B54FF400310348FFF758F90248FFF7A9
:102C200029FF10BDEC680020AC100208704710B5F9
:102C300009F0BCF910BD70471CB50020019001A837
:102C400009F018F905490860002000900121684644
:102C500009F06EF9024908601CBD000074000020F4
:102C60007800002010B54FF0FF310248006809F0ED
:102C70002DF910BD7400002010B50248006809F05D
:102C8000FFF810BD740000200EB508B102AA00E0E4
:102C90000022002301A9684600F0B2FA0EBD2DE91A
:102CA000F0411E680D460446082A09DC0746012A41
:102CB0001AD0022A5BD0042A7DD0082A13D18DE0D5
:102CC000102A07DCD3F810C00746BCF1000F04D06F
:102CD000022389E00020BDE8F08101CCB04727F84D
:102CE000020B6D1EF9D18AE001CCB047C0074FEA54
:102CF00010686D1E36D001CCB04748EA801000F055
:102D0000FF086D1E2ED001CCB04748EA401000F0FD
:102D1000FF086D1E26D001CCB04748EA001000F035
:102D2000FF086D1E1ED001CCB04748EAC00000F07D
:102D3000FF086D1E16D001CCB04748EA800000F0B5
:102D4000FF086D1E0ED001CCB04748EA400000F0ED
:102D5000FF086D1E06D001CCB04740EA080000F025
:102D6000FF086D1E07F8018B002DBDD147E001CC97
:102D7000B04780074FEA10686D1E16D001CCB047EF
:102D800048EA001000F0FF086D1E0ED001CCB047DD
:102D900048EA800000F0FF086D1E06D001CCB04765
:102DA00040EA080000F0FF086D1E07F8018B002DB7
:102DB000DDD124E0FFE701CCB04700074FEA1068FF
:102DC0006D1E06D001CCB04740EA080000F0FF08B5
:102DD0006D1E07F8018B002DEDD110E0D3F810C067
:102DE000BCF1000F05D001230A4601463846E047F2
:102DF00005E001CCB04707F8010B6D1EF9D10120A9
:102E000069E700000B4810B58169002910D1012144
:102E10008161FFF7FDFEFEF7E7FE03F08BFC05493D
:102E200005481C310860BDE81040084600F094BB1E
:102E300010BD00005802002021B400087CB50646F1
:102E400028480D46006868B1002006F099F806E0B1
:102E50006A462946304606F095FB06F037F800280A
:102E6000F6D17CBD106800901F4C5068019022681C
:102E7000BDF8000032F84C1F0844ADF80000BDF862
:102E8000020091880844ADF80200BDF804001188E2
:102E90000844ADF80400BDF8060091880844ADF878
:102EA0000600684606F06CF80EE000BF2068BDF82A
:102EB00000106A464184BDF80210818429463046DC
:102EC00006F060FB06F002F80028EFD1206830F829
:102ED000221F428D891A01804188C28D891A418042
:102EE0007CBD000094020020640200202DE9FF4F09
:102EF0008DB00020DDF86CA0164600901D460446FB
:102F00000246CAF8000008AB03A902A800F078F94D
:102F100018B1002011B0BDE8F08F0898854200DD9F
:102F20000546614F0B9561493868407C51F8201087
:102F3000049109690691FFF785FA05903868407C8D
:102F4000FFF714FB5A498146884204D05949894504
:102F500001D0012000E000200A9001CE1A99884794
:102F60008346000E079077D0009870BB0D9800EB59
:102F700004084D480068B0F90800404503DDA0EBA7
:102F80000807804600E000270298049900EB8400BF
:102F900000EB8700CDE900010B990D9842180992CA
:102FA0000E9B40461946521EFFF7DCFC01200090A4
:102FB000059818280ADA0298DDE9052300EB840059
:102FC00000EB8700E91B00F079F812E00A9880B165
:102FD000029800EB840000EB87070998A0EB080833
:102FE00049463868884701C7A8F101005FEA000830
:102FF000F6D13148C06980B3DDE9020700EB8400F7
:1030000007EB8402CDE902022B4C361F3046E469FF
:103010002B460299A047FF213068B1EB106F02D117
:103020000298006804E0029A1268B1EB126F01D1B5
:10303000039A1060029806F10406001D029003989E
:10304000001D03906D1EE7D10397DAF8000040F0F1
:103050000101CAF8001020E021E0FFE70798FF28EF
:1030600011D0C0F1FF02029850F82410584600F029
:1030700019FA039941F82400DAF8000040F0010140
:10308000CAF8001005E00298039950F8240041F8AE
:103090002400641C6D1E7FF460AF03983AE7039927
:1030A00041F824B0E8E70000640200207C02002020
:1030B0001F6100081D610008A00300202DE9F05FDA
:1030C0000C1E16DD5E68014600EB8405082A12DC42
:1030D000611E012A26D0022A47D0042A6AD0082A73
:1030E00007D1071917F8010DB04745F8040D641E04
:1030F000F8D1BDE8F09F102AFBDC5F693FB12246A2
:10310000BC46BDE8F04F02235DF804EB604701EBDD
:10311000440700BF37F8020DB04745F8040D641EA0
:10312000F8D1E6E700EBE10001F0070710F801A98C
:103130008146802020FA07F8B5F104050AEA080064
:10314000C7F10701C840B04745F804093FB14FEA4D
:1031500048604FEA10687F1E641EEFD1C9E719F876
:1031600001A907274FF00108F6E700EBA10001F0E5
:10317000030710F801A981467900C02020FA01F860
:103180004FF0060BB5F104050AEA0800ABEB470166
:10319000C840B04745F804093FB14FEA88604FEA9C
:1031A00010687F1E641EEFD1A3E7032719F801A959
:1031B000B846F7E700EB6100012710F801A9A74323
:1031C0008146B900F02020FA01F84FF0040B2D1FC2
:1031D0000AEA0800ABEB8701C840B04745F804098C
:1031E0003FB14FEA08704FEA10687F1E641EEFD1AE
:1031F0007FE719F801A901274FF00F08F6E7000053
:103200002DE9F047224C06461F46A06990468946A4
:10321000002540B90120A06104F120011D4808608B
:10322000084600F099F9606930B91B480068606190
:1032300010B902F03CFF606107B138604EB1A06880
:1032400030B960698000FEF773FEA06000B9012507
:103250003060B9F1000F0AD0E06830B960698000D1
:10326000FEF766FEE06000B90125C9F80000B8F17C
:10327000000F0AD0206930B960698000FEF758FE5F
:10328000206100B90125C8F800002846BDE8F08794
:10329000A0030020BDB400088802002073B5124AC4
:1032A00001A900981268904700240090C8B10F4906
:1032B00000250968C969496959B10A684AB1019983
:1032C00090477CBD6846FFF745FC0546FFF7D0F800
:1032D00004440198401E0190F4D5284600F024F8DB
:1032E000044420467CBD0000DC0300206402002072
:1032F00073B50D460098002490B10A490968C96960
:10330000496959B14A684AB1294690477CBD684627
:10331000FFF720FC20B10A2802D0641CAC42F6DB87
:1033200020467CBD6402002038B500246946009424
:10333000FFF7B0F80099814200DD0C1A204638BD35
:10334000B0F90030B1F90020934200DA0280B0F900
:103350000230B1F90220934200DA4280B0F9043021
:10336000B1F90420934200DD8280B0F90620B1F962
:1033700006108A4200DDC180704770B5B1F9004087
:10338000B2F900309C4200DD23460380B1F90250BF
:10339000B2F90240A54200DD2C464480B1F9046038
:1033A000B2F90450AE4200DA35468580B1F9061014
:1033B000B2F90620914200DB1146C1809D4201DB3B
:1033C000A14201DA002070BD012070BD0146024813
:1033D0000068407C00F002B8640200202DE9F84348
:1033E000012604468946022857DADFF8B48008002F
:1033F00008F1040530D0012802D002294DD116E091
:1034000055F8240088B92046FEF72CFF009010B331
:10341000C0680D21426A6846904702003DD0494687
:103420000098904755F824000026401C33E02046C1
:10343000FEF718FF009070B1C0680D21426A68461F
:103440009047040029D0D8F8000000B180474946D1
:103450000098A047002620E055F82400012813D149
:103460002046FEF7FFFE009070B1C0680D21426A51
:1034700068469047070007D0D8F8000000B18047A1
:1034800049460098B847002655F8240008B10121A4
:1034900000E00021401A45F824003046BDE8F883DA
:1034A000C803002070B5FF23B3EB116F2CD0C3B25B
:1034B00013FB02F500F47F4400F47F0354435343AD
:1034C000000E10FB02F6C2F1FF00CAB212FB00525E
:1034D00001F47F4505FB004401F47F0505FB003343
:1034E000090E11FB0065C2F307204FF47F024FF471
:1034F0007F4102EA132201EA14214FF07F4308437F
:1035000003EA05431043184370BD2DE9F04F06460A
:10351000DDE90CB915460C4600208046584519D205
:103520000B9F4FF0FF0A01CE08CCAAEB106202FB02
:1035300009F2B2FBFAF1CAB21946FFF7B3FF20F065
:103540007F4001C57F1EEED1099804EB800408F18D
:103550000100E2E7BDE8F08F02494A694260486134
:10356000704700005802002010B502E000F8011B6F
:10357000521E0AB18307F9D1930818D001EB014418
:1035800002F0030204EB042406E010C01B1F10C06D
:1035900040F8084B40F8044C042BF6DA01E010C068
:1035A0005B1E002BFBD102E000F8011B521E002A1B
:1035B000FAD110BD10B50146C1EBC102094B03EBB6
:1035C0008202D268C1EBC103064C04EB83031B6982
:1035D0005A43C1EBC10304EB83035B6902FB03F0B5
:1035E00010BD0000EC68022018B5024600200090D3
:1035F00000BF92F83C00012801D1022018BD012033
:1036000082F83C0000BF0868092816D91068C06815
:103610000B780A3B03EB43040723A340984313684A
:10362000D8600B780A3B03EB430388689840136823
:10363000DB6818431368D86013E0106800690B78E2
:1036400003EB43040723A3409843136818610B78E6
:1036500003EB43038868984013681B691843136899
:1036600018614868072817D21068406B0B795B1EF9
:1036700003EB83041F23A34098431368586308880F
:1036800080B20B795B1E03EB8303984013685B6B7E
:1036900018431368586331E048680D2817D2106842
:1036A000006B0B79DB1F03EB83041F23A3409843BC
:1036B00013681863088880B20B79DB1F03EB830360
:1036C000984013681B6B18431368186316E0106862
:1036D000C06A0B790D3B03EB83041F23A34098437F
:1036E0001368D862088880B20B790D3B03EB830323
:1036F00098401368DB6A18431368D8621C4B106843
:10370000984208D10868122805D11A48006840F488
:103710008000C3F80403164B1068984220D1164B62
:103720000868984202D00868112819D11148006829
:1037300040F400000F4B18600F4B086898420FD1FF
:103740000E4800680E4BB0FBF3F000EB8000400029
:10375000009002E00098401E009000980028F9D1E7
:1037600000BF002082F83C0000BF00BF46E7000019
:10377000002001400423014012000010040000203A
:1037800040420F0010B504460CB9012010BD10498D
:10379000E06A884200D000BF94F83D0028B90020BC
:1037A00084F83C00204600F015F8022084F83D0023
:1037B0002046FDF781F800202064012084F83D00B8
:1037C00000BF002084F83C0000BF00BFDEE700001F
:1037D0000100000F10B586B004460F4920688842EA
:1037E00017D100BF0D48006840F480700B49086095
:1037F0000846006800F48070009000BF00BF0820F9
:103800000190032002900020039001A9044800F0D9
:103810000DF906B010BD0000002001404438024000
:103820000008024010B504460CB9012010BD6079B3
:1038300020B900202071204600F006F802206071B7
:10384000012060710020F1E708B5094A0168914242
:103850000DD100BF0749096841F48051054A116044
:103860001146096801F48051009100BF00BF08BDF6
:10387000003002403038024070B5044600250CB9D3
:10388000012070BD94F8390028B9002084F8380070
:10389000204600F023F8022084F8390020680568EB
:1038A00025F4403560680543206805602068456B55
:1038B00025F00705A0680543206845632068056C6E
:1038C0006FF30D05E0680543206805640020E063A0
:1038D000012084F839000020D3E7000008B5094A28
:1038E000016891420DD100BF0749096841F4000108
:1038F000054A11601146096801F40001009100BFFA
:1039000000BF08BD00B002403038024031B500248D
:1039100000F0A6F9044600BF00F0A2F9001B0099D0
:103920008842F9D338BD000000B587B03748006839
:1039300008B107B000BD01203449086000BF344819
:10394000006840F00100324908600846006800F055
:103950000100019000BF00BF4FF63F00029002201F
:10396000039000200490032005900C20069002A9EB
:10397000284800F05BF8012002900220039000200C
:103980000490032005900C20069002A9224800F024
:103990004DF848F23310029002200390002004906A
:1039A000032005900C20069002A91C4800F03EF868
:1039B0004FF68370029002200390002004900320B1
:1039C00005900C20069002A9154800F02FF8C020A1
:1039D00002900220039000200490032005900C2008
:1039E000069002A90F4800F021F84CF203700290F3
:1039F0000220039000200490032005900C200690E4
:103A000002A9094800F012F800BF92E78C000020DC
:103A100038380240001402400008024000180240FA
:103A200000100240001C0240000C0240F8B50246A3
:103A30000B460025002400200021E4E0012606FAC0
:103A400001F51E6806EA0504AC4271D15E68022EDB
:103A500002D05E68122E13D1CF0802F1200656F86C
:103A600027004E07F70E0F26BE40B0434F07FF0E4C
:103A70001E69BE403043CF0802F1200646F82700F9
:103A800010684F000326BE40B0431E7906F00306BF
:103A90004F00BE40304310605E68012E08D05E6863
:103AA000022E05D05E68112E02D05E68122E13D150
:103AB00090684F000326BE40B0434F00DE68BE4012
:103AC00030439060506801268E40B0431E79C6F3A3
:103AD00000168E4030435060D0684F000326BE4031
:103AE000B0434F009E68BE403043D0605E6806F031
:103AF0008056B6F1805FA8D100BF454E366846F4C7
:103B00008046434F3E603E46366806F48046009647
:103B100000BF00BF3F4E8F0856F827008E07370FB3
:103B20000F26BE40B0433C4EB24202D100262EE0EA
:103B300068E03A4EB24201D1012628E0384EB24246
:103B400001D1022623E0374EB24201D103261EE006
:103B5000354EB24201D1042619E0344EB24201D1B1
:103B6000052614E0324EB24201D106260FE0314E56
:103B7000B24201D107260AE02F4EB24201D10826F7
:103B800005E02E4EB24201D1092600E00A268F0739
:103B90003F0FBE4030431F4E8F0846F82700284E87
:103BA0003068A0435E6806F48036B6F5803F00D1E9
:103BB0002043234E3060361D3068A0435E6806F413
:103BC0000036B6F5003F00D120431D4E361D306053
:103BD000361D3068A0435E6806F48016B6F5801F77
:103BE00000D12043164E08363060361D3068A043A1
:103BF0005E6806F40016B6F5001F00D12043104E93
:103C00000C363060491C1029FFF418AFF8BD0000D5
:103C100044380240083801400000024000040240DD
:103C200000080240000C0240001002400014024054
:103C300000180240001C0240002002400024024004
:103C4000003C0140024613690B400BB1012000E02B
:103C5000002070470AB1816101E00B048361704765
:103C600001480068704700000000002070B504465D
:103C7000002600250CB9012070BD94F8350028B944
:103C8000002084F83400204600F080F8022084F8F8
:103C900035002068006820F001002168086001F00C
:103CA0003BF805463748B5FBF0F6206846603649D4
:103CB0006068884201D8701C07E04FF4967070432A
:103CC0004FF47A71B0FBF1F0401C216808622E4974
:103CD000606888420ED860684000B5FBF0F0C0F321
:103CE0000B00042801D204202DE060684000B5FBE1
:103CF000F0F028E0A06828B9606800EB4000B5FB50
:103D0000F0F008E0606800EBC00101EB0010B5FBCB
:103D1000F0F040F48040C0F30B0008B9012012E03D
:103D2000A06828B9606800EB4000B5FBF0F008E03F
:103D3000606800EBC00101EB0010B5FBF0F040F44F
:103D4000804040F400402168C861D4E9070108437D
:103D500021680860D4E90310084321688860D4E929
:103D6000050108432168C8602068006840F0010030
:103D7000216808600020A063012084F8350000203D
:103D80007AE7000040420F00A086010010B586B01F
:103D900004461849206888422AD140150190122013
:103DA000029001200390002004900420059001A9B6
:103DB0001148FFF73BFE4FF48070019012200290F3
:103DC00001200390002004900420059001A90B48D5
:103DD000FFF72CFE00BF0A48006840F400000849C5
:103DE00008600846006800F40000009000BF00BFB3
:103DF00006B010BD005C0040000802400000024018
:103E00004038024002480068401C01490860704781
:103E10000000002010B50D48006840F400700B4908
:103E200008600846006840F4806008600846006842
:103E300040F480700860032000F032FC002000F0A5
:103E400007F800F0D7FB002010BD0000003C024046
:103E500070B5044600F044FF4FF47A71B0FBF1F501
:103E6000284601F036FC00222146501E00F0D9FB06
:103E7000002070BDF0B5044615460026002200273C
:103E800000BF94F8A000012801D10220F0BD01205C
:103E900084F8A00000BF022084F8A100002237E0CF
:103EA00003EB830000EBC30C04F1380000EB8C0043
:103EB0000069062813D108784FF0100C0CFB022C77
:103EC00040EA0C60B1F800C00CF47F4C40EA0C00F2
:103ED000D1F800C00CF47F0C40EA0C060EE0087824
:103EE00040EA0260B1F800C00CF47F4C40EA0C00DC
:103EF000D1F800C00CF47F0C40EA0C060F1D3946C7
:103F0000206884304FF0800C0CFB03000664521CC8
:103F1000AA42C5D3012084F8A10000BF002084F884
:103F2000A00000BF00BFB1E730B5034600BF93F863
:103F3000A000012801D1022030BD012083F8A0009B
:103F400000BF022083F8A10018688430802404FB9D
:103F50000200C06800F07F4418688430802505FBAB
:103F60000200C46018688430802404FB0200C16031
:103F700001201C68606283F8A10000BF002083F864
:103F8000A00000BF00BFD7E770B504460E46154637
:103F900000BF94F8A000012801D1022070BD0120CB
:103FA00084F8A00000BF022084F8A10005EB850181
:103FB00001EBC50204F1380101EB820034223146E5
:103FC000FCF74DFB2A463146204602F0D7FC012083
:103FD0002168486284F8A10000BF002084F8A00096
:103FE00000BF00BFDAE710B5024600BF92F8A0009C
:103FF000012801D1022010BD012082F8A00000BFDD
:10400000022082F8A10010688430CB01C05820F053
:10401000020310688430CC010351012013685862F8
:1040200082F8A10000BF002082F8A00000BF00BFFE
:10403000E1E710B5024600BF92F8A000012801D1C7
:10404000022010BD012082F8A00000BF022082F8EB
:10405000A10010688430CB01C05840F00203106802
:104060008430CC01035101201368586282F8A1000A
:1040700000BF002082F8A00000BF00BFE1E770474A
:1040800010B504462068806B00F00400F0B1206891
:10409000806B00F00400C8B12068406B20F0040081
:1040A0002168486304202168C863D4F8A40040F064
:1040B0000100C4F8A400042084F8A10000BF00207F
:1040C00084F8A00000BF2046FFF7D9FF2068806B6E
:1040D00000F00200F0B12068806B00F00200C8B16F
:1040E0002068406B20F002002168486302202168AC
:1040F000C863D4F8A40040F00200C4F8A40004206F
:1041000084F8A10000BF002084F8A00000BF204672
:10411000FFF7B5FF2068806B00F00100B8B12068A0
:10412000806B00F0010090B12068406B20F001002E
:104130002168486301202168C86384F8A10000BF9A
:10414000002084F8A00000BF204600F095F810BDC4
:1041500070B50446002500260CB9012070BD94F806
:10416000A10028B9002084F8A000204600F0D4F86F
:10417000022084F8A1002068806920F07040216846
:104180008861D4E901010843E168084321690843D3
:1041900021688969084321688861206880683549F9
:1041A000084021688860A08A050420688068A169A9
:1041B00029430843216888602068C0682D49084069
:1041C0002168C860A08B05042068C068216A294363
:1041D00008432168C86020680069264908402168B2
:1041E0000861A08C050420680069A16A294308437E
:1041F00021680861206840691E49084021684861BB
:10420000A08D050420684069216B2943084321687B
:10421000486194F83500050294F8360006042068D9
:10422000C06A00F07F402168C86246EA050094F841
:10423000341008432168C96A08432168C8622068AD
:10424000406B40F00400216848632068406B40F0F8
:104250000200216848632068806940F001002168FD
:1042600088610020C4F8A400012084F8A100002087
:1042700074E7000000F800F070B50546002442E045
:10428000C4EBC400234901EB80004068002839DBFF
:10429000C4EBC40001EB8000C068C4EBC4011D4A3C
:1042A00002EB810109694843C4EBC40102EB8101BF
:1042B00049684843C4EBC40102EB81014969C4EB7E
:1042C000C402144B53F8222000FB0126224631463B
:1042D000284600F0FDF82868406A40F0010029688F
:1042E0004862C4EBC4000B4A02EB800041682046E0
:1042F000FEF7E6FA4FF0FF30C4EBC401054A02EBCB
:1043000081014860641C022CBAD30021284600F0C9
:10431000BBF870BDEC68022010B586B004464F496A
:10432000206888427ED14E48006840F080604C4949
:10433000086070200190022002900020039003206A
:1043400004900E20059001A94648FFF76FFB40F24C
:10435000146001900220029000200390032004903A
:104360000E20059001A94048FFF760FB4FF48060E4
:1043700001900220029000200390032004900E2060
:10438000059001A93948FFF751FB44F60C50019004
:104390000220029000200390032004900E2005903C
:1043A00001A93348FFF742FB482001900220029008
:1043B00000200390032004900E20059001A92D48B1
:1043C000FFF734FB032001900220029000200390AD
:1043D000032004900920059001A92748FFF726FB38
:1043E0004FF470600190022002900020039003209F
:1043F00004900E20059001A91F48FFF717FB4FF40A
:10440000C6500190022002900020039003200490E7
:104410000E20059001A91948FFF708FB80200190A4
:10442000022000E018E00290002003900320049096
:104430000E20059001A91248FFF7F8FA40200190DC
:104440000220029000200390032004900E2005908B
:1044500001A90C48FFF7EAFA06B010BD0068014058
:104460004438024000100240002002400014024084
:10447000001C0240000002400004024000180240FC
:1044800000080240000C0240024600BF92F8A00063
:10449000012801D102207047012082F8A00000BF4E
:1044A000022082F8A1001068406B40F00100136800
:1044B000586306480160012082F8A10000BF002077
:1044C00082F8A00000BF00BFE5E70000406801409F
:1044D0002DE9F04104460E46174600BF94F8A000AF
:1044E000012802D10220BDE8F081012084F8A0005B
:1044F00000BF022084F8A10007EB870000EBC70192
:1045000004F1380000EB81056E623A4629462046E8
:1045100002F034FA01202168486284F8A10000BF4B
:10452000002084F8A00000BF00BFDCE72DE9F041C7
:1045300004460E46174600BF94F8A000012802D199
:104540000220BDE8F081012084F8A00000BF022015
:1045500084F8A10007EB870000EBC70104F13800E5
:1045600000EB81056E613A462946204602F006FAC4
:1045700001202168486284F8A10000BF002084F86F
:10458000A00000BF00BFDCE72DE9F04104460E4665
:104590001746984600BF94F8A000012802D10220D7
:1045A000BDE8F081012084F8A00000BF022084F85B
:1045B000A10008EB880000EBC80104F1380000EB13
:1045C00081052E60A86A30446860AF60E86A3844AC
:1045D000E86042462946204602F0D0F901202168D1
:1045E000486284F8A10000BF002084F8A00000BF4A
:1045F00000BFD5E710B5032000F052F800221146A5
:10460000501E00F00EF810BD00BF00F01F02012187
:1046100091404209920002F1E022C2F8001100BF6D
:1046200070472DE9F05F80460D461646002702F0E0
:1046300023FD074639462A46334601F00700C0F1FC
:10464000070ABAF1040F02D94FF0040A01E0C0F1E1
:10465000070AD14600F1040ABAF1070F02D24FF05F
:10466000000A01E0A0F1030AD4464FF0010A0AFA59
:1046700009FAAAF1010A0AEA020A0AFA0CFA4FF048
:10468000010B0BFA0CFBABF1010B0BEA030B4AEA33
:104690000B042146404602F0F7FCBDE8F09F000005
:1046A00000BF00F00702064B19684FF6FF031940E0
:1046B000044B0B4343EA0221014B196000BF7047D2
:1046C0000CED00E00000FA05F8B5044600250026D0
:1046D000207800F0010020B9207800F002000228C4
:1046E00066D10020CC498866FFF7BAFA054606E095
:1046F000FFF7B6FA401B642801D90320F8BDC7486C
:104700000068C0F3C0600028F2D1207800F00100FA
:1047100098B147F6C07191FAA1F1B1FA81F16068E0
:1047200088404FF0E04292FAA2F2B2FA82F2A16817
:1047300091400843B94984310860207800F00200B4
:10474000022821D1B5488430006800F0E0404FF0E5
:10475000E04191FAA1F1B1FA81F120FA01F6606825
:104760008101207B41EA006040EA0670AB49843158
:104770000860AA488C30006820F01F00E169491EDB
:104780000843A6498C3108600120A3498866FFF7D9
:1047900067FA054606E0FFF763FA401B642801D973
:1047A0000320ABE79D480068C0F3C0600028F2D04A
:1047B000207800F00400042804D0207800F00800DD
:1047C00008287DD1002094490867FFF749FA05467B
:1047D00006E0FFF745FA401B642801D903208DE766
:1047E0008E480068C0F340700028F2D1207800F0B5
:1047F0000400042834D189488830006800F0E04083
:104800004FF0E04191FAA1F1B1FA81F120FA01F6FD
:1048100047F6C07191FAA1F1B1FA81F1206988409F
:104820004FF0706292FAA2F2B2FA82F2616991409C
:1048300008434FF0E04191FAA1F1B1FA81F106FA93
:1048400001F10843754988310860081D006820F4AB
:10485000F851206A401E41EA002070498C310860FE
:10486000207800F00800082834D16C4888300068AF
:1048700000F070604FF0706191FAA1F1B1FA81F12E
:1048800020FA01F647F6C07191FAA1F1B1FA81F16F
:10489000206988404FF0706191FAA1F1B1FA81F17D
:1048A00006FA01F108434FF0E04292FAA2F2B2FA9E
:1048B00082F2A1699140084358498831086000E0BC
:1048C0001CE0081D006820F44030616A0843534929
:1048D0008C310860012050490867FFF7C1F905468F
:1048E00006E0FFF7BDF9401B642801D9032005E766
:1048F0004A480068C0F340700028F2D0207800F0E9
:10490000200020287CD100BF44484030006840F09F
:1049100080504249403108600846006800F08050ED
:10492000009000BF00BF3E48006840F480703C49E2
:104930000860FFF795F9054606E0FFF791F9401B7F
:10494000642801D90320D9E63548006800F4807056
:104950000028F2D031487030006800F44070218D9A
:1049600001F4407188420CD02C487030006820F46B
:10497000407601202B4908600020086027487030ED
:104980000660A06AB0F5807F13D1FFF769F905468C
:1049900008E0FFF765F9401B41F28831884201D9F0
:1049A0000320ABE61D4870300068C0F340000028CB
:1049B000EFD000BF208D00F44070B0F5407F0CD1E7
:1049C00016480830006820F4F810174AA16A114010
:1049D000084312490831086007E0104808300068B1
:1049E00020F4F8100D49083108600C487030006858
:1049F000218DC1F30B01084308497031086000BFE5
:104A0000207800F01000102803D194F82C000749FA
:104A10000860002072E600000000474200380240B3
:104A200000700040400E4742FFFCFF0FE01147427C
:104A300070B504460E460025A748006800F00F0038
:104A4000B0426FD2A4490E700846006800F00F0013
:104A5000B04201D0012070BD207800F00200022891
:104A600007D19E48006820F0F000A16808439B49E8
:104A70000860207800F0010000283ED0606801281E
:104A800007D1964808380068C0F34040B8B9012003
:104A9000E1E76068022802D06068032807D18F48E8
:104AA00008380068C0F3406048B90120D3E78B485C
:104AB00008380068C0F3400008B90120CBE78748F8
:104AC000006820F003006168084384490860FFF72C
:104AD000C7F805466068012810D108E0FFF7C0F864
:104AE000401B41F28831884201D90320B3E77B485B
:104AF000006800F00C000428F0D1CDE060680228C6
:104B000011D108E0FFF7ACF8401B41F28831884230
:104B100001D903209FE77148006800F00C000828C5
:104B2000F0D1B9E024E06068032810D108E0FFF775
:104B300097F8401B41F28831884201D903208AE767
:104B40006648006800F00C000328F0D1A4E008E0FB
:104B5000FFF786F8401B41F28831884201D90320D3
:104B600079E75E48006800F00C000028F0D193E07F
:104B7000207800F00200022807D15848006820F091
:104B8000F000A168084355490860207800F0010052
:104B9000002877D06068012807D15048083800689D
:104BA000C0F34040B8B9012055E76068022802D040
:104BB0006068032807D1494808380068C0F340609E
:104BC00048B9012047E7454808380068C0F340006D
:104BD00008B901203FE74148006820F00300616800
:104BE00008433E490860FFF73BF805466068012826
:104BF00010D108E0FFF734F8401B41F288318842B9
:104C000001D9032027E73548006800F00C0004288C
:104C1000F0D137E06068022810D108E0FFF720F8F3
:104C2000401B41F28831884201D9032013E72B4809
:104C3000006800F00C000828F0D123E06068032829
:104C400010D108E0FFF70CF8401B41F28831884290
:104C500001D90320FFE62148006800F00C0003287A
:104C6000F0D10FE008E0FEF7FBFF401B41F2883176
:104C7000884201D90320EEE61848006800F00C00D5
:104C80000028F0D114490E700846006800F00F00AB
:104C9000B04201D00120DEE6207800F004000428B4
:104CA00007D10E48006820F4E050E16808430B4942
:104CB0000860207800F00800082808D1074800683C
:104CC00020F46040216940EAC100044908600020E6
:104CD000FFF7BEF80020BEE6003C02400838024064
:104CE00010B500F02FF80949096801F0F001F02231
:104CF00092FAA2F2B2FA82F2D140054A515CC8405F
:104D0000044908600846006810BD000008380240E9
:104D100086D500080400002010B5FFF7E1FF074921
:104D2000096801F4E0514FF4E05292FAA2F2B2FAAB
:104D300082F2D140024A515CC84010BD083802409E
:104D400086D5000870B50021002200230020274CE2
:104D5000246804F00C0424B1042C04D0082C41D1A4
:104D600003E0234840E023483EE0204C241F246811
:104D700004F03F011D4C241F246804F4800484B116
:104D80001C4CB4FBF1F5194C241F246847F6C0767F
:104D9000344096FAA6F6B6FA86F6F44005FB04F21D
:104DA0000FE0134CB4FBF1F5104C241F246847F6B8
:104DB000C076344096FAA6F6B6FA86F6F44005FBBD
:104DC00004F20A4C241F246804F440344FF44035A4
:104DD00095FAA5F5B5FA85F5EC40641C6300B2FBC5
:104DE000F3F001E0024800BF00BF70BD0838024088
:104DF0000024F40000127A0038B50446002520781B
:104E000000F00100002866D0F648006800F00C00B1
:104E100004280DD0F348006800F00C00082813D1D6
:104E2000F048001F006800F48000B0F5800F0BD13F
:104E3000EC4808380068C0F3404000284BD0606858
:104E4000002848D1012038BD0020E649891F08709C
:104E5000FEF706FF054608E0FEF702FF401B41F2A1
:104E60008831884201D90320EDE7DE480838006820
:104E7000C0F340400028EFD12079DA49891F08703B
:104E80006068A0B1FEF7ECFE054608E0FEF7E8FE1C
:104E9000401B41F28831884201D90320D3E7D14831
:104EA00008380068C0F340400028EFD013E0FEF758
:104EB000D7FE054608E0FEF7D3FE401B41F28831DD
:104EC000884201D90320BEE7C64808380068C0F30D
:104ED00040400028EFD1207800F00200022869D17C
:104EE000C048006800F00C0058B1BE48006800F0EF
:104EF0000C00082821D1BB48001F006800F4800086
:104F0000D8B9B84808380068C0F3400020B1E0685C
:104F1000012801D0012096E7B2480838006820F047
:104F2000F800F82292FAA2F2B2FA82F221699140D4
:104F30000843AC49083908603CE0E06828B3012028
:104F4000A9490860FEF78CFE054606E0FEF788FEDC
:104F5000401B642801D9032075E7A248083800687F
:104F6000C0F340000028F1D09E480838006820F0C7
:104F7000F800F82292FAA2F2B2FA82F22169914084
:104F8000084398490839086014E0002096490860F1
:104F9000FEF766FE054606E0FEF762FE401B64284B
:104FA00001D903204FE78F4808380068C0F340005C
:104FB0000028F1D1207800F0080008282CD1606981
:104FC000A8B1012089490860FEF74AFE054606E0BF
:104FD000FEF746FE401B642801D9032033E78148D1
:104FE0006C300068C0F340000028F1D014E00020CD
:104FF0007E490860FEF734FE054606E0FEF730FE07
:10500000401B642801D903201DE776486C300068F6
:10501000C0F340000028F1D1207800F004000428FB
:105020006DD100BF6F483830006840F080506D4946
:10503000383108600846006800F08050009000BFDA
:1050400000BF6B48006840F4807069490860FEF753
:1050500007FE054606E0FEF703FE401B642801D963
:105060000320F0E66248006800F480700028F2D067
:1050700000205C4968310870FEF7F2FD054608E043
:10508000FEF7EEFD401B41F28831884201D9032032
:10509000D9E6544868300068C0F340000028EFD1DA
:1050A000207A504968310870A068A0B1FEF7D8FD99
:1050B000054608E0FEF7D4FD401B41F288318842E6
:1050C00001D90320BFE6474868300068C0F34000BC
:1050D0000028EFD013E0FEF7C3FD054608E0FEF719
:1050E000BFFD401B41F28831884201D90320AAE666
:1050F0003C4868300068C0F340000028EFD1A06948
:10510000F0B33848006800F00C00082872D0A0699D
:10511000022850D1002034490866FEF7A1FD05465B
:1051200006E0FEF79DFD401B642801D903208AE6B6
:105130002C4808380068C0F340600028F1D1D4E959
:105140000701084347F6C07292FAA2F2B2FA82F25D
:10515000616A914008430122A16AC2EB51014FF4F8
:10516000403292FAA2F2B2FA82F2914008434FF032
:10517000706292FAA2F2B2FA82F2E16A914000E021
:105180003AE008431749091F0860012016490866DC
:10519000FEF766FD054606E0FEF762FD401B64284B
:1051A00001D903204FE60F4808380068C0F340607B
:1051B0000028F1D020E000200B490866FEF750FDE2
:1051C000054606E0FEF74CFD401B642801D903208C
:1051D00039E6044808380068C0F340600028F1D17F
:1051E0000AE007E00838024000004742800E4742CC
:1051F00000700040012026E6002024E610B5044699
:105200000CB9012010BD607F20B900202077204616
:1052100000F04EF80220607700BFCA202168486283
:1052200053202168486200BF204601F053FF40B17F
:1052300000BFFF202168486200BF04206077012082
:10524000E0E7206880681949084021688860216982
:1052500060680843616908432168896808432168D8
:1052600088602168E068086120680169208941EA56
:105270000040216808612068C06820F08000216833
:10528000C8602068006C20F48020216808642068D1
:10529000006CA16908432168086400BFFF202168F1
:1052A000486200BF012060770020ABE7BFFF8FFF9F
:1052B00010B598B004460C200C90002012900120EC
:1052C0000E90002011900CA8FFF796FD2020009072
:1052D000C0000A906846FFF7F7F90120014908600D
:1052E00018B010BD3C0E474270B504460D460CB9CF
:1052F000012070BD94F82C0028B9002084F82D00FE
:10530000204600F011F8022084F82C00211D2068AE
:10531000FCF716F92946D4E90002FCF77DF90120D3
:1053200084F82C000020E4E710B50446FEF7FCFAF0
:1053300010BD70B504460D4694F82C00022800D12B
:1053400070BD022084F82C0029462068FCF732F951
:10535000012084F82C000020F2E770B504460D46C9
:10536000164694F82C00022800D170BD022084F863
:105370002C00324629462068FCF723F928680228C9
:1053800003D1052084F82C0002E0012084F82C00D1
:105390000020EAE710B504460CB9012010BD94F8CE
:1053A000510028B9002084F85000204600F036F85B
:1053B000022084F851002068006820F04000216835
:1053C0000860D4E901010843E16808432169084302
:1053D00061690843218B01F400710843E1690843C6
:1053E000216A0843A16A0843216808600421A06972
:1053F00001EA1040616A0843216848602168E06A58
:1054000008612068C06920F400602168C86100203C
:105410006065012084F851000020BFE710B586B018
:1054200004463549206888421DD100BF33480068D2
:1054300040F40040314908600846006800F400402C
:10544000009000BF00BF4FF4E05001900220029096
:1054500000200390032004900620059001A928480D
:10546000FEF7E4FA46E02749206888421FD100BFD2
:105470002248001D006840F480102049091D086082
:105480000846006800F48010009000BF00BF4FF491
:10549000607001900220029000200390032004908D
:1054A0000520059001A91848FEF7C0FA22E0174927
:1054B000206888421ED100BF1048001D006840F4DB
:1054C00000100E49091D08600846006800F400102D
:1054D000009000BF00BF4FF4C04001900220029036
:1054E00000200390032004900520059001A908489E
:1054F000FEF79CFA06B010BD003C00404038024068
:1055000000080240005001400014024000540140D5
:1055100000180240F8B504460E4615461F4694F89A
:105520005100012873D106B10DB90120F8BD00BFAB
:1055300094F85000012801D10220F7E7012084F8F7
:10554000500000BF122084F85100002060652663DF
:10555000A586E586E064A064A087E087A06AB0F530
:10556000005F0DD100BF2068006820F40050216862
:1055700008602068006840F400502168086000BF9F
:10558000A068B0F5004F05D12068006840F4804065
:10559000216808602068006800F04000402805D0BD
:1055A0002068006840F0400021680860E06878BB2F
:1055B000606810B1E08E012808D1216B481C20637F
:1055C00008782168C860E08E401EE08611E03B4606
:1055D00000220221204601F007FE08B10320A5E7C2
:1055E000216B481C206308782168C860E08E401E4B
:1055F000E086E08E0028EADCA06AB0F5005F38D1D2
:105600002068006840F480502168086031E05EE066
:10561000FFE7606810B1E08E012809D1206B008897
:105620002168C860206B801C2063E08E401EE086ED
:1056300012E03B4600220221204601F0D5FD08B1D0
:10564000032073E7206B00882168C860206B801CF2
:105650002063E08E401EE086E08E0028E9DCA06A30
:10566000B0F5005F05D12068006840F480502168E3
:1056700008603B4600220221204601F0B5FD28B11A
:10568000606D40F01000606503204FE73B4601224B
:105690008021204601F0A8FD28B1606D40F0100087
:1056A0006065032042E7A06840B900BF2068C06879
:1056B000009020688068009000BF00BF012084F83F
:1056C000510000BF002084F8500000BF2EE70220E8
:1056D0002CE770B504462546681EB0F1807F01D3E3
:1056E00001200FE0681E4FF0E02148610F214FF0CC
:1056F000FF3001F0C9FC00204FF0E0218861072055
:105700000861002070BD70477047024600BF92F8E4
:105710003800012801D102207047012082F83800AA
:1057200000BF022082F839001068406820F0700045
:1057300013685860106840680B6818431368586015
:105740001068806820F08000136898601068806896
:105750004B68184313689860012082F8390000BF35
:10576000002082F8380000BF00BFD5E7704710B5B1
:10577000044620680069C0F34000D8B12068C068C2
:10578000C0F34000B0B16FF0020021680861012051
:1057900020762068806900F0030018B12046FFF7EA
:1057A000E5FF05E0204600F0ADF8204600F098F94E
:1057B0000020207620680069C0F38000D8B12068FE
:1057C000C068C0F38000B0B16FF0040021680861C8
:1057D000022020762068806900F4407018B12046CD
:1057E000FFF7C4FF05E0204600F08CF8204600F0EB
:1057F00077F90020207620680069C0F3C000D8B196
:105800002068C068C0F3C000B0B16FF00800216824
:105810000861042020762068C06900F0030018B1F8
:105820002046FFF7A3FF05E0204600F06BF8204676
:1058300000F056F90020207620680069C0F30010BF
:10584000D8B12068C068C0F30010B0B16FF010008C
:1058500021680861082020762068C06900F4407043
:1058600018B12046FFF782FF05E0204600F04AF815
:10587000204600F035F9002020762068006900F00D
:10588000010058B12068C06800F0010030B16FF02D
:10589000010021680861204600F08EF92068006947
:1058A000C0F3C01058B12068C068C0F3C01030B158
:1058B0006FF08000216808612046FFF724FF206810
:1058C0000069C0F3801058B12068C068C0F3801030
:1058D00030B16FF0400021680861204600F086F981
:1058E00020680069C0F3401058B12068C068C0F358
:1058F000401030B16FF02000216808612046FFF7AA
:1059000003FF10BD704770B504460D46164600BF34
:1059100094F83800012801D1022070BD012084F8DC
:10592000380000BF022084F8390036B1042E1BD0A5
:10593000082E31D00C2E5ED145E02946206801F0BA
:105940000BFE2068806940F00800216888612068AB
:10595000806920F0040021688861206880692969D5
:1059600008432168886147E02946206801F02CFE41
:105970002068806940F4006021688861206880693F
:1059800020F480602168886120688069296940EA84
:105990000120216888612FE02946206801F050FE2F
:1059A0002068C06940F008002168C8612068C069AB
:1059B00020F004002168C8612068C0692969084393
:1059C0002168C86118E02946206801F075FE20684A
:1059D000C06940F400602168C8612068C06920F493
:1059E00080602168C8612068C069296940EA012097
:1059F0002168C86100E000BF00BF012084F83900C1
:105A000000BF002084F8380000BF00BF85E710B554
:105A100004460CB9012010BD94F8390028B90020C3
:105A200084F83800204600F00DF8022084F8390090
:105A3000211D206801F010FD012084F839000020AC
:105A4000E9E7000010B586B0044620492068884286
:105A50001BD100BF1E48006840F002001C490860CE
:105A60000846006800F00200009000BF00BF8020E0
:105A700001900220029000200390049002200590E3
:105A800001A91448FDF7D2FF1EE01349206888429F
:105A90001AD100BF0E48006840F008000C490860A9
:105AA0000846006800F00800009000BF00BF012019
:105AB00001900220029000200390049002200590A3
:105AC00001A90648FDF7B2FF06B010BD0004004072
:105AD0004038024000000240000C0040002002401C
